{
  "contractName": "FilmToken",
  "abi": [
    {
      "inputs": [],
      "stateMutability": "nonpayable",
      "type": "constructor"
    },
    {
      "anonymous": false,
      "inputs": [
        {
          "indexed": true,
          "internalType": "address",
          "name": "owner",
          "type": "address"
        },
        {
          "indexed": true,
          "internalType": "address",
          "name": "approved",
          "type": "address"
        },
        {
          "indexed": true,
          "internalType": "uint256",
          "name": "tokenId",
          "type": "uint256"
        }
      ],
      "name": "Approval",
      "type": "event"
    },
    {
      "anonymous": false,
      "inputs": [
        {
          "indexed": true,
          "internalType": "address",
          "name": "owner",
          "type": "address"
        },
        {
          "indexed": true,
          "internalType": "address",
          "name": "operator",
          "type": "address"
        },
        {
          "indexed": false,
          "internalType": "bool",
          "name": "approved",
          "type": "bool"
        }
      ],
      "name": "ApprovalForAll",
      "type": "event"
    },
    {
      "anonymous": false,
      "inputs": [
        {
          "indexed": true,
          "internalType": "address",
          "name": "from",
          "type": "address"
        },
        {
          "indexed": true,
          "internalType": "address",
          "name": "to",
          "type": "address"
        },
        {
          "indexed": true,
          "internalType": "uint256",
          "name": "tokenId",
          "type": "uint256"
        }
      ],
      "name": "Transfer",
      "type": "event"
    },
    {
      "inputs": [],
      "name": "admin",
      "outputs": [
        {
          "internalType": "address",
          "name": "",
          "type": "address"
        }
      ],
      "stateMutability": "view",
      "type": "function",
      "constant": true
    },
    {
      "inputs": [
        {
          "internalType": "address",
          "name": "to",
          "type": "address"
        },
        {
          "internalType": "uint256",
          "name": "tokenId",
          "type": "uint256"
        }
      ],
      "name": "approve",
      "outputs": [],
      "stateMutability": "nonpayable",
      "type": "function"
    },
    {
      "inputs": [
        {
          "internalType": "address",
          "name": "owner",
          "type": "address"
        }
      ],
      "name": "balanceOf",
      "outputs": [
        {
          "internalType": "uint256",
          "name": "",
          "type": "uint256"
        }
      ],
      "stateMutability": "view",
      "type": "function",
      "constant": true
    },
    {
      "inputs": [
        {
          "internalType": "uint256",
          "name": "tokenId",
          "type": "uint256"
        }
      ],
      "name": "getApproved",
      "outputs": [
        {
          "internalType": "address",
          "name": "",
          "type": "address"
        }
      ],
      "stateMutability": "view",
      "type": "function",
      "constant": true
    },
    {
      "inputs": [
        {
          "internalType": "address",
          "name": "owner",
          "type": "address"
        },
        {
          "internalType": "address",
          "name": "operator",
          "type": "address"
        }
      ],
      "name": "isApprovedForAll",
      "outputs": [
        {
          "internalType": "bool",
          "name": "",
          "type": "bool"
        }
      ],
      "stateMutability": "view",
      "type": "function",
      "constant": true
    },
    {
      "inputs": [],
      "name": "name",
      "outputs": [
        {
          "internalType": "string",
          "name": "",
          "type": "string"
        }
      ],
      "stateMutability": "view",
      "type": "function",
      "constant": true
    },
    {
      "inputs": [
        {
          "internalType": "uint256",
          "name": "tokenId",
          "type": "uint256"
        }
      ],
      "name": "ownerOf",
      "outputs": [
        {
          "internalType": "address",
          "name": "",
          "type": "address"
        }
      ],
      "stateMutability": "view",
      "type": "function",
      "constant": true
    },
    {
      "inputs": [
        {
          "internalType": "address",
          "name": "from",
          "type": "address"
        },
        {
          "internalType": "address",
          "name": "to",
          "type": "address"
        },
        {
          "internalType": "uint256",
          "name": "tokenId",
          "type": "uint256"
        }
      ],
      "name": "safeTransferFrom",
      "outputs": [],
      "stateMutability": "nonpayable",
      "type": "function"
    },
    {
      "inputs": [
        {
          "internalType": "address",
          "name": "from",
          "type": "address"
        },
        {
          "internalType": "address",
          "name": "to",
          "type": "address"
        },
        {
          "internalType": "uint256",
          "name": "tokenId",
          "type": "uint256"
        },
        {
          "internalType": "bytes",
          "name": "data",
          "type": "bytes"
        }
      ],
      "name": "safeTransferFrom",
      "outputs": [],
      "stateMutability": "nonpayable",
      "type": "function"
    },
    {
      "inputs": [
        {
          "internalType": "address",
          "name": "operator",
          "type": "address"
        },
        {
          "internalType": "bool",
          "name": "approved",
          "type": "bool"
        }
      ],
      "name": "setApprovalForAll",
      "outputs": [],
      "stateMutability": "nonpayable",
      "type": "function"
    },
    {
      "inputs": [
        {
          "internalType": "bytes4",
          "name": "interfaceId",
          "type": "bytes4"
        }
      ],
      "name": "supportsInterface",
      "outputs": [
        {
          "internalType": "bool",
          "name": "",
          "type": "bool"
        }
      ],
      "stateMutability": "view",
      "type": "function",
      "constant": true
    },
    {
      "inputs": [],
      "name": "symbol",
      "outputs": [
        {
          "internalType": "string",
          "name": "",
          "type": "string"
        }
      ],
      "stateMutability": "view",
      "type": "function",
      "constant": true
    },
    {
      "inputs": [
        {
          "internalType": "uint256",
          "name": "",
          "type": "uint256"
        }
      ],
      "name": "tokenIdToTokenMap",
      "outputs": [
        {
          "internalType": "string",
          "name": "movieName",
          "type": "string"
        },
        {
          "internalType": "uint256",
          "name": "tokenId",
          "type": "uint256"
        },
        {
          "internalType": "uint256",
          "name": "basePrice",
          "type": "uint256"
        },
        {
          "internalType": "string",
          "name": "productionCompany",
          "type": "string"
        },
        {
          "internalType": "address payable",
          "name": "ownerAddr",
          "type": "address"
        },
        {
          "internalType": "uint256",
          "name": "minTime",
          "type": "uint256"
        },
        {
          "internalType": "uint256",
          "name": "maxTime",
          "type": "uint256"
        },
        {
          "internalType": "uint256",
          "name": "apprPercent",
          "type": "uint256"
        },
        {
          "internalType": "uint256",
          "name": "deprPercent",
          "type": "uint256"
        },
        {
          "internalType": "bool",
          "name": "resale",
          "type": "bool"
        }
      ],
      "stateMutability": "view",
      "type": "function",
      "constant": true
    },
    {
      "inputs": [],
      "name": "tokenIds",
      "outputs": [
        {
          "internalType": "uint256",
          "name": "_value",
          "type": "uint256"
        }
      ],
      "stateMutability": "view",
      "type": "function",
      "constant": true
    },
    {
      "inputs": [
        {
          "internalType": "uint256",
          "name": "tokenId",
          "type": "uint256"
        }
      ],
      "name": "tokenURI",
      "outputs": [
        {
          "internalType": "string",
          "name": "",
          "type": "string"
        }
      ],
      "stateMutability": "view",
      "type": "function",
      "constant": true
    },
    {
      "inputs": [
        {
          "internalType": "address",
          "name": "from",
          "type": "address"
        },
        {
          "internalType": "address",
          "name": "to",
          "type": "address"
        },
        {
          "internalType": "uint256",
          "name": "tokenId",
          "type": "uint256"
        }
      ],
      "name": "transferFrom",
      "outputs": [],
      "stateMutability": "nonpayable",
      "type": "function"
    },
    {
      "inputs": [
        {
          "internalType": "string",
          "name": "name",
          "type": "string"
        },
        {
          "internalType": "address",
          "name": "addr",
          "type": "address"
        }
      ],
      "name": "registerProductionHouse",
      "outputs": [],
      "stateMutability": "nonpayable",
      "type": "function"
    },
    {
      "inputs": [
        {
          "internalType": "string",
          "name": "movieName",
          "type": "string"
        },
        {
          "components": [
            {
              "internalType": "string",
              "name": "movieName",
              "type": "string"
            },
            {
              "internalType": "uint256",
              "name": "tokenId",
              "type": "uint256"
            },
            {
              "internalType": "uint256",
              "name": "basePrice",
              "type": "uint256"
            },
            {
              "internalType": "string",
              "name": "productionCompany",
              "type": "string"
            },
            {
              "internalType": "address payable",
              "name": "ownerAddr",
              "type": "address"
            },
            {
              "internalType": "uint256",
              "name": "minTime",
              "type": "uint256"
            },
            {
              "internalType": "uint256",
              "name": "maxTime",
              "type": "uint256"
            },
            {
              "internalType": "uint256",
              "name": "apprPercent",
              "type": "uint256"
            },
            {
              "internalType": "uint256",
              "name": "deprPercent",
              "type": "uint256"
            },
            {
              "internalType": "bool",
              "name": "resale",
              "type": "bool"
            }
          ],
          "internalType": "struct FilmToken.Token",
          "name": "input",
          "type": "tuple"
        }
      ],
      "name": "createMovieToken",
      "outputs": [],
      "stateMutability": "nonpayable",
      "type": "function"
    },
    {
      "inputs": [
        {
          "internalType": "uint256",
          "name": "dayss",
          "type": "uint256"
        },
        {
          "internalType": "string",
          "name": "movieName",
          "type": "string"
        }
      ],
      "name": "buyMovieToken",
      "outputs": [],
      "stateMutability": "payable",
      "type": "function",
      "payable": true
    },
    {
      "inputs": [
        {
          "internalType": "uint256",
          "name": "tokenId",
          "type": "uint256"
        },
        {
          "internalType": "uint256",
          "name": "value",
          "type": "uint256"
        }
      ],
      "name": "appreciateTokenValue",
      "outputs": [],
      "stateMutability": "nonpayable",
      "type": "function"
    },
    {
      "inputs": [
        {
          "internalType": "uint256",
          "name": "tokenId",
          "type": "uint256"
        },
        {
          "internalType": "uint256",
          "name": "value",
          "type": "uint256"
        }
      ],
      "name": "depreciateTokenValue",
      "outputs": [],
      "stateMutability": "nonpayable",
      "type": "function"
    },
    {
      "inputs": [
        {
          "internalType": "uint256",
          "name": "tokenId",
          "type": "uint256"
        }
      ],
      "name": "enableOrDisableResale",
      "outputs": [],
      "stateMutability": "nonpayable",
      "type": "function"
    },
    {
      "inputs": [],
      "name": "viewTokens",
      "outputs": [
        {
          "components": [
            {
              "internalType": "string",
              "name": "movieName",
              "type": "string"
            },
            {
              "internalType": "uint256",
              "name": "tokenId",
              "type": "uint256"
            },
            {
              "internalType": "uint256",
              "name": "basePrice",
              "type": "uint256"
            },
            {
              "internalType": "string",
              "name": "productionCompany",
              "type": "string"
            },
            {
              "internalType": "address payable",
              "name": "ownerAddr",
              "type": "address"
            },
            {
              "internalType": "uint256",
              "name": "minTime",
              "type": "uint256"
            },
            {
              "internalType": "uint256",
              "name": "maxTime",
              "type": "uint256"
            },
            {
              "internalType": "uint256",
              "name": "apprPercent",
              "type": "uint256"
            },
            {
              "internalType": "uint256",
              "name": "deprPercent",
              "type": "uint256"
            },
            {
              "internalType": "bool",
              "name": "resale",
              "type": "bool"
            }
          ],
          "internalType": "struct FilmToken.Token[]",
          "name": "",
          "type": "tuple[]"
        }
      ],
      "stateMutability": "view",
      "type": "function",
      "constant": true
    },
    {
      "inputs": [
        {
          "internalType": "uint256",
          "name": "x",
          "type": "uint256"
        }
      ],
      "name": "doSomething",
      "outputs": [],
      "stateMutability": "nonpayable",
      "type": "function"
    }
  ],
  "bytecode": "0x60806040523480156200001157600080fd5b506040518060400160405280601181526020017f4d6f766965546f6b656e697a6174696f6e0000000000000000000000000000008152506040518060400160405280600481526020017f4d56544b0000000000000000000000000000000000000000000000000000000081525081600090816200008f919062000365565b508060019081620000a1919062000365565b50505033600860006101000a81548173ffffffffffffffffffffffffffffffffffffffff021916908373ffffffffffffffffffffffffffffffffffffffff1602179055506200044c565b600081519050919050565b7f4e487b7100000000000000000000000000000000000000000000000000000000600052604160045260246000fd5b7f4e487b7100000000000000000000000000000000000000000000000000000000600052602260045260246000fd5b600060028204905060018216806200016d57607f821691505b60208210810362000183576200018262000125565b5b50919050565b60008190508160005260206000209050919050565b60006020601f8301049050919050565b600082821b905092915050565b600060088302620001ed7fffffffffffffffffffffffffffffffffffffffffffffffffffffffffffffffff82620001ae565b620001f98683620001ae565b95508019841693508086168417925050509392505050565b6000819050919050565b6000819050919050565b600062000246620002406200023a8462000211565b6200021b565b62000211565b9050919050565b6000819050919050565b620002628362000225565b6200027a62000271826200024d565b848454620001bb565b825550505050565b600090565b6200029162000282565b6200029e81848462000257565b505050565b5b81811015620002c657620002ba60008262000287565b600181019050620002a4565b5050565b601f8211156200031557620002df8162000189565b620002ea846200019e565b81016020851015620002fa578190505b6200031262000309856200019e565b830182620002a3565b50505b505050565b600082821c905092915050565b60006200033a600019846008026200031a565b1980831691505092915050565b600062000355838362000327565b9150826002028217905092915050565b6200037082620000eb565b67ffffffffffffffff8111156200038c576200038b620000f6565b5b62000398825462000154565b620003a5828285620002ca565b600060209050601f831160018114620003dd5760008415620003c8578287015190505b620003d4858262000347565b86555062000444565b601f198416620003ed8662000189565b60005b828110156200041757848901518255600182019150602085019450602081019050620003f0565b8683101562000437578489015162000433601f89168262000327565b8355505b6001600288020188555050505b505050505050565b614c8d806200045c6000396000f3fe60806040526004361061014b5760003560e01c806394abe53c116100b6578063c87b56dd1161006f578063c87b56dd1461049a578063ca99cc3e146104d7578063dd7072f614610500578063e985e9c514610529578063f851a44014610566578063f907b4a6146105915761014b565b806394abe53c1461038557806395d89b41146103ae578063a22cb465146103d9578063a6b206bf14610402578063b88d4fde1461042b578063c3aee736146104545761014b565b806342842e0e1161010857806342842e0e146102705780634bf5bf351461029957806357a3106b146102c45780636352211e146102e057806370a082311461031d578063714cff561461035a5761014b565b806301ffc9a71461015057806306fdde031461018d578063081812fc146101b8578063095ea7b3146101f557806323b872dd1461021e57806337c4f46714610247575b600080fd5b34801561015c57600080fd5b5061017760048036038101906101729190613065565b6105ba565b60405161018491906130ad565b60405180910390f35b34801561019957600080fd5b506101a261069c565b6040516101af9190613158565b60405180910390f35b3480156101c457600080fd5b506101df60048036038101906101da91906131b0565b61072e565b6040516101ec919061321e565b60405180910390f35b34801561020157600080fd5b5061021c60048036038101906102179190613265565b610774565b005b34801561022a57600080fd5b50610245600480360381019061024091906132a5565b61088b565b005b34801561025357600080fd5b5061026e6004803603810190610269919061342d565b6108eb565b005b34801561027c57600080fd5b50610297600480360381019061029291906132a5565b6109d2565b005b3480156102a557600080fd5b506102ae6109f2565b6040516102bb91906136b5565b60405180910390f35b6102de60048036038101906102d991906136d7565b610d05565b005b3480156102ec57600080fd5b50610307600480360381019061030291906131b0565b611341565b604051610314919061321e565b60405180910390f35b34801561032957600080fd5b50610344600480360381019061033f9190613733565b6113c7565b604051610351919061376f565b60405180910390f35b34801561036657600080fd5b5061036f61147e565b60405161037c919061376f565b60405180910390f35b34801561039157600080fd5b506103ac60048036038101906103a7919061391a565b61148a565b005b3480156103ba57600080fd5b506103c3611ab8565b6040516103d09190613158565b60405180910390f35b3480156103e557600080fd5b5061040060048036038101906103fb9190613992565b611b4a565b005b34801561040e57600080fd5b50610429600480360381019061042491906131b0565b611b60565b005b34801561043757600080fd5b50610452600480360381019061044d9190613a73565b611ba6565b005b34801561046057600080fd5b5061047b600480360381019061047691906131b0565b611c08565b6040516104919a99989796959493929190613b05565b60405180910390f35b3480156104a657600080fd5b506104c160048036038101906104bc91906131b0565b611d99565b6040516104ce9190613158565b60405180910390f35b3480156104e357600080fd5b506104fe60048036038101906104f991906131b0565b611e01565b005b34801561050c57600080fd5b5061052760048036038101906105229190613baf565b611f3a565b005b34801561053557600080fd5b50610550600480360381019061054b9190613bef565b61200e565b60405161055d91906130ad565b60405180910390f35b34801561057257600080fd5b5061057b6120a2565b604051610588919061321e565b60405180910390f35b34801561059d57600080fd5b506105b860048036038101906105b39190613baf565b6120c8565b005b60007f80ac58cd000000000000000000000000000000000000000000000000000000007bffffffffffffffffffffffffffffffffffffffffffffffffffffffff1916827bffffffffffffffffffffffffffffffffffffffffffffffffffffffff1916148061068557507f5b5e139f000000000000000000000000000000000000000000000000000000007bffffffffffffffffffffffffffffffffffffffffffffffffffffffff1916827bffffffffffffffffffffffffffffffffffffffffffffffffffffffff1916145b8061069557506106948261219c565b5b9050919050565b6060600080546106ab90613c5e565b80601f01602080910402602001604051908101604052809291908181526020018280546106d790613c5e565b80156107245780601f106106f957610100808354040283529160200191610724565b820191906000526020600020905b81548152906001019060200180831161070757829003601f168201915b5050505050905090565b600061073982612206565b6004600083815260200190815260200160002060009054906101000a900473ffffffffffffffffffffffffffffffffffffffff169050919050565b600061077f82611341565b90508073ffffffffffffffffffffffffffffffffffffffff168373ffffffffffffffffffffffffffffffffffffffff16036107ef576040517f08c379a00000000000000000000000000000000000000000000000000000000081526004016107e690613d01565b60405180910390fd5b8073ffffffffffffffffffffffffffffffffffffffff1661080e612251565b73ffffffffffffffffffffffffffffffffffffffff16148061083d575061083c81610837612251565b61200e565b5b61087c576040517f08c379a000000000000000000000000000000000000000000000000000000000815260040161087390613d93565b60405180910390fd5b6108868383612259565b505050565b61089c610896612251565b82612312565b6108db576040517f08c379a00000000000000000000000000000000000000000000000000000000081526004016108d290613e25565b60405180910390fd5b6108e68383836123a7565b505050565b33600080600a60008473ffffffffffffffffffffffffffffffffffffffff1673ffffffffffffffffffffffffffffffffffffffff168152602001908152602001600020805461093990613c5e565b9050119050801561097f576040517f08c379a000000000000000000000000000000000000000000000000000000000815260040161097690613e91565b60405180910390fd5b83600a60008573ffffffffffffffffffffffffffffffffffffffff1673ffffffffffffffffffffffffffffffffffffffff16815260200190815260200160002090816109cb919061405d565b5050505050565b6109ed83838360405180602001604052806000815250611ba6565b505050565b6060600060078054905067ffffffffffffffff811115610a1557610a14613302565b5b604051908082528060200260200182016040528015610a4e57816020015b610a3b612f8e565b815260200190600190039081610a335790505b5090506000805b610a5f60066126a0565b8111610cfc573373ffffffffffffffffffffffffffffffffffffffff166009600083815260200190815260200160002060040160009054906101000a900473ffffffffffffffffffffffffffffffffffffffff1673ffffffffffffffffffffffffffffffffffffffff1603610ce9576009600082815260200190815260200160002060405180610140016040529081600082018054610afd90613c5e565b80601f0160208091040260200160405190810160405280929190818152602001828054610b2990613c5e565b8015610b765780601f10610b4b57610100808354040283529160200191610b76565b820191906000526020600020905b815481529060010190602001808311610b5957829003601f168201915b505050505081526020016001820154815260200160028201548152602001600382018054610ba390613c5e565b80601f0160208091040260200160405190810160405280929190818152602001828054610bcf90613c5e565b8015610c1c5780601f10610bf157610100808354040283529160200191610c1c565b820191906000526020600020905b815481529060010190602001808311610bff57829003601f168201915b505050505081526020016004820160009054906101000a900473ffffffffffffffffffffffffffffffffffffffff1673ffffffffffffffffffffffffffffffffffffffff1673ffffffffffffffffffffffffffffffffffffffff168152602001600582015481526020016006820154815260200160078201548152602001600882015481526020016009820160009054906101000a900460ff161515151581525050838380610cca9061415e565b945081518110610cdd57610cdc6141a6565b5b60200260200101819052505b8080610cf49061415e565b915050610a55565b50819250505090565b806000805b600780549050811015610daa5782604051602001610d289190614211565b6040516020818303038152906040528051906020012060078281548110610d5257610d516141a6565b5b90600052602060002090600a0201600001604051602001610d7391906142ab565b6040516020818303038152906040528051906020012003610d975760019150610daa565b8080610da29061415e565b915050610d0a565b5080610deb576040517f08c379a0000000000000000000000000000000000000000000000000000000008152600401610de290614334565b60405180910390fd5b6000600b84604051610dfd9190614211565b908152602001604051809103902054905060006009600083815260200190815260200160002060405180610140016040529081600082018054610e3f90613c5e565b80601f0160208091040260200160405190810160405280929190818152602001828054610e6b90613c5e565b8015610eb85780601f10610e8d57610100808354040283529160200191610eb8565b820191906000526020600020905b815481529060010190602001808311610e9b57829003601f168201915b505050505081526020016001820154815260200160028201548152602001600382018054610ee590613c5e565b80601f0160208091040260200160405190810160405280929190818152602001828054610f1190613c5e565b8015610f5e5780601f10610f3357610100808354040283529160200191610f5e565b820191906000526020600020905b815481529060010190602001808311610f4157829003601f168201915b505050505081526020016004820160009054906101000a900473ffffffffffffffffffffffffffffffffffffffff1673ffffffffffffffffffffffffffffffffffffffff1673ffffffffffffffffffffffffffffffffffffffff168152602001600582015481526020016006820154815260200160078201548152602001600882015481526020016009820160009054906101000a900460ff16151515158152505090506001151581610120015115151461104e576040517f08c379a0000000000000000000000000000000000000000000000000000000008152600401611045906143c6565b60405180910390fd5b60008160400151905060008260a00151905060008360c001519050600083905060008a101561110557828a11156110d65760648560e001516110909190614415565b8161109b9190614446565b816110a69190614488565b905060648560e001516110b99190614415565b816110c49190614446565b816110cf9190614488565b9050611100565b60648560e001516110e79190614415565b816110f29190614446565b816110fd9190614488565b90505b611199565b60008a111561119857818a111561116d5760648560e001516111279190614415565b816111329190614446565b8161113d91906144bc565b905060648560e001516111509190614415565b8161115b9190614446565b8161116691906144bc565b9050611197565b60648560e0015161117e9190614415565b816111899190614446565b8161119491906144bc565b90505b5b5b846080015173ffffffffffffffffffffffffffffffffffffffff166108fc349081150290604051600060405180830381858888f193505050501580156111e3573d6000803e3d6000fd5b5033856080019073ffffffffffffffffffffffffffffffffffffffff16908173ffffffffffffffffffffffffffffffffffffffff168152505033600c600088815260200190815260200160002060006101000a81548173ffffffffffffffffffffffffffffffffffffffff021916908373ffffffffffffffffffffffffffffffffffffffff16021790555060008561012001901515908115158152505060005b6007805490508110156113345786600782815481106112a5576112a46141a6565b5b90600052602060002090600a020160010154036113215733600782815481106112d1576112d06141a6565b5b90600052602060002090600a020160040160006101000a81548173ffffffffffffffffffffffffffffffffffffffff021916908373ffffffffffffffffffffffffffffffffffffffff1602179055505b808061132c9061415e565b915050611283565b5050505050505050505050565b60008061134d836126ae565b9050600073ffffffffffffffffffffffffffffffffffffffff168173ffffffffffffffffffffffffffffffffffffffff16036113be576040517f08c379a00000000000000000000000000000000000000000000000000000000081526004016113b59061453c565b60405180910390fd5b80915050919050565b60008073ffffffffffffffffffffffffffffffffffffffff168273ffffffffffffffffffffffffffffffffffffffff1603611437576040517f08c379a000000000000000000000000000000000000000000000000000000000815260040161142e906145ce565b60405180910390fd5b600360008373ffffffffffffffffffffffffffffffffffffffff1673ffffffffffffffffffffffffffffffffffffffff168152602001908152602001600020549050919050565b60068060000154905081565b33600080600a60008473ffffffffffffffffffffffffffffffffffffffff1673ffffffffffffffffffffffffffffffffffffffff16815260200190815260200160002080546114d890613c5e565b90501190508061151d576040517f08c379a000000000000000000000000000000000000000000000000000000000815260040161151490614660565b60405180910390fd5b836000805b6007805490508110156115c257826040516020016115409190614211565b604051602081830303815290604052805190602001206007828154811061156a576115696141a6565b5b90600052602060002090600a020160000160405160200161158b91906142ab565b60405160208183030381529060405280519060200120036115af57600191506115c2565b80806115ba9061415e565b915050611522565b508015611604576040517f08c379a00000000000000000000000000000000000000000000000000000000081526004016115fb906146f2565b60405180910390fd5b8460a001518560c0015180821115801561161e5750600082115b801561162a5750600081115b611669576040517f08c379a00000000000000000000000000000000000000000000000000000000081526004016116609061475e565b60405180910390fd5b8660e001518761010001518082111580156116845750600082115b80156116905750600081115b6116cf576040517f08c379a00000000000000000000000000000000000000000000000000000000081526004016116c69061475e565b60405180910390fd5b60006040518061014001604052808c81526020016116ed60066126a0565b81526020018b604001518152602001600a60003373ffffffffffffffffffffffffffffffffffffffff1673ffffffffffffffffffffffffffffffffffffffff168152602001908152602001600020805461174690613c5e565b80601f016020809104026020016040519081016040528092919081815260200182805461177290613c5e565b80156117bf5780601f10611794576101008083540402835291602001916117bf565b820191906000526020600020905b8154815290600101906020018083116117a257829003601f168201915b505050505081526020013373ffffffffffffffffffffffffffffffffffffffff1681526020018b60a0015181526020018b60c0015181526020018b60e0015181526020018b6101000151815260200160011515815250905061182160066126a0565b600b8c6040516118319190614211565b908152602001604051809103902081905550806009600061185260066126a0565b81526020019081526020016000206000820151816000019081611875919061405d565b506020820151816001015560408201518160020155606082015181600301908161189f919061405d565b5060808201518160040160006101000a81548173ffffffffffffffffffffffffffffffffffffffff021916908373ffffffffffffffffffffffffffffffffffffffff16021790555060a0820151816005015560c0820151816006015560e0820151816007015561010082015181600801556101208201518160090160006101000a81548160ff02191690831515021790555090505033600c600061194360066126a0565b815260200190815260200160002060006101000a81548173ffffffffffffffffffffffffffffffffffffffff021916908373ffffffffffffffffffffffffffffffffffffffff1602179055506119a23361199d60066126a0565b6126eb565b6119ac6006612709565b60078190806001815401808255809150506001900390600052602060002090600a020160009091909190915060008201518160000190816119ed919061405d565b5060208201518160010155604082015181600201556060820151816003019081611a17919061405d565b5060808201518160040160006101000a81548173ffffffffffffffffffffffffffffffffffffffff021916908373ffffffffffffffffffffffffffffffffffffffff16021790555060a0820151816005015560c0820151816006015560e0820151816007015561010082015181600801556101208201518160090160006101000a81548160ff02191690831515021790555050505050505050505050505050565b606060018054611ac790613c5e565b80601f0160208091040260200160405190810160405280929190818152602001828054611af390613c5e565b8015611b405780601f10611b1557610100808354040283529160200191611b40565b820191906000526020600020905b815481529060010190602001808311611b2357829003601f168201915b5050505050905090565b611b5c611b55612251565b838361271f565b5050565b60008103611ba3576040517f08c379a0000000000000000000000000000000000000000000000000000000008152600401611b9a906147ca565b60405180910390fd5b50565b611bb7611bb1612251565b83612312565b611bf6576040517f08c379a0000000000000000000000000000000000000000000000000000000008152600401611bed90613e25565b60405180910390fd5b611c028484848461288b565b50505050565b6009602052806000526040600020600091509050806000018054611c2b90613c5e565b80601f0160208091040260200160405190810160405280929190818152602001828054611c5790613c5e565b8015611ca45780601f10611c7957610100808354040283529160200191611ca4565b820191906000526020600020905b815481529060010190602001808311611c8757829003601f168201915b505050505090806001015490806002015490806003018054611cc590613c5e565b80601f0160208091040260200160405190810160405280929190818152602001828054611cf190613c5e565b8015611d3e5780601f10611d1357610100808354040283529160200191611d3e565b820191906000526020600020905b815481529060010190602001808311611d2157829003601f168201915b5050505050908060040160009054906101000a900473ffffffffffffffffffffffffffffffffffffffff16908060050154908060060154908060070154908060080154908060090160009054906101000a900460ff1690508a565b6060611da482612206565b6000611dae6128e7565b90506000815111611dce5760405180602001604052806000815250611df9565b80611dd8846128fe565b604051602001611de99291906147ea565b6040516020818303038152906040525b915050919050565b803373ffffffffffffffffffffffffffffffffffffffff16600c600083815260200190815260200160002060009054906101000a900473ffffffffffffffffffffffffffffffffffffffff1673ffffffffffffffffffffffffffffffffffffffff1614611ea3576040517f08c379a0000000000000000000000000000000000000000000000000000000008152600401611e9a9061485a565b60405180910390fd5b600115156009600084815260200190815260200160002060090160009054906101000a900460ff16151503611f065760006009600084815260200190815260200160002060090160006101000a81548160ff021916908315150217905550611f36565b60016009600084815260200190815260200160002060090160006101000a81548160ff0219169083151502179055505b5050565b813373ffffffffffffffffffffffffffffffffffffffff16600c600083815260200190815260200160002060009054906101000a900473ffffffffffffffffffffffffffffffffffffffff1673ffffffffffffffffffffffffffffffffffffffff1614611fdc576040517f08c379a0000000000000000000000000000000000000000000000000000000008152600401611fd39061485a565b60405180910390fd5b816009600085815260200190815260200160002060020160008282546120029190614488565b92505081905550505050565b6000600560008473ffffffffffffffffffffffffffffffffffffffff1673ffffffffffffffffffffffffffffffffffffffff16815260200190815260200160002060008373ffffffffffffffffffffffffffffffffffffffff1673ffffffffffffffffffffffffffffffffffffffff16815260200190815260200160002060009054906101000a900460ff16905092915050565b600860009054906101000a900473ffffffffffffffffffffffffffffffffffffffff1681565b813373ffffffffffffffffffffffffffffffffffffffff16600c600083815260200190815260200160002060009054906101000a900473ffffffffffffffffffffffffffffffffffffffff1673ffffffffffffffffffffffffffffffffffffffff161461216a576040517f08c379a00000000000000000000000000000000000000000000000000000000081526004016121619061485a565b60405180910390fd5b8160096000858152602001908152602001600020600201600082825461219091906144bc565b92505081905550505050565b60007f01ffc9a7000000000000000000000000000000000000000000000000000000007bffffffffffffffffffffffffffffffffffffffffffffffffffffffff1916827bffffffffffffffffffffffffffffffffffffffffffffffffffffffff1916149050919050565b61220f816129cc565b61224e576040517f08c379a00000000000000000000000000000000000000000000000000000000081526004016122459061453c565b60405180910390fd5b50565b600033905090565b816004600083815260200190815260200160002060006101000a81548173ffffffffffffffffffffffffffffffffffffffff021916908373ffffffffffffffffffffffffffffffffffffffff160217905550808273ffffffffffffffffffffffffffffffffffffffff166122cc83611341565b73ffffffffffffffffffffffffffffffffffffffff167f8c5be1e5ebec7d5bd14f71427d1e84f3dd0314c0f7b2291e5b200ac8c7c3b92560405160405180910390a45050565b60008061231e83611341565b90508073ffffffffffffffffffffffffffffffffffffffff168473ffffffffffffffffffffffffffffffffffffffff161480612360575061235f818561200e565b5b8061239e57508373ffffffffffffffffffffffffffffffffffffffff166123868461072e565b73ffffffffffffffffffffffffffffffffffffffff16145b91505092915050565b8273ffffffffffffffffffffffffffffffffffffffff166123c782611341565b73ffffffffffffffffffffffffffffffffffffffff161461241d576040517f08c379a0000000000000000000000000000000000000000000000000000000008152600401612414906148ec565b60405180910390fd5b600073ffffffffffffffffffffffffffffffffffffffff168273ffffffffffffffffffffffffffffffffffffffff160361248c576040517f08c379a00000000000000000000000000000000000000000000000000000000081526004016124839061497e565b60405180910390fd5b6124998383836001612a0d565b8273ffffffffffffffffffffffffffffffffffffffff166124b982611341565b73ffffffffffffffffffffffffffffffffffffffff161461250f576040517f08c379a0000000000000000000000000000000000000000000000000000000008152600401612506906148ec565b60405180910390fd5b6004600082815260200190815260200160002060006101000a81549073ffffffffffffffffffffffffffffffffffffffff02191690556001600360008573ffffffffffffffffffffffffffffffffffffffff1673ffffffffffffffffffffffffffffffffffffffff168152602001908152602001600020600082825403925050819055506001600360008473ffffffffffffffffffffffffffffffffffffffff1673ffffffffffffffffffffffffffffffffffffffff16815260200190815260200160002060008282540192505081905550816002600083815260200190815260200160002060006101000a81548173ffffffffffffffffffffffffffffffffffffffff021916908373ffffffffffffffffffffffffffffffffffffffff160217905550808273ffffffffffffffffffffffffffffffffffffffff168473ffffffffffffffffffffffffffffffffffffffff167fddf252ad1be2c89b69c2b068fc378daa952ba7f163c4a11628f55a4df523b3ef60405160405180910390a461269b8383836001612a13565b505050565b600081600001549050919050565b60006002600083815260200190815260200160002060009054906101000a900473ffffffffffffffffffffffffffffffffffffffff169050919050565b612705828260405180602001604052806000815250612a19565b5050565b6001816000016000828254019250508190555050565b8173ffffffffffffffffffffffffffffffffffffffff168373ffffffffffffffffffffffffffffffffffffffff160361278d576040517f08c379a0000000000000000000000000000000000000000000000000000000008152600401612784906149ea565b60405180910390fd5b80600560008573ffffffffffffffffffffffffffffffffffffffff1673ffffffffffffffffffffffffffffffffffffffff16815260200190815260200160002060008473ffffffffffffffffffffffffffffffffffffffff1673ffffffffffffffffffffffffffffffffffffffff16815260200190815260200160002060006101000a81548160ff0219169083151502179055508173ffffffffffffffffffffffffffffffffffffffff168373ffffffffffffffffffffffffffffffffffffffff167f17307eab39ab6107e8899845ad3d59bd9653f200f220920489ca2b5937696c318360405161287e91906130ad565b60405180910390a3505050565b6128968484846123a7565b6128a284848484612a74565b6128e1576040517f08c379a00000000000000000000000000000000000000000000000000000000081526004016128d890614a7c565b60405180910390fd5b50505050565b606060405180602001604052806000815250905090565b60606000600161290d84612bfb565b01905060008167ffffffffffffffff81111561292c5761292b613302565b5b6040519080825280601f01601f19166020018201604052801561295e5781602001600182028036833780820191505090505b509050600082602001820190505b6001156129c1578080600190039150507f3031323334353637383961626364656600000000000000000000000000000000600a86061a8153600a85816129b5576129b46143e6565b5b0494506000850361296c575b819350505050919050565b60008073ffffffffffffffffffffffffffffffffffffffff166129ee836126ae565b73ffffffffffffffffffffffffffffffffffffffff1614159050919050565b50505050565b50505050565b612a238383612d4e565b612a306000848484612a74565b612a6f576040517f08c379a0000000000000000000000000000000000000000000000000000000008152600401612a6690614a7c565b60405180910390fd5b505050565b6000612a958473ffffffffffffffffffffffffffffffffffffffff16612f6b565b15612bee578373ffffffffffffffffffffffffffffffffffffffff1663150b7a02612abe612251565b8786866040518563ffffffff1660e01b8152600401612ae09493929190614af1565b6020604051808303816000875af1925050508015612b1c57506040513d601f19601f82011682018060405250810190612b199190614b52565b60015b612b9e573d8060008114612b4c576040519150601f19603f3d011682016040523d82523d6000602084013e612b51565b606091505b506000815103612b96576040517f08c379a0000000000000000000000000000000000000000000000000000000008152600401612b8d90614a7c565b60405180910390fd5b805181602001fd5b63150b7a0260e01b7bffffffffffffffffffffffffffffffffffffffffffffffffffffffff1916817bffffffffffffffffffffffffffffffffffffffffffffffffffffffff191614915050612bf3565b600190505b949350505050565b600080600090507a184f03e93ff9f4daa797ed6e38ed64bf6a1f0100000000000000008310612c59577a184f03e93ff9f4daa797ed6e38ed64bf6a1f0100000000000000008381612c4f57612c4e6143e6565b5b0492506040810190505b6d04ee2d6d415b85acef81000000008310612c96576d04ee2d6d415b85acef81000000008381612c8c57612c8b6143e6565b5b0492506020810190505b662386f26fc100008310612cc557662386f26fc100008381612cbb57612cba6143e6565b5b0492506010810190505b6305f5e1008310612cee576305f5e1008381612ce457612ce36143e6565b5b0492506008810190505b6127108310612d13576127108381612d0957612d086143e6565b5b0492506004810190505b60648310612d365760648381612d2c57612d2b6143e6565b5b0492506002810190505b600a8310612d45576001810190505b80915050919050565b600073ffffffffffffffffffffffffffffffffffffffff168273ffffffffffffffffffffffffffffffffffffffff1603612dbd576040517f08c379a0000000000000000000000000000000000000000000000000000000008152600401612db490614bcb565b60405180910390fd5b612dc6816129cc565b15612e06576040517f08c379a0000000000000000000000000000000000000000000000000000000008152600401612dfd90614c37565b60405180910390fd5b612e14600083836001612a0d565b612e1d816129cc565b15612e5d576040517f08c379a0000000000000000000000000000000000000000000000000000000008152600401612e5490614c37565b60405180910390fd5b6001600360008473ffffffffffffffffffffffffffffffffffffffff1673ffffffffffffffffffffffffffffffffffffffff16815260200190815260200160002060008282540192505081905550816002600083815260200190815260200160002060006101000a81548173ffffffffffffffffffffffffffffffffffffffff021916908373ffffffffffffffffffffffffffffffffffffffff160217905550808273ffffffffffffffffffffffffffffffffffffffff16600073ffffffffffffffffffffffffffffffffffffffff167fddf252ad1be2c89b69c2b068fc378daa952ba7f163c4a11628f55a4df523b3ef60405160405180910390a4612f67600083836001612a13565b5050565b6000808273ffffffffffffffffffffffffffffffffffffffff163b119050919050565b60405180610140016040528060608152602001600081526020016000815260200160608152602001600073ffffffffffffffffffffffffffffffffffffffff168152602001600081526020016000815260200160008152602001600081526020016000151581525090565b6000604051905090565b600080fd5b600080fd5b60007fffffffff0000000000000000000000000000000000000000000000000000000082169050919050565b6130428161300d565b811461304d57600080fd5b50565b60008135905061305f81613039565b92915050565b60006020828403121561307b5761307a613003565b5b600061308984828501613050565b91505092915050565b60008115159050919050565b6130a781613092565b82525050565b60006020820190506130c2600083018461309e565b92915050565b600081519050919050565b600082825260208201905092915050565b60005b838110156131025780820151818401526020810190506130e7565b60008484015250505050565b6000601f19601f8301169050919050565b600061312a826130c8565b61313481856130d3565b93506131448185602086016130e4565b61314d8161310e565b840191505092915050565b60006020820190508181036000830152613172818461311f565b905092915050565b6000819050919050565b61318d8161317a565b811461319857600080fd5b50565b6000813590506131aa81613184565b92915050565b6000602082840312156131c6576131c5613003565b5b60006131d48482850161319b565b91505092915050565b600073ffffffffffffffffffffffffffffffffffffffff82169050919050565b6000613208826131dd565b9050919050565b613218816131fd565b82525050565b6000602082019050613233600083018461320f565b92915050565b613242816131fd565b811461324d57600080fd5b50565b60008135905061325f81613239565b92915050565b6000806040838503121561327c5761327b613003565b5b600061328a85828601613250565b925050602061329b8582860161319b565b9150509250929050565b6000806000606084860312156132be576132bd613003565b5b60006132cc86828701613250565b93505060206132dd86828701613250565b92505060406132ee8682870161319b565b9150509250925092565b600080fd5b600080fd5b7f4e487b7100000000000000000000000000000000000000000000000000000000600052604160045260246000fd5b61333a8261310e565b810181811067ffffffffffffffff8211171561335957613358613302565b5b80604052505050565b600061336c612ff9565b90506133788282613331565b919050565b600067ffffffffffffffff82111561339857613397613302565b5b6133a18261310e565b9050602081019050919050565b82818337600083830152505050565b60006133d06133cb8461337d565b613362565b9050828152602081018484840111156133ec576133eb6132fd565b5b6133f78482856133ae565b509392505050565b600082601f830112613414576134136132f8565b5b81356134248482602086016133bd565b91505092915050565b6000806040838503121561344457613443613003565b5b600083013567ffffffffffffffff81111561346257613461613008565b5b61346e858286016133ff565b925050602061347f85828601613250565b9150509250929050565b600081519050919050565b600082825260208201905092915050565b6000819050602082019050919050565b600082825260208201905092915050565b60006134d1826130c8565b6134db81856134b5565b93506134eb8185602086016130e4565b6134f48161310e565b840191505092915050565b6135088161317a565b82525050565b6000613519826131dd565b9050919050565b6135298161350e565b82525050565b61353881613092565b82525050565b600061014083016000830151848203600086015261355c82826134c6565b915050602083015161357160208601826134ff565b50604083015161358460408601826134ff565b506060830151848203606086015261359c82826134c6565b91505060808301516135b16080860182613520565b5060a08301516135c460a08601826134ff565b5060c08301516135d760c08601826134ff565b5060e08301516135ea60e08601826134ff565b506101008301516135ff6101008601826134ff565b5061012083015161361461012086018261352f565b508091505092915050565b600061362b838361353e565b905092915050565b6000602082019050919050565b600061364b82613489565b6136558185613494565b935083602082028501613667856134a5565b8060005b858110156136a35784840389528151613684858261361f565b945061368f83613633565b925060208a0199505060018101905061366b565b50829750879550505050505092915050565b600060208201905081810360008301526136cf8184613640565b905092915050565b600080604083850312156136ee576136ed613003565b5b60006136fc8582860161319b565b925050602083013567ffffffffffffffff81111561371d5761371c613008565b5b613729858286016133ff565b9150509250929050565b60006020828403121561374957613748613003565b5b600061375784828501613250565b91505092915050565b6137698161317a565b82525050565b60006020820190506137846000830184613760565b92915050565b600080fd5b600080fd5b61379d8161350e565b81146137a857600080fd5b50565b6000813590506137ba81613794565b92915050565b6137c981613092565b81146137d457600080fd5b50565b6000813590506137e6816137c0565b92915050565b600061014082840312156138035761380261378a565b5b61380e610140613362565b9050600082013567ffffffffffffffff81111561382e5761382d61378f565b5b61383a848285016133ff565b600083015250602061384e8482850161319b565b60208301525060406138628482850161319b565b604083015250606082013567ffffffffffffffff8111156138865761388561378f565b5b613892848285016133ff565b60608301525060806138a6848285016137ab565b60808301525060a06138ba8482850161319b565b60a08301525060c06138ce8482850161319b565b60c08301525060e06138e28482850161319b565b60e0830152506101006138f78482850161319b565b6101008301525061012061390d848285016137d7565b6101208301525092915050565b6000806040838503121561393157613930613003565b5b600083013567ffffffffffffffff81111561394f5761394e613008565b5b61395b858286016133ff565b925050602083013567ffffffffffffffff81111561397c5761397b613008565b5b613988858286016137ec565b9150509250929050565b600080604083850312156139a9576139a8613003565b5b60006139b785828601613250565b92505060206139c8858286016137d7565b9150509250929050565b600067ffffffffffffffff8211156139ed576139ec613302565b5b6139f68261310e565b9050602081019050919050565b6000613a16613a11846139d2565b613362565b905082815260208101848484011115613a3257613a316132fd565b5b613a3d8482856133ae565b509392505050565b600082601f830112613a5a57613a596132f8565b5b8135613a6a848260208601613a03565b91505092915050565b60008060008060808587031215613a8d57613a8c613003565b5b6000613a9b87828801613250565b9450506020613aac87828801613250565b9350506040613abd8782880161319b565b925050606085013567ffffffffffffffff811115613ade57613add613008565b5b613aea87828801613a45565b91505092959194509250565b613aff8161350e565b82525050565b6000610140820190508181036000830152613b20818d61311f565b9050613b2f602083018c613760565b613b3c604083018b613760565b8181036060830152613b4e818a61311f565b9050613b5d6080830189613af6565b613b6a60a0830188613760565b613b7760c0830187613760565b613b8460e0830186613760565b613b92610100830185613760565b613ba061012083018461309e565b9b9a5050505050505050505050565b60008060408385031215613bc657613bc5613003565b5b6000613bd48582860161319b565b9250506020613be58582860161319b565b9150509250929050565b60008060408385031215613c0657613c05613003565b5b6000613c1485828601613250565b9250506020613c2585828601613250565b9150509250929050565b7f4e487b7100000000000000000000000000000000000000000000000000000000600052602260045260246000fd5b60006002820490506001821680613c7657607f821691505b602082108103613c8957613c88613c2f565b5b50919050565b7f4552433732313a20617070726f76616c20746f2063757272656e74206f776e6560008201527f7200000000000000000000000000000000000000000000000000000000000000602082015250565b6000613ceb6021836130d3565b9150613cf682613c8f565b604082019050919050565b60006020820190508181036000830152613d1a81613cde565b9050919050565b7f4552433732313a20617070726f76652063616c6c6572206973206e6f7420746f60008201527f6b656e206f776e6572206f7220617070726f76656420666f7220616c6c000000602082015250565b6000613d7d603d836130d3565b9150613d8882613d21565b604082019050919050565b60006020820190508181036000830152613dac81613d70565b9050919050565b7f4552433732313a2063616c6c6572206973206e6f7420746f6b656e206f776e6560008201527f72206f7220617070726f76656400000000000000000000000000000000000000602082015250565b6000613e0f602d836130d3565b9150613e1a82613db3565b604082019050919050565b60006020820190508181036000830152613e3e81613e02565b9050919050565b7f4475706c69636174652050726f64756374696f6e20486f757365000000000000600082015250565b6000613e7b601a836130d3565b9150613e8682613e45565b602082019050919050565b60006020820190508181036000830152613eaa81613e6e565b9050919050565b60008190508160005260206000209050919050565b60006020601f8301049050919050565b600082821b905092915050565b600060088302613f137fffffffffffffffffffffffffffffffffffffffffffffffffffffffffffffffff82613ed6565b613f1d8683613ed6565b95508019841693508086168417925050509392505050565b6000819050919050565b6000613f5a613f55613f508461317a565b613f35565b61317a565b9050919050565b6000819050919050565b613f7483613f3f565b613f88613f8082613f61565b848454613ee3565b825550505050565b600090565b613f9d613f90565b613fa8818484613f6b565b505050565b5b81811015613fcc57613fc1600082613f95565b600181019050613fae565b5050565b601f82111561401157613fe281613eb1565b613feb84613ec6565b81016020851015613ffa578190505b61400e61400685613ec6565b830182613fad565b50505b505050565b600082821c905092915050565b600061403460001984600802614016565b1980831691505092915050565b600061404d8383614023565b9150826002028217905092915050565b614066826130c8565b67ffffffffffffffff81111561407f5761407e613302565b5b6140898254613c5e565b614094828285613fd0565b600060209050601f8311600181146140c757600084156140b5578287015190505b6140bf8582614041565b865550614127565b601f1984166140d586613eb1565b60005b828110156140fd578489015182556001820191506020850194506020810190506140d8565b8683101561411a5784890151614116601f891682614023565b8355505b6001600288020188555050505b505050505050565b7f4e487b7100000000000000000000000000000000000000000000000000000000600052601160045260246000fd5b60006141698261317a565b91507fffffffffffffffffffffffffffffffffffffffffffffffffffffffffffffffff820361419b5761419a61412f565b5b600182019050919050565b7f4e487b7100000000000000000000000000000000000000000000000000000000600052603260045260246000fd5b600081905092915050565b60006141eb826130c8565b6141f581856141d5565b93506142058185602086016130e4565b80840191505092915050565b600061421d82846141e0565b915081905092915050565b6000815461423581613c5e565b61423f81866141d5565b9450600182166000811461425a576001811461426f576142a2565b60ff19831686528115158202860193506142a2565b61427885613eb1565b60005b8381101561429a5781548189015260018201915060208101905061427b565b838801955050505b50505092915050565b60006142b78284614228565b915081905092915050565b7f4120746f6b656e206973206e6f742070726573656e7420666f7220746869732060008201527f6d6f766965000000000000000000000000000000000000000000000000000000602082015250565b600061431e6025836130d3565b9150614329826142c2565b604082019050919050565b6000602082019050818103600083015261434d81614311565b9050919050565b7f526573616c65206973206e6f7420616c6c6f77656420666f722074686973206d60008201527f6f76696500000000000000000000000000000000000000000000000000000000602082015250565b60006143b06024836130d3565b91506143bb82614354565b604082019050919050565b600060208201905081810360008301526143df816143a3565b9050919050565b7f4e487b7100000000000000000000000000000000000000000000000000000000600052601260045260246000fd5b60006144208261317a565b915061442b8361317a565b92508261443b5761443a6143e6565b5b828204905092915050565b60006144518261317a565b915061445c8361317a565b925082820261446a8161317a565b915082820484148315176144815761448061412f565b5b5092915050565b60006144938261317a565b915061449e8361317a565b92508282019050808211156144b6576144b561412f565b5b92915050565b60006144c78261317a565b91506144d28361317a565b92508282039050818111156144ea576144e961412f565b5b92915050565b7f4552433732313a20696e76616c696420746f6b656e2049440000000000000000600082015250565b60006145266018836130d3565b9150614531826144f0565b602082019050919050565b6000602082019050818103600083015261455581614519565b9050919050565b7f4552433732313a2061646472657373207a65726f206973206e6f74206120766160008201527f6c6964206f776e65720000000000000000000000000000000000000000000000602082015250565b60006145b86029836130d3565b91506145c38261455c565b604082019050919050565b600060208201905081810360008301526145e7816145ab565b9050919050565b7f4e6f74206120726567697374657265642070726f64756374696f6e20686f757360008201527f6500000000000000000000000000000000000000000000000000000000000000602082015250565b600061464a6021836130d3565b9150614655826145ee565b604082019050919050565b600060208201905081810360008301526146798161463d565b9050919050565b7f4120746f6b656e20697320616c72656164792070726573656e7420666f72207460008201527f686973206d6f7669650000000000000000000000000000000000000000000000602082015250565b60006146dc6029836130d3565b91506146e782614680565b604082019050919050565b6000602082019050818103600083015261470b816146cf565b9050919050565b7f496e76616c6964204d696e204d61782076616c75657300000000000000000000600082015250565b60006147486016836130d3565b915061475382614712565b602082019050919050565b600060208201905081810360008301526147778161473b565b9050919050565b7f782063616e6e6f74206265207a65726f00000000000000000000000000000000600082015250565b60006147b46010836130d3565b91506147bf8261477e565b602082019050919050565b600060208201905081810360008301526147e3816147a7565b9050919050565b60006147f682856141e0565b915061480282846141e0565b91508190509392505050565b7f4e6f7420746865206f776e6572206f662074686520746f6b656e000000000000600082015250565b6000614844601a836130d3565b915061484f8261480e565b602082019050919050565b6000602082019050818103600083015261487381614837565b9050919050565b7f4552433732313a207472616e736665722066726f6d20696e636f72726563742060008201527f6f776e6572000000000000000000000000000000000000000000000000000000602082015250565b60006148d66025836130d3565b91506148e18261487a565b604082019050919050565b60006020820190508181036000830152614905816148c9565b9050919050565b7f4552433732313a207472616e7366657220746f20746865207a65726f2061646460008201527f7265737300000000000000000000000000000000000000000000000000000000602082015250565b60006149686024836130d3565b91506149738261490c565b604082019050919050565b600060208201905081810360008301526149978161495b565b9050919050565b7f4552433732313a20617070726f766520746f2063616c6c657200000000000000600082015250565b60006149d46019836130d3565b91506149df8261499e565b602082019050919050565b60006020820190508181036000830152614a03816149c7565b9050919050565b7f4552433732313a207472616e7366657220746f206e6f6e20455243373231526560008201527f63656976657220696d706c656d656e7465720000000000000000000000000000602082015250565b6000614a666032836130d3565b9150614a7182614a0a565b604082019050919050565b60006020820190508181036000830152614a9581614a59565b9050919050565b600081519050919050565b600082825260208201905092915050565b6000614ac382614a9c565b614acd8185614aa7565b9350614add8185602086016130e4565b614ae68161310e565b840191505092915050565b6000608082019050614b06600083018761320f565b614b13602083018661320f565b614b206040830185613760565b8181036060830152614b328184614ab8565b905095945050505050565b600081519050614b4c81613039565b92915050565b600060208284031215614b6857614b67613003565b5b6000614b7684828501614b3d565b91505092915050565b7f4552433732313a206d696e7420746f20746865207a65726f2061646472657373600082015250565b6000614bb56020836130d3565b9150614bc082614b7f565b602082019050919050565b60006020820190508181036000830152614be481614ba8565b9050919050565b7f4552433732313a20746f6b656e20616c7265616479206d696e74656400000000600082015250565b6000614c21601c836130d3565b9150614c2c82614beb565b602082019050919050565b60006020820190508181036000830152614c5081614c14565b905091905056fea2646970667358221220001954f9e503dd0fe6b02a95eade31a1b4940a485f96904129106027b452572564736f6c63430008130033",
  "immutableReferences": {},
  "source": "// SPDX-License-Identifier: UNLICENSED\npragma solidity ^0.8.0;\n\nimport \"../node_modules/@openzeppelin/contracts/token/ERC721/ERC721.sol\";\nimport \"../node_modules/@openzeppelin/contracts/utils/Counters.sol\";\n\ncontract FilmToken is ERC721 {\n    using Counters for Counters.Counter;\n    Counters.Counter public tokenIds;\n\n    struct Token {\n        string movieName;\n        uint256 tokenId;\n        uint basePrice;\n        string productionCompany;\n        address payable ownerAddr;\n        uint minTime;\n        uint maxTime;\n        uint apprPercent;\n        uint deprPercent;\n\n        bool resale;\n    }\n\n    Token[] allTokens;\n    address public admin;\n    mapping(uint256 => Token) public tokenIdToTokenMap;\n    mapping(address=>string) productionAddrToNameMap;\n    mapping(string=>uint) nameTokenIdMap;\n    mapping(uint=>address) tokenIdToOwnerMap;\n\n    modifier duplicateProdHouse (address addr){\n        bool duplicate = bytes(productionAddrToNameMap[addr]).length > 0 ;\n        require(!duplicate,\"Duplicate Production House\");\n        _;\n    }\n\n    modifier onlyAdmin{\n        require(msg.sender == admin,\"Not an Admin, no access\");\n        _;\n    }\n\n    modifier validProdHouse(address addr){\n        bool duplicate = bytes(productionAddrToNameMap[addr]).length > 0 ;\n        require(duplicate,\"Not a registered production house\");\n        _;\n    }\n\n    modifier duplicateMovieToken(string memory name){ // self exp.\n        bool duplicate = false;\n        for(uint i=0;i<allTokens.length;i++){\n\n            if(keccak256(abi.encodePacked(allTokens[i].movieName)) == keccak256(abi.encodePacked(name))){\n                duplicate = true;break;\n            }\n        }\n\n        require(!duplicate,\"A token is already present for this movie\");\n        _;\n    }\n\n    modifier validMovieToken(string memory name){ // self exp.\n        bool duplicate = false;\n        for(uint i=0;i<allTokens.length;i++){\n\n            if(keccak256(abi.encodePacked(allTokens[i].movieName)) == keccak256(abi.encodePacked(name))){\n                duplicate = true;break;\n            }\n        }\n\n        require(duplicate,\"A token is not present for this movie\");\n        _;\n    }\n\n    modifier validMinMaxValues(uint min,uint max){ // min (both days and appr/depr, should be +ve\n        require(min<=max && min>0 && max>0,\"Invalid Min Max values\");\n        _;\n    }\n\n    modifier checkTokenOwner(uint tokenId){\n        require(tokenIdToOwnerMap[tokenId]==msg.sender,\"Not the owner of the token\");\n        _;\n    }\n\n    constructor() ERC721(\"MovieTokenization\",\"MVTK\"){\n        admin = msg.sender;\n    }\n\n    function registerProductionHouse(string memory name,address addr) public duplicateProdHouse(msg.sender){\n        productionAddrToNameMap[addr] = name;\n    }\n    // uint appr, uint depr,uint minTime,uint maxTime, uint baseValue)\n\n    function createMovieToken(string memory movieName, Token memory input) public validProdHouse(msg.sender) duplicateMovieToken(movieName) validMinMaxValues(input.minTime,input.maxTime) validMinMaxValues(input.apprPercent,input.deprPercent){\n        //check if the user is a registerd prod house or not, handled in validProdHouse modifier\n        //check for duplicate token\n        // string memory prodName = productionAddrToNameMap[msg.sender];\n        //check if input values are valid\n        // address payable sender = payable(msg.sender);\n        Token memory newToken = Token(movieName,tokenIds.current(),input.basePrice,productionAddrToNameMap[msg.sender],payable(msg.sender),input.minTime,input.maxTime,input.apprPercent,input.deprPercent,true);\n\n        nameTokenIdMap[movieName] = tokenIds.current();\n        tokenIdToTokenMap[tokenIds.current()] = newToken;\n        tokenIdToOwnerMap[tokenIds.current()] = msg.sender;\n        _safeMint(msg.sender, tokenIds.current());\n        tokenIds.increment();\n        allTokens.push(newToken);\n\n\n    }\n\n    function buyMovieToken(uint dayss, string memory movieName) public payable validMovieToken(movieName){ //changed tokenId to movieName, as there's no visibility provided right now\n        //check if the movieName is valid, in modifier\n        //days can be +/-, - represents earlier, + later\n        uint tokenId = nameTokenIdMap[movieName];\n        Token memory token = tokenIdToTokenMap[tokenId];\n        require(token.resale == true, \"Resale is not allowed for this movie\");\n        uint value = token.basePrice;\n        uint minDays = token.minTime;\n        uint maxDays = token.maxTime;\n\n        uint finalValue = value;\n\n        if(dayss<0){\n            if(dayss>minDays){//highest cost\n                finalValue += finalValue * (token.apprPercent/100);\n                finalValue += finalValue * (token.apprPercent/100);\n            }else{//second highest\n                finalValue += finalValue * (token.apprPercent/100);\n            }\n        }else if(dayss>0){\n            if(dayss>maxDays){//least cost\n                finalValue -= finalValue * (token.apprPercent/100);\n                finalValue -= finalValue * (token.apprPercent/100);\n            }else{//second least\n                finalValue -= finalValue * (token.apprPercent/100);\n            }\n        }\n\n        //get token owner and transfer ether\n        token.ownerAddr.transfer(msg.value); // failure of this reverts everything needn't explicitly handle for now, TODO: better, give a proper error message\n\n        //change ownership\n        token.ownerAddr = payable(msg.sender);\n        //also in map\n        tokenIdToOwnerMap[tokenId] = msg.sender;\n        //disable resale\n        token.resale  = false;\n        //change in token list\n        for(uint i=0;i<allTokens.length;i++){\n            if(allTokens[i].tokenId == tokenId){\n                allTokens[i].ownerAddr = payable(msg.sender);\n            }\n        }\n\n    }\n\n\n    function appreciateTokenValue(uint256 tokenId, uint value) public checkTokenOwner(tokenId){ //how will the user know tokenid, remember? give him visibility\n        tokenIdToTokenMap[tokenId].basePrice += value;\n    }\n\n    function depreciateTokenValue(uint256 tokenId, uint value) public checkTokenOwner(tokenId){\n        tokenIdToTokenMap[tokenId].basePrice -=  value;\n    }\n\n    function enableOrDisableResale(uint tokenId) public checkTokenOwner(tokenId){\n        if(tokenIdToTokenMap[tokenId].resale == true){\n            tokenIdToTokenMap[tokenId].resale = false;\n        }else{\n            tokenIdToTokenMap[tokenId].resale = true;\n        }\n    }\n\n\n    function viewTokens() public view returns(Token[] memory){\n\n        Token[] memory result = new Token[](allTokens.length);\n        uint index = 0;\n        for(uint i=0;i<=tokenIds.current();i++){ // no support to deleting tokens, so looping through all tokenids is equal to keys\n\n            if(tokenIdToTokenMap[i].ownerAddr == msg.sender){\n                result[index++]=tokenIdToTokenMap[i];\n            }\n        }\n        return result;\n    }\n\n    function doSomething(uint x) public {\n        if (x == 0) {\n            revert(\"x cannot be zero\");\n        }\n        // function code goes here\n    }\n\n}\n",
  "sourcePath": "/Users/vishnukiran/Desktop/blockchain/project/FilmToken-contract/contracts/FilmToken.sol",
  "compiler": {
    "name": "solc",
    "version": "0.8.19+commit.7dd6d404.Emscripten.clang"
  },
  "schemaVersion": "3.4.13",
  "updatedAt": "2023-04-28T18:29:55.462Z",
  "networkType": "ethereum",
  "devdoc": {
    "events": {
      "Approval(address,address,uint256)": {
        "details": "Emitted when `owner` enables `approved` to manage the `tokenId` token."
      },
      "ApprovalForAll(address,address,bool)": {
        "details": "Emitted when `owner` enables or disables (`approved`) `operator` to manage all of its assets."
      },
      "Transfer(address,address,uint256)": {
        "details": "Emitted when `tokenId` token is transferred from `from` to `to`."
      }
    },
    "kind": "dev",
    "methods": {
      "approve(address,uint256)": {
        "details": "See {IERC721-approve}."
      },
      "balanceOf(address)": {
        "details": "See {IERC721-balanceOf}."
      },
      "getApproved(uint256)": {
        "details": "See {IERC721-getApproved}."
      },
      "isApprovedForAll(address,address)": {
        "details": "See {IERC721-isApprovedForAll}."
      },
      "name()": {
        "details": "See {IERC721Metadata-name}."
      },
      "ownerOf(uint256)": {
        "details": "See {IERC721-ownerOf}."
      },
      "safeTransferFrom(address,address,uint256)": {
        "details": "See {IERC721-safeTransferFrom}."
      },
      "safeTransferFrom(address,address,uint256,bytes)": {
        "details": "See {IERC721-safeTransferFrom}."
      },
      "setApprovalForAll(address,bool)": {
        "details": "See {IERC721-setApprovalForAll}."
      },
      "supportsInterface(bytes4)": {
        "details": "See {IERC165-supportsInterface}."
      },
      "symbol()": {
        "details": "See {IERC721Metadata-symbol}."
      },
      "tokenURI(uint256)": {
        "details": "See {IERC721Metadata-tokenURI}."
      },
      "transferFrom(address,address,uint256)": {
        "details": "See {IERC721-transferFrom}."
      }
    },
    "version": 1
  },
  "userdoc": {
    "kind": "user",
    "methods": {},
    "version": 1
  }
}