{
  "contractName": "FilmToken",
  "abi": [
    {
      "inputs": [],
      "stateMutability": "nonpayable",
      "type": "constructor"
    },
    {
      "anonymous": false,
      "inputs": [
        {
          "indexed": true,
          "internalType": "address",
          "name": "owner",
          "type": "address"
        },
        {
          "indexed": true,
          "internalType": "address",
          "name": "approved",
          "type": "address"
        },
        {
          "indexed": true,
          "internalType": "uint256",
          "name": "tokenId",
          "type": "uint256"
        }
      ],
      "name": "Approval",
      "type": "event"
    },
    {
      "anonymous": false,
      "inputs": [
        {
          "indexed": true,
          "internalType": "address",
          "name": "owner",
          "type": "address"
        },
        {
          "indexed": true,
          "internalType": "address",
          "name": "operator",
          "type": "address"
        },
        {
          "indexed": false,
          "internalType": "bool",
          "name": "approved",
          "type": "bool"
        }
      ],
      "name": "ApprovalForAll",
      "type": "event"
    },
    {
      "anonymous": false,
      "inputs": [
        {
          "indexed": true,
          "internalType": "address",
          "name": "from",
          "type": "address"
        },
        {
          "indexed": true,
          "internalType": "address",
          "name": "to",
          "type": "address"
        },
        {
          "indexed": true,
          "internalType": "uint256",
          "name": "tokenId",
          "type": "uint256"
        }
      ],
      "name": "Transfer",
      "type": "event"
    },
    {
      "inputs": [],
      "name": "admin",
      "outputs": [
        {
          "internalType": "address",
          "name": "",
          "type": "address"
        }
      ],
      "stateMutability": "view",
      "type": "function",
      "constant": true
    },
    {
      "inputs": [
        {
          "internalType": "address",
          "name": "to",
          "type": "address"
        },
        {
          "internalType": "uint256",
          "name": "tokenId",
          "type": "uint256"
        }
      ],
      "name": "approve",
      "outputs": [],
      "stateMutability": "nonpayable",
      "type": "function"
    },
    {
      "inputs": [
        {
          "internalType": "address",
          "name": "owner",
          "type": "address"
        }
      ],
      "name": "balanceOf",
      "outputs": [
        {
          "internalType": "uint256",
          "name": "",
          "type": "uint256"
        }
      ],
      "stateMutability": "view",
      "type": "function",
      "constant": true
    },
    {
      "inputs": [
        {
          "internalType": "uint256",
          "name": "tokenId",
          "type": "uint256"
        }
      ],
      "name": "getApproved",
      "outputs": [
        {
          "internalType": "address",
          "name": "",
          "type": "address"
        }
      ],
      "stateMutability": "view",
      "type": "function",
      "constant": true
    },
    {
      "inputs": [
        {
          "internalType": "address",
          "name": "owner",
          "type": "address"
        },
        {
          "internalType": "address",
          "name": "operator",
          "type": "address"
        }
      ],
      "name": "isApprovedForAll",
      "outputs": [
        {
          "internalType": "bool",
          "name": "",
          "type": "bool"
        }
      ],
      "stateMutability": "view",
      "type": "function",
      "constant": true
    },
    {
      "inputs": [],
      "name": "name",
      "outputs": [
        {
          "internalType": "string",
          "name": "",
          "type": "string"
        }
      ],
      "stateMutability": "view",
      "type": "function",
      "constant": true
    },
    {
      "inputs": [
        {
          "internalType": "uint256",
          "name": "tokenId",
          "type": "uint256"
        }
      ],
      "name": "ownerOf",
      "outputs": [
        {
          "internalType": "address",
          "name": "",
          "type": "address"
        }
      ],
      "stateMutability": "view",
      "type": "function",
      "constant": true
    },
    {
      "inputs": [
        {
          "internalType": "address",
          "name": "from",
          "type": "address"
        },
        {
          "internalType": "address",
          "name": "to",
          "type": "address"
        },
        {
          "internalType": "uint256",
          "name": "tokenId",
          "type": "uint256"
        }
      ],
      "name": "safeTransferFrom",
      "outputs": [],
      "stateMutability": "nonpayable",
      "type": "function"
    },
    {
      "inputs": [
        {
          "internalType": "address",
          "name": "from",
          "type": "address"
        },
        {
          "internalType": "address",
          "name": "to",
          "type": "address"
        },
        {
          "internalType": "uint256",
          "name": "tokenId",
          "type": "uint256"
        },
        {
          "internalType": "bytes",
          "name": "data",
          "type": "bytes"
        }
      ],
      "name": "safeTransferFrom",
      "outputs": [],
      "stateMutability": "nonpayable",
      "type": "function"
    },
    {
      "inputs": [
        {
          "internalType": "address",
          "name": "operator",
          "type": "address"
        },
        {
          "internalType": "bool",
          "name": "approved",
          "type": "bool"
        }
      ],
      "name": "setApprovalForAll",
      "outputs": [],
      "stateMutability": "nonpayable",
      "type": "function"
    },
    {
      "inputs": [
        {
          "internalType": "bytes4",
          "name": "interfaceId",
          "type": "bytes4"
        }
      ],
      "name": "supportsInterface",
      "outputs": [
        {
          "internalType": "bool",
          "name": "",
          "type": "bool"
        }
      ],
      "stateMutability": "view",
      "type": "function",
      "constant": true
    },
    {
      "inputs": [],
      "name": "symbol",
      "outputs": [
        {
          "internalType": "string",
          "name": "",
          "type": "string"
        }
      ],
      "stateMutability": "view",
      "type": "function",
      "constant": true
    },
    {
      "inputs": [
        {
          "internalType": "uint256",
          "name": "",
          "type": "uint256"
        }
      ],
      "name": "tokenIdToTokenMap",
      "outputs": [
        {
          "internalType": "string",
          "name": "movieName",
          "type": "string"
        },
        {
          "internalType": "uint256",
          "name": "tokenId",
          "type": "uint256"
        },
        {
          "internalType": "uint256",
          "name": "basePrice",
          "type": "uint256"
        },
        {
          "internalType": "string",
          "name": "productionCompany",
          "type": "string"
        },
        {
          "internalType": "address payable",
          "name": "ownerAddr",
          "type": "address"
        },
        {
          "internalType": "uint256",
          "name": "minTime",
          "type": "uint256"
        },
        {
          "internalType": "uint256",
          "name": "maxTime",
          "type": "uint256"
        },
        {
          "internalType": "uint256",
          "name": "apprPercent",
          "type": "uint256"
        },
        {
          "internalType": "uint256",
          "name": "deprPercent",
          "type": "uint256"
        },
        {
          "internalType": "uint256",
          "name": "baseDays",
          "type": "uint256"
        },
        {
          "internalType": "bool",
          "name": "resale",
          "type": "bool"
        }
      ],
      "stateMutability": "view",
      "type": "function",
      "constant": true
    },
    {
      "inputs": [],
      "name": "tokenIds",
      "outputs": [
        {
          "internalType": "uint256",
          "name": "_value",
          "type": "uint256"
        }
      ],
      "stateMutability": "view",
      "type": "function",
      "constant": true
    },
    {
      "inputs": [
        {
          "internalType": "uint256",
          "name": "tokenId",
          "type": "uint256"
        }
      ],
      "name": "tokenURI",
      "outputs": [
        {
          "internalType": "string",
          "name": "",
          "type": "string"
        }
      ],
      "stateMutability": "view",
      "type": "function",
      "constant": true
    },
    {
      "inputs": [
        {
          "internalType": "address",
          "name": "from",
          "type": "address"
        },
        {
          "internalType": "address",
          "name": "to",
          "type": "address"
        },
        {
          "internalType": "uint256",
          "name": "tokenId",
          "type": "uint256"
        }
      ],
      "name": "transferFrom",
      "outputs": [],
      "stateMutability": "nonpayable",
      "type": "function"
    },
    {
      "inputs": [
        {
          "internalType": "string",
          "name": "name",
          "type": "string"
        },
        {
          "internalType": "address",
          "name": "addr",
          "type": "address"
        }
      ],
      "name": "registerProductionHouse",
      "outputs": [],
      "stateMutability": "nonpayable",
      "type": "function"
    },
    {
      "inputs": [
        {
          "internalType": "string",
          "name": "movieName",
          "type": "string"
        },
        {
          "internalType": "uint256",
          "name": "basePrice",
          "type": "uint256"
        },
        {
          "internalType": "uint256",
          "name": "baseDays",
          "type": "uint256"
        },
        {
          "internalType": "uint256",
          "name": "minTime",
          "type": "uint256"
        },
        {
          "internalType": "uint256",
          "name": "maxTime",
          "type": "uint256"
        },
        {
          "internalType": "uint256",
          "name": "apprPercent",
          "type": "uint256"
        },
        {
          "internalType": "uint256",
          "name": "deprPercent",
          "type": "uint256"
        }
      ],
      "name": "createMovieToken",
      "outputs": [],
      "stateMutability": "nonpayable",
      "type": "function"
    },
    {
      "inputs": [
        {
          "internalType": "uint256",
          "name": "dayss",
          "type": "uint256"
        },
        {
          "internalType": "string",
          "name": "movieName",
          "type": "string"
        }
      ],
      "name": "buyMovieToken",
      "outputs": [],
      "stateMutability": "payable",
      "type": "function",
      "payable": true
    },
    {
      "inputs": [
        {
          "internalType": "uint256",
          "name": "tokenId",
          "type": "uint256"
        },
        {
          "internalType": "uint256",
          "name": "value",
          "type": "uint256"
        }
      ],
      "name": "appreciateTokenValue",
      "outputs": [],
      "stateMutability": "nonpayable",
      "type": "function"
    },
    {
      "inputs": [
        {
          "internalType": "uint256",
          "name": "tokenId",
          "type": "uint256"
        },
        {
          "internalType": "uint256",
          "name": "value",
          "type": "uint256"
        }
      ],
      "name": "depreciateTokenValue",
      "outputs": [],
      "stateMutability": "nonpayable",
      "type": "function"
    },
    {
      "inputs": [
        {
          "internalType": "uint256",
          "name": "tokenId",
          "type": "uint256"
        }
      ],
      "name": "enableOrDisableResale",
      "outputs": [],
      "stateMutability": "nonpayable",
      "type": "function"
    },
    {
      "inputs": [],
      "name": "viewTokens",
      "outputs": [
        {
          "components": [
            {
              "internalType": "string",
              "name": "movieName",
              "type": "string"
            },
            {
              "internalType": "uint256",
              "name": "tokenId",
              "type": "uint256"
            },
            {
              "internalType": "uint256",
              "name": "basePrice",
              "type": "uint256"
            },
            {
              "internalType": "string",
              "name": "productionCompany",
              "type": "string"
            },
            {
              "internalType": "address payable",
              "name": "ownerAddr",
              "type": "address"
            },
            {
              "internalType": "uint256",
              "name": "minTime",
              "type": "uint256"
            },
            {
              "internalType": "uint256",
              "name": "maxTime",
              "type": "uint256"
            },
            {
              "internalType": "uint256",
              "name": "apprPercent",
              "type": "uint256"
            },
            {
              "internalType": "uint256",
              "name": "deprPercent",
              "type": "uint256"
            },
            {
              "internalType": "uint256",
              "name": "baseDays",
              "type": "uint256"
            },
            {
              "internalType": "bool",
              "name": "resale",
              "type": "bool"
            }
          ],
          "internalType": "struct FilmToken.Token[]",
          "name": "",
          "type": "tuple[]"
        }
      ],
      "stateMutability": "nonpayable",
      "type": "function"
    }
  ],
  "bytecode": "0x60806040523480156200001157600080fd5b506040518060400160405280601181526020017f4d6f766965546f6b656e697a6174696f6e0000000000000000000000000000008152506040518060400160405280600481526020017f4d56544b0000000000000000000000000000000000000000000000000000000081525081600090816200008f919062000365565b508060019081620000a1919062000365565b50505033600860006101000a81548173ffffffffffffffffffffffffffffffffffffffff021916908373ffffffffffffffffffffffffffffffffffffffff1602179055506200044c565b600081519050919050565b7f4e487b7100000000000000000000000000000000000000000000000000000000600052604160045260246000fd5b7f4e487b7100000000000000000000000000000000000000000000000000000000600052602260045260246000fd5b600060028204905060018216806200016d57607f821691505b60208210810362000183576200018262000125565b5b50919050565b60008190508160005260206000209050919050565b60006020601f8301049050919050565b600082821b905092915050565b600060088302620001ed7fffffffffffffffffffffffffffffffffffffffffffffffffffffffffffffffff82620001ae565b620001f98683620001ae565b95508019841693508086168417925050509392505050565b6000819050919050565b6000819050919050565b600062000246620002406200023a8462000211565b6200021b565b62000211565b9050919050565b6000819050919050565b620002628362000225565b6200027a62000271826200024d565b848454620001bb565b825550505050565b600090565b6200029162000282565b6200029e81848462000257565b505050565b5b81811015620002c657620002ba60008262000287565b600181019050620002a4565b5050565b601f8211156200031557620002df8162000189565b620002ea846200019e565b81016020851015620002fa578190505b6200031262000309856200019e565b830182620002a3565b50505b505050565b600082821c905092915050565b60006200033a600019846008026200031a565b1980831691505092915050565b600062000355838362000327565b9150826002028217905092915050565b6200037082620000eb565b67ffffffffffffffff8111156200038c576200038b620000f6565b5b62000398825462000154565b620003a5828285620002ca565b600060209050601f831160018114620003dd5760008415620003c8578287015190505b620003d4858262000347565b86555062000444565b601f198416620003ed8662000189565b60005b828110156200041757848901518255600182019150602085019450602081019050620003f0565b8683101562000437578489015162000433601f89168262000327565b8355505b6001600288020188555050505b505050505050565b614b87806200045c6000396000f3fe6080604052600436106101405760003560e01c806370a08231116100b6578063c87b56dd1161006f578063c87b56dd14610467578063ca99cc3e146104a4578063dd7072f6146104cd578063e985e9c5146104f6578063f851a44014610533578063f907b4a61461055e57610140565b806370a082311461033b578063714cff561461037857806395d89b41146103a3578063a22cb465146103ce578063b88d4fde146103f7578063c3aee7361461042057610140565b806337c4f4671161010857806337c4f4671461023c57806342842e0e146102655780634bf5bf351461028e57806357a3106b146102b95780636352211e146102d55780636e323c501461031257610140565b806301ffc9a71461014557806306fdde0314610182578063081812fc146101ad578063095ea7b3146101ea57806323b872dd14610213575b600080fd5b34801561015157600080fd5b5061016c600480360381019061016791906130c5565b610587565b604051610179919061310d565b60405180910390f35b34801561018e57600080fd5b50610197610669565b6040516101a491906131b8565b60405180910390f35b3480156101b957600080fd5b506101d460048036038101906101cf9190613210565b6106fb565b6040516101e1919061327e565b60405180910390f35b3480156101f657600080fd5b50610211600480360381019061020c91906132c5565b610741565b005b34801561021f57600080fd5b5061023a60048036038101906102359190613305565b610858565b005b34801561024857600080fd5b50610263600480360381019061025e919061348d565b6108b8565b005b34801561027157600080fd5b5061028c60048036038101906102879190613305565b610a92565b005b34801561029a57600080fd5b506102a3610ab2565b6040516102b0919061372a565b60405180910390f35b6102d360048036038101906102ce919061374c565b610dcf565b005b3480156102e157600080fd5b506102fc60048036038101906102f79190613210565b61149d565b604051610309919061327e565b60405180910390f35b34801561031e57600080fd5b50610339600480360381019061033491906137a8565b611523565b005b34801561034757600080fd5b50610362600480360381019061035d9190613866565b611a8e565b60405161036f91906138a2565b60405180910390f35b34801561038457600080fd5b5061038d611b45565b60405161039a91906138a2565b60405180910390f35b3480156103af57600080fd5b506103b8611b51565b6040516103c591906131b8565b60405180910390f35b3480156103da57600080fd5b506103f560048036038101906103f091906138e9565b611be3565b005b34801561040357600080fd5b5061041e600480360381019061041991906139ca565b611bf9565b005b34801561042c57600080fd5b5061044760048036038101906104429190613210565b611c5b565b60405161045e9b9a99989796959493929190613a5c565b60405180910390f35b34801561047357600080fd5b5061048e60048036038101906104899190613210565b611df2565b60405161049b91906131b8565b60405180910390f35b3480156104b057600080fd5b506104cb60048036038101906104c69190613210565b611e5a565b005b3480156104d957600080fd5b506104f460048036038101906104ef9190613b15565b611f93565b005b34801561050257600080fd5b5061051d60048036038101906105189190613b55565b612067565b60405161052a919061310d565b60405180910390f35b34801561053f57600080fd5b506105486120fb565b604051610555919061327e565b60405180910390f35b34801561056a57600080fd5b5061058560048036038101906105809190613b15565b612121565b005b60007f80ac58cd000000000000000000000000000000000000000000000000000000007bffffffffffffffffffffffffffffffffffffffffffffffffffffffff1916827bffffffffffffffffffffffffffffffffffffffffffffffffffffffff1916148061065257507f5b5e139f000000000000000000000000000000000000000000000000000000007bffffffffffffffffffffffffffffffffffffffffffffffffffffffff1916827bffffffffffffffffffffffffffffffffffffffffffffffffffffffff1916145b806106625750610661826121f5565b5b9050919050565b60606000805461067890613bc4565b80601f01602080910402602001604051908101604052809291908181526020018280546106a490613bc4565b80156106f15780601f106106c6576101008083540402835291602001916106f1565b820191906000526020600020905b8154815290600101906020018083116106d457829003601f168201915b5050505050905090565b60006107068261225f565b6004600083815260200190815260200160002060009054906101000a900473ffffffffffffffffffffffffffffffffffffffff169050919050565b600061074c8261149d565b90508073ffffffffffffffffffffffffffffffffffffffff168373ffffffffffffffffffffffffffffffffffffffff16036107bc576040517f08c379a00000000000000000000000000000000000000000000000000000000081526004016107b390613c67565b60405180910390fd5b8073ffffffffffffffffffffffffffffffffffffffff166107db6122aa565b73ffffffffffffffffffffffffffffffffffffffff16148061080a5750610809816108046122aa565b612067565b5b610849576040517f08c379a000000000000000000000000000000000000000000000000000000000815260040161084090613cf9565b60405180910390fd5b61085383836122b2565b505050565b6108696108636122aa565b8261236b565b6108a8576040517f08c379a000000000000000000000000000000000000000000000000000000000815260040161089f90613d8b565b60405180910390fd5b6108b3838383612400565b505050565b80600080600a60008473ffffffffffffffffffffffffffffffffffffffff1673ffffffffffffffffffffffffffffffffffffffff168152602001908152602001600020805461090690613bc4565b9050119050801561094c576040517f08c379a000000000000000000000000000000000000000000000000000000000815260040161094390613df7565b60405180910390fd5b600860009054906101000a900473ffffffffffffffffffffffffffffffffffffffff1673ffffffffffffffffffffffffffffffffffffffff163373ffffffffffffffffffffffffffffffffffffffff16146109dc576040517f08c379a00000000000000000000000000000000000000000000000000000000081526004016109d390613e63565b60405180910390fd5b83600a60008573ffffffffffffffffffffffffffffffffffffffff1673ffffffffffffffffffffffffffffffffffffffff1681526020019081526020016000209081610a28919061402f565b50600b839080600181540180825580915050600190039060005260206000200160009091909190916101000a81548173ffffffffffffffffffffffffffffffffffffffff021916908373ffffffffffffffffffffffffffffffffffffffff16021790555050505050565b610aad83838360405180602001604052806000815250611bf9565b505050565b6060600060078054905067ffffffffffffffff811115610ad557610ad4613362565b5b604051908082528060200260200182016040528015610b0e57816020015b610afb612fe7565b815260200190600190039081610af35790505b5090506000805b610b1f60066126f9565b8111610dc6573373ffffffffffffffffffffffffffffffffffffffff166009600083815260200190815260200160002060040160009054906101000a900473ffffffffffffffffffffffffffffffffffffffff1673ffffffffffffffffffffffffffffffffffffffff1603610db3576009600082815260200190815260200160002060405180610160016040529081600082018054610bbd90613bc4565b80601f0160208091040260200160405190810160405280929190818152602001828054610be990613bc4565b8015610c365780601f10610c0b57610100808354040283529160200191610c36565b820191906000526020600020905b815481529060010190602001808311610c1957829003601f168201915b505050505081526020016001820154815260200160028201548152602001600382018054610c6390613bc4565b80601f0160208091040260200160405190810160405280929190818152602001828054610c8f90613bc4565b8015610cdc5780601f10610cb157610100808354040283529160200191610cdc565b820191906000526020600020905b815481529060010190602001808311610cbf57829003601f168201915b505050505081526020016004820160009054906101000a900473ffffffffffffffffffffffffffffffffffffffff1673ffffffffffffffffffffffffffffffffffffffff1673ffffffffffffffffffffffffffffffffffffffff1681526020016005820154815260200160068201548152602001600782015481526020016008820154815260200160098201548152602001600a820160009054906101000a900460ff161515151581525050838380610d9490614130565b945081518110610da757610da6614178565b5b60200260200101819052505b8080610dbe90614130565b915050610b15565b50819250505090565b806000805b600780549050811015610e745782604051602001610df291906141e3565b6040516020818303038152906040528051906020012060078281548110610e1c57610e1b614178565b5b90600052602060002090600b0201600001604051602001610e3d919061427d565b6040516020818303038152906040528051906020012003610e615760019150610e74565b8080610e6c90614130565b915050610dd4565b5080610eb5576040517f08c379a0000000000000000000000000000000000000000000000000000000008152600401610eac90614306565b60405180910390fd5b6000600c84604051610ec791906141e3565b908152602001604051809103902054905060006009600083815260200190815260200160002060405180610160016040529081600082018054610f0990613bc4565b80601f0160208091040260200160405190810160405280929190818152602001828054610f3590613bc4565b8015610f825780601f10610f5757610100808354040283529160200191610f82565b820191906000526020600020905b815481529060010190602001808311610f6557829003601f168201915b505050505081526020016001820154815260200160028201548152602001600382018054610faf90613bc4565b80601f0160208091040260200160405190810160405280929190818152602001828054610fdb90613bc4565b80156110285780601f10610ffd57610100808354040283529160200191611028565b820191906000526020600020905b81548152906001019060200180831161100b57829003601f168201915b505050505081526020016004820160009054906101000a900473ffffffffffffffffffffffffffffffffffffffff1673ffffffffffffffffffffffffffffffffffffffff1673ffffffffffffffffffffffffffffffffffffffff1681526020016005820154815260200160068201548152602001600782015481526020016008820154815260200160098201548152602001600a820160009054906101000a900460ff161515151581525050905060011515816101400151151514611122576040517f08c379a000000000000000000000000000000000000000000000000000000000815260040161111990614398565b60405180910390fd5b60008160400151905060008260a00151905060008360c001519050600084610120015190506000849050838b11801561117157506002828561116491906143b8565b61116e919061441b565b8b105b156111cd5760648660e00151611187919061441b565b81611192919061444c565b8161119d91906143b8565b905060648660e001516111b0919061441b565b816111bb919061444c565b816111c691906143b8565b90506112f4565b60028b836111db91906143b8565b6111e5919061441b565b8b101580156111f35750818b105b156112265760648660e00151611209919061441b565b81611214919061444c565b8161121f91906143b8565b90506112f3565b818b11801561124c57506002838361123e91906143b8565b611248919061441b565b8b11155b1561127f5760648660e00151611262919061441b565b8161126d919061444c565b81611278919061448e565b90506112f2565b6002838361128d91906143b8565b611297919061441b565b8b11156112f15760648660e001516112af919061441b565b816112ba919061444c565b816112c5919061448e565b905060648660e001516112d8919061441b565b816112e3919061444c565b816112ee919061448e565b90505b5b5b5b856080015173ffffffffffffffffffffffffffffffffffffffff166108fc349081150290604051600060405180830381858888f1935050505015801561133e573d6000803e3d6000fd5b5033866080019073ffffffffffffffffffffffffffffffffffffffff16908173ffffffffffffffffffffffffffffffffffffffff168152505033600d600089815260200190815260200160002060006101000a81548173ffffffffffffffffffffffffffffffffffffffff021916908373ffffffffffffffffffffffffffffffffffffffff16021790555060008661014001901515908115158152505060005b60078054905081101561148f578760078281548110611400576113ff614178565b5b90600052602060002090600b0201600101540361147c57336007828154811061142c5761142b614178565b5b90600052602060002090600b020160040160006101000a81548173ffffffffffffffffffffffffffffffffffffffff021916908373ffffffffffffffffffffffffffffffffffffffff1602179055505b808061148790614130565b9150506113de565b505050505050505050505050565b6000806114a983612707565b9050600073ffffffffffffffffffffffffffffffffffffffff168173ffffffffffffffffffffffffffffffffffffffff160361151a576040517f08c379a00000000000000000000000000000000000000000000000000000000081526004016115119061450e565b60405180910390fd5b80915050919050565b33600080600a60008473ffffffffffffffffffffffffffffffffffffffff1673ffffffffffffffffffffffffffffffffffffffff168152602001908152602001600020805461157190613bc4565b9050119050806115b6576040517f08c379a00000000000000000000000000000000000000000000000000000000081526004016115ad906145a0565b60405180910390fd5b886000805b60078054905081101561165b57826040516020016115d991906141e3565b604051602081830303815290604052805190602001206007828154811061160357611602614178565b5b90600052602060002090600b0201600001604051602001611624919061427d565b6040516020818303038152906040528051906020012003611648576001915061165b565b808061165390614130565b9150506115bb565b50801561169d576040517f08c379a000000000000000000000000000000000000000000000000000000000815260040161169490614632565b60405180910390fd5b60006040518061016001604052808d81526020016116bb60066126f9565b81526020018c8152602001600a60003373ffffffffffffffffffffffffffffffffffffffff1673ffffffffffffffffffffffffffffffffffffffff168152602001908152602001600020805461171090613bc4565b80601f016020809104026020016040519081016040528092919081815260200182805461173c90613bc4565b80156117895780601f1061175e57610100808354040283529160200191611789565b820191906000526020600020905b81548152906001019060200180831161176c57829003601f168201915b505050505081526020013373ffffffffffffffffffffffffffffffffffffffff1681526020018a81526020018981526020018881526020018781526020018b81526020016001151581525090506117e060066126f9565b600c8d6040516117f091906141e3565b908152602001604051809103902081905550806009600061181160066126f9565b81526020019081526020016000206000820151816000019081611834919061402f565b506020820151816001015560408201518160020155606082015181600301908161185e919061402f565b5060808201518160040160006101000a81548173ffffffffffffffffffffffffffffffffffffffff021916908373ffffffffffffffffffffffffffffffffffffffff16021790555060a0820151816005015560c0820151816006015560e082015181600701556101008201518160080155610120820151816009015561014082015181600a0160006101000a81548160ff02191690831515021790555090505033600d600061190d60066126f9565b815260200190815260200160002060006101000a81548173ffffffffffffffffffffffffffffffffffffffff021916908373ffffffffffffffffffffffffffffffffffffffff16021790555061196c3361196760066126f9565b612744565b6119766006612762565b60078190806001815401808255809150506001900390600052602060002090600b020160009091909190915060008201518160000190816119b7919061402f565b50602082015181600101556040820151816002015560608201518160030190816119e1919061402f565b5060808201518160040160006101000a81548173ffffffffffffffffffffffffffffffffffffffff021916908373ffffffffffffffffffffffffffffffffffffffff16021790555060a0820151816005015560c0820151816006015560e082015181600701556101008201518160080155610120820151816009015561014082015181600a0160006101000a81548160ff0219169083151502179055505050505050505050505050505050565b60008073ffffffffffffffffffffffffffffffffffffffff168273ffffffffffffffffffffffffffffffffffffffff1603611afe576040517f08c379a0000000000000000000000000000000000000000000000000000000008152600401611af5906146c4565b60405180910390fd5b600360008373ffffffffffffffffffffffffffffffffffffffff1673ffffffffffffffffffffffffffffffffffffffff168152602001908152602001600020549050919050565b60068060000154905081565b606060018054611b6090613bc4565b80601f0160208091040260200160405190810160405280929190818152602001828054611b8c90613bc4565b8015611bd95780601f10611bae57610100808354040283529160200191611bd9565b820191906000526020600020905b815481529060010190602001808311611bbc57829003601f168201915b5050505050905090565b611bf5611bee6122aa565b8383612778565b5050565b611c0a611c046122aa565b8361236b565b611c49576040517f08c379a0000000000000000000000000000000000000000000000000000000008152600401611c4090613d8b565b60405180910390fd5b611c55848484846128e4565b50505050565b6009602052806000526040600020600091509050806000018054611c7e90613bc4565b80601f0160208091040260200160405190810160405280929190818152602001828054611caa90613bc4565b8015611cf75780601f10611ccc57610100808354040283529160200191611cf7565b820191906000526020600020905b815481529060010190602001808311611cda57829003601f168201915b505050505090806001015490806002015490806003018054611d1890613bc4565b80601f0160208091040260200160405190810160405280929190818152602001828054611d4490613bc4565b8015611d915780601f10611d6657610100808354040283529160200191611d91565b820191906000526020600020905b815481529060010190602001808311611d7457829003601f168201915b5050505050908060040160009054906101000a900473ffffffffffffffffffffffffffffffffffffffff169080600501549080600601549080600701549080600801549080600901549080600a0160009054906101000a900460ff1690508b565b6060611dfd8261225f565b6000611e07612940565b90506000815111611e275760405180602001604052806000815250611e52565b80611e3184612957565b604051602001611e429291906146e4565b6040516020818303038152906040525b915050919050565b803373ffffffffffffffffffffffffffffffffffffffff16600d600083815260200190815260200160002060009054906101000a900473ffffffffffffffffffffffffffffffffffffffff1673ffffffffffffffffffffffffffffffffffffffff1614611efc576040517f08c379a0000000000000000000000000000000000000000000000000000000008152600401611ef390614754565b60405180910390fd5b6001151560096000848152602001908152602001600020600a0160009054906101000a900460ff16151503611f5f57600060096000848152602001908152602001600020600a0160006101000a81548160ff021916908315150217905550611f8f565b600160096000848152602001908152602001600020600a0160006101000a81548160ff0219169083151502179055505b5050565b813373ffffffffffffffffffffffffffffffffffffffff16600d600083815260200190815260200160002060009054906101000a900473ffffffffffffffffffffffffffffffffffffffff1673ffffffffffffffffffffffffffffffffffffffff1614612035576040517f08c379a000000000000000000000000000000000000000000000000000000000815260040161202c90614754565b60405180910390fd5b8160096000858152602001908152602001600020600201600082825461205b91906143b8565b92505081905550505050565b6000600560008473ffffffffffffffffffffffffffffffffffffffff1673ffffffffffffffffffffffffffffffffffffffff16815260200190815260200160002060008373ffffffffffffffffffffffffffffffffffffffff1673ffffffffffffffffffffffffffffffffffffffff16815260200190815260200160002060009054906101000a900460ff16905092915050565b600860009054906101000a900473ffffffffffffffffffffffffffffffffffffffff1681565b813373ffffffffffffffffffffffffffffffffffffffff16600d600083815260200190815260200160002060009054906101000a900473ffffffffffffffffffffffffffffffffffffffff1673ffffffffffffffffffffffffffffffffffffffff16146121c3576040517f08c379a00000000000000000000000000000000000000000000000000000000081526004016121ba90614754565b60405180910390fd5b816009600085815260200190815260200160002060020160008282546121e9919061448e565b92505081905550505050565b60007f01ffc9a7000000000000000000000000000000000000000000000000000000007bffffffffffffffffffffffffffffffffffffffffffffffffffffffff1916827bffffffffffffffffffffffffffffffffffffffffffffffffffffffff1916149050919050565b61226881612a25565b6122a7576040517f08c379a000000000000000000000000000000000000000000000000000000000815260040161229e9061450e565b60405180910390fd5b50565b600033905090565b816004600083815260200190815260200160002060006101000a81548173ffffffffffffffffffffffffffffffffffffffff021916908373ffffffffffffffffffffffffffffffffffffffff160217905550808273ffffffffffffffffffffffffffffffffffffffff166123258361149d565b73ffffffffffffffffffffffffffffffffffffffff167f8c5be1e5ebec7d5bd14f71427d1e84f3dd0314c0f7b2291e5b200ac8c7c3b92560405160405180910390a45050565b6000806123778361149d565b90508073ffffffffffffffffffffffffffffffffffffffff168473ffffffffffffffffffffffffffffffffffffffff1614806123b957506123b88185612067565b5b806123f757508373ffffffffffffffffffffffffffffffffffffffff166123df846106fb565b73ffffffffffffffffffffffffffffffffffffffff16145b91505092915050565b8273ffffffffffffffffffffffffffffffffffffffff166124208261149d565b73ffffffffffffffffffffffffffffffffffffffff1614612476576040517f08c379a000000000000000000000000000000000000000000000000000000000815260040161246d906147e6565b60405180910390fd5b600073ffffffffffffffffffffffffffffffffffffffff168273ffffffffffffffffffffffffffffffffffffffff16036124e5576040517f08c379a00000000000000000000000000000000000000000000000000000000081526004016124dc90614878565b60405180910390fd5b6124f28383836001612a66565b8273ffffffffffffffffffffffffffffffffffffffff166125128261149d565b73ffffffffffffffffffffffffffffffffffffffff1614612568576040517f08c379a000000000000000000000000000000000000000000000000000000000815260040161255f906147e6565b60405180910390fd5b6004600082815260200190815260200160002060006101000a81549073ffffffffffffffffffffffffffffffffffffffff02191690556001600360008573ffffffffffffffffffffffffffffffffffffffff1673ffffffffffffffffffffffffffffffffffffffff168152602001908152602001600020600082825403925050819055506001600360008473ffffffffffffffffffffffffffffffffffffffff1673ffffffffffffffffffffffffffffffffffffffff16815260200190815260200160002060008282540192505081905550816002600083815260200190815260200160002060006101000a81548173ffffffffffffffffffffffffffffffffffffffff021916908373ffffffffffffffffffffffffffffffffffffffff160217905550808273ffffffffffffffffffffffffffffffffffffffff168473ffffffffffffffffffffffffffffffffffffffff167fddf252ad1be2c89b69c2b068fc378daa952ba7f163c4a11628f55a4df523b3ef60405160405180910390a46126f48383836001612a6c565b505050565b600081600001549050919050565b60006002600083815260200190815260200160002060009054906101000a900473ffffffffffffffffffffffffffffffffffffffff169050919050565b61275e828260405180602001604052806000815250612a72565b5050565b6001816000016000828254019250508190555050565b8173ffffffffffffffffffffffffffffffffffffffff168373ffffffffffffffffffffffffffffffffffffffff16036127e6576040517f08c379a00000000000000000000000000000000000000000000000000000000081526004016127dd906148e4565b60405180910390fd5b80600560008573ffffffffffffffffffffffffffffffffffffffff1673ffffffffffffffffffffffffffffffffffffffff16815260200190815260200160002060008473ffffffffffffffffffffffffffffffffffffffff1673ffffffffffffffffffffffffffffffffffffffff16815260200190815260200160002060006101000a81548160ff0219169083151502179055508173ffffffffffffffffffffffffffffffffffffffff168373ffffffffffffffffffffffffffffffffffffffff167f17307eab39ab6107e8899845ad3d59bd9653f200f220920489ca2b5937696c31836040516128d7919061310d565b60405180910390a3505050565b6128ef848484612400565b6128fb84848484612acd565b61293a576040517f08c379a000000000000000000000000000000000000000000000000000000000815260040161293190614976565b60405180910390fd5b50505050565b606060405180602001604052806000815250905090565b60606000600161296684612c54565b01905060008167ffffffffffffffff81111561298557612984613362565b5b6040519080825280601f01601f1916602001820160405280156129b75781602001600182028036833780820191505090505b509050600082602001820190505b600115612a1a578080600190039150507f3031323334353637383961626364656600000000000000000000000000000000600a86061a8153600a8581612a0e57612a0d6143ec565b5b049450600085036129c5575b819350505050919050565b60008073ffffffffffffffffffffffffffffffffffffffff16612a4783612707565b73ffffffffffffffffffffffffffffffffffffffff1614159050919050565b50505050565b50505050565b612a7c8383612da7565b612a896000848484612acd565b612ac8576040517f08c379a0000000000000000000000000000000000000000000000000000000008152600401612abf90614976565b60405180910390fd5b505050565b6000612aee8473ffffffffffffffffffffffffffffffffffffffff16612fc4565b15612c47578373ffffffffffffffffffffffffffffffffffffffff1663150b7a02612b176122aa565b8786866040518563ffffffff1660e01b8152600401612b3994939291906149eb565b6020604051808303816000875af1925050508015612b7557506040513d601f19601f82011682018060405250810190612b729190614a4c565b60015b612bf7573d8060008114612ba5576040519150601f19603f3d011682016040523d82523d6000602084013e612baa565b606091505b506000815103612bef576040517f08c379a0000000000000000000000000000000000000000000000000000000008152600401612be690614976565b60405180910390fd5b805181602001fd5b63150b7a0260e01b7bffffffffffffffffffffffffffffffffffffffffffffffffffffffff1916817bffffffffffffffffffffffffffffffffffffffffffffffffffffffff191614915050612c4c565b600190505b949350505050565b600080600090507a184f03e93ff9f4daa797ed6e38ed64bf6a1f0100000000000000008310612cb2577a184f03e93ff9f4daa797ed6e38ed64bf6a1f0100000000000000008381612ca857612ca76143ec565b5b0492506040810190505b6d04ee2d6d415b85acef81000000008310612cef576d04ee2d6d415b85acef81000000008381612ce557612ce46143ec565b5b0492506020810190505b662386f26fc100008310612d1e57662386f26fc100008381612d1457612d136143ec565b5b0492506010810190505b6305f5e1008310612d47576305f5e1008381612d3d57612d3c6143ec565b5b0492506008810190505b6127108310612d6c576127108381612d6257612d616143ec565b5b0492506004810190505b60648310612d8f5760648381612d8557612d846143ec565b5b0492506002810190505b600a8310612d9e576001810190505b80915050919050565b600073ffffffffffffffffffffffffffffffffffffffff168273ffffffffffffffffffffffffffffffffffffffff1603612e16576040517f08c379a0000000000000000000000000000000000000000000000000000000008152600401612e0d90614ac5565b60405180910390fd5b612e1f81612a25565b15612e5f576040517f08c379a0000000000000000000000000000000000000000000000000000000008152600401612e5690614b31565b60405180910390fd5b612e6d600083836001612a66565b612e7681612a25565b15612eb6576040517f08c379a0000000000000000000000000000000000000000000000000000000008152600401612ead90614b31565b60405180910390fd5b6001600360008473ffffffffffffffffffffffffffffffffffffffff1673ffffffffffffffffffffffffffffffffffffffff16815260200190815260200160002060008282540192505081905550816002600083815260200190815260200160002060006101000a81548173ffffffffffffffffffffffffffffffffffffffff021916908373ffffffffffffffffffffffffffffffffffffffff160217905550808273ffffffffffffffffffffffffffffffffffffffff16600073ffffffffffffffffffffffffffffffffffffffff167fddf252ad1be2c89b69c2b068fc378daa952ba7f163c4a11628f55a4df523b3ef60405160405180910390a4612fc0600083836001612a6c565b5050565b6000808273ffffffffffffffffffffffffffffffffffffffff163b119050919050565b60405180610160016040528060608152602001600081526020016000815260200160608152602001600073ffffffffffffffffffffffffffffffffffffffff16815260200160008152602001600081526020016000815260200160008152602001600081526020016000151581525090565b6000604051905090565b600080fd5b600080fd5b60007fffffffff0000000000000000000000000000000000000000000000000000000082169050919050565b6130a28161306d565b81146130ad57600080fd5b50565b6000813590506130bf81613099565b92915050565b6000602082840312156130db576130da613063565b5b60006130e9848285016130b0565b91505092915050565b60008115159050919050565b613107816130f2565b82525050565b600060208201905061312260008301846130fe565b92915050565b600081519050919050565b600082825260208201905092915050565b60005b83811015613162578082015181840152602081019050613147565b60008484015250505050565b6000601f19601f8301169050919050565b600061318a82613128565b6131948185613133565b93506131a4818560208601613144565b6131ad8161316e565b840191505092915050565b600060208201905081810360008301526131d2818461317f565b905092915050565b6000819050919050565b6131ed816131da565b81146131f857600080fd5b50565b60008135905061320a816131e4565b92915050565b60006020828403121561322657613225613063565b5b6000613234848285016131fb565b91505092915050565b600073ffffffffffffffffffffffffffffffffffffffff82169050919050565b60006132688261323d565b9050919050565b6132788161325d565b82525050565b6000602082019050613293600083018461326f565b92915050565b6132a28161325d565b81146132ad57600080fd5b50565b6000813590506132bf81613299565b92915050565b600080604083850312156132dc576132db613063565b5b60006132ea858286016132b0565b92505060206132fb858286016131fb565b9150509250929050565b60008060006060848603121561331e5761331d613063565b5b600061332c868287016132b0565b935050602061333d868287016132b0565b925050604061334e868287016131fb565b9150509250925092565b600080fd5b600080fd5b7f4e487b7100000000000000000000000000000000000000000000000000000000600052604160045260246000fd5b61339a8261316e565b810181811067ffffffffffffffff821117156133b9576133b8613362565b5b80604052505050565b60006133cc613059565b90506133d88282613391565b919050565b600067ffffffffffffffff8211156133f8576133f7613362565b5b6134018261316e565b9050602081019050919050565b82818337600083830152505050565b600061343061342b846133dd565b6133c2565b90508281526020810184848401111561344c5761344b61335d565b5b61345784828561340e565b509392505050565b600082601f83011261347457613473613358565b5b813561348484826020860161341d565b91505092915050565b600080604083850312156134a4576134a3613063565b5b600083013567ffffffffffffffff8111156134c2576134c1613068565b5b6134ce8582860161345f565b92505060206134df858286016132b0565b9150509250929050565b600081519050919050565b600082825260208201905092915050565b6000819050602082019050919050565b600082825260208201905092915050565b600061353182613128565b61353b8185613515565b935061354b818560208601613144565b6135548161316e565b840191505092915050565b613568816131da565b82525050565b60006135798261323d565b9050919050565b6135898161356e565b82525050565b613598816130f2565b82525050565b60006101608301600083015184820360008601526135bc8282613526565b91505060208301516135d1602086018261355f565b5060408301516135e4604086018261355f565b50606083015184820360608601526135fc8282613526565b91505060808301516136116080860182613580565b5060a083015161362460a086018261355f565b5060c083015161363760c086018261355f565b5060e083015161364a60e086018261355f565b5061010083015161365f61010086018261355f565b5061012083015161367461012086018261355f565b5061014083015161368961014086018261358f565b508091505092915050565b60006136a0838361359e565b905092915050565b6000602082019050919050565b60006136c0826134e9565b6136ca81856134f4565b9350836020820285016136dc85613505565b8060005b8581101561371857848403895281516136f98582613694565b9450613704836136a8565b925060208a019950506001810190506136e0565b50829750879550505050505092915050565b6000602082019050818103600083015261374481846136b5565b905092915050565b6000806040838503121561376357613762613063565b5b6000613771858286016131fb565b925050602083013567ffffffffffffffff81111561379257613791613068565b5b61379e8582860161345f565b9150509250929050565b600080600080600080600060e0888a0312156137c7576137c6613063565b5b600088013567ffffffffffffffff8111156137e5576137e4613068565b5b6137f18a828b0161345f565b97505060206138028a828b016131fb565b96505060406138138a828b016131fb565b95505060606138248a828b016131fb565b94505060806138358a828b016131fb565b93505060a06138468a828b016131fb565b92505060c06138578a828b016131fb565b91505092959891949750929550565b60006020828403121561387c5761387b613063565b5b600061388a848285016132b0565b91505092915050565b61389c816131da565b82525050565b60006020820190506138b76000830184613893565b92915050565b6138c6816130f2565b81146138d157600080fd5b50565b6000813590506138e3816138bd565b92915050565b60008060408385031215613900576138ff613063565b5b600061390e858286016132b0565b925050602061391f858286016138d4565b9150509250929050565b600067ffffffffffffffff82111561394457613943613362565b5b61394d8261316e565b9050602081019050919050565b600061396d61396884613929565b6133c2565b9050828152602081018484840111156139895761398861335d565b5b61399484828561340e565b509392505050565b600082601f8301126139b1576139b0613358565b5b81356139c184826020860161395a565b91505092915050565b600080600080608085870312156139e4576139e3613063565b5b60006139f2878288016132b0565b9450506020613a03878288016132b0565b9350506040613a14878288016131fb565b925050606085013567ffffffffffffffff811115613a3557613a34613068565b5b613a418782880161399c565b91505092959194509250565b613a568161356e565b82525050565b6000610160820190508181036000830152613a77818e61317f565b9050613a86602083018d613893565b613a93604083018c613893565b8181036060830152613aa5818b61317f565b9050613ab4608083018a613a4d565b613ac160a0830189613893565b613ace60c0830188613893565b613adb60e0830187613893565b613ae9610100830186613893565b613af7610120830185613893565b613b056101408301846130fe565b9c9b505050505050505050505050565b60008060408385031215613b2c57613b2b613063565b5b6000613b3a858286016131fb565b9250506020613b4b858286016131fb565b9150509250929050565b60008060408385031215613b6c57613b6b613063565b5b6000613b7a858286016132b0565b9250506020613b8b858286016132b0565b9150509250929050565b7f4e487b7100000000000000000000000000000000000000000000000000000000600052602260045260246000fd5b60006002820490506001821680613bdc57607f821691505b602082108103613bef57613bee613b95565b5b50919050565b7f4552433732313a20617070726f76616c20746f2063757272656e74206f776e6560008201527f7200000000000000000000000000000000000000000000000000000000000000602082015250565b6000613c51602183613133565b9150613c5c82613bf5565b604082019050919050565b60006020820190508181036000830152613c8081613c44565b9050919050565b7f4552433732313a20617070726f76652063616c6c6572206973206e6f7420746f60008201527f6b656e206f776e6572206f7220617070726f76656420666f7220616c6c000000602082015250565b6000613ce3603d83613133565b9150613cee82613c87565b604082019050919050565b60006020820190508181036000830152613d1281613cd6565b9050919050565b7f4552433732313a2063616c6c6572206973206e6f7420746f6b656e206f776e6560008201527f72206f7220617070726f76656400000000000000000000000000000000000000602082015250565b6000613d75602d83613133565b9150613d8082613d19565b604082019050919050565b60006020820190508181036000830152613da481613d68565b9050919050565b7f4475706c69636174652050726f64756374696f6e20486f757365000000000000600082015250565b6000613de1601a83613133565b9150613dec82613dab565b602082019050919050565b60006020820190508181036000830152613e1081613dd4565b9050919050565b7f4e6f7420616e2041646d696e2c206e6f20616363657373000000000000000000600082015250565b6000613e4d601783613133565b9150613e5882613e17565b602082019050919050565b60006020820190508181036000830152613e7c81613e40565b9050919050565b60008190508160005260206000209050919050565b60006020601f8301049050919050565b600082821b905092915050565b600060088302613ee57fffffffffffffffffffffffffffffffffffffffffffffffffffffffffffffffff82613ea8565b613eef8683613ea8565b95508019841693508086168417925050509392505050565b6000819050919050565b6000613f2c613f27613f22846131da565b613f07565b6131da565b9050919050565b6000819050919050565b613f4683613f11565b613f5a613f5282613f33565b848454613eb5565b825550505050565b600090565b613f6f613f62565b613f7a818484613f3d565b505050565b5b81811015613f9e57613f93600082613f67565b600181019050613f80565b5050565b601f821115613fe357613fb481613e83565b613fbd84613e98565b81016020851015613fcc578190505b613fe0613fd885613e98565b830182613f7f565b50505b505050565b600082821c905092915050565b600061400660001984600802613fe8565b1980831691505092915050565b600061401f8383613ff5565b9150826002028217905092915050565b61403882613128565b67ffffffffffffffff81111561405157614050613362565b5b61405b8254613bc4565b614066828285613fa2565b600060209050601f8311600181146140995760008415614087578287015190505b6140918582614013565b8655506140f9565b601f1984166140a786613e83565b60005b828110156140cf578489015182556001820191506020850194506020810190506140aa565b868310156140ec57848901516140e8601f891682613ff5565b8355505b6001600288020188555050505b505050505050565b7f4e487b7100000000000000000000000000000000000000000000000000000000600052601160045260246000fd5b600061413b826131da565b91507fffffffffffffffffffffffffffffffffffffffffffffffffffffffffffffffff820361416d5761416c614101565b5b600182019050919050565b7f4e487b7100000000000000000000000000000000000000000000000000000000600052603260045260246000fd5b600081905092915050565b60006141bd82613128565b6141c781856141a7565b93506141d7818560208601613144565b80840191505092915050565b60006141ef82846141b2565b915081905092915050565b6000815461420781613bc4565b61421181866141a7565b9450600182166000811461422c576001811461424157614274565b60ff1983168652811515820286019350614274565b61424a85613e83565b60005b8381101561426c5781548189015260018201915060208101905061424d565b838801955050505b50505092915050565b600061428982846141fa565b915081905092915050565b7f4120746f6b656e206973206e6f742070726573656e7420666f7220746869732060008201527f6d6f766965000000000000000000000000000000000000000000000000000000602082015250565b60006142f0602583613133565b91506142fb82614294565b604082019050919050565b6000602082019050818103600083015261431f816142e3565b9050919050565b7f526573616c65206973206e6f7420616c6c6f77656420666f722074686973206d60008201527f6f76696500000000000000000000000000000000000000000000000000000000602082015250565b6000614382602483613133565b915061438d82614326565b604082019050919050565b600060208201905081810360008301526143b181614375565b9050919050565b60006143c3826131da565b91506143ce836131da565b92508282019050808211156143e6576143e5614101565b5b92915050565b7f4e487b7100000000000000000000000000000000000000000000000000000000600052601260045260246000fd5b6000614426826131da565b9150614431836131da565b925082614441576144406143ec565b5b828204905092915050565b6000614457826131da565b9150614462836131da565b9250828202614470816131da565b9150828204841483151761448757614486614101565b5b5092915050565b6000614499826131da565b91506144a4836131da565b92508282039050818111156144bc576144bb614101565b5b92915050565b7f4552433732313a20696e76616c696420746f6b656e2049440000000000000000600082015250565b60006144f8601883613133565b9150614503826144c2565b602082019050919050565b60006020820190508181036000830152614527816144eb565b9050919050565b7f4e6f74206120726567697374657265642070726f64756374696f6e20686f757360008201527f6500000000000000000000000000000000000000000000000000000000000000602082015250565b600061458a602183613133565b91506145958261452e565b604082019050919050565b600060208201905081810360008301526145b98161457d565b9050919050565b7f4120746f6b656e20697320616c72656164792070726573656e7420666f72207460008201527f686973206d6f7669650000000000000000000000000000000000000000000000602082015250565b600061461c602983613133565b9150614627826145c0565b604082019050919050565b6000602082019050818103600083015261464b8161460f565b9050919050565b7f4552433732313a2061646472657373207a65726f206973206e6f74206120766160008201527f6c6964206f776e65720000000000000000000000000000000000000000000000602082015250565b60006146ae602983613133565b91506146b982614652565b604082019050919050565b600060208201905081810360008301526146dd816146a1565b9050919050565b60006146f082856141b2565b91506146fc82846141b2565b91508190509392505050565b7f4e6f7420746865206f776e6572206f662074686520746f6b656e000000000000600082015250565b600061473e601a83613133565b915061474982614708565b602082019050919050565b6000602082019050818103600083015261476d81614731565b9050919050565b7f4552433732313a207472616e736665722066726f6d20696e636f72726563742060008201527f6f776e6572000000000000000000000000000000000000000000000000000000602082015250565b60006147d0602583613133565b91506147db82614774565b604082019050919050565b600060208201905081810360008301526147ff816147c3565b9050919050565b7f4552433732313a207472616e7366657220746f20746865207a65726f2061646460008201527f7265737300000000000000000000000000000000000000000000000000000000602082015250565b6000614862602483613133565b915061486d82614806565b604082019050919050565b6000602082019050818103600083015261489181614855565b9050919050565b7f4552433732313a20617070726f766520746f2063616c6c657200000000000000600082015250565b60006148ce601983613133565b91506148d982614898565b602082019050919050565b600060208201905081810360008301526148fd816148c1565b9050919050565b7f4552433732313a207472616e7366657220746f206e6f6e20455243373231526560008201527f63656976657220696d706c656d656e7465720000000000000000000000000000602082015250565b6000614960603283613133565b915061496b82614904565b604082019050919050565b6000602082019050818103600083015261498f81614953565b9050919050565b600081519050919050565b600082825260208201905092915050565b60006149bd82614996565b6149c781856149a1565b93506149d7818560208601613144565b6149e08161316e565b840191505092915050565b6000608082019050614a00600083018761326f565b614a0d602083018661326f565b614a1a6040830185613893565b8181036060830152614a2c81846149b2565b905095945050505050565b600081519050614a4681613099565b92915050565b600060208284031215614a6257614a61613063565b5b6000614a7084828501614a37565b91505092915050565b7f4552433732313a206d696e7420746f20746865207a65726f2061646472657373600082015250565b6000614aaf602083613133565b9150614aba82614a79565b602082019050919050565b60006020820190508181036000830152614ade81614aa2565b9050919050565b7f4552433732313a20746f6b656e20616c7265616479206d696e74656400000000600082015250565b6000614b1b601c83613133565b9150614b2682614ae5565b602082019050919050565b60006020820190508181036000830152614b4a81614b0e565b905091905056fea2646970667358221220bc66942cd5a4797074f03d50b053eb1b5e215db8c603348fdb23ee095edf011b64736f6c63430008130033",
  "immutableReferences": {},
  "source": "// SPDX-License-Identifier: UNLICENSED\npragma solidity ^0.8.0;\n\nimport \"@openzeppelin/contracts/token/ERC721/ERC721.sol\";\nimport \"@openzeppelin/contracts/utils/Counters.sol\";\n\ncontract FilmToken is ERC721 {\n    using Counters for Counters.Counter;\n    Counters.Counter public tokenIds;\n\n    struct Token {\n        string movieName;\n        uint256 tokenId;\n        uint basePrice;\n        string productionCompany;\n        address payable ownerAddr;\n        uint minTime;\n        uint maxTime;\n        uint apprPercent;\n        uint deprPercent;\n        uint baseDays;\n\n        bool resale;\n    }\n\n    Token[] allTokens;\n    address public admin;\n    mapping(uint256 => Token) public tokenIdToTokenMap;\n    mapping(address=>string) productionAddrToNameMap;\n    address [] allProdHouses;\n    mapping(string=>uint) nameTokenIdMap;\n    mapping(uint=>address) tokenIdToOwnerMap;\n\n    modifier duplicateProdHouse (address addr){\n        bool duplicate = bytes(productionAddrToNameMap[addr]).length > 0 ;\n        require(!duplicate,\"Duplicate Production House\");\n        _;\n    }\n\n    modifier onlyAdmin{\n        require(msg.sender == admin,\"Not an Admin, no access\");\n        _;\n    }\n\n    modifier validProdHouse(address addr){\n        bool duplicate = bytes(productionAddrToNameMap[addr]).length > 0 ;\n        require(duplicate,\"Not a registered production house\");\n        _;\n    }\n\n    modifier duplicateMovieToken(string memory name){ // self exp.\n        bool duplicate = false;\n        for(uint i=0;i<allTokens.length;i++){\n\n            if(keccak256(abi.encodePacked(allTokens[i].movieName)) == keccak256(abi.encodePacked(name))){\n                duplicate = true;break;\n            }\n        }\n\n        require(!duplicate,\"A token is already present for this movie\");\n        _;\n    }\n\n    modifier validMovieToken(string memory name){ // self exp.\n        bool duplicate = false;\n        for(uint i=0;i<allTokens.length;i++){\n\n            if(keccak256(abi.encodePacked(allTokens[i].movieName)) == keccak256(abi.encodePacked(name))){\n                duplicate = true;break;\n            }\n        }\n\n        require(duplicate,\"A token is not present for this movie\");\n        _;\n    }\n\n    modifier validMinMaxValues(uint min,uint max){ // min (both days and appr/depr, should be +ve\n        require(min<=max && min>0 && max>0,\"Invalid Min Max values\");\n        _;\n    }\n\n    modifier checkTokenOwner(uint tokenId){\n        require(tokenIdToOwnerMap[tokenId]==msg.sender,\"Not the owner of the token\");\n        _;\n    }\n\n    constructor() ERC721(\"MovieTokenization\",\"MVTK\"){\n        admin = msg.sender;\n    }\n\n    function registerProductionHouse(string memory name,address addr) public duplicateProdHouse(addr) onlyAdmin{\n        productionAddrToNameMap[addr] = name;\n        allProdHouses.push(addr);\n    }\n\n    //function allProdHouses() public view returns (uint[] memory) {\n        //return allProdHouses;\n    //}\n    // uint appr, uint depr,uint minTime,uint maxTime, uint baseValue)\n\n    // function createMovieToken(string memory movieName, Token memory input) public validProdHouse(msg.sender) duplicateMovieToken(movieName) validMinMaxValues(input.minTime,input.maxTime) validMinMaxValues(input.apprPercent,input.deprPercent){\n    //     //check if the user is a registerd prod house or not, handled in validProdHouse modifier\n    //     //check for duplicate token\n    //     // string memory prodName = productionAddrToNameMap[msg.sender];\n    //     //check if input values are valid\n    //     // address payable sender = payable(msg.sender);\n    //     Token memory newToken = Token(movieName,tokenIds.current(),input.basePrice,productionAddrToNameMap[msg.sender],payable(msg.sender),input.minTime,input.maxTime,input.apprPercent,input.deprPercent,true);\n\n    //     nameTokenIdMap[movieName] = tokenIds.current();\n    //     tokenIdToTokenMap[tokenIds.current()] = newToken;\n    //     tokenIdToOwnerMap[tokenIds.current()] = msg.sender;\n    //     _safeMint(msg.sender, tokenIds.current());\n    //     tokenIds.increment();\n    //     allTokens.push(newToken);\n\n\n    // }\n\n    function createMovieToken(string memory movieName, uint basePrice,uint baseDays, uint minTime,uint maxTime,uint apprPercent,uint deprPercent) public validProdHouse(msg.sender) duplicateMovieToken(movieName){\n        //check if the user is a registerd prod house or not, handled in validProdHouse modifier\n        //check for duplicate token\n        // string memory prodName = productionAddrToNameMap[msg.sender];\n        //check if input values are valid\n        // address payable sender = payable(msg.sender);\n        Token memory newToken = Token(movieName,tokenIds.current(),basePrice,productionAddrToNameMap[msg.sender],payable(msg.sender),minTime,maxTime,apprPercent,deprPercent,baseDays,true);\n\n        nameTokenIdMap[movieName] = tokenIds.current();\n        tokenIdToTokenMap[tokenIds.current()] = newToken;\n        tokenIdToOwnerMap[tokenIds.current()] = msg.sender;\n        _safeMint(msg.sender, tokenIds.current());\n        tokenIds.increment();\n        allTokens.push(newToken);\n\n\n    }\n\n    function buyMovieToken(uint dayss, string memory movieName) public payable validMovieToken(movieName){ //changed tokenId to movieName, as there's no visibility provided right now\n        //check if the movieName is valid, in modifier\n        //days can be +/-, - represents earlier, + later\n        uint tokenId = nameTokenIdMap[movieName];\n        Token memory token = tokenIdToTokenMap[tokenId];\n        require(token.resale == true, \"Resale is not allowed for this movie\");\n        uint value = token.basePrice;\n        uint minDays = token.minTime;\n        uint maxDays = token.maxTime;\n        uint baseDays = token.baseDays;\n\n        uint finalValue = value;// case where dayss == baseDays\n\n\n        if(dayss > minDays && dayss < (minDays+ baseDays) / 2 ){ //highest cost\n            finalValue += finalValue * (token.apprPercent/100);\n            finalValue += finalValue * (token.apprPercent/100);\n        }else if(dayss>=(baseDays+dayss)/2 && dayss<baseDays ){//2nd highest\n            finalValue += finalValue * (token.apprPercent/100);\n        }else if(dayss>baseDays && dayss<=(baseDays+maxDays)/2){//second least\n            finalValue -= finalValue * (token.apprPercent/100);\n        }else if(dayss>(baseDays+maxDays)/2){//least most\n            finalValue -= finalValue * (token.apprPercent/100);\n            finalValue -= finalValue * (token.apprPercent/100);\n        }\n\n\n\n        //get token owner and transfer ether\n        token.ownerAddr.transfer(msg.value); // failure of this reverts everything needn't explicitly handle for now, TODO: better, give a proper error message\n\n        //change ownership\n        token.ownerAddr = payable(msg.sender);\n        //also in map\n        tokenIdToOwnerMap[tokenId] = msg.sender;\n        //disable resale\n        token.resale  = false;\n        //change in token list\n        for(uint i=0;i<allTokens.length;i++){\n            if(allTokens[i].tokenId == tokenId){\n                allTokens[i].ownerAddr = payable(msg.sender);\n            }\n        }\n\n    }\n\n\n    function appreciateTokenValue(uint256 tokenId, uint value) public checkTokenOwner(tokenId){ //how will the user know tokenid, remember? give him visibility\n        tokenIdToTokenMap[tokenId].basePrice += value;\n    }\n\n    function depreciateTokenValue(uint256 tokenId, uint value) public checkTokenOwner(tokenId){\n        tokenIdToTokenMap[tokenId].basePrice -=  value;\n    }\n\n    function enableOrDisableResale(uint tokenId) public checkTokenOwner(tokenId){\n        if(tokenIdToTokenMap[tokenId].resale == true){\n            tokenIdToTokenMap[tokenId].resale = false;\n        }else{\n            tokenIdToTokenMap[tokenId].resale = true;\n        }\n    }\n\n\n    function viewTokens() public returns(Token[] memory){\n\n        Token[] memory result = new Token[](allTokens.length);\n        uint index = 0;\n        for(uint i=0;i<=tokenIds.current();i++){ // no support to deleting tokens, so looping through all tokenids is equal to keys\n\n            if(tokenIdToTokenMap[i].ownerAddr == msg.sender){\n                result[index++]=tokenIdToTokenMap[i];\n            }\n        }\n        return result;\n    }\n\n}\n",
  "sourcePath": "/Users/vishnukiran/Desktop/blockchain/project/FilmToken-contract/contracts/FilmToken.sol",
  "compiler": {
    "name": "solc",
    "version": "0.8.19+commit.7dd6d404.Emscripten.clang"
  },
  "schemaVersion": "3.4.13",
  "updatedAt": "2023-04-29T19:06:39.038Z",
  "networkType": "ethereum",
  "devdoc": {
    "events": {
      "Approval(address,address,uint256)": {
        "details": "Emitted when `owner` enables `approved` to manage the `tokenId` token."
      },
      "ApprovalForAll(address,address,bool)": {
        "details": "Emitted when `owner` enables or disables (`approved`) `operator` to manage all of its assets."
      },
      "Transfer(address,address,uint256)": {
        "details": "Emitted when `tokenId` token is transferred from `from` to `to`."
      }
    },
    "kind": "dev",
    "methods": {
      "approve(address,uint256)": {
        "details": "See {IERC721-approve}."
      },
      "balanceOf(address)": {
        "details": "See {IERC721-balanceOf}."
      },
      "getApproved(uint256)": {
        "details": "See {IERC721-getApproved}."
      },
      "isApprovedForAll(address,address)": {
        "details": "See {IERC721-isApprovedForAll}."
      },
      "name()": {
        "details": "See {IERC721Metadata-name}."
      },
      "ownerOf(uint256)": {
        "details": "See {IERC721-ownerOf}."
      },
      "safeTransferFrom(address,address,uint256)": {
        "details": "See {IERC721-safeTransferFrom}."
      },
      "safeTransferFrom(address,address,uint256,bytes)": {
        "details": "See {IERC721-safeTransferFrom}."
      },
      "setApprovalForAll(address,bool)": {
        "details": "See {IERC721-setApprovalForAll}."
      },
      "supportsInterface(bytes4)": {
        "details": "See {IERC165-supportsInterface}."
      },
      "symbol()": {
        "details": "See {IERC721Metadata-symbol}."
      },
      "tokenURI(uint256)": {
        "details": "See {IERC721Metadata-tokenURI}."
      },
      "transferFrom(address,address,uint256)": {
        "details": "See {IERC721-transferFrom}."
      }
    },
    "version": 1
  },
  "userdoc": {
    "kind": "user",
    "methods": {},
    "version": 1
  }
}