{
  "contractName": "FilmToken",
  "abi": [
    {
      "inputs": [],
      "stateMutability": "nonpayable",
      "type": "constructor"
    },
    {
      "anonymous": false,
      "inputs": [
        {
          "indexed": true,
          "internalType": "address",
          "name": "owner",
          "type": "address"
        },
        {
          "indexed": true,
          "internalType": "address",
          "name": "approved",
          "type": "address"
        },
        {
          "indexed": true,
          "internalType": "uint256",
          "name": "tokenId",
          "type": "uint256"
        }
      ],
      "name": "Approval",
      "type": "event"
    },
    {
      "anonymous": false,
      "inputs": [
        {
          "indexed": true,
          "internalType": "address",
          "name": "owner",
          "type": "address"
        },
        {
          "indexed": true,
          "internalType": "address",
          "name": "operator",
          "type": "address"
        },
        {
          "indexed": false,
          "internalType": "bool",
          "name": "approved",
          "type": "bool"
        }
      ],
      "name": "ApprovalForAll",
      "type": "event"
    },
    {
      "anonymous": false,
      "inputs": [
        {
          "indexed": true,
          "internalType": "address",
          "name": "from",
          "type": "address"
        },
        {
          "indexed": true,
          "internalType": "address",
          "name": "to",
          "type": "address"
        },
        {
          "indexed": true,
          "internalType": "uint256",
          "name": "tokenId",
          "type": "uint256"
        }
      ],
      "name": "Transfer",
      "type": "event"
    },
    {
      "inputs": [],
      "name": "admin",
      "outputs": [
        {
          "internalType": "address",
          "name": "",
          "type": "address"
        }
      ],
      "stateMutability": "view",
      "type": "function",
      "constant": true
    },
    {
      "inputs": [
        {
          "internalType": "address",
          "name": "to",
          "type": "address"
        },
        {
          "internalType": "uint256",
          "name": "tokenId",
          "type": "uint256"
        }
      ],
      "name": "approve",
      "outputs": [],
      "stateMutability": "nonpayable",
      "type": "function"
    },
    {
      "inputs": [
        {
          "internalType": "address",
          "name": "owner",
          "type": "address"
        }
      ],
      "name": "balanceOf",
      "outputs": [
        {
          "internalType": "uint256",
          "name": "",
          "type": "uint256"
        }
      ],
      "stateMutability": "view",
      "type": "function",
      "constant": true
    },
    {
      "inputs": [
        {
          "internalType": "uint256",
          "name": "tokenId",
          "type": "uint256"
        }
      ],
      "name": "getApproved",
      "outputs": [
        {
          "internalType": "address",
          "name": "",
          "type": "address"
        }
      ],
      "stateMutability": "view",
      "type": "function",
      "constant": true
    },
    {
      "inputs": [
        {
          "internalType": "address",
          "name": "owner",
          "type": "address"
        },
        {
          "internalType": "address",
          "name": "operator",
          "type": "address"
        }
      ],
      "name": "isApprovedForAll",
      "outputs": [
        {
          "internalType": "bool",
          "name": "",
          "type": "bool"
        }
      ],
      "stateMutability": "view",
      "type": "function",
      "constant": true
    },
    {
      "inputs": [],
      "name": "name",
      "outputs": [
        {
          "internalType": "string",
          "name": "",
          "type": "string"
        }
      ],
      "stateMutability": "view",
      "type": "function",
      "constant": true
    },
    {
      "inputs": [
        {
          "internalType": "uint256",
          "name": "tokenId",
          "type": "uint256"
        }
      ],
      "name": "ownerOf",
      "outputs": [
        {
          "internalType": "address",
          "name": "",
          "type": "address"
        }
      ],
      "stateMutability": "view",
      "type": "function",
      "constant": true
    },
    {
      "inputs": [
        {
          "internalType": "address",
          "name": "from",
          "type": "address"
        },
        {
          "internalType": "address",
          "name": "to",
          "type": "address"
        },
        {
          "internalType": "uint256",
          "name": "tokenId",
          "type": "uint256"
        }
      ],
      "name": "safeTransferFrom",
      "outputs": [],
      "stateMutability": "nonpayable",
      "type": "function"
    },
    {
      "inputs": [
        {
          "internalType": "address",
          "name": "from",
          "type": "address"
        },
        {
          "internalType": "address",
          "name": "to",
          "type": "address"
        },
        {
          "internalType": "uint256",
          "name": "tokenId",
          "type": "uint256"
        },
        {
          "internalType": "bytes",
          "name": "data",
          "type": "bytes"
        }
      ],
      "name": "safeTransferFrom",
      "outputs": [],
      "stateMutability": "nonpayable",
      "type": "function"
    },
    {
      "inputs": [
        {
          "internalType": "address",
          "name": "operator",
          "type": "address"
        },
        {
          "internalType": "bool",
          "name": "approved",
          "type": "bool"
        }
      ],
      "name": "setApprovalForAll",
      "outputs": [],
      "stateMutability": "nonpayable",
      "type": "function"
    },
    {
      "inputs": [
        {
          "internalType": "bytes4",
          "name": "interfaceId",
          "type": "bytes4"
        }
      ],
      "name": "supportsInterface",
      "outputs": [
        {
          "internalType": "bool",
          "name": "",
          "type": "bool"
        }
      ],
      "stateMutability": "view",
      "type": "function",
      "constant": true
    },
    {
      "inputs": [],
      "name": "symbol",
      "outputs": [
        {
          "internalType": "string",
          "name": "",
          "type": "string"
        }
      ],
      "stateMutability": "view",
      "type": "function",
      "constant": true
    },
    {
      "inputs": [
        {
          "internalType": "uint256",
          "name": "",
          "type": "uint256"
        }
      ],
      "name": "tokenIdToTokenMap",
      "outputs": [
        {
          "internalType": "string",
          "name": "movieName",
          "type": "string"
        },
        {
          "internalType": "uint256",
          "name": "tokenId",
          "type": "uint256"
        },
        {
          "internalType": "uint256",
          "name": "basePrice",
          "type": "uint256"
        },
        {
          "internalType": "string",
          "name": "productionCompany",
          "type": "string"
        },
        {
          "internalType": "address payable",
          "name": "ownerAddr",
          "type": "address"
        },
        {
          "internalType": "uint256",
          "name": "minTime",
          "type": "uint256"
        },
        {
          "internalType": "uint256",
          "name": "maxTime",
          "type": "uint256"
        },
        {
          "internalType": "uint256",
          "name": "apprPercent",
          "type": "uint256"
        },
        {
          "internalType": "uint256",
          "name": "deprPercent",
          "type": "uint256"
        },
        {
          "internalType": "uint256",
          "name": "baseDays",
          "type": "uint256"
        },
        {
          "internalType": "bool",
          "name": "resale",
          "type": "bool"
        }
      ],
      "stateMutability": "view",
      "type": "function",
      "constant": true
    },
    {
      "inputs": [],
      "name": "tokenIds",
      "outputs": [
        {
          "internalType": "uint256",
          "name": "_value",
          "type": "uint256"
        }
      ],
      "stateMutability": "view",
      "type": "function",
      "constant": true
    },
    {
      "inputs": [
        {
          "internalType": "uint256",
          "name": "tokenId",
          "type": "uint256"
        }
      ],
      "name": "tokenURI",
      "outputs": [
        {
          "internalType": "string",
          "name": "",
          "type": "string"
        }
      ],
      "stateMutability": "view",
      "type": "function",
      "constant": true
    },
    {
      "inputs": [
        {
          "internalType": "address",
          "name": "from",
          "type": "address"
        },
        {
          "internalType": "address",
          "name": "to",
          "type": "address"
        },
        {
          "internalType": "uint256",
          "name": "tokenId",
          "type": "uint256"
        }
      ],
      "name": "transferFrom",
      "outputs": [],
      "stateMutability": "nonpayable",
      "type": "function"
    },
    {
      "inputs": [
        {
          "internalType": "string",
          "name": "name",
          "type": "string"
        },
        {
          "internalType": "address",
          "name": "addr",
          "type": "address"
        }
      ],
      "name": "registerProductionHouse",
      "outputs": [],
      "stateMutability": "nonpayable",
      "type": "function"
    },
    {
      "inputs": [],
      "name": "getAllProdHouses",
      "outputs": [
        {
          "internalType": "address[]",
          "name": "",
          "type": "address[]"
        }
      ],
      "stateMutability": "view",
      "type": "function",
      "constant": true
    },
    {
      "inputs": [
        {
          "internalType": "string",
          "name": "movieName",
          "type": "string"
        },
        {
          "internalType": "uint256",
          "name": "basePrice",
          "type": "uint256"
        },
        {
          "internalType": "uint256",
          "name": "baseDays",
          "type": "uint256"
        },
        {
          "internalType": "uint256",
          "name": "minTime",
          "type": "uint256"
        },
        {
          "internalType": "uint256",
          "name": "maxTime",
          "type": "uint256"
        },
        {
          "internalType": "uint256",
          "name": "apprPercent",
          "type": "uint256"
        },
        {
          "internalType": "uint256",
          "name": "deprPercent",
          "type": "uint256"
        }
      ],
      "name": "createMovieToken",
      "outputs": [],
      "stateMutability": "nonpayable",
      "type": "function"
    },
    {
      "inputs": [
        {
          "internalType": "uint256",
          "name": "dayss",
          "type": "uint256"
        },
        {
          "internalType": "string",
          "name": "movieName",
          "type": "string"
        }
      ],
      "name": "buyMovieToken",
      "outputs": [],
      "stateMutability": "payable",
      "type": "function",
      "payable": true
    },
    {
      "inputs": [
        {
          "internalType": "uint256",
          "name": "tokenId",
          "type": "uint256"
        },
        {
          "internalType": "uint256",
          "name": "value",
          "type": "uint256"
        }
      ],
      "name": "appreciateTokenValue",
      "outputs": [],
      "stateMutability": "nonpayable",
      "type": "function"
    },
    {
      "inputs": [
        {
          "internalType": "uint256",
          "name": "tokenId",
          "type": "uint256"
        },
        {
          "internalType": "uint256",
          "name": "value",
          "type": "uint256"
        }
      ],
      "name": "depreciateTokenValue",
      "outputs": [],
      "stateMutability": "nonpayable",
      "type": "function"
    },
    {
      "inputs": [
        {
          "internalType": "uint256",
          "name": "tokenId",
          "type": "uint256"
        }
      ],
      "name": "enableOrDisableResale",
      "outputs": [],
      "stateMutability": "nonpayable",
      "type": "function"
    },
    {
      "inputs": [],
      "name": "viewTokens",
      "outputs": [
        {
          "components": [
            {
              "internalType": "string",
              "name": "movieName",
              "type": "string"
            },
            {
              "internalType": "uint256",
              "name": "tokenId",
              "type": "uint256"
            },
            {
              "internalType": "uint256",
              "name": "basePrice",
              "type": "uint256"
            },
            {
              "internalType": "string",
              "name": "productionCompany",
              "type": "string"
            },
            {
              "internalType": "address payable",
              "name": "ownerAddr",
              "type": "address"
            },
            {
              "internalType": "uint256",
              "name": "minTime",
              "type": "uint256"
            },
            {
              "internalType": "uint256",
              "name": "maxTime",
              "type": "uint256"
            },
            {
              "internalType": "uint256",
              "name": "apprPercent",
              "type": "uint256"
            },
            {
              "internalType": "uint256",
              "name": "deprPercent",
              "type": "uint256"
            },
            {
              "internalType": "uint256",
              "name": "baseDays",
              "type": "uint256"
            },
            {
              "internalType": "bool",
              "name": "resale",
              "type": "bool"
            }
          ],
          "internalType": "struct FilmToken.Token[]",
          "name": "",
          "type": "tuple[]"
        }
      ],
      "stateMutability": "view",
      "type": "function",
      "constant": true
    },
    {
      "inputs": [],
      "name": "getAllTokenIds",
      "outputs": [
        {
          "internalType": "uint256",
          "name": "",
          "type": "uint256"
        }
      ],
      "stateMutability": "view",
      "type": "function",
      "constant": true
    }
  ],
  "bytecode": "0x60806040523480156200001157600080fd5b506040518060400160405280601181526020017f4d6f766965546f6b656e697a6174696f6e0000000000000000000000000000008152506040518060400160405280600481526020017f4d56544b0000000000000000000000000000000000000000000000000000000081525081600090816200008f919062000365565b508060019081620000a1919062000365565b50505033600860006101000a81548173ffffffffffffffffffffffffffffffffffffffff021916908373ffffffffffffffffffffffffffffffffffffffff1602179055506200044c565b600081519050919050565b7f4e487b7100000000000000000000000000000000000000000000000000000000600052604160045260246000fd5b7f4e487b7100000000000000000000000000000000000000000000000000000000600052602260045260246000fd5b600060028204905060018216806200016d57607f821691505b60208210810362000183576200018262000125565b5b50919050565b60008190508160005260206000209050919050565b60006020601f8301049050919050565b600082821b905092915050565b600060088302620001ed7fffffffffffffffffffffffffffffffffffffffffffffffffffffffffffffffff82620001ae565b620001f98683620001ae565b95508019841693508086168417925050509392505050565b6000819050919050565b6000819050919050565b600062000246620002406200023a8462000211565b6200021b565b62000211565b9050919050565b6000819050919050565b620002628362000225565b6200027a62000271826200024d565b848454620001bb565b825550505050565b600090565b6200029162000282565b6200029e81848462000257565b505050565b5b81811015620002c657620002ba60008262000287565b600181019050620002a4565b5050565b601f8211156200031557620002df8162000189565b620002ea846200019e565b81016020851015620002fa578190505b6200031262000309856200019e565b830182620002a3565b50505b505050565b600082821c905092915050565b60006200033a600019846008026200031a565b1980831691505092915050565b600062000355838362000327565b9150826002028217905092915050565b6200037082620000eb565b67ffffffffffffffff8111156200038c576200038b620000f6565b5b62000398825462000154565b620003a5828285620002ca565b600060209050601f831160018114620003dd5760008415620003c8578287015190505b620003d4858262000347565b86555062000444565b601f198416620003ed8662000189565b60005b828110156200041757848901518255600182019150602085019450602081019050620003f0565b8683101562000437578489015162000433601f89168262000327565b8355505b6001600288020188555050505b505050505050565b614d19806200045c6000396000f3fe6080604052600436106101665760003560e01c806370a08231116100d1578063c3aee7361161008a578063dd7072f611610064578063dd7072f614610549578063e985e9c514610572578063f851a440146105af578063f907b4a6146105da57610166565b8063c3aee7361461049c578063c87b56dd146104e3578063ca99cc3e1461052057610166565b806370a082311461038c578063714cff56146103c957806395d89b41146103f4578063a22cb4651461041f578063b88d4fde14610448578063bdbed7221461047157610166565b806342842e0e1161012357806342842e0e1461028b5780634bf5bf35146102b45780634d129205146102df57806357a3106b1461030a5780636352211e146103265780636e323c501461036357610166565b806301ffc9a71461016b57806306fdde03146101a8578063081812fc146101d3578063095ea7b31461021057806323b872dd1461023957806337c4f46714610262575b600080fd5b34801561017757600080fd5b50610192600480360381019061018d9190613177565b610603565b60405161019f91906131bf565b60405180910390f35b3480156101b457600080fd5b506101bd6106e5565b6040516101ca919061326a565b60405180910390f35b3480156101df57600080fd5b506101fa60048036038101906101f591906132c2565b610777565b6040516102079190613330565b60405180910390f35b34801561021c57600080fd5b5061023760048036038101906102329190613377565b6107bd565b005b34801561024557600080fd5b50610260600480360381019061025b91906133b7565b6108d4565b005b34801561026e57600080fd5b506102896004803603810190610284919061353f565b610934565b005b34801561029757600080fd5b506102b260048036038101906102ad91906133b7565b610b0e565b005b3480156102c057600080fd5b506102c9610b2e565b6040516102d691906137dc565b60405180910390f35b3480156102eb57600080fd5b506102f4610de2565b60405161030191906138bc565b60405180910390f35b610324600480360381019061031f91906138de565b610e70565b005b34801561033257600080fd5b5061034d600480360381019061034891906132c2565b61153e565b60405161035a9190613330565b60405180910390f35b34801561036f57600080fd5b5061038a6004803603810190610385919061393a565b6115c4565b005b34801561039857600080fd5b506103b360048036038101906103ae91906139f8565b611b2f565b6040516103c09190613a34565b60405180910390f35b3480156103d557600080fd5b506103de611be6565b6040516103eb9190613a34565b60405180910390f35b34801561040057600080fd5b50610409611bf2565b604051610416919061326a565b60405180910390f35b34801561042b57600080fd5b5061044660048036038101906104419190613a7b565b611c84565b005b34801561045457600080fd5b5061046f600480360381019061046a9190613b5c565b611c9a565b005b34801561047d57600080fd5b50610486611cfc565b6040516104939190613a34565b60405180910390f35b3480156104a857600080fd5b506104c360048036038101906104be91906132c2565b611d0d565b6040516104da9b9a99989796959493929190613bee565b60405180910390f35b3480156104ef57600080fd5b5061050a600480360381019061050591906132c2565b611ea4565b604051610517919061326a565b60405180910390f35b34801561052c57600080fd5b50610547600480360381019061054291906132c2565b611f0c565b005b34801561055557600080fd5b50610570600480360381019061056b9190613ca7565b612045565b005b34801561057e57600080fd5b5061059960048036038101906105949190613ce7565b612119565b6040516105a691906131bf565b60405180910390f35b3480156105bb57600080fd5b506105c46121ad565b6040516105d19190613330565b60405180910390f35b3480156105e657600080fd5b5061060160048036038101906105fc9190613ca7565b6121d3565b005b60007f80ac58cd000000000000000000000000000000000000000000000000000000007bffffffffffffffffffffffffffffffffffffffffffffffffffffffff1916827bffffffffffffffffffffffffffffffffffffffffffffffffffffffff191614806106ce57507f5b5e139f000000000000000000000000000000000000000000000000000000007bffffffffffffffffffffffffffffffffffffffffffffffffffffffff1916827bffffffffffffffffffffffffffffffffffffffffffffffffffffffff1916145b806106de57506106dd826122a7565b5b9050919050565b6060600080546106f490613d56565b80601f016020809104026020016040519081016040528092919081815260200182805461072090613d56565b801561076d5780601f106107425761010080835404028352916020019161076d565b820191906000526020600020905b81548152906001019060200180831161075057829003601f168201915b5050505050905090565b600061078282612311565b6004600083815260200190815260200160002060009054906101000a900473ffffffffffffffffffffffffffffffffffffffff169050919050565b60006107c88261153e565b90508073ffffffffffffffffffffffffffffffffffffffff168373ffffffffffffffffffffffffffffffffffffffff1603610838576040517f08c379a000000000000000000000000000000000000000000000000000000000815260040161082f90613df9565b60405180910390fd5b8073ffffffffffffffffffffffffffffffffffffffff1661085761235c565b73ffffffffffffffffffffffffffffffffffffffff16148061088657506108858161088061235c565b612119565b5b6108c5576040517f08c379a00000000000000000000000000000000000000000000000000000000081526004016108bc90613e8b565b60405180910390fd5b6108cf8383612364565b505050565b6108e56108df61235c565b8261241d565b610924576040517f08c379a000000000000000000000000000000000000000000000000000000000815260040161091b90613f1d565b60405180910390fd5b61092f8383836124b2565b505050565b80600080600a60008473ffffffffffffffffffffffffffffffffffffffff1673ffffffffffffffffffffffffffffffffffffffff168152602001908152602001600020805461098290613d56565b905011905080156109c8576040517f08c379a00000000000000000000000000000000000000000000000000000000081526004016109bf90613f89565b60405180910390fd5b600860009054906101000a900473ffffffffffffffffffffffffffffffffffffffff1673ffffffffffffffffffffffffffffffffffffffff163373ffffffffffffffffffffffffffffffffffffffff1614610a58576040517f08c379a0000000000000000000000000000000000000000000000000000000008152600401610a4f90613ff5565b60405180910390fd5b83600a60008573ffffffffffffffffffffffffffffffffffffffff1673ffffffffffffffffffffffffffffffffffffffff1681526020019081526020016000209081610aa491906141c1565b50600b839080600181540180825580915050600190039060005260206000200160009091909190916101000a81548173ffffffffffffffffffffffffffffffffffffffff021916908373ffffffffffffffffffffffffffffffffffffffff16021790555050505050565b610b2983838360405180602001604052806000815250611c9a565b505050565b6060600060078054905067ffffffffffffffff811115610b5157610b50613414565b5b604051908082528060200260200182016040528015610b8a57816020015b610b77613099565b815260200190600190039081610b6f5790505b5090506000805b610b9b60066127ab565b811015610dd9576009600082815260200190815260200160002060405180610160016040529081600082018054610bd190613d56565b80601f0160208091040260200160405190810160405280929190818152602001828054610bfd90613d56565b8015610c4a5780601f10610c1f57610100808354040283529160200191610c4a565b820191906000526020600020905b815481529060010190602001808311610c2d57829003601f168201915b505050505081526020016001820154815260200160028201548152602001600382018054610c7790613d56565b80601f0160208091040260200160405190810160405280929190818152602001828054610ca390613d56565b8015610cf05780601f10610cc557610100808354040283529160200191610cf0565b820191906000526020600020905b815481529060010190602001808311610cd357829003601f168201915b505050505081526020016004820160009054906101000a900473ffffffffffffffffffffffffffffffffffffffff1673ffffffffffffffffffffffffffffffffffffffff1673ffffffffffffffffffffffffffffffffffffffff1681526020016005820154815260200160068201548152602001600782015481526020016008820154815260200160098201548152602001600a820160009054906101000a900460ff161515151581525050838380610da8906142c2565b945081518110610dbb57610dba61430a565b5b60200260200101819052508080610dd1906142c2565b915050610b91565b50819250505090565b6060600b805480602002602001604051908101604052809291908181526020018280548015610e6657602002820191906000526020600020905b8160009054906101000a900473ffffffffffffffffffffffffffffffffffffffff1673ffffffffffffffffffffffffffffffffffffffff1681526020019060010190808311610e1c575b5050505050905090565b806000805b600780549050811015610f155782604051602001610e939190614375565b6040516020818303038152906040528051906020012060078281548110610ebd57610ebc61430a565b5b90600052602060002090600b0201600001604051602001610ede919061440f565b6040516020818303038152906040528051906020012003610f025760019150610f15565b8080610f0d906142c2565b915050610e75565b5080610f56576040517f08c379a0000000000000000000000000000000000000000000000000000000008152600401610f4d90614498565b60405180910390fd5b6000600c84604051610f689190614375565b908152602001604051809103902054905060006009600083815260200190815260200160002060405180610160016040529081600082018054610faa90613d56565b80601f0160208091040260200160405190810160405280929190818152602001828054610fd690613d56565b80156110235780601f10610ff857610100808354040283529160200191611023565b820191906000526020600020905b81548152906001019060200180831161100657829003601f168201915b50505050508152602001600182015481526020016002820154815260200160038201805461105090613d56565b80601f016020809104026020016040519081016040528092919081815260200182805461107c90613d56565b80156110c95780601f1061109e576101008083540402835291602001916110c9565b820191906000526020600020905b8154815290600101906020018083116110ac57829003601f168201915b505050505081526020016004820160009054906101000a900473ffffffffffffffffffffffffffffffffffffffff1673ffffffffffffffffffffffffffffffffffffffff1673ffffffffffffffffffffffffffffffffffffffff1681526020016005820154815260200160068201548152602001600782015481526020016008820154815260200160098201548152602001600a820160009054906101000a900460ff1615151515815250509050600115158161014001511515146111c3576040517f08c379a00000000000000000000000000000000000000000000000000000000081526004016111ba9061452a565b60405180910390fd5b60008160400151905060008260a00151905060008360c001519050600084610120015190506000849050838b118015611212575060028285611205919061454a565b61120f91906145ad565b8b105b1561126e5760648660e0015161122891906145ad565b8161123391906145de565b8161123e919061454a565b905060648660e0015161125191906145ad565b8161125c91906145de565b81611267919061454a565b9050611395565b60028b8361127c919061454a565b61128691906145ad565b8b101580156112945750818b105b156112c75760648660e001516112aa91906145ad565b816112b591906145de565b816112c0919061454a565b9050611394565b818b1180156112ed5750600283836112df919061454a565b6112e991906145ad565b8b11155b156113205760648660e0015161130391906145ad565b8161130e91906145de565b816113199190614620565b9050611393565b6002838361132e919061454a565b61133891906145ad565b8b11156113925760648660e0015161135091906145ad565b8161135b91906145de565b816113669190614620565b905060648660e0015161137991906145ad565b8161138491906145de565b8161138f9190614620565b90505b5b5b5b856080015173ffffffffffffffffffffffffffffffffffffffff166108fc349081150290604051600060405180830381858888f193505050501580156113df573d6000803e3d6000fd5b5033866080019073ffffffffffffffffffffffffffffffffffffffff16908173ffffffffffffffffffffffffffffffffffffffff168152505033600d600089815260200190815260200160002060006101000a81548173ffffffffffffffffffffffffffffffffffffffff021916908373ffffffffffffffffffffffffffffffffffffffff16021790555060008661014001901515908115158152505060005b6007805490508110156115305787600782815481106114a1576114a061430a565b5b90600052602060002090600b0201600101540361151d5733600782815481106114cd576114cc61430a565b5b90600052602060002090600b020160040160006101000a81548173ffffffffffffffffffffffffffffffffffffffff021916908373ffffffffffffffffffffffffffffffffffffffff1602179055505b8080611528906142c2565b91505061147f565b505050505050505050505050565b60008061154a836127b9565b9050600073ffffffffffffffffffffffffffffffffffffffff168173ffffffffffffffffffffffffffffffffffffffff16036115bb576040517f08c379a00000000000000000000000000000000000000000000000000000000081526004016115b2906146a0565b60405180910390fd5b80915050919050565b33600080600a60008473ffffffffffffffffffffffffffffffffffffffff1673ffffffffffffffffffffffffffffffffffffffff168152602001908152602001600020805461161290613d56565b905011905080611657576040517f08c379a000000000000000000000000000000000000000000000000000000000815260040161164e90614732565b60405180910390fd5b886000805b6007805490508110156116fc578260405160200161167a9190614375565b60405160208183030381529060405280519060200120600782815481106116a4576116a361430a565b5b90600052602060002090600b02016000016040516020016116c5919061440f565b60405160208183030381529060405280519060200120036116e957600191506116fc565b80806116f4906142c2565b91505061165c565b50801561173e576040517f08c379a0000000000000000000000000000000000000000000000000000000008152600401611735906147c4565b60405180910390fd5b60006040518061016001604052808d815260200161175c60066127ab565b81526020018c8152602001600a60003373ffffffffffffffffffffffffffffffffffffffff1673ffffffffffffffffffffffffffffffffffffffff16815260200190815260200160002080546117b190613d56565b80601f01602080910402602001604051908101604052809291908181526020018280546117dd90613d56565b801561182a5780601f106117ff5761010080835404028352916020019161182a565b820191906000526020600020905b81548152906001019060200180831161180d57829003601f168201915b505050505081526020013373ffffffffffffffffffffffffffffffffffffffff1681526020018a81526020018981526020018881526020018781526020018b815260200160011515815250905061188160066127ab565b600c8d6040516118919190614375565b90815260200160405180910390208190555080600960006118b260066127ab565b815260200190815260200160002060008201518160000190816118d591906141c1565b50602082015181600101556040820151816002015560608201518160030190816118ff91906141c1565b5060808201518160040160006101000a81548173ffffffffffffffffffffffffffffffffffffffff021916908373ffffffffffffffffffffffffffffffffffffffff16021790555060a0820151816005015560c0820151816006015560e082015181600701556101008201518160080155610120820151816009015561014082015181600a0160006101000a81548160ff02191690831515021790555090505033600d60006119ae60066127ab565b815260200190815260200160002060006101000a81548173ffffffffffffffffffffffffffffffffffffffff021916908373ffffffffffffffffffffffffffffffffffffffff160217905550611a0d33611a0860066127ab565b6127f6565b611a176006612814565b60078190806001815401808255809150506001900390600052602060002090600b02016000909190919091506000820151816000019081611a5891906141c1565b5060208201518160010155604082015181600201556060820151816003019081611a8291906141c1565b5060808201518160040160006101000a81548173ffffffffffffffffffffffffffffffffffffffff021916908373ffffffffffffffffffffffffffffffffffffffff16021790555060a0820151816005015560c0820151816006015560e082015181600701556101008201518160080155610120820151816009015561014082015181600a0160006101000a81548160ff0219169083151502179055505050505050505050505050505050565b60008073ffffffffffffffffffffffffffffffffffffffff168273ffffffffffffffffffffffffffffffffffffffff1603611b9f576040517f08c379a0000000000000000000000000000000000000000000000000000000008152600401611b9690614856565b60405180910390fd5b600360008373ffffffffffffffffffffffffffffffffffffffff1673ffffffffffffffffffffffffffffffffffffffff168152602001908152602001600020549050919050565b60068060000154905081565b606060018054611c0190613d56565b80601f0160208091040260200160405190810160405280929190818152602001828054611c2d90613d56565b8015611c7a5780601f10611c4f57610100808354040283529160200191611c7a565b820191906000526020600020905b815481529060010190602001808311611c5d57829003601f168201915b5050505050905090565b611c96611c8f61235c565b838361282a565b5050565b611cab611ca561235c565b8361241d565b611cea576040517f08c379a0000000000000000000000000000000000000000000000000000000008152600401611ce190613f1d565b60405180910390fd5b611cf684848484612996565b50505050565b6000611d0860066127ab565b905090565b6009602052806000526040600020600091509050806000018054611d3090613d56565b80601f0160208091040260200160405190810160405280929190818152602001828054611d5c90613d56565b8015611da95780601f10611d7e57610100808354040283529160200191611da9565b820191906000526020600020905b815481529060010190602001808311611d8c57829003601f168201915b505050505090806001015490806002015490806003018054611dca90613d56565b80601f0160208091040260200160405190810160405280929190818152602001828054611df690613d56565b8015611e435780601f10611e1857610100808354040283529160200191611e43565b820191906000526020600020905b815481529060010190602001808311611e2657829003601f168201915b5050505050908060040160009054906101000a900473ffffffffffffffffffffffffffffffffffffffff169080600501549080600601549080600701549080600801549080600901549080600a0160009054906101000a900460ff1690508b565b6060611eaf82612311565b6000611eb96129f2565b90506000815111611ed95760405180602001604052806000815250611f04565b80611ee384612a09565b604051602001611ef4929190614876565b6040516020818303038152906040525b915050919050565b803373ffffffffffffffffffffffffffffffffffffffff16600d600083815260200190815260200160002060009054906101000a900473ffffffffffffffffffffffffffffffffffffffff1673ffffffffffffffffffffffffffffffffffffffff1614611fae576040517f08c379a0000000000000000000000000000000000000000000000000000000008152600401611fa5906148e6565b60405180910390fd5b6001151560096000848152602001908152602001600020600a0160009054906101000a900460ff1615150361201157600060096000848152602001908152602001600020600a0160006101000a81548160ff021916908315150217905550612041565b600160096000848152602001908152602001600020600a0160006101000a81548160ff0219169083151502179055505b5050565b813373ffffffffffffffffffffffffffffffffffffffff16600d600083815260200190815260200160002060009054906101000a900473ffffffffffffffffffffffffffffffffffffffff1673ffffffffffffffffffffffffffffffffffffffff16146120e7576040517f08c379a00000000000000000000000000000000000000000000000000000000081526004016120de906148e6565b60405180910390fd5b8160096000858152602001908152602001600020600201600082825461210d919061454a565b92505081905550505050565b6000600560008473ffffffffffffffffffffffffffffffffffffffff1673ffffffffffffffffffffffffffffffffffffffff16815260200190815260200160002060008373ffffffffffffffffffffffffffffffffffffffff1673ffffffffffffffffffffffffffffffffffffffff16815260200190815260200160002060009054906101000a900460ff16905092915050565b600860009054906101000a900473ffffffffffffffffffffffffffffffffffffffff1681565b813373ffffffffffffffffffffffffffffffffffffffff16600d600083815260200190815260200160002060009054906101000a900473ffffffffffffffffffffffffffffffffffffffff1673ffffffffffffffffffffffffffffffffffffffff1614612275576040517f08c379a000000000000000000000000000000000000000000000000000000000815260040161226c906148e6565b60405180910390fd5b8160096000858152602001908152602001600020600201600082825461229b9190614620565b92505081905550505050565b60007f01ffc9a7000000000000000000000000000000000000000000000000000000007bffffffffffffffffffffffffffffffffffffffffffffffffffffffff1916827bffffffffffffffffffffffffffffffffffffffffffffffffffffffff1916149050919050565b61231a81612ad7565b612359576040517f08c379a0000000000000000000000000000000000000000000000000000000008152600401612350906146a0565b60405180910390fd5b50565b600033905090565b816004600083815260200190815260200160002060006101000a81548173ffffffffffffffffffffffffffffffffffffffff021916908373ffffffffffffffffffffffffffffffffffffffff160217905550808273ffffffffffffffffffffffffffffffffffffffff166123d78361153e565b73ffffffffffffffffffffffffffffffffffffffff167f8c5be1e5ebec7d5bd14f71427d1e84f3dd0314c0f7b2291e5b200ac8c7c3b92560405160405180910390a45050565b6000806124298361153e565b90508073ffffffffffffffffffffffffffffffffffffffff168473ffffffffffffffffffffffffffffffffffffffff16148061246b575061246a8185612119565b5b806124a957508373ffffffffffffffffffffffffffffffffffffffff1661249184610777565b73ffffffffffffffffffffffffffffffffffffffff16145b91505092915050565b8273ffffffffffffffffffffffffffffffffffffffff166124d28261153e565b73ffffffffffffffffffffffffffffffffffffffff1614612528576040517f08c379a000000000000000000000000000000000000000000000000000000000815260040161251f90614978565b60405180910390fd5b600073ffffffffffffffffffffffffffffffffffffffff168273ffffffffffffffffffffffffffffffffffffffff1603612597576040517f08c379a000000000000000000000000000000000000000000000000000000000815260040161258e90614a0a565b60405180910390fd5b6125a48383836001612b18565b8273ffffffffffffffffffffffffffffffffffffffff166125c48261153e565b73ffffffffffffffffffffffffffffffffffffffff161461261a576040517f08c379a000000000000000000000000000000000000000000000000000000000815260040161261190614978565b60405180910390fd5b6004600082815260200190815260200160002060006101000a81549073ffffffffffffffffffffffffffffffffffffffff02191690556001600360008573ffffffffffffffffffffffffffffffffffffffff1673ffffffffffffffffffffffffffffffffffffffff168152602001908152602001600020600082825403925050819055506001600360008473ffffffffffffffffffffffffffffffffffffffff1673ffffffffffffffffffffffffffffffffffffffff16815260200190815260200160002060008282540192505081905550816002600083815260200190815260200160002060006101000a81548173ffffffffffffffffffffffffffffffffffffffff021916908373ffffffffffffffffffffffffffffffffffffffff160217905550808273ffffffffffffffffffffffffffffffffffffffff168473ffffffffffffffffffffffffffffffffffffffff167fddf252ad1be2c89b69c2b068fc378daa952ba7f163c4a11628f55a4df523b3ef60405160405180910390a46127a68383836001612b1e565b505050565b600081600001549050919050565b60006002600083815260200190815260200160002060009054906101000a900473ffffffffffffffffffffffffffffffffffffffff169050919050565b612810828260405180602001604052806000815250612b24565b5050565b6001816000016000828254019250508190555050565b8173ffffffffffffffffffffffffffffffffffffffff168373ffffffffffffffffffffffffffffffffffffffff1603612898576040517f08c379a000000000000000000000000000000000000000000000000000000000815260040161288f90614a76565b60405180910390fd5b80600560008573ffffffffffffffffffffffffffffffffffffffff1673ffffffffffffffffffffffffffffffffffffffff16815260200190815260200160002060008473ffffffffffffffffffffffffffffffffffffffff1673ffffffffffffffffffffffffffffffffffffffff16815260200190815260200160002060006101000a81548160ff0219169083151502179055508173ffffffffffffffffffffffffffffffffffffffff168373ffffffffffffffffffffffffffffffffffffffff167f17307eab39ab6107e8899845ad3d59bd9653f200f220920489ca2b5937696c318360405161298991906131bf565b60405180910390a3505050565b6129a18484846124b2565b6129ad84848484612b7f565b6129ec576040517f08c379a00000000000000000000000000000000000000000000000000000000081526004016129e390614b08565b60405180910390fd5b50505050565b606060405180602001604052806000815250905090565b606060006001612a1884612d06565b01905060008167ffffffffffffffff811115612a3757612a36613414565b5b6040519080825280601f01601f191660200182016040528015612a695781602001600182028036833780820191505090505b509050600082602001820190505b600115612acc578080600190039150507f3031323334353637383961626364656600000000000000000000000000000000600a86061a8153600a8581612ac057612abf61457e565b5b04945060008503612a77575b819350505050919050565b60008073ffffffffffffffffffffffffffffffffffffffff16612af9836127b9565b73ffffffffffffffffffffffffffffffffffffffff1614159050919050565b50505050565b50505050565b612b2e8383612e59565b612b3b6000848484612b7f565b612b7a576040517f08c379a0000000000000000000000000000000000000000000000000000000008152600401612b7190614b08565b60405180910390fd5b505050565b6000612ba08473ffffffffffffffffffffffffffffffffffffffff16613076565b15612cf9578373ffffffffffffffffffffffffffffffffffffffff1663150b7a02612bc961235c565b8786866040518563ffffffff1660e01b8152600401612beb9493929190614b7d565b6020604051808303816000875af1925050508015612c2757506040513d601f19601f82011682018060405250810190612c249190614bde565b60015b612ca9573d8060008114612c57576040519150601f19603f3d011682016040523d82523d6000602084013e612c5c565b606091505b506000815103612ca1576040517f08c379a0000000000000000000000000000000000000000000000000000000008152600401612c9890614b08565b60405180910390fd5b805181602001fd5b63150b7a0260e01b7bffffffffffffffffffffffffffffffffffffffffffffffffffffffff1916817bffffffffffffffffffffffffffffffffffffffffffffffffffffffff191614915050612cfe565b600190505b949350505050565b600080600090507a184f03e93ff9f4daa797ed6e38ed64bf6a1f0100000000000000008310612d64577a184f03e93ff9f4daa797ed6e38ed64bf6a1f0100000000000000008381612d5a57612d5961457e565b5b0492506040810190505b6d04ee2d6d415b85acef81000000008310612da1576d04ee2d6d415b85acef81000000008381612d9757612d9661457e565b5b0492506020810190505b662386f26fc100008310612dd057662386f26fc100008381612dc657612dc561457e565b5b0492506010810190505b6305f5e1008310612df9576305f5e1008381612def57612dee61457e565b5b0492506008810190505b6127108310612e1e576127108381612e1457612e1361457e565b5b0492506004810190505b60648310612e415760648381612e3757612e3661457e565b5b0492506002810190505b600a8310612e50576001810190505b80915050919050565b600073ffffffffffffffffffffffffffffffffffffffff168273ffffffffffffffffffffffffffffffffffffffff1603612ec8576040517f08c379a0000000000000000000000000000000000000000000000000000000008152600401612ebf90614c57565b60405180910390fd5b612ed181612ad7565b15612f11576040517f08c379a0000000000000000000000000000000000000000000000000000000008152600401612f0890614cc3565b60405180910390fd5b612f1f600083836001612b18565b612f2881612ad7565b15612f68576040517f08c379a0000000000000000000000000000000000000000000000000000000008152600401612f5f90614cc3565b60405180910390fd5b6001600360008473ffffffffffffffffffffffffffffffffffffffff1673ffffffffffffffffffffffffffffffffffffffff16815260200190815260200160002060008282540192505081905550816002600083815260200190815260200160002060006101000a81548173ffffffffffffffffffffffffffffffffffffffff021916908373ffffffffffffffffffffffffffffffffffffffff160217905550808273ffffffffffffffffffffffffffffffffffffffff16600073ffffffffffffffffffffffffffffffffffffffff167fddf252ad1be2c89b69c2b068fc378daa952ba7f163c4a11628f55a4df523b3ef60405160405180910390a4613072600083836001612b1e565b5050565b6000808273ffffffffffffffffffffffffffffffffffffffff163b119050919050565b60405180610160016040528060608152602001600081526020016000815260200160608152602001600073ffffffffffffffffffffffffffffffffffffffff16815260200160008152602001600081526020016000815260200160008152602001600081526020016000151581525090565b6000604051905090565b600080fd5b600080fd5b60007fffffffff0000000000000000000000000000000000000000000000000000000082169050919050565b6131548161311f565b811461315f57600080fd5b50565b6000813590506131718161314b565b92915050565b60006020828403121561318d5761318c613115565b5b600061319b84828501613162565b91505092915050565b60008115159050919050565b6131b9816131a4565b82525050565b60006020820190506131d460008301846131b0565b92915050565b600081519050919050565b600082825260208201905092915050565b60005b838110156132145780820151818401526020810190506131f9565b60008484015250505050565b6000601f19601f8301169050919050565b600061323c826131da565b61324681856131e5565b93506132568185602086016131f6565b61325f81613220565b840191505092915050565b600060208201905081810360008301526132848184613231565b905092915050565b6000819050919050565b61329f8161328c565b81146132aa57600080fd5b50565b6000813590506132bc81613296565b92915050565b6000602082840312156132d8576132d7613115565b5b60006132e6848285016132ad565b91505092915050565b600073ffffffffffffffffffffffffffffffffffffffff82169050919050565b600061331a826132ef565b9050919050565b61332a8161330f565b82525050565b60006020820190506133456000830184613321565b92915050565b6133548161330f565b811461335f57600080fd5b50565b6000813590506133718161334b565b92915050565b6000806040838503121561338e5761338d613115565b5b600061339c85828601613362565b92505060206133ad858286016132ad565b9150509250929050565b6000806000606084860312156133d0576133cf613115565b5b60006133de86828701613362565b93505060206133ef86828701613362565b9250506040613400868287016132ad565b9150509250925092565b600080fd5b600080fd5b7f4e487b7100000000000000000000000000000000000000000000000000000000600052604160045260246000fd5b61344c82613220565b810181811067ffffffffffffffff8211171561346b5761346a613414565b5b80604052505050565b600061347e61310b565b905061348a8282613443565b919050565b600067ffffffffffffffff8211156134aa576134a9613414565b5b6134b382613220565b9050602081019050919050565b82818337600083830152505050565b60006134e26134dd8461348f565b613474565b9050828152602081018484840111156134fe576134fd61340f565b5b6135098482856134c0565b509392505050565b600082601f8301126135265761352561340a565b5b81356135368482602086016134cf565b91505092915050565b6000806040838503121561355657613555613115565b5b600083013567ffffffffffffffff8111156135745761357361311a565b5b61358085828601613511565b925050602061359185828601613362565b9150509250929050565b600081519050919050565b600082825260208201905092915050565b6000819050602082019050919050565b600082825260208201905092915050565b60006135e3826131da565b6135ed81856135c7565b93506135fd8185602086016131f6565b61360681613220565b840191505092915050565b61361a8161328c565b82525050565b600061362b826132ef565b9050919050565b61363b81613620565b82525050565b61364a816131a4565b82525050565b600061016083016000830151848203600086015261366e82826135d8565b91505060208301516136836020860182613611565b5060408301516136966040860182613611565b50606083015184820360608601526136ae82826135d8565b91505060808301516136c36080860182613632565b5060a08301516136d660a0860182613611565b5060c08301516136e960c0860182613611565b5060e08301516136fc60e0860182613611565b50610100830151613711610100860182613611565b50610120830151613726610120860182613611565b5061014083015161373b610140860182613641565b508091505092915050565b60006137528383613650565b905092915050565b6000602082019050919050565b60006137728261359b565b61377c81856135a6565b93508360208202850161378e856135b7565b8060005b858110156137ca57848403895281516137ab8582613746565b94506137b68361375a565b925060208a01995050600181019050613792565b50829750879550505050505092915050565b600060208201905081810360008301526137f68184613767565b905092915050565b600081519050919050565b600082825260208201905092915050565b6000819050602082019050919050565b6138338161330f565b82525050565b6000613845838361382a565b60208301905092915050565b6000602082019050919050565b6000613869826137fe565b6138738185613809565b935061387e8361381a565b8060005b838110156138af5781516138968882613839565b97506138a183613851565b925050600181019050613882565b5085935050505092915050565b600060208201905081810360008301526138d6818461385e565b905092915050565b600080604083850312156138f5576138f4613115565b5b6000613903858286016132ad565b925050602083013567ffffffffffffffff8111156139245761392361311a565b5b61393085828601613511565b9150509250929050565b600080600080600080600060e0888a03121561395957613958613115565b5b600088013567ffffffffffffffff8111156139775761397661311a565b5b6139838a828b01613511565b97505060206139948a828b016132ad565b96505060406139a58a828b016132ad565b95505060606139b68a828b016132ad565b94505060806139c78a828b016132ad565b93505060a06139d88a828b016132ad565b92505060c06139e98a828b016132ad565b91505092959891949750929550565b600060208284031215613a0e57613a0d613115565b5b6000613a1c84828501613362565b91505092915050565b613a2e8161328c565b82525050565b6000602082019050613a496000830184613a25565b92915050565b613a58816131a4565b8114613a6357600080fd5b50565b600081359050613a7581613a4f565b92915050565b60008060408385031215613a9257613a91613115565b5b6000613aa085828601613362565b9250506020613ab185828601613a66565b9150509250929050565b600067ffffffffffffffff821115613ad657613ad5613414565b5b613adf82613220565b9050602081019050919050565b6000613aff613afa84613abb565b613474565b905082815260208101848484011115613b1b57613b1a61340f565b5b613b268482856134c0565b509392505050565b600082601f830112613b4357613b4261340a565b5b8135613b53848260208601613aec565b91505092915050565b60008060008060808587031215613b7657613b75613115565b5b6000613b8487828801613362565b9450506020613b9587828801613362565b9350506040613ba6878288016132ad565b925050606085013567ffffffffffffffff811115613bc757613bc661311a565b5b613bd387828801613b2e565b91505092959194509250565b613be881613620565b82525050565b6000610160820190508181036000830152613c09818e613231565b9050613c18602083018d613a25565b613c25604083018c613a25565b8181036060830152613c37818b613231565b9050613c46608083018a613bdf565b613c5360a0830189613a25565b613c6060c0830188613a25565b613c6d60e0830187613a25565b613c7b610100830186613a25565b613c89610120830185613a25565b613c976101408301846131b0565b9c9b505050505050505050505050565b60008060408385031215613cbe57613cbd613115565b5b6000613ccc858286016132ad565b9250506020613cdd858286016132ad565b9150509250929050565b60008060408385031215613cfe57613cfd613115565b5b6000613d0c85828601613362565b9250506020613d1d85828601613362565b9150509250929050565b7f4e487b7100000000000000000000000000000000000000000000000000000000600052602260045260246000fd5b60006002820490506001821680613d6e57607f821691505b602082108103613d8157613d80613d27565b5b50919050565b7f4552433732313a20617070726f76616c20746f2063757272656e74206f776e6560008201527f7200000000000000000000000000000000000000000000000000000000000000602082015250565b6000613de36021836131e5565b9150613dee82613d87565b604082019050919050565b60006020820190508181036000830152613e1281613dd6565b9050919050565b7f4552433732313a20617070726f76652063616c6c6572206973206e6f7420746f60008201527f6b656e206f776e6572206f7220617070726f76656420666f7220616c6c000000602082015250565b6000613e75603d836131e5565b9150613e8082613e19565b604082019050919050565b60006020820190508181036000830152613ea481613e68565b9050919050565b7f4552433732313a2063616c6c6572206973206e6f7420746f6b656e206f776e6560008201527f72206f7220617070726f76656400000000000000000000000000000000000000602082015250565b6000613f07602d836131e5565b9150613f1282613eab565b604082019050919050565b60006020820190508181036000830152613f3681613efa565b9050919050565b7f4475706c69636174652050726f64756374696f6e20486f757365000000000000600082015250565b6000613f73601a836131e5565b9150613f7e82613f3d565b602082019050919050565b60006020820190508181036000830152613fa281613f66565b9050919050565b7f4e6f7420616e2041646d696e2c206e6f20616363657373000000000000000000600082015250565b6000613fdf6017836131e5565b9150613fea82613fa9565b602082019050919050565b6000602082019050818103600083015261400e81613fd2565b9050919050565b60008190508160005260206000209050919050565b60006020601f8301049050919050565b600082821b905092915050565b6000600883026140777fffffffffffffffffffffffffffffffffffffffffffffffffffffffffffffffff8261403a565b614081868361403a565b95508019841693508086168417925050509392505050565b6000819050919050565b60006140be6140b96140b48461328c565b614099565b61328c565b9050919050565b6000819050919050565b6140d8836140a3565b6140ec6140e4826140c5565b848454614047565b825550505050565b600090565b6141016140f4565b61410c8184846140cf565b505050565b5b81811015614130576141256000826140f9565b600181019050614112565b5050565b601f8211156141755761414681614015565b61414f8461402a565b8101602085101561415e578190505b61417261416a8561402a565b830182614111565b50505b505050565b600082821c905092915050565b60006141986000198460080261417a565b1980831691505092915050565b60006141b18383614187565b9150826002028217905092915050565b6141ca826131da565b67ffffffffffffffff8111156141e3576141e2613414565b5b6141ed8254613d56565b6141f8828285614134565b600060209050601f83116001811461422b5760008415614219578287015190505b61422385826141a5565b86555061428b565b601f19841661423986614015565b60005b828110156142615784890151825560018201915060208501945060208101905061423c565b8683101561427e578489015161427a601f891682614187565b8355505b6001600288020188555050505b505050505050565b7f4e487b7100000000000000000000000000000000000000000000000000000000600052601160045260246000fd5b60006142cd8261328c565b91507fffffffffffffffffffffffffffffffffffffffffffffffffffffffffffffffff82036142ff576142fe614293565b5b600182019050919050565b7f4e487b7100000000000000000000000000000000000000000000000000000000600052603260045260246000fd5b600081905092915050565b600061434f826131da565b6143598185614339565b93506143698185602086016131f6565b80840191505092915050565b60006143818284614344565b915081905092915050565b6000815461439981613d56565b6143a38186614339565b945060018216600081146143be57600181146143d357614406565b60ff1983168652811515820286019350614406565b6143dc85614015565b60005b838110156143fe578154818901526001820191506020810190506143df565b838801955050505b50505092915050565b600061441b828461438c565b915081905092915050565b7f4120746f6b656e206973206e6f742070726573656e7420666f7220746869732060008201527f6d6f766965000000000000000000000000000000000000000000000000000000602082015250565b60006144826025836131e5565b915061448d82614426565b604082019050919050565b600060208201905081810360008301526144b181614475565b9050919050565b7f526573616c65206973206e6f7420616c6c6f77656420666f722074686973206d60008201527f6f76696500000000000000000000000000000000000000000000000000000000602082015250565b60006145146024836131e5565b915061451f826144b8565b604082019050919050565b6000602082019050818103600083015261454381614507565b9050919050565b60006145558261328c565b91506145608361328c565b925082820190508082111561457857614577614293565b5b92915050565b7f4e487b7100000000000000000000000000000000000000000000000000000000600052601260045260246000fd5b60006145b88261328c565b91506145c38361328c565b9250826145d3576145d261457e565b5b828204905092915050565b60006145e98261328c565b91506145f48361328c565b92508282026146028161328c565b9150828204841483151761461957614618614293565b5b5092915050565b600061462b8261328c565b91506146368361328c565b925082820390508181111561464e5761464d614293565b5b92915050565b7f4552433732313a20696e76616c696420746f6b656e2049440000000000000000600082015250565b600061468a6018836131e5565b915061469582614654565b602082019050919050565b600060208201905081810360008301526146b98161467d565b9050919050565b7f4e6f74206120726567697374657265642070726f64756374696f6e20686f757360008201527f6500000000000000000000000000000000000000000000000000000000000000602082015250565b600061471c6021836131e5565b9150614727826146c0565b604082019050919050565b6000602082019050818103600083015261474b8161470f565b9050919050565b7f4120746f6b656e20697320616c72656164792070726573656e7420666f72207460008201527f686973206d6f7669650000000000000000000000000000000000000000000000602082015250565b60006147ae6029836131e5565b91506147b982614752565b604082019050919050565b600060208201905081810360008301526147dd816147a1565b9050919050565b7f4552433732313a2061646472657373207a65726f206973206e6f74206120766160008201527f6c6964206f776e65720000000000000000000000000000000000000000000000602082015250565b60006148406029836131e5565b915061484b826147e4565b604082019050919050565b6000602082019050818103600083015261486f81614833565b9050919050565b60006148828285614344565b915061488e8284614344565b91508190509392505050565b7f4e6f7420746865206f776e6572206f662074686520746f6b656e000000000000600082015250565b60006148d0601a836131e5565b91506148db8261489a565b602082019050919050565b600060208201905081810360008301526148ff816148c3565b9050919050565b7f4552433732313a207472616e736665722066726f6d20696e636f72726563742060008201527f6f776e6572000000000000000000000000000000000000000000000000000000602082015250565b60006149626025836131e5565b915061496d82614906565b604082019050919050565b6000602082019050818103600083015261499181614955565b9050919050565b7f4552433732313a207472616e7366657220746f20746865207a65726f2061646460008201527f7265737300000000000000000000000000000000000000000000000000000000602082015250565b60006149f46024836131e5565b91506149ff82614998565b604082019050919050565b60006020820190508181036000830152614a23816149e7565b9050919050565b7f4552433732313a20617070726f766520746f2063616c6c657200000000000000600082015250565b6000614a606019836131e5565b9150614a6b82614a2a565b602082019050919050565b60006020820190508181036000830152614a8f81614a53565b9050919050565b7f4552433732313a207472616e7366657220746f206e6f6e20455243373231526560008201527f63656976657220696d706c656d656e7465720000000000000000000000000000602082015250565b6000614af26032836131e5565b9150614afd82614a96565b604082019050919050565b60006020820190508181036000830152614b2181614ae5565b9050919050565b600081519050919050565b600082825260208201905092915050565b6000614b4f82614b28565b614b598185614b33565b9350614b698185602086016131f6565b614b7281613220565b840191505092915050565b6000608082019050614b926000830187613321565b614b9f6020830186613321565b614bac6040830185613a25565b8181036060830152614bbe8184614b44565b905095945050505050565b600081519050614bd88161314b565b92915050565b600060208284031215614bf457614bf3613115565b5b6000614c0284828501614bc9565b91505092915050565b7f4552433732313a206d696e7420746f20746865207a65726f2061646472657373600082015250565b6000614c416020836131e5565b9150614c4c82614c0b565b602082019050919050565b60006020820190508181036000830152614c7081614c34565b9050919050565b7f4552433732313a20746f6b656e20616c7265616479206d696e74656400000000600082015250565b6000614cad601c836131e5565b9150614cb882614c77565b602082019050919050565b60006020820190508181036000830152614cdc81614ca0565b905091905056fea264697066735822122016f34359d4a3262038ac571b8181f0f1450dfc8542c88e2eb8ecf6ba921590a464736f6c63430008130033",
  "immutableReferences": {},
  "source": "// SPDX-License-Identifier: UNLICENSED\npragma solidity ^0.8.0;\n\nimport \"@openzeppelin/contracts/token/ERC721/ERC721.sol\";\nimport \"@openzeppelin/contracts/utils/Counters.sol\";\n\ncontract FilmToken is ERC721 {\n    using Counters for Counters.Counter;\n    Counters.Counter public tokenIds;\n\n    struct Token {\n        string movieName;\n        uint256 tokenId;\n        uint basePrice;\n        string productionCompany;\n        address payable ownerAddr;\n        uint minTime;\n        uint maxTime;\n        uint apprPercent;\n        uint deprPercent;\n        uint baseDays;\n\n        bool resale;\n    }\n\n    Token[] allTokens;\n    address public admin;\n    mapping(uint256 => Token) public tokenIdToTokenMap;\n    mapping(address=>string) productionAddrToNameMap;\n    address [] allProdHouses;\n    mapping(string=>uint) nameTokenIdMap;\n    mapping(uint=>address) tokenIdToOwnerMap;\n\n    modifier duplicateProdHouse (address addr){\n        bool duplicate = bytes(productionAddrToNameMap[addr]).length > 0 ;\n        require(!duplicate,\"Duplicate Production House\");\n        _;\n    }\n\n    modifier onlyAdmin{\n        require(msg.sender == admin,\"Not an Admin, no access\");\n        _;\n    }\n\n    modifier validProdHouse(address addr){\n        bool duplicate = bytes(productionAddrToNameMap[addr]).length > 0 ;\n        require(duplicate,\"Not a registered production house\");\n        _;\n    }\n\n    modifier duplicateMovieToken(string memory name){ // self exp.\n        bool duplicate = false;\n        for(uint i=0;i<allTokens.length;i++){\n\n            if(keccak256(abi.encodePacked(allTokens[i].movieName)) == keccak256(abi.encodePacked(name))){\n                duplicate = true;break;\n            }\n        }\n\n        require(!duplicate,\"A token is already present for this movie\");\n        _;\n    }\n\n    modifier validMovieToken(string memory name){ // self exp.\n        bool duplicate = false;\n        for(uint i=0;i<allTokens.length;i++){\n\n            if(keccak256(abi.encodePacked(allTokens[i].movieName)) == keccak256(abi.encodePacked(name))){\n                duplicate = true;break;\n            }\n        }\n\n        require(duplicate,\"A token is not present for this movie\");\n        _;\n    }\n\n    modifier validMinMaxValues(uint min,uint max){ // min (both days and appr/depr, should be +ve\n        require(min<=max && min>0 && max>0,\"Invalid Min Max values\");\n        _;\n    }\n\n    modifier checkTokenOwner(uint tokenId){\n        require(tokenIdToOwnerMap[tokenId]==msg.sender,\"Not the owner of the token\");\n        _;\n    }\n\n    constructor() ERC721(\"MovieTokenization\",\"MVTK\"){\n        admin = msg.sender;\n    }\n\n    function registerProductionHouse(string memory name,address addr) public duplicateProdHouse(addr) onlyAdmin{\n        productionAddrToNameMap[addr] = name;\n        allProdHouses.push(addr);\n    }\n\n    function getAllProdHouses() public view returns (address[] memory) {\n    return allProdHouses;\n    }\n    // uint appr, uint depr,uint minTime,uint maxTime, uint baseValue)\n\n    // function createMovieToken(string memory movieName, Token memory input) public validProdHouse(msg.sender) duplicateMovieToken(movieName) validMinMaxValues(input.minTime,input.maxTime) validMinMaxValues(input.apprPercent,input.deprPercent){\n    //     //check if the user is a registerd prod house or not, handled in validProdHouse modifier\n    //     //check for duplicate token\n    //     // string memory prodName = productionAddrToNameMap[msg.sender];\n    //     //check if input values are valid\n    //     // address payable sender = payable(msg.sender);\n    //     Token memory newToken = Token(movieName,tokenIds.current(),input.basePrice,productionAddrToNameMap[msg.sender],payable(msg.sender),input.minTime,input.maxTime,input.apprPercent,input.deprPercent,true);\n\n    //     nameTokenIdMap[movieName] = tokenIds.current();\n    //     tokenIdToTokenMap[tokenIds.current()] = newToken;\n    //     tokenIdToOwnerMap[tokenIds.current()] = msg.sender;\n    //     _safeMint(msg.sender, tokenIds.current());\n    //     tokenIds.increment();\n    //     allTokens.push(newToken);\n\n\n    // }\n\n    function createMovieToken(string memory movieName, uint basePrice,uint baseDays, uint minTime,uint maxTime,uint apprPercent,uint deprPercent) public validProdHouse(msg.sender) duplicateMovieToken(movieName){\n        //check if the user is a registerd prod house or not, handled in validProdHouse modifier\n        //check for duplicate token\n        // string memory prodName = productionAddrToNameMap[msg.sender];\n        //check if input values are valid\n        // address payable sender = payable(msg.sender);\n        Token memory newToken = Token(movieName,tokenIds.current(),basePrice,productionAddrToNameMap[msg.sender],payable(msg.sender),minTime,maxTime,apprPercent,deprPercent,baseDays,true);\n\n        nameTokenIdMap[movieName] = tokenIds.current();\n        tokenIdToTokenMap[tokenIds.current()] = newToken;\n        tokenIdToOwnerMap[tokenIds.current()] = msg.sender;\n        _safeMint(msg.sender, tokenIds.current());\n        tokenIds.increment();\n        allTokens.push(newToken);\n\n\n    }\n\n    function buyMovieToken(uint dayss, string memory movieName) public payable validMovieToken(movieName){ //changed tokenId to movieName, as there's no visibility provided right now\n        //check if the movieName is valid, in modifier\n        //days can be +/-, - represents earlier, + later\n        uint tokenId = nameTokenIdMap[movieName];\n        Token memory token = tokenIdToTokenMap[tokenId];\n        require(token.resale == true, \"Resale is not allowed for this movie\");\n        uint value = token.basePrice;\n        uint minDays = token.minTime;\n        uint maxDays = token.maxTime;\n        uint baseDays = token.baseDays;\n\n        uint finalValue = value;// case where dayss == baseDays\n\n\n        if(dayss > minDays && dayss < (minDays+ baseDays) / 2 ){ //highest cost\n            finalValue += finalValue * (token.apprPercent/100);\n            finalValue += finalValue * (token.apprPercent/100);\n        }else if(dayss>=(baseDays+dayss)/2 && dayss<baseDays ){//2nd highest\n            finalValue += finalValue * (token.apprPercent/100);\n        }else if(dayss>baseDays && dayss<=(baseDays+maxDays)/2){//second least\n            finalValue -= finalValue * (token.apprPercent/100);\n        }else if(dayss>(baseDays+maxDays)/2){//least most\n            finalValue -= finalValue * (token.apprPercent/100);\n            finalValue -= finalValue * (token.apprPercent/100);\n        }\n\n\n\n        //get token owner and transfer ether\n        token.ownerAddr.transfer(msg.value); // failure of this reverts everything needn't explicitly handle for now, TODO: better, give a proper error message\n\n        //change ownership\n        token.ownerAddr = payable(msg.sender);\n        //also in map\n        tokenIdToOwnerMap[tokenId] = msg.sender;\n        //disable resale\n        token.resale  = false;\n        //change in token list\n        for(uint i=0;i<allTokens.length;i++){\n            if(allTokens[i].tokenId == tokenId){\n                allTokens[i].ownerAddr = payable(msg.sender);\n            }\n        }\n\n    }\n\n\n    function appreciateTokenValue(uint256 tokenId, uint value) public checkTokenOwner(tokenId){ //how will the user know tokenid, remember? give him visibility\n        tokenIdToTokenMap[tokenId].basePrice += value;\n    }\n\n    function depreciateTokenValue(uint256 tokenId, uint value) public checkTokenOwner(tokenId){\n        tokenIdToTokenMap[tokenId].basePrice -=  value;\n    }\n\n    function enableOrDisableResale(uint tokenId) public checkTokenOwner(tokenId){\n        if(tokenIdToTokenMap[tokenId].resale == true){\n            tokenIdToTokenMap[tokenId].resale = false;\n        }else{\n            tokenIdToTokenMap[tokenId].resale = true;\n        }\n    }\n\n\n    function viewTokens() public view returns(Token[] memory){\n\n        Token[] memory result = new Token[](allTokens.length);\n        uint index = 0;\n        for(uint i=0;i<tokenIds.current();i++){ // no support to deleting tokens, so looping through all tokenids is equal to keys\n            result[index++]=tokenIdToTokenMap[i];\n            // if(tokenIdToTokenMap[i].ownerAddr == msg.sender){\n            //     result[index++]=tokenIdToTokenMap[i];\n            // }\n        }\n        return result;\n    }\n\n    function getAllTokenIds() public view returns (uint) {\n        return tokenIds.current();\n\n    }\n\n\n    //    function viewTokens() public view returns(uint[] memory,string[] memory,uint[] memory,uint[] memory,uint[] memory,uint[] memory,uint[] memory){\n//\n//        uint[] memory basePrices = new uint[](allTokens.length);\n////        string[] memory companies = new string[](allTokens.length);\n//        string[] memory names = new string[](allTokens.length);\n//\n//        uint[] memory minTimes = new uint[](allTokens.length);\n//        uint[] memory maxTimes = new uint[](allTokens.length);\n//        uint[] memory apprs = new uint[](allTokens.length);\n//        uint[] memory deprs = new uint[](allTokens.length);\n//        uint[] memory baseTimes = new uint[](allTokens.length);\n//\n//        uint index = 0;\n//        for(uint i=0;i<tokenIds.current();i++){ // no support to deleting tokens, so looping through all tokenids is equal to keys\n//            basePrices[index]=tokenIdToTokenMap[i].basePrice;\n////            companies[index]=tokenIdToTokenMap[i].productionCompany;\n//            names[index] =tokenIdToTokenMap[i].movieName;\n//            minTimes[index] =tokenIdToTokenMap[i].minTime;\n//            maxTimes[index] =tokenIdToTokenMap[i].maxTime;\n//            apprs[index] =tokenIdToTokenMap[i].apprPercent;\n//            deprs[index] =tokenIdToTokenMap[i].deprPercent;\n//            baseTimes[index] =tokenIdToTokenMap[i].baseDays;\n//\n//            // if(tokenIdToTokenMap[i].ownerAddr == msg.sender){\n//            //     result[index++]=tokenIdToTokenMap[i];\n//            // }\n//        }\n//        return (basePrices,names,minTimes,maxTimes,apprs,deprs,baseTimes);\n//    }\n\n}",
  "sourcePath": "/Users/saisvasgudimalla/Documents/Nani/MS_CS_UB/Spring_2023/Blockchain/FilmToken-Dapp/FilmToken-contract/contracts/FilmToken.sol",
  "compiler": {
    "name": "solc",
    "version": "0.8.19+commit.7dd6d404.Emscripten.clang"
  },
  "schemaVersion": "3.4.13",
  "updatedAt": "2023-04-30T01:21:47.169Z",
  "networkType": "ethereum",
  "devdoc": {
    "events": {
      "Approval(address,address,uint256)": {
        "details": "Emitted when `owner` enables `approved` to manage the `tokenId` token."
      },
      "ApprovalForAll(address,address,bool)": {
        "details": "Emitted when `owner` enables or disables (`approved`) `operator` to manage all of its assets."
      },
      "Transfer(address,address,uint256)": {
        "details": "Emitted when `tokenId` token is transferred from `from` to `to`."
      }
    },
    "kind": "dev",
    "methods": {
      "approve(address,uint256)": {
        "details": "See {IERC721-approve}."
      },
      "balanceOf(address)": {
        "details": "See {IERC721-balanceOf}."
      },
      "getApproved(uint256)": {
        "details": "See {IERC721-getApproved}."
      },
      "isApprovedForAll(address,address)": {
        "details": "See {IERC721-isApprovedForAll}."
      },
      "name()": {
        "details": "See {IERC721Metadata-name}."
      },
      "ownerOf(uint256)": {
        "details": "See {IERC721-ownerOf}."
      },
      "safeTransferFrom(address,address,uint256)": {
        "details": "See {IERC721-safeTransferFrom}."
      },
      "safeTransferFrom(address,address,uint256,bytes)": {
        "details": "See {IERC721-safeTransferFrom}."
      },
      "setApprovalForAll(address,bool)": {
        "details": "See {IERC721-setApprovalForAll}."
      },
      "supportsInterface(bytes4)": {
        "details": "See {IERC165-supportsInterface}."
      },
      "symbol()": {
        "details": "See {IERC721Metadata-symbol}."
      },
      "tokenURI(uint256)": {
        "details": "See {IERC721Metadata-tokenURI}."
      },
      "transferFrom(address,address,uint256)": {
        "details": "See {IERC721-transferFrom}."
      }
    },
    "version": 1
  },
  "userdoc": {
    "kind": "user",
    "methods": {},
    "version": 1
  }
}