{
  "contractName": "FilmToken",
  "abi": [
    {
      "inputs": [],
      "stateMutability": "nonpayable",
      "type": "constructor"
    },
    {
      "anonymous": false,
      "inputs": [
        {
          "indexed": true,
          "internalType": "address",
          "name": "owner",
          "type": "address"
        },
        {
          "indexed": true,
          "internalType": "address",
          "name": "approved",
          "type": "address"
        },
        {
          "indexed": true,
          "internalType": "uint256",
          "name": "tokenId",
          "type": "uint256"
        }
      ],
      "name": "Approval",
      "type": "event"
    },
    {
      "anonymous": false,
      "inputs": [
        {
          "indexed": true,
          "internalType": "address",
          "name": "owner",
          "type": "address"
        },
        {
          "indexed": true,
          "internalType": "address",
          "name": "operator",
          "type": "address"
        },
        {
          "indexed": false,
          "internalType": "bool",
          "name": "approved",
          "type": "bool"
        }
      ],
      "name": "ApprovalForAll",
      "type": "event"
    },
    {
      "anonymous": false,
      "inputs": [
        {
          "indexed": true,
          "internalType": "address",
          "name": "from",
          "type": "address"
        },
        {
          "indexed": true,
          "internalType": "address",
          "name": "to",
          "type": "address"
        },
        {
          "indexed": true,
          "internalType": "uint256",
          "name": "tokenId",
          "type": "uint256"
        }
      ],
      "name": "Transfer",
      "type": "event"
    },
    {
      "inputs": [],
      "name": "admin",
      "outputs": [
        {
          "internalType": "address",
          "name": "",
          "type": "address"
        }
      ],
      "stateMutability": "view",
      "type": "function",
      "constant": true
    },
    {
      "inputs": [
        {
          "internalType": "address",
          "name": "to",
          "type": "address"
        },
        {
          "internalType": "uint256",
          "name": "tokenId",
          "type": "uint256"
        }
      ],
      "name": "approve",
      "outputs": [],
      "stateMutability": "nonpayable",
      "type": "function"
    },
    {
      "inputs": [
        {
          "internalType": "address",
          "name": "owner",
          "type": "address"
        }
      ],
      "name": "balanceOf",
      "outputs": [
        {
          "internalType": "uint256",
          "name": "",
          "type": "uint256"
        }
      ],
      "stateMutability": "view",
      "type": "function",
      "constant": true
    },
    {
      "inputs": [
        {
          "internalType": "uint256",
          "name": "tokenId",
          "type": "uint256"
        }
      ],
      "name": "getApproved",
      "outputs": [
        {
          "internalType": "address",
          "name": "",
          "type": "address"
        }
      ],
      "stateMutability": "view",
      "type": "function",
      "constant": true
    },
    {
      "inputs": [
        {
          "internalType": "address",
          "name": "owner",
          "type": "address"
        },
        {
          "internalType": "address",
          "name": "operator",
          "type": "address"
        }
      ],
      "name": "isApprovedForAll",
      "outputs": [
        {
          "internalType": "bool",
          "name": "",
          "type": "bool"
        }
      ],
      "stateMutability": "view",
      "type": "function",
      "constant": true
    },
    {
      "inputs": [],
      "name": "name",
      "outputs": [
        {
          "internalType": "string",
          "name": "",
          "type": "string"
        }
      ],
      "stateMutability": "view",
      "type": "function",
      "constant": true
    },
    {
      "inputs": [
        {
          "internalType": "uint256",
          "name": "tokenId",
          "type": "uint256"
        }
      ],
      "name": "ownerOf",
      "outputs": [
        {
          "internalType": "address",
          "name": "",
          "type": "address"
        }
      ],
      "stateMutability": "view",
      "type": "function",
      "constant": true
    },
    {
      "inputs": [
        {
          "internalType": "address",
          "name": "from",
          "type": "address"
        },
        {
          "internalType": "address",
          "name": "to",
          "type": "address"
        },
        {
          "internalType": "uint256",
          "name": "tokenId",
          "type": "uint256"
        }
      ],
      "name": "safeTransferFrom",
      "outputs": [],
      "stateMutability": "nonpayable",
      "type": "function"
    },
    {
      "inputs": [
        {
          "internalType": "address",
          "name": "from",
          "type": "address"
        },
        {
          "internalType": "address",
          "name": "to",
          "type": "address"
        },
        {
          "internalType": "uint256",
          "name": "tokenId",
          "type": "uint256"
        },
        {
          "internalType": "bytes",
          "name": "data",
          "type": "bytes"
        }
      ],
      "name": "safeTransferFrom",
      "outputs": [],
      "stateMutability": "nonpayable",
      "type": "function"
    },
    {
      "inputs": [
        {
          "internalType": "address",
          "name": "operator",
          "type": "address"
        },
        {
          "internalType": "bool",
          "name": "approved",
          "type": "bool"
        }
      ],
      "name": "setApprovalForAll",
      "outputs": [],
      "stateMutability": "nonpayable",
      "type": "function"
    },
    {
      "inputs": [
        {
          "internalType": "bytes4",
          "name": "interfaceId",
          "type": "bytes4"
        }
      ],
      "name": "supportsInterface",
      "outputs": [
        {
          "internalType": "bool",
          "name": "",
          "type": "bool"
        }
      ],
      "stateMutability": "view",
      "type": "function",
      "constant": true
    },
    {
      "inputs": [],
      "name": "symbol",
      "outputs": [
        {
          "internalType": "string",
          "name": "",
          "type": "string"
        }
      ],
      "stateMutability": "view",
      "type": "function",
      "constant": true
    },
    {
      "inputs": [
        {
          "internalType": "uint256",
          "name": "",
          "type": "uint256"
        }
      ],
      "name": "tokenIdToTokenMap",
      "outputs": [
        {
          "internalType": "string",
          "name": "movieName",
          "type": "string"
        },
        {
          "internalType": "uint256",
          "name": "tokenId",
          "type": "uint256"
        },
        {
          "internalType": "uint256",
          "name": "basePrice",
          "type": "uint256"
        },
        {
          "internalType": "string",
          "name": "productionCompany",
          "type": "string"
        },
        {
          "internalType": "address payable",
          "name": "ownerAddr",
          "type": "address"
        },
        {
          "internalType": "uint256",
          "name": "minTime",
          "type": "uint256"
        },
        {
          "internalType": "uint256",
          "name": "maxTime",
          "type": "uint256"
        },
        {
          "internalType": "uint256",
          "name": "apprPercent",
          "type": "uint256"
        },
        {
          "internalType": "uint256",
          "name": "deprPercent",
          "type": "uint256"
        },
        {
          "internalType": "bool",
          "name": "resale",
          "type": "bool"
        }
      ],
      "stateMutability": "view",
      "type": "function",
      "constant": true
    },
    {
      "inputs": [],
      "name": "tokenIds",
      "outputs": [
        {
          "internalType": "uint256",
          "name": "_value",
          "type": "uint256"
        }
      ],
      "stateMutability": "view",
      "type": "function",
      "constant": true
    },
    {
      "inputs": [
        {
          "internalType": "uint256",
          "name": "tokenId",
          "type": "uint256"
        }
      ],
      "name": "tokenURI",
      "outputs": [
        {
          "internalType": "string",
          "name": "",
          "type": "string"
        }
      ],
      "stateMutability": "view",
      "type": "function",
      "constant": true
    },
    {
      "inputs": [
        {
          "internalType": "address",
          "name": "from",
          "type": "address"
        },
        {
          "internalType": "address",
          "name": "to",
          "type": "address"
        },
        {
          "internalType": "uint256",
          "name": "tokenId",
          "type": "uint256"
        }
      ],
      "name": "transferFrom",
      "outputs": [],
      "stateMutability": "nonpayable",
      "type": "function"
    },
    {
      "inputs": [
        {
          "internalType": "string",
          "name": "name",
          "type": "string"
        },
        {
          "internalType": "address",
          "name": "addr",
          "type": "address"
        }
      ],
      "name": "registerProductionHouse",
      "outputs": [],
      "stateMutability": "nonpayable",
      "type": "function"
    },
    {
      "inputs": [
        {
          "internalType": "string",
          "name": "movieName",
          "type": "string"
        },
        {
          "components": [
            {
              "internalType": "string",
              "name": "movieName",
              "type": "string"
            },
            {
              "internalType": "uint256",
              "name": "tokenId",
              "type": "uint256"
            },
            {
              "internalType": "uint256",
              "name": "basePrice",
              "type": "uint256"
            },
            {
              "internalType": "string",
              "name": "productionCompany",
              "type": "string"
            },
            {
              "internalType": "address payable",
              "name": "ownerAddr",
              "type": "address"
            },
            {
              "internalType": "uint256",
              "name": "minTime",
              "type": "uint256"
            },
            {
              "internalType": "uint256",
              "name": "maxTime",
              "type": "uint256"
            },
            {
              "internalType": "uint256",
              "name": "apprPercent",
              "type": "uint256"
            },
            {
              "internalType": "uint256",
              "name": "deprPercent",
              "type": "uint256"
            },
            {
              "internalType": "bool",
              "name": "resale",
              "type": "bool"
            }
          ],
          "internalType": "struct FilmToken.Token",
          "name": "input",
          "type": "tuple"
        }
      ],
      "name": "createMovieToken",
      "outputs": [],
      "stateMutability": "nonpayable",
      "type": "function"
    },
    {
      "inputs": [
        {
          "internalType": "uint256",
          "name": "dayss",
          "type": "uint256"
        },
        {
          "internalType": "string",
          "name": "movieName",
          "type": "string"
        }
      ],
      "name": "buyMovieToken",
      "outputs": [],
      "stateMutability": "payable",
      "type": "function",
      "payable": true
    },
    {
      "inputs": [
        {
          "internalType": "uint256",
          "name": "tokenId",
          "type": "uint256"
        },
        {
          "internalType": "uint256",
          "name": "value",
          "type": "uint256"
        }
      ],
      "name": "appreciateTokenValue",
      "outputs": [],
      "stateMutability": "nonpayable",
      "type": "function"
    },
    {
      "inputs": [
        {
          "internalType": "uint256",
          "name": "tokenId",
          "type": "uint256"
        },
        {
          "internalType": "uint256",
          "name": "value",
          "type": "uint256"
        }
      ],
      "name": "depreciateTokenValue",
      "outputs": [],
      "stateMutability": "nonpayable",
      "type": "function"
    },
    {
      "inputs": [
        {
          "internalType": "uint256",
          "name": "tokenId",
          "type": "uint256"
        }
      ],
      "name": "enableOrDisableResale",
      "outputs": [],
      "stateMutability": "nonpayable",
      "type": "function"
    },
    {
      "inputs": [],
      "name": "viewTokens",
      "outputs": [
        {
          "components": [
            {
              "internalType": "string",
              "name": "movieName",
              "type": "string"
            },
            {
              "internalType": "uint256",
              "name": "tokenId",
              "type": "uint256"
            },
            {
              "internalType": "uint256",
              "name": "basePrice",
              "type": "uint256"
            },
            {
              "internalType": "string",
              "name": "productionCompany",
              "type": "string"
            },
            {
              "internalType": "address payable",
              "name": "ownerAddr",
              "type": "address"
            },
            {
              "internalType": "uint256",
              "name": "minTime",
              "type": "uint256"
            },
            {
              "internalType": "uint256",
              "name": "maxTime",
              "type": "uint256"
            },
            {
              "internalType": "uint256",
              "name": "apprPercent",
              "type": "uint256"
            },
            {
              "internalType": "uint256",
              "name": "deprPercent",
              "type": "uint256"
            },
            {
              "internalType": "bool",
              "name": "resale",
              "type": "bool"
            }
          ],
          "internalType": "struct FilmToken.Token[]",
          "name": "",
          "type": "tuple[]"
        }
      ],
      "stateMutability": "view",
      "type": "function",
      "constant": true
    },
    {
      "inputs": [
        {
          "internalType": "uint256",
          "name": "x",
          "type": "uint256"
        }
      ],
      "name": "doSomething",
      "outputs": [],
      "stateMutability": "nonpayable",
      "type": "function"
    }
  ],
  "bytecode": "0x60806040523480156200001157600080fd5b506040518060400160405280601181526020017f4d6f766965546f6b656e697a6174696f6e0000000000000000000000000000008152506040518060400160405280600481526020017f4d56544b0000000000000000000000000000000000000000000000000000000081525081600090816200008f919062000365565b508060019081620000a1919062000365565b50505033600860006101000a81548173ffffffffffffffffffffffffffffffffffffffff021916908373ffffffffffffffffffffffffffffffffffffffff1602179055506200044c565b600081519050919050565b7f4e487b7100000000000000000000000000000000000000000000000000000000600052604160045260246000fd5b7f4e487b7100000000000000000000000000000000000000000000000000000000600052602260045260246000fd5b600060028204905060018216806200016d57607f821691505b60208210810362000183576200018262000125565b5b50919050565b60008190508160005260206000209050919050565b60006020601f8301049050919050565b600082821b905092915050565b600060088302620001ed7fffffffffffffffffffffffffffffffffffffffffffffffffffffffffffffffff82620001ae565b620001f98683620001ae565b95508019841693508086168417925050509392505050565b6000819050919050565b6000819050919050565b600062000246620002406200023a8462000211565b6200021b565b62000211565b9050919050565b6000819050919050565b620002628362000225565b6200027a62000271826200024d565b848454620001bb565b825550505050565b600090565b6200029162000282565b6200029e81848462000257565b505050565b5b81811015620002c657620002ba60008262000287565b600181019050620002a4565b5050565b601f8211156200031557620002df8162000189565b620002ea846200019e565b81016020851015620002fa578190505b6200031262000309856200019e565b830182620002a3565b50505b505050565b600082821c905092915050565b60006200033a600019846008026200031a565b1980831691505092915050565b600062000355838362000327565b9150826002028217905092915050565b6200037082620000eb565b67ffffffffffffffff8111156200038c576200038b620000f6565b5b62000398825462000154565b620003a5828285620002ca565b600060209050601f831160018114620003dd5760008415620003c8578287015190505b620003d4858262000347565b86555062000444565b601f198416620003ed8662000189565b60005b828110156200041757848901518255600182019150602085019450602081019050620003f0565b8683101562000437578489015162000433601f89168262000327565b8355505b6001600288020188555050505b505050505050565b614d89806200045c6000396000f3fe60806040526004361061014b5760003560e01c806394abe53c116100b6578063c87b56dd1161006f578063c87b56dd1461049a578063ca99cc3e146104d7578063dd7072f614610500578063e985e9c514610529578063f851a44014610566578063f907b4a6146105915761014b565b806394abe53c1461038557806395d89b41146103ae578063a22cb465146103d9578063a6b206bf14610402578063b88d4fde1461042b578063c3aee736146104545761014b565b806342842e0e1161010857806342842e0e146102705780634bf5bf351461029957806357a3106b146102c45780636352211e146102e057806370a082311461031d578063714cff561461035a5761014b565b806301ffc9a71461015057806306fdde031461018d578063081812fc146101b8578063095ea7b3146101f557806323b872dd1461021e57806337c4f46714610247575b600080fd5b34801561015c57600080fd5b50610177600480360381019061017291906130f5565b6105ba565b604051610184919061313d565b60405180910390f35b34801561019957600080fd5b506101a261069c565b6040516101af91906131e8565b60405180910390f35b3480156101c457600080fd5b506101df60048036038101906101da9190613240565b61072e565b6040516101ec91906132ae565b60405180910390f35b34801561020157600080fd5b5061021c600480360381019061021791906132f5565b610774565b005b34801561022a57600080fd5b5061024560048036038101906102409190613335565b61088b565b005b34801561025357600080fd5b5061026e600480360381019061026991906134bd565b6108eb565b005b34801561027c57600080fd5b5061029760048036038101906102929190613335565b610a62565b005b3480156102a557600080fd5b506102ae610a82565b6040516102bb9190613745565b60405180910390f35b6102de60048036038101906102d99190613767565b610d95565b005b3480156102ec57600080fd5b5061030760048036038101906103029190613240565b6113d1565b60405161031491906132ae565b60405180910390f35b34801561032957600080fd5b50610344600480360381019061033f91906137c3565b611457565b60405161035191906137ff565b60405180910390f35b34801561036657600080fd5b5061036f61150e565b60405161037c91906137ff565b60405180910390f35b34801561039157600080fd5b506103ac60048036038101906103a791906139aa565b61151a565b005b3480156103ba57600080fd5b506103c3611b48565b6040516103d091906131e8565b60405180910390f35b3480156103e557600080fd5b5061040060048036038101906103fb9190613a22565b611bda565b005b34801561040e57600080fd5b5061042960048036038101906104249190613240565b611bf0565b005b34801561043757600080fd5b50610452600480360381019061044d9190613b03565b611c36565b005b34801561046057600080fd5b5061047b60048036038101906104769190613240565b611c98565b6040516104919a99989796959493929190613b95565b60405180910390f35b3480156104a657600080fd5b506104c160048036038101906104bc9190613240565b611e29565b6040516104ce91906131e8565b60405180910390f35b3480156104e357600080fd5b506104fe60048036038101906104f99190613240565b611e91565b005b34801561050c57600080fd5b5061052760048036038101906105229190613c3f565b611fca565b005b34801561053557600080fd5b50610550600480360381019061054b9190613c7f565b61209e565b60405161055d919061313d565b60405180910390f35b34801561057257600080fd5b5061057b612132565b60405161058891906132ae565b60405180910390f35b34801561059d57600080fd5b506105b860048036038101906105b39190613c3f565b612158565b005b60007f80ac58cd000000000000000000000000000000000000000000000000000000007bffffffffffffffffffffffffffffffffffffffffffffffffffffffff1916827bffffffffffffffffffffffffffffffffffffffffffffffffffffffff1916148061068557507f5b5e139f000000000000000000000000000000000000000000000000000000007bffffffffffffffffffffffffffffffffffffffffffffffffffffffff1916827bffffffffffffffffffffffffffffffffffffffffffffffffffffffff1916145b8061069557506106948261222c565b5b9050919050565b6060600080546106ab90613cee565b80601f01602080910402602001604051908101604052809291908181526020018280546106d790613cee565b80156107245780601f106106f957610100808354040283529160200191610724565b820191906000526020600020905b81548152906001019060200180831161070757829003601f168201915b5050505050905090565b600061073982612296565b6004600083815260200190815260200160002060009054906101000a900473ffffffffffffffffffffffffffffffffffffffff169050919050565b600061077f826113d1565b90508073ffffffffffffffffffffffffffffffffffffffff168373ffffffffffffffffffffffffffffffffffffffff16036107ef576040517f08c379a00000000000000000000000000000000000000000000000000000000081526004016107e690613d91565b60405180910390fd5b8073ffffffffffffffffffffffffffffffffffffffff1661080e6122e1565b73ffffffffffffffffffffffffffffffffffffffff16148061083d575061083c816108376122e1565b61209e565b5b61087c576040517f08c379a000000000000000000000000000000000000000000000000000000000815260040161087390613e23565b60405180910390fd5b61088683836122e9565b505050565b61089c6108966122e1565b826123a2565b6108db576040517f08c379a00000000000000000000000000000000000000000000000000000000081526004016108d290613eb5565b60405180910390fd5b6108e6838383612437565b505050565b33600080600a60008473ffffffffffffffffffffffffffffffffffffffff1673ffffffffffffffffffffffffffffffffffffffff168152602001908152602001600020805461093990613cee565b9050119050801561097f576040517f08c379a000000000000000000000000000000000000000000000000000000000815260040161097690613f21565b60405180910390fd5b600860009054906101000a900473ffffffffffffffffffffffffffffffffffffffff1673ffffffffffffffffffffffffffffffffffffffff163373ffffffffffffffffffffffffffffffffffffffff1614610a0f576040517f08c379a0000000000000000000000000000000000000000000000000000000008152600401610a0690613f8d565b60405180910390fd5b83600a60008573ffffffffffffffffffffffffffffffffffffffff1673ffffffffffffffffffffffffffffffffffffffff1681526020019081526020016000209081610a5b9190614159565b5050505050565b610a7d83838360405180602001604052806000815250611c36565b505050565b6060600060078054905067ffffffffffffffff811115610aa557610aa4613392565b5b604051908082528060200260200182016040528015610ade57816020015b610acb61301e565b815260200190600190039081610ac35790505b5090506000805b610aef6006612730565b8111610d8c573373ffffffffffffffffffffffffffffffffffffffff166009600083815260200190815260200160002060040160009054906101000a900473ffffffffffffffffffffffffffffffffffffffff1673ffffffffffffffffffffffffffffffffffffffff1603610d79576009600082815260200190815260200160002060405180610140016040529081600082018054610b8d90613cee565b80601f0160208091040260200160405190810160405280929190818152602001828054610bb990613cee565b8015610c065780601f10610bdb57610100808354040283529160200191610c06565b820191906000526020600020905b815481529060010190602001808311610be957829003601f168201915b505050505081526020016001820154815260200160028201548152602001600382018054610c3390613cee565b80601f0160208091040260200160405190810160405280929190818152602001828054610c5f90613cee565b8015610cac5780601f10610c8157610100808354040283529160200191610cac565b820191906000526020600020905b815481529060010190602001808311610c8f57829003601f168201915b505050505081526020016004820160009054906101000a900473ffffffffffffffffffffffffffffffffffffffff1673ffffffffffffffffffffffffffffffffffffffff1673ffffffffffffffffffffffffffffffffffffffff168152602001600582015481526020016006820154815260200160078201548152602001600882015481526020016009820160009054906101000a900460ff161515151581525050838380610d5a9061425a565b945081518110610d6d57610d6c6142a2565b5b60200260200101819052505b8080610d849061425a565b915050610ae5565b50819250505090565b806000805b600780549050811015610e3a5782604051602001610db8919061430d565b6040516020818303038152906040528051906020012060078281548110610de257610de16142a2565b5b90600052602060002090600a0201600001604051602001610e0391906143a7565b6040516020818303038152906040528051906020012003610e275760019150610e3a565b8080610e329061425a565b915050610d9a565b5080610e7b576040517f08c379a0000000000000000000000000000000000000000000000000000000008152600401610e7290614430565b60405180910390fd5b6000600b84604051610e8d919061430d565b908152602001604051809103902054905060006009600083815260200190815260200160002060405180610140016040529081600082018054610ecf90613cee565b80601f0160208091040260200160405190810160405280929190818152602001828054610efb90613cee565b8015610f485780601f10610f1d57610100808354040283529160200191610f48565b820191906000526020600020905b815481529060010190602001808311610f2b57829003601f168201915b505050505081526020016001820154815260200160028201548152602001600382018054610f7590613cee565b80601f0160208091040260200160405190810160405280929190818152602001828054610fa190613cee565b8015610fee5780601f10610fc357610100808354040283529160200191610fee565b820191906000526020600020905b815481529060010190602001808311610fd157829003601f168201915b505050505081526020016004820160009054906101000a900473ffffffffffffffffffffffffffffffffffffffff1673ffffffffffffffffffffffffffffffffffffffff1673ffffffffffffffffffffffffffffffffffffffff168152602001600582015481526020016006820154815260200160078201548152602001600882015481526020016009820160009054906101000a900460ff1615151515815250509050600115158161012001511515146110de576040517f08c379a00000000000000000000000000000000000000000000000000000000081526004016110d5906144c2565b60405180910390fd5b60008160400151905060008260a00151905060008360c001519050600083905060008a101561119557828a11156111665760648560e001516111209190614511565b8161112b9190614542565b816111369190614584565b905060648560e001516111499190614511565b816111549190614542565b8161115f9190614584565b9050611190565b60648560e001516111779190614511565b816111829190614542565b8161118d9190614584565b90505b611229565b60008a111561122857818a11156111fd5760648560e001516111b79190614511565b816111c29190614542565b816111cd91906145b8565b905060648560e001516111e09190614511565b816111eb9190614542565b816111f691906145b8565b9050611227565b60648560e0015161120e9190614511565b816112199190614542565b8161122491906145b8565b90505b5b5b846080015173ffffffffffffffffffffffffffffffffffffffff166108fc349081150290604051600060405180830381858888f19350505050158015611273573d6000803e3d6000fd5b5033856080019073ffffffffffffffffffffffffffffffffffffffff16908173ffffffffffffffffffffffffffffffffffffffff168152505033600c600088815260200190815260200160002060006101000a81548173ffffffffffffffffffffffffffffffffffffffff021916908373ffffffffffffffffffffffffffffffffffffffff16021790555060008561012001901515908115158152505060005b6007805490508110156113c4578660078281548110611335576113346142a2565b5b90600052602060002090600a020160010154036113b1573360078281548110611361576113606142a2565b5b90600052602060002090600a020160040160006101000a81548173ffffffffffffffffffffffffffffffffffffffff021916908373ffffffffffffffffffffffffffffffffffffffff1602179055505b80806113bc9061425a565b915050611313565b5050505050505050505050565b6000806113dd8361273e565b9050600073ffffffffffffffffffffffffffffffffffffffff168173ffffffffffffffffffffffffffffffffffffffff160361144e576040517f08c379a000000000000000000000000000000000000000000000000000000000815260040161144590614638565b60405180910390fd5b80915050919050565b60008073ffffffffffffffffffffffffffffffffffffffff168273ffffffffffffffffffffffffffffffffffffffff16036114c7576040517f08c379a00000000000000000000000000000000000000000000000000000000081526004016114be906146ca565b60405180910390fd5b600360008373ffffffffffffffffffffffffffffffffffffffff1673ffffffffffffffffffffffffffffffffffffffff168152602001908152602001600020549050919050565b60068060000154905081565b33600080600a60008473ffffffffffffffffffffffffffffffffffffffff1673ffffffffffffffffffffffffffffffffffffffff168152602001908152602001600020805461156890613cee565b9050119050806115ad576040517f08c379a00000000000000000000000000000000000000000000000000000000081526004016115a49061475c565b60405180910390fd5b836000805b60078054905081101561165257826040516020016115d0919061430d565b60405160208183030381529060405280519060200120600782815481106115fa576115f96142a2565b5b90600052602060002090600a020160000160405160200161161b91906143a7565b604051602081830303815290604052805190602001200361163f5760019150611652565b808061164a9061425a565b9150506115b2565b508015611694576040517f08c379a000000000000000000000000000000000000000000000000000000000815260040161168b906147ee565b60405180910390fd5b8460a001518560c001518082111580156116ae5750600082115b80156116ba5750600081115b6116f9576040517f08c379a00000000000000000000000000000000000000000000000000000000081526004016116f09061485a565b60405180910390fd5b8660e001518761010001518082111580156117145750600082115b80156117205750600081115b61175f576040517f08c379a00000000000000000000000000000000000000000000000000000000081526004016117569061485a565b60405180910390fd5b60006040518061014001604052808c815260200161177d6006612730565b81526020018b604001518152602001600a60003373ffffffffffffffffffffffffffffffffffffffff1673ffffffffffffffffffffffffffffffffffffffff16815260200190815260200160002080546117d690613cee565b80601f016020809104026020016040519081016040528092919081815260200182805461180290613cee565b801561184f5780601f106118245761010080835404028352916020019161184f565b820191906000526020600020905b81548152906001019060200180831161183257829003601f168201915b505050505081526020013373ffffffffffffffffffffffffffffffffffffffff1681526020018b60a0015181526020018b60c0015181526020018b60e0015181526020018b610100015181526020016001151581525090506118b16006612730565b600b8c6040516118c1919061430d565b90815260200160405180910390208190555080600960006118e26006612730565b815260200190815260200160002060008201518160000190816119059190614159565b506020820151816001015560408201518160020155606082015181600301908161192f9190614159565b5060808201518160040160006101000a81548173ffffffffffffffffffffffffffffffffffffffff021916908373ffffffffffffffffffffffffffffffffffffffff16021790555060a0820151816005015560c0820151816006015560e0820151816007015561010082015181600801556101208201518160090160006101000a81548160ff02191690831515021790555090505033600c60006119d36006612730565b815260200190815260200160002060006101000a81548173ffffffffffffffffffffffffffffffffffffffff021916908373ffffffffffffffffffffffffffffffffffffffff160217905550611a3233611a2d6006612730565b61277b565b611a3c6006612799565b60078190806001815401808255809150506001900390600052602060002090600a02016000909190919091506000820151816000019081611a7d9190614159565b5060208201518160010155604082015181600201556060820151816003019081611aa79190614159565b5060808201518160040160006101000a81548173ffffffffffffffffffffffffffffffffffffffff021916908373ffffffffffffffffffffffffffffffffffffffff16021790555060a0820151816005015560c0820151816006015560e0820151816007015561010082015181600801556101208201518160090160006101000a81548160ff02191690831515021790555050505050505050505050505050565b606060018054611b5790613cee565b80601f0160208091040260200160405190810160405280929190818152602001828054611b8390613cee565b8015611bd05780601f10611ba557610100808354040283529160200191611bd0565b820191906000526020600020905b815481529060010190602001808311611bb357829003601f168201915b5050505050905090565b611bec611be56122e1565b83836127af565b5050565b60008103611c33576040517f08c379a0000000000000000000000000000000000000000000000000000000008152600401611c2a906148c6565b60405180910390fd5b50565b611c47611c416122e1565b836123a2565b611c86576040517f08c379a0000000000000000000000000000000000000000000000000000000008152600401611c7d90613eb5565b60405180910390fd5b611c928484848461291b565b50505050565b6009602052806000526040600020600091509050806000018054611cbb90613cee565b80601f0160208091040260200160405190810160405280929190818152602001828054611ce790613cee565b8015611d345780601f10611d0957610100808354040283529160200191611d34565b820191906000526020600020905b815481529060010190602001808311611d1757829003601f168201915b505050505090806001015490806002015490806003018054611d5590613cee565b80601f0160208091040260200160405190810160405280929190818152602001828054611d8190613cee565b8015611dce5780601f10611da357610100808354040283529160200191611dce565b820191906000526020600020905b815481529060010190602001808311611db157829003601f168201915b5050505050908060040160009054906101000a900473ffffffffffffffffffffffffffffffffffffffff16908060050154908060060154908060070154908060080154908060090160009054906101000a900460ff1690508a565b6060611e3482612296565b6000611e3e612977565b90506000815111611e5e5760405180602001604052806000815250611e89565b80611e688461298e565b604051602001611e799291906148e6565b6040516020818303038152906040525b915050919050565b803373ffffffffffffffffffffffffffffffffffffffff16600c600083815260200190815260200160002060009054906101000a900473ffffffffffffffffffffffffffffffffffffffff1673ffffffffffffffffffffffffffffffffffffffff1614611f33576040517f08c379a0000000000000000000000000000000000000000000000000000000008152600401611f2a90614956565b60405180910390fd5b600115156009600084815260200190815260200160002060090160009054906101000a900460ff16151503611f965760006009600084815260200190815260200160002060090160006101000a81548160ff021916908315150217905550611fc6565b60016009600084815260200190815260200160002060090160006101000a81548160ff0219169083151502179055505b5050565b813373ffffffffffffffffffffffffffffffffffffffff16600c600083815260200190815260200160002060009054906101000a900473ffffffffffffffffffffffffffffffffffffffff1673ffffffffffffffffffffffffffffffffffffffff161461206c576040517f08c379a000000000000000000000000000000000000000000000000000000000815260040161206390614956565b60405180910390fd5b816009600085815260200190815260200160002060020160008282546120929190614584565b92505081905550505050565b6000600560008473ffffffffffffffffffffffffffffffffffffffff1673ffffffffffffffffffffffffffffffffffffffff16815260200190815260200160002060008373ffffffffffffffffffffffffffffffffffffffff1673ffffffffffffffffffffffffffffffffffffffff16815260200190815260200160002060009054906101000a900460ff16905092915050565b600860009054906101000a900473ffffffffffffffffffffffffffffffffffffffff1681565b813373ffffffffffffffffffffffffffffffffffffffff16600c600083815260200190815260200160002060009054906101000a900473ffffffffffffffffffffffffffffffffffffffff1673ffffffffffffffffffffffffffffffffffffffff16146121fa576040517f08c379a00000000000000000000000000000000000000000000000000000000081526004016121f190614956565b60405180910390fd5b8160096000858152602001908152602001600020600201600082825461222091906145b8565b92505081905550505050565b60007f01ffc9a7000000000000000000000000000000000000000000000000000000007bffffffffffffffffffffffffffffffffffffffffffffffffffffffff1916827bffffffffffffffffffffffffffffffffffffffffffffffffffffffff1916149050919050565b61229f81612a5c565b6122de576040517f08c379a00000000000000000000000000000000000000000000000000000000081526004016122d590614638565b60405180910390fd5b50565b600033905090565b816004600083815260200190815260200160002060006101000a81548173ffffffffffffffffffffffffffffffffffffffff021916908373ffffffffffffffffffffffffffffffffffffffff160217905550808273ffffffffffffffffffffffffffffffffffffffff1661235c836113d1565b73ffffffffffffffffffffffffffffffffffffffff167f8c5be1e5ebec7d5bd14f71427d1e84f3dd0314c0f7b2291e5b200ac8c7c3b92560405160405180910390a45050565b6000806123ae836113d1565b90508073ffffffffffffffffffffffffffffffffffffffff168473ffffffffffffffffffffffffffffffffffffffff1614806123f057506123ef818561209e565b5b8061242e57508373ffffffffffffffffffffffffffffffffffffffff166124168461072e565b73ffffffffffffffffffffffffffffffffffffffff16145b91505092915050565b8273ffffffffffffffffffffffffffffffffffffffff16612457826113d1565b73ffffffffffffffffffffffffffffffffffffffff16146124ad576040517f08c379a00000000000000000000000000000000000000000000000000000000081526004016124a4906149e8565b60405180910390fd5b600073ffffffffffffffffffffffffffffffffffffffff168273ffffffffffffffffffffffffffffffffffffffff160361251c576040517f08c379a000000000000000000000000000000000000000000000000000000000815260040161251390614a7a565b60405180910390fd5b6125298383836001612a9d565b8273ffffffffffffffffffffffffffffffffffffffff16612549826113d1565b73ffffffffffffffffffffffffffffffffffffffff161461259f576040517f08c379a0000000000000000000000000000000000000000000000000000000008152600401612596906149e8565b60405180910390fd5b6004600082815260200190815260200160002060006101000a81549073ffffffffffffffffffffffffffffffffffffffff02191690556001600360008573ffffffffffffffffffffffffffffffffffffffff1673ffffffffffffffffffffffffffffffffffffffff168152602001908152602001600020600082825403925050819055506001600360008473ffffffffffffffffffffffffffffffffffffffff1673ffffffffffffffffffffffffffffffffffffffff16815260200190815260200160002060008282540192505081905550816002600083815260200190815260200160002060006101000a81548173ffffffffffffffffffffffffffffffffffffffff021916908373ffffffffffffffffffffffffffffffffffffffff160217905550808273ffffffffffffffffffffffffffffffffffffffff168473ffffffffffffffffffffffffffffffffffffffff167fddf252ad1be2c89b69c2b068fc378daa952ba7f163c4a11628f55a4df523b3ef60405160405180910390a461272b8383836001612aa3565b505050565b600081600001549050919050565b60006002600083815260200190815260200160002060009054906101000a900473ffffffffffffffffffffffffffffffffffffffff169050919050565b612795828260405180602001604052806000815250612aa9565b5050565b6001816000016000828254019250508190555050565b8173ffffffffffffffffffffffffffffffffffffffff168373ffffffffffffffffffffffffffffffffffffffff160361281d576040517f08c379a000000000000000000000000000000000000000000000000000000000815260040161281490614ae6565b60405180910390fd5b80600560008573ffffffffffffffffffffffffffffffffffffffff1673ffffffffffffffffffffffffffffffffffffffff16815260200190815260200160002060008473ffffffffffffffffffffffffffffffffffffffff1673ffffffffffffffffffffffffffffffffffffffff16815260200190815260200160002060006101000a81548160ff0219169083151502179055508173ffffffffffffffffffffffffffffffffffffffff168373ffffffffffffffffffffffffffffffffffffffff167f17307eab39ab6107e8899845ad3d59bd9653f200f220920489ca2b5937696c318360405161290e919061313d565b60405180910390a3505050565b612926848484612437565b61293284848484612b04565b612971576040517f08c379a000000000000000000000000000000000000000000000000000000000815260040161296890614b78565b60405180910390fd5b50505050565b606060405180602001604052806000815250905090565b60606000600161299d84612c8b565b01905060008167ffffffffffffffff8111156129bc576129bb613392565b5b6040519080825280601f01601f1916602001820160405280156129ee5781602001600182028036833780820191505090505b509050600082602001820190505b600115612a51578080600190039150507f3031323334353637383961626364656600000000000000000000000000000000600a86061a8153600a8581612a4557612a446144e2565b5b049450600085036129fc575b819350505050919050565b60008073ffffffffffffffffffffffffffffffffffffffff16612a7e8361273e565b73ffffffffffffffffffffffffffffffffffffffff1614159050919050565b50505050565b50505050565b612ab38383612dde565b612ac06000848484612b04565b612aff576040517f08c379a0000000000000000000000000000000000000000000000000000000008152600401612af690614b78565b60405180910390fd5b505050565b6000612b258473ffffffffffffffffffffffffffffffffffffffff16612ffb565b15612c7e578373ffffffffffffffffffffffffffffffffffffffff1663150b7a02612b4e6122e1565b8786866040518563ffffffff1660e01b8152600401612b709493929190614bed565b6020604051808303816000875af1925050508015612bac57506040513d601f19601f82011682018060405250810190612ba99190614c4e565b60015b612c2e573d8060008114612bdc576040519150601f19603f3d011682016040523d82523d6000602084013e612be1565b606091505b506000815103612c26576040517f08c379a0000000000000000000000000000000000000000000000000000000008152600401612c1d90614b78565b60405180910390fd5b805181602001fd5b63150b7a0260e01b7bffffffffffffffffffffffffffffffffffffffffffffffffffffffff1916817bffffffffffffffffffffffffffffffffffffffffffffffffffffffff191614915050612c83565b600190505b949350505050565b600080600090507a184f03e93ff9f4daa797ed6e38ed64bf6a1f0100000000000000008310612ce9577a184f03e93ff9f4daa797ed6e38ed64bf6a1f0100000000000000008381612cdf57612cde6144e2565b5b0492506040810190505b6d04ee2d6d415b85acef81000000008310612d26576d04ee2d6d415b85acef81000000008381612d1c57612d1b6144e2565b5b0492506020810190505b662386f26fc100008310612d5557662386f26fc100008381612d4b57612d4a6144e2565b5b0492506010810190505b6305f5e1008310612d7e576305f5e1008381612d7457612d736144e2565b5b0492506008810190505b6127108310612da3576127108381612d9957612d986144e2565b5b0492506004810190505b60648310612dc65760648381612dbc57612dbb6144e2565b5b0492506002810190505b600a8310612dd5576001810190505b80915050919050565b600073ffffffffffffffffffffffffffffffffffffffff168273ffffffffffffffffffffffffffffffffffffffff1603612e4d576040517f08c379a0000000000000000000000000000000000000000000000000000000008152600401612e4490614cc7565b60405180910390fd5b612e5681612a5c565b15612e96576040517f08c379a0000000000000000000000000000000000000000000000000000000008152600401612e8d90614d33565b60405180910390fd5b612ea4600083836001612a9d565b612ead81612a5c565b15612eed576040517f08c379a0000000000000000000000000000000000000000000000000000000008152600401612ee490614d33565b60405180910390fd5b6001600360008473ffffffffffffffffffffffffffffffffffffffff1673ffffffffffffffffffffffffffffffffffffffff16815260200190815260200160002060008282540192505081905550816002600083815260200190815260200160002060006101000a81548173ffffffffffffffffffffffffffffffffffffffff021916908373ffffffffffffffffffffffffffffffffffffffff160217905550808273ffffffffffffffffffffffffffffffffffffffff16600073ffffffffffffffffffffffffffffffffffffffff167fddf252ad1be2c89b69c2b068fc378daa952ba7f163c4a11628f55a4df523b3ef60405160405180910390a4612ff7600083836001612aa3565b5050565b6000808273ffffffffffffffffffffffffffffffffffffffff163b119050919050565b60405180610140016040528060608152602001600081526020016000815260200160608152602001600073ffffffffffffffffffffffffffffffffffffffff168152602001600081526020016000815260200160008152602001600081526020016000151581525090565b6000604051905090565b600080fd5b600080fd5b60007fffffffff0000000000000000000000000000000000000000000000000000000082169050919050565b6130d28161309d565b81146130dd57600080fd5b50565b6000813590506130ef816130c9565b92915050565b60006020828403121561310b5761310a613093565b5b6000613119848285016130e0565b91505092915050565b60008115159050919050565b61313781613122565b82525050565b6000602082019050613152600083018461312e565b92915050565b600081519050919050565b600082825260208201905092915050565b60005b83811015613192578082015181840152602081019050613177565b60008484015250505050565b6000601f19601f8301169050919050565b60006131ba82613158565b6131c48185613163565b93506131d4818560208601613174565b6131dd8161319e565b840191505092915050565b6000602082019050818103600083015261320281846131af565b905092915050565b6000819050919050565b61321d8161320a565b811461322857600080fd5b50565b60008135905061323a81613214565b92915050565b60006020828403121561325657613255613093565b5b60006132648482850161322b565b91505092915050565b600073ffffffffffffffffffffffffffffffffffffffff82169050919050565b60006132988261326d565b9050919050565b6132a88161328d565b82525050565b60006020820190506132c3600083018461329f565b92915050565b6132d28161328d565b81146132dd57600080fd5b50565b6000813590506132ef816132c9565b92915050565b6000806040838503121561330c5761330b613093565b5b600061331a858286016132e0565b925050602061332b8582860161322b565b9150509250929050565b60008060006060848603121561334e5761334d613093565b5b600061335c868287016132e0565b935050602061336d868287016132e0565b925050604061337e8682870161322b565b9150509250925092565b600080fd5b600080fd5b7f4e487b7100000000000000000000000000000000000000000000000000000000600052604160045260246000fd5b6133ca8261319e565b810181811067ffffffffffffffff821117156133e9576133e8613392565b5b80604052505050565b60006133fc613089565b905061340882826133c1565b919050565b600067ffffffffffffffff82111561342857613427613392565b5b6134318261319e565b9050602081019050919050565b82818337600083830152505050565b600061346061345b8461340d565b6133f2565b90508281526020810184848401111561347c5761347b61338d565b5b61348784828561343e565b509392505050565b600082601f8301126134a4576134a3613388565b5b81356134b484826020860161344d565b91505092915050565b600080604083850312156134d4576134d3613093565b5b600083013567ffffffffffffffff8111156134f2576134f1613098565b5b6134fe8582860161348f565b925050602061350f858286016132e0565b9150509250929050565b600081519050919050565b600082825260208201905092915050565b6000819050602082019050919050565b600082825260208201905092915050565b600061356182613158565b61356b8185613545565b935061357b818560208601613174565b6135848161319e565b840191505092915050565b6135988161320a565b82525050565b60006135a98261326d565b9050919050565b6135b98161359e565b82525050565b6135c881613122565b82525050565b60006101408301600083015184820360008601526135ec8282613556565b9150506020830151613601602086018261358f565b506040830151613614604086018261358f565b506060830151848203606086015261362c8282613556565b915050608083015161364160808601826135b0565b5060a083015161365460a086018261358f565b5060c083015161366760c086018261358f565b5060e083015161367a60e086018261358f565b5061010083015161368f61010086018261358f565b506101208301516136a46101208601826135bf565b508091505092915050565b60006136bb83836135ce565b905092915050565b6000602082019050919050565b60006136db82613519565b6136e58185613524565b9350836020820285016136f785613535565b8060005b85811015613733578484038952815161371485826136af565b945061371f836136c3565b925060208a019950506001810190506136fb565b50829750879550505050505092915050565b6000602082019050818103600083015261375f81846136d0565b905092915050565b6000806040838503121561377e5761377d613093565b5b600061378c8582860161322b565b925050602083013567ffffffffffffffff8111156137ad576137ac613098565b5b6137b98582860161348f565b9150509250929050565b6000602082840312156137d9576137d8613093565b5b60006137e7848285016132e0565b91505092915050565b6137f98161320a565b82525050565b600060208201905061381460008301846137f0565b92915050565b600080fd5b600080fd5b61382d8161359e565b811461383857600080fd5b50565b60008135905061384a81613824565b92915050565b61385981613122565b811461386457600080fd5b50565b60008135905061387681613850565b92915050565b600061014082840312156138935761389261381a565b5b61389e6101406133f2565b9050600082013567ffffffffffffffff8111156138be576138bd61381f565b5b6138ca8482850161348f565b60008301525060206138de8482850161322b565b60208301525060406138f28482850161322b565b604083015250606082013567ffffffffffffffff8111156139165761391561381f565b5b6139228482850161348f565b60608301525060806139368482850161383b565b60808301525060a061394a8482850161322b565b60a08301525060c061395e8482850161322b565b60c08301525060e06139728482850161322b565b60e0830152506101006139878482850161322b565b6101008301525061012061399d84828501613867565b6101208301525092915050565b600080604083850312156139c1576139c0613093565b5b600083013567ffffffffffffffff8111156139df576139de613098565b5b6139eb8582860161348f565b925050602083013567ffffffffffffffff811115613a0c57613a0b613098565b5b613a188582860161387c565b9150509250929050565b60008060408385031215613a3957613a38613093565b5b6000613a47858286016132e0565b9250506020613a5885828601613867565b9150509250929050565b600067ffffffffffffffff821115613a7d57613a7c613392565b5b613a868261319e565b9050602081019050919050565b6000613aa6613aa184613a62565b6133f2565b905082815260208101848484011115613ac257613ac161338d565b5b613acd84828561343e565b509392505050565b600082601f830112613aea57613ae9613388565b5b8135613afa848260208601613a93565b91505092915050565b60008060008060808587031215613b1d57613b1c613093565b5b6000613b2b878288016132e0565b9450506020613b3c878288016132e0565b9350506040613b4d8782880161322b565b925050606085013567ffffffffffffffff811115613b6e57613b6d613098565b5b613b7a87828801613ad5565b91505092959194509250565b613b8f8161359e565b82525050565b6000610140820190508181036000830152613bb0818d6131af565b9050613bbf602083018c6137f0565b613bcc604083018b6137f0565b8181036060830152613bde818a6131af565b9050613bed6080830189613b86565b613bfa60a08301886137f0565b613c0760c08301876137f0565b613c1460e08301866137f0565b613c226101008301856137f0565b613c3061012083018461312e565b9b9a5050505050505050505050565b60008060408385031215613c5657613c55613093565b5b6000613c648582860161322b565b9250506020613c758582860161322b565b9150509250929050565b60008060408385031215613c9657613c95613093565b5b6000613ca4858286016132e0565b9250506020613cb5858286016132e0565b9150509250929050565b7f4e487b7100000000000000000000000000000000000000000000000000000000600052602260045260246000fd5b60006002820490506001821680613d0657607f821691505b602082108103613d1957613d18613cbf565b5b50919050565b7f4552433732313a20617070726f76616c20746f2063757272656e74206f776e6560008201527f7200000000000000000000000000000000000000000000000000000000000000602082015250565b6000613d7b602183613163565b9150613d8682613d1f565b604082019050919050565b60006020820190508181036000830152613daa81613d6e565b9050919050565b7f4552433732313a20617070726f76652063616c6c6572206973206e6f7420746f60008201527f6b656e206f776e6572206f7220617070726f76656420666f7220616c6c000000602082015250565b6000613e0d603d83613163565b9150613e1882613db1565b604082019050919050565b60006020820190508181036000830152613e3c81613e00565b9050919050565b7f4552433732313a2063616c6c6572206973206e6f7420746f6b656e206f776e6560008201527f72206f7220617070726f76656400000000000000000000000000000000000000602082015250565b6000613e9f602d83613163565b9150613eaa82613e43565b604082019050919050565b60006020820190508181036000830152613ece81613e92565b9050919050565b7f4475706c69636174652050726f64756374696f6e20486f757365000000000000600082015250565b6000613f0b601a83613163565b9150613f1682613ed5565b602082019050919050565b60006020820190508181036000830152613f3a81613efe565b9050919050565b7f4e6f7420616e2041646d696e2c206e6f20616363657373000000000000000000600082015250565b6000613f77601783613163565b9150613f8282613f41565b602082019050919050565b60006020820190508181036000830152613fa681613f6a565b9050919050565b60008190508160005260206000209050919050565b60006020601f8301049050919050565b600082821b905092915050565b60006008830261400f7fffffffffffffffffffffffffffffffffffffffffffffffffffffffffffffffff82613fd2565b6140198683613fd2565b95508019841693508086168417925050509392505050565b6000819050919050565b600061405661405161404c8461320a565b614031565b61320a565b9050919050565b6000819050919050565b6140708361403b565b61408461407c8261405d565b848454613fdf565b825550505050565b600090565b61409961408c565b6140a4818484614067565b505050565b5b818110156140c8576140bd600082614091565b6001810190506140aa565b5050565b601f82111561410d576140de81613fad565b6140e784613fc2565b810160208510156140f6578190505b61410a61410285613fc2565b8301826140a9565b50505b505050565b600082821c905092915050565b600061413060001984600802614112565b1980831691505092915050565b6000614149838361411f565b9150826002028217905092915050565b61416282613158565b67ffffffffffffffff81111561417b5761417a613392565b5b6141858254613cee565b6141908282856140cc565b600060209050601f8311600181146141c357600084156141b1578287015190505b6141bb858261413d565b865550614223565b601f1984166141d186613fad565b60005b828110156141f9578489015182556001820191506020850194506020810190506141d4565b868310156142165784890151614212601f89168261411f565b8355505b6001600288020188555050505b505050505050565b7f4e487b7100000000000000000000000000000000000000000000000000000000600052601160045260246000fd5b60006142658261320a565b91507fffffffffffffffffffffffffffffffffffffffffffffffffffffffffffffffff82036142975761429661422b565b5b600182019050919050565b7f4e487b7100000000000000000000000000000000000000000000000000000000600052603260045260246000fd5b600081905092915050565b60006142e782613158565b6142f181856142d1565b9350614301818560208601613174565b80840191505092915050565b600061431982846142dc565b915081905092915050565b6000815461433181613cee565b61433b81866142d1565b94506001821660008114614356576001811461436b5761439e565b60ff198316865281151582028601935061439e565b61437485613fad565b60005b8381101561439657815481890152600182019150602081019050614377565b838801955050505b50505092915050565b60006143b38284614324565b915081905092915050565b7f4120746f6b656e206973206e6f742070726573656e7420666f7220746869732060008201527f6d6f766965000000000000000000000000000000000000000000000000000000602082015250565b600061441a602583613163565b9150614425826143be565b604082019050919050565b600060208201905081810360008301526144498161440d565b9050919050565b7f526573616c65206973206e6f7420616c6c6f77656420666f722074686973206d60008201527f6f76696500000000000000000000000000000000000000000000000000000000602082015250565b60006144ac602483613163565b91506144b782614450565b604082019050919050565b600060208201905081810360008301526144db8161449f565b9050919050565b7f4e487b7100000000000000000000000000000000000000000000000000000000600052601260045260246000fd5b600061451c8261320a565b91506145278361320a565b925082614537576145366144e2565b5b828204905092915050565b600061454d8261320a565b91506145588361320a565b92508282026145668161320a565b9150828204841483151761457d5761457c61422b565b5b5092915050565b600061458f8261320a565b915061459a8361320a565b92508282019050808211156145b2576145b161422b565b5b92915050565b60006145c38261320a565b91506145ce8361320a565b92508282039050818111156145e6576145e561422b565b5b92915050565b7f4552433732313a20696e76616c696420746f6b656e2049440000000000000000600082015250565b6000614622601883613163565b915061462d826145ec565b602082019050919050565b6000602082019050818103600083015261465181614615565b9050919050565b7f4552433732313a2061646472657373207a65726f206973206e6f74206120766160008201527f6c6964206f776e65720000000000000000000000000000000000000000000000602082015250565b60006146b4602983613163565b91506146bf82614658565b604082019050919050565b600060208201905081810360008301526146e3816146a7565b9050919050565b7f4e6f74206120726567697374657265642070726f64756374696f6e20686f757360008201527f6500000000000000000000000000000000000000000000000000000000000000602082015250565b6000614746602183613163565b9150614751826146ea565b604082019050919050565b6000602082019050818103600083015261477581614739565b9050919050565b7f4120746f6b656e20697320616c72656164792070726573656e7420666f72207460008201527f686973206d6f7669650000000000000000000000000000000000000000000000602082015250565b60006147d8602983613163565b91506147e38261477c565b604082019050919050565b60006020820190508181036000830152614807816147cb565b9050919050565b7f496e76616c6964204d696e204d61782076616c75657300000000000000000000600082015250565b6000614844601683613163565b915061484f8261480e565b602082019050919050565b6000602082019050818103600083015261487381614837565b9050919050565b7f782063616e6e6f74206265207a65726f00000000000000000000000000000000600082015250565b60006148b0601083613163565b91506148bb8261487a565b602082019050919050565b600060208201905081810360008301526148df816148a3565b9050919050565b60006148f282856142dc565b91506148fe82846142dc565b91508190509392505050565b7f4e6f7420746865206f776e6572206f662074686520746f6b656e000000000000600082015250565b6000614940601a83613163565b915061494b8261490a565b602082019050919050565b6000602082019050818103600083015261496f81614933565b9050919050565b7f4552433732313a207472616e736665722066726f6d20696e636f72726563742060008201527f6f776e6572000000000000000000000000000000000000000000000000000000602082015250565b60006149d2602583613163565b91506149dd82614976565b604082019050919050565b60006020820190508181036000830152614a01816149c5565b9050919050565b7f4552433732313a207472616e7366657220746f20746865207a65726f2061646460008201527f7265737300000000000000000000000000000000000000000000000000000000602082015250565b6000614a64602483613163565b9150614a6f82614a08565b604082019050919050565b60006020820190508181036000830152614a9381614a57565b9050919050565b7f4552433732313a20617070726f766520746f2063616c6c657200000000000000600082015250565b6000614ad0601983613163565b9150614adb82614a9a565b602082019050919050565b60006020820190508181036000830152614aff81614ac3565b9050919050565b7f4552433732313a207472616e7366657220746f206e6f6e20455243373231526560008201527f63656976657220696d706c656d656e7465720000000000000000000000000000602082015250565b6000614b62603283613163565b9150614b6d82614b06565b604082019050919050565b60006020820190508181036000830152614b9181614b55565b9050919050565b600081519050919050565b600082825260208201905092915050565b6000614bbf82614b98565b614bc98185614ba3565b9350614bd9818560208601613174565b614be28161319e565b840191505092915050565b6000608082019050614c02600083018761329f565b614c0f602083018661329f565b614c1c60408301856137f0565b8181036060830152614c2e8184614bb4565b905095945050505050565b600081519050614c48816130c9565b92915050565b600060208284031215614c6457614c63613093565b5b6000614c7284828501614c39565b91505092915050565b7f4552433732313a206d696e7420746f20746865207a65726f2061646472657373600082015250565b6000614cb1602083613163565b9150614cbc82614c7b565b602082019050919050565b60006020820190508181036000830152614ce081614ca4565b9050919050565b7f4552433732313a20746f6b656e20616c7265616479206d696e74656400000000600082015250565b6000614d1d601c83613163565b9150614d2882614ce7565b602082019050919050565b60006020820190508181036000830152614d4c81614d10565b905091905056fea264697066735822122060f4262df01b476eab076b6b31b094f0b8fc3ce6a91873eaba1a9a84f52928a964736f6c63430008130033",
  "immutableReferences": {},
  "source": "// SPDX-License-Identifier: UNLICENSED\npragma solidity ^0.8.0;\n\nimport \"../node_modules/@openzeppelin/contracts/token/ERC721/ERC721.sol\";\nimport \"../node_modules/@openzeppelin/contracts/utils/Counters.sol\";\n\ncontract FilmToken is ERC721 {\n    using Counters for Counters.Counter;\n    Counters.Counter public tokenIds;\n\n    struct Token {\n        string movieName;\n        uint256 tokenId;\n        uint basePrice;\n        string productionCompany;\n        address payable ownerAddr;\n        uint minTime;\n        uint maxTime;\n        uint apprPercent;\n        uint deprPercent;\n\n        bool resale;\n    }\n\n    Token[] allTokens;\n    address public admin;\n    mapping(uint256 => Token) public tokenIdToTokenMap;\n    mapping(address=>string) productionAddrToNameMap;\n    mapping(string=>uint) nameTokenIdMap;\n    mapping(uint=>address) tokenIdToOwnerMap;\n\n    modifier duplicateProdHouse (address addr){\n        bool duplicate = bytes(productionAddrToNameMap[addr]).length > 0 ;\n        require(!duplicate,\"Duplicate Production House\");\n        _;\n    }\n\n    modifier onlyAdmin{\n        require(msg.sender == admin,\"Not an Admin, no access\");\n        _;\n    }\n\n    modifier validProdHouse(address addr){\n        bool duplicate = bytes(productionAddrToNameMap[addr]).length > 0 ;\n        require(duplicate,\"Not a registered production house\");\n        _;\n    }\n\n    modifier duplicateMovieToken(string memory name){ // self exp.\n        bool duplicate = false;\n        for(uint i=0;i<allTokens.length;i++){\n\n            if(keccak256(abi.encodePacked(allTokens[i].movieName)) == keccak256(abi.encodePacked(name))){\n                duplicate = true;break;\n            }\n        }\n\n        require(!duplicate,\"A token is already present for this movie\");\n        _;\n    }\n\n    modifier validMovieToken(string memory name){ // self exp.\n        bool duplicate = false;\n        for(uint i=0;i<allTokens.length;i++){\n\n            if(keccak256(abi.encodePacked(allTokens[i].movieName)) == keccak256(abi.encodePacked(name))){\n                duplicate = true;break;\n            }\n        }\n\n        require(duplicate,\"A token is not present for this movie\");\n        _;\n    }\n\n    modifier validMinMaxValues(uint min,uint max){ // min (both days and appr/depr, should be +ve\n        require(min<=max && min>0 && max>0,\"Invalid Min Max values\");\n        _;\n    }\n\n    modifier checkTokenOwner(uint tokenId){\n        require(tokenIdToOwnerMap[tokenId]==msg.sender,\"Not the owner of the token\");\n        _;\n    }\n\n    constructor() ERC721(\"MovieTokenization\",\"MVTK\"){\n        admin = msg.sender;\n    }\n\n    function registerProductionHouse(string memory name,address addr) public duplicateProdHouse(msg.sender) onlyAdmin{\n        productionAddrToNameMap[addr] = name;\n    }\n    // uint appr, uint depr,uint minTime,uint maxTime, uint baseValue)\n\n    function createMovieToken(string memory movieName, Token memory input) public validProdHouse(msg.sender) duplicateMovieToken(movieName) validMinMaxValues(input.minTime,input.maxTime) validMinMaxValues(input.apprPercent,input.deprPercent){\n        //check if the user is a registerd prod house or not, handled in validProdHouse modifier\n        //check for duplicate token\n        // string memory prodName = productionAddrToNameMap[msg.sender];\n        //check if input values are valid\n        // address payable sender = payable(msg.sender);\n        Token memory newToken = Token(movieName,tokenIds.current(),input.basePrice,productionAddrToNameMap[msg.sender],payable(msg.sender),input.minTime,input.maxTime,input.apprPercent,input.deprPercent,true);\n\n        nameTokenIdMap[movieName] = tokenIds.current();\n        tokenIdToTokenMap[tokenIds.current()] = newToken;\n        tokenIdToOwnerMap[tokenIds.current()] = msg.sender;\n        _safeMint(msg.sender, tokenIds.current());\n        tokenIds.increment();\n        allTokens.push(newToken);\n\n\n    }\n\n    function buyMovieToken(uint dayss, string memory movieName) public payable validMovieToken(movieName){ //changed tokenId to movieName, as there's no visibility provided right now\n        //check if the movieName is valid, in modifier\n        //days can be +/-, - represents earlier, + later\n        uint tokenId = nameTokenIdMap[movieName];\n        Token memory token = tokenIdToTokenMap[tokenId];\n        require(token.resale == true, \"Resale is not allowed for this movie\");\n        uint value = token.basePrice;\n        uint minDays = token.minTime;\n        uint maxDays = token.maxTime;\n\n        uint finalValue = value;\n\n        if(dayss<0){\n            if(dayss>minDays){//highest cost\n                finalValue += finalValue * (token.apprPercent/100);\n                finalValue += finalValue * (token.apprPercent/100);\n            }else{//second highest\n                finalValue += finalValue * (token.apprPercent/100);\n            }\n        }else if(dayss>0){\n            if(dayss>maxDays){//least cost\n                finalValue -= finalValue * (token.apprPercent/100);\n                finalValue -= finalValue * (token.apprPercent/100);\n            }else{//second least\n                finalValue -= finalValue * (token.apprPercent/100);\n            }\n        }\n\n        //get token owner and transfer ether\n        token.ownerAddr.transfer(msg.value); // failure of this reverts everything needn't explicitly handle for now, TODO: better, give a proper error message\n\n        //change ownership\n        token.ownerAddr = payable(msg.sender);\n        //also in map\n        tokenIdToOwnerMap[tokenId] = msg.sender;\n        //disable resale\n        token.resale  = false;\n        //change in token list\n        for(uint i=0;i<allTokens.length;i++){\n            if(allTokens[i].tokenId == tokenId){\n                allTokens[i].ownerAddr = payable(msg.sender);\n            }\n        }\n\n    }\n\n\n    function appreciateTokenValue(uint256 tokenId, uint value) public checkTokenOwner(tokenId){ //how will the user know tokenid, remember? give him visibility\n        tokenIdToTokenMap[tokenId].basePrice += value;\n    }\n\n    function depreciateTokenValue(uint256 tokenId, uint value) public checkTokenOwner(tokenId){\n        tokenIdToTokenMap[tokenId].basePrice -=  value;\n    }\n\n    function enableOrDisableResale(uint tokenId) public checkTokenOwner(tokenId){\n        if(tokenIdToTokenMap[tokenId].resale == true){\n            tokenIdToTokenMap[tokenId].resale = false;\n        }else{\n            tokenIdToTokenMap[tokenId].resale = true;\n        }\n    }\n\n\n    function viewTokens() public view returns(Token[] memory){\n\n        Token[] memory result = new Token[](allTokens.length);\n        uint index = 0;\n        for(uint i=0;i<=tokenIds.current();i++){ // no support to deleting tokens, so looping through all tokenids is equal to keys\n\n            if(tokenIdToTokenMap[i].ownerAddr == msg.sender){\n                result[index++]=tokenIdToTokenMap[i];\n            }\n        }\n        return result;\n    }\n\n    function doSomething(uint x) public {\n        if (x == 0) {\n            revert(\"x cannot be zero\");\n        }\n        // function code goes here\n    }\n\n}\n",
  "sourcePath": "/Users/saisvasgudimalla/Documents/Nani/MS_CS_UB/Spring_2023/Blockchain/FilmToken-Dapp/FilmToken-contract/contracts/FilmToken.sol",
  "compiler": {
    "name": "solc",
    "version": "0.8.19+commit.7dd6d404.Emscripten.clang"
  },
  "schemaVersion": "3.4.13",
  "updatedAt": "2023-04-27T22:14:28.578Z",
  "networkType": "ethereum",
  "devdoc": {
    "events": {
      "Approval(address,address,uint256)": {
        "details": "Emitted when `owner` enables `approved` to manage the `tokenId` token."
      },
      "ApprovalForAll(address,address,bool)": {
        "details": "Emitted when `owner` enables or disables (`approved`) `operator` to manage all of its assets."
      },
      "Transfer(address,address,uint256)": {
        "details": "Emitted when `tokenId` token is transferred from `from` to `to`."
      }
    },
    "kind": "dev",
    "methods": {
      "approve(address,uint256)": {
        "details": "See {IERC721-approve}."
      },
      "balanceOf(address)": {
        "details": "See {IERC721-balanceOf}."
      },
      "getApproved(uint256)": {
        "details": "See {IERC721-getApproved}."
      },
      "isApprovedForAll(address,address)": {
        "details": "See {IERC721-isApprovedForAll}."
      },
      "name()": {
        "details": "See {IERC721Metadata-name}."
      },
      "ownerOf(uint256)": {
        "details": "See {IERC721-ownerOf}."
      },
      "safeTransferFrom(address,address,uint256)": {
        "details": "See {IERC721-safeTransferFrom}."
      },
      "safeTransferFrom(address,address,uint256,bytes)": {
        "details": "See {IERC721-safeTransferFrom}."
      },
      "setApprovalForAll(address,bool)": {
        "details": "See {IERC721-setApprovalForAll}."
      },
      "supportsInterface(bytes4)": {
        "details": "See {IERC165-supportsInterface}."
      },
      "symbol()": {
        "details": "See {IERC721Metadata-symbol}."
      },
      "tokenURI(uint256)": {
        "details": "See {IERC721Metadata-tokenURI}."
      },
      "transferFrom(address,address,uint256)": {
        "details": "See {IERC721-transferFrom}."
      }
    },
    "version": 1
  },
  "userdoc": {
    "kind": "user",
    "methods": {},
    "version": 1
  }
}