{
  "contractName": "FilmToken",
  "abi": [
    {
      "inputs": [],
      "stateMutability": "nonpayable",
      "type": "constructor"
    },
    {
      "anonymous": false,
      "inputs": [
        {
          "indexed": true,
          "internalType": "address",
          "name": "owner",
          "type": "address"
        },
        {
          "indexed": true,
          "internalType": "address",
          "name": "approved",
          "type": "address"
        },
        {
          "indexed": true,
          "internalType": "uint256",
          "name": "tokenId",
          "type": "uint256"
        }
      ],
      "name": "Approval",
      "type": "event"
    },
    {
      "anonymous": false,
      "inputs": [
        {
          "indexed": true,
          "internalType": "address",
          "name": "owner",
          "type": "address"
        },
        {
          "indexed": true,
          "internalType": "address",
          "name": "operator",
          "type": "address"
        },
        {
          "indexed": false,
          "internalType": "bool",
          "name": "approved",
          "type": "bool"
        }
      ],
      "name": "ApprovalForAll",
      "type": "event"
    },
    {
      "anonymous": false,
      "inputs": [
        {
          "indexed": true,
          "internalType": "address",
          "name": "from",
          "type": "address"
        },
        {
          "indexed": true,
          "internalType": "address",
          "name": "to",
          "type": "address"
        },
        {
          "indexed": true,
          "internalType": "uint256",
          "name": "tokenId",
          "type": "uint256"
        }
      ],
      "name": "Transfer",
      "type": "event"
    },
    {
      "inputs": [],
      "name": "admin",
      "outputs": [
        {
          "internalType": "address",
          "name": "",
          "type": "address"
        }
      ],
      "stateMutability": "view",
      "type": "function",
      "constant": true
    },
    {
      "inputs": [
        {
          "internalType": "address",
          "name": "to",
          "type": "address"
        },
        {
          "internalType": "uint256",
          "name": "tokenId",
          "type": "uint256"
        }
      ],
      "name": "approve",
      "outputs": [],
      "stateMutability": "nonpayable",
      "type": "function"
    },
    {
      "inputs": [
        {
          "internalType": "address",
          "name": "owner",
          "type": "address"
        }
      ],
      "name": "balanceOf",
      "outputs": [
        {
          "internalType": "uint256",
          "name": "",
          "type": "uint256"
        }
      ],
      "stateMutability": "view",
      "type": "function",
      "constant": true
    },
    {
      "inputs": [
        {
          "internalType": "uint256",
          "name": "tokenId",
          "type": "uint256"
        }
      ],
      "name": "getApproved",
      "outputs": [
        {
          "internalType": "address",
          "name": "",
          "type": "address"
        }
      ],
      "stateMutability": "view",
      "type": "function",
      "constant": true
    },
    {
      "inputs": [
        {
          "internalType": "address",
          "name": "owner",
          "type": "address"
        },
        {
          "internalType": "address",
          "name": "operator",
          "type": "address"
        }
      ],
      "name": "isApprovedForAll",
      "outputs": [
        {
          "internalType": "bool",
          "name": "",
          "type": "bool"
        }
      ],
      "stateMutability": "view",
      "type": "function",
      "constant": true
    },
    {
      "inputs": [],
      "name": "name",
      "outputs": [
        {
          "internalType": "string",
          "name": "",
          "type": "string"
        }
      ],
      "stateMutability": "view",
      "type": "function",
      "constant": true
    },
    {
      "inputs": [
        {
          "internalType": "uint256",
          "name": "tokenId",
          "type": "uint256"
        }
      ],
      "name": "ownerOf",
      "outputs": [
        {
          "internalType": "address",
          "name": "",
          "type": "address"
        }
      ],
      "stateMutability": "view",
      "type": "function",
      "constant": true
    },
    {
      "inputs": [
        {
          "internalType": "address",
          "name": "from",
          "type": "address"
        },
        {
          "internalType": "address",
          "name": "to",
          "type": "address"
        },
        {
          "internalType": "uint256",
          "name": "tokenId",
          "type": "uint256"
        }
      ],
      "name": "safeTransferFrom",
      "outputs": [],
      "stateMutability": "nonpayable",
      "type": "function"
    },
    {
      "inputs": [
        {
          "internalType": "address",
          "name": "from",
          "type": "address"
        },
        {
          "internalType": "address",
          "name": "to",
          "type": "address"
        },
        {
          "internalType": "uint256",
          "name": "tokenId",
          "type": "uint256"
        },
        {
          "internalType": "bytes",
          "name": "data",
          "type": "bytes"
        }
      ],
      "name": "safeTransferFrom",
      "outputs": [],
      "stateMutability": "nonpayable",
      "type": "function"
    },
    {
      "inputs": [
        {
          "internalType": "address",
          "name": "operator",
          "type": "address"
        },
        {
          "internalType": "bool",
          "name": "approved",
          "type": "bool"
        }
      ],
      "name": "setApprovalForAll",
      "outputs": [],
      "stateMutability": "nonpayable",
      "type": "function"
    },
    {
      "inputs": [
        {
          "internalType": "bytes4",
          "name": "interfaceId",
          "type": "bytes4"
        }
      ],
      "name": "supportsInterface",
      "outputs": [
        {
          "internalType": "bool",
          "name": "",
          "type": "bool"
        }
      ],
      "stateMutability": "view",
      "type": "function",
      "constant": true
    },
    {
      "inputs": [],
      "name": "symbol",
      "outputs": [
        {
          "internalType": "string",
          "name": "",
          "type": "string"
        }
      ],
      "stateMutability": "view",
      "type": "function",
      "constant": true
    },
    {
      "inputs": [
        {
          "internalType": "uint256",
          "name": "",
          "type": "uint256"
        }
      ],
      "name": "tokenIdToTokenMap",
      "outputs": [
        {
          "internalType": "string",
          "name": "movieName",
          "type": "string"
        },
        {
          "internalType": "uint256",
          "name": "tokenId",
          "type": "uint256"
        },
        {
          "internalType": "uint256",
          "name": "basePrice",
          "type": "uint256"
        },
        {
          "internalType": "string",
          "name": "productionCompany",
          "type": "string"
        },
        {
          "internalType": "address payable",
          "name": "ownerAddr",
          "type": "address"
        },
        {
          "internalType": "uint256",
          "name": "minTime",
          "type": "uint256"
        },
        {
          "internalType": "uint256",
          "name": "maxTime",
          "type": "uint256"
        },
        {
          "internalType": "uint256",
          "name": "apprPercent",
          "type": "uint256"
        },
        {
          "internalType": "uint256",
          "name": "deprPercent",
          "type": "uint256"
        },
        {
          "internalType": "uint256",
          "name": "baseDays",
          "type": "uint256"
        },
        {
          "internalType": "bool",
          "name": "resale",
          "type": "bool"
        }
      ],
      "stateMutability": "view",
      "type": "function",
      "constant": true
    },
    {
      "inputs": [],
      "name": "tokenIds",
      "outputs": [
        {
          "internalType": "uint256",
          "name": "_value",
          "type": "uint256"
        }
      ],
      "stateMutability": "view",
      "type": "function",
      "constant": true
    },
    {
      "inputs": [
        {
          "internalType": "uint256",
          "name": "tokenId",
          "type": "uint256"
        }
      ],
      "name": "tokenURI",
      "outputs": [
        {
          "internalType": "string",
          "name": "",
          "type": "string"
        }
      ],
      "stateMutability": "view",
      "type": "function",
      "constant": true
    },
    {
      "inputs": [
        {
          "internalType": "address",
          "name": "from",
          "type": "address"
        },
        {
          "internalType": "address",
          "name": "to",
          "type": "address"
        },
        {
          "internalType": "uint256",
          "name": "tokenId",
          "type": "uint256"
        }
      ],
      "name": "transferFrom",
      "outputs": [],
      "stateMutability": "nonpayable",
      "type": "function"
    },
    {
      "inputs": [
        {
          "internalType": "string",
          "name": "name",
          "type": "string"
        },
        {
          "internalType": "address",
          "name": "addr",
          "type": "address"
        }
      ],
      "name": "registerProductionHouse",
      "outputs": [],
      "stateMutability": "nonpayable",
      "type": "function"
    },
    {
      "inputs": [],
      "name": "getAllProdHouses",
      "outputs": [
        {
          "internalType": "address[]",
          "name": "",
          "type": "address[]"
        }
      ],
      "stateMutability": "view",
      "type": "function",
      "constant": true
    },
    {
      "inputs": [
        {
          "internalType": "string",
          "name": "movieName",
          "type": "string"
        },
        {
          "internalType": "uint256",
          "name": "basePrice",
          "type": "uint256"
        },
        {
          "internalType": "uint256",
          "name": "baseDays",
          "type": "uint256"
        },
        {
          "internalType": "uint256",
          "name": "minTime",
          "type": "uint256"
        },
        {
          "internalType": "uint256",
          "name": "maxTime",
          "type": "uint256"
        },
        {
          "internalType": "uint256",
          "name": "apprPercent",
          "type": "uint256"
        },
        {
          "internalType": "uint256",
          "name": "deprPercent",
          "type": "uint256"
        }
      ],
      "name": "createMovieToken",
      "outputs": [],
      "stateMutability": "nonpayable",
      "type": "function"
    },
    {
      "inputs": [
        {
          "internalType": "uint256",
          "name": "dayss",
          "type": "uint256"
        },
        {
          "internalType": "string",
          "name": "movieName",
          "type": "string"
        }
      ],
      "name": "buyMovieToken",
      "outputs": [],
      "stateMutability": "payable",
      "type": "function",
      "payable": true
    },
    {
      "inputs": [
        {
          "internalType": "uint256",
          "name": "tokenId",
          "type": "uint256"
        },
        {
          "internalType": "uint256",
          "name": "value",
          "type": "uint256"
        }
      ],
      "name": "appreciateTokenValue",
      "outputs": [],
      "stateMutability": "nonpayable",
      "type": "function"
    },
    {
      "inputs": [
        {
          "internalType": "uint256",
          "name": "tokenId",
          "type": "uint256"
        },
        {
          "internalType": "uint256",
          "name": "value",
          "type": "uint256"
        }
      ],
      "name": "depreciateTokenValue",
      "outputs": [],
      "stateMutability": "nonpayable",
      "type": "function"
    },
    {
      "inputs": [
        {
          "internalType": "uint256",
          "name": "tokenId",
          "type": "uint256"
        }
      ],
      "name": "enableOrDisableResale",
      "outputs": [],
      "stateMutability": "nonpayable",
      "type": "function"
    },
    {
      "inputs": [],
      "name": "viewTokens",
      "outputs": [
        {
          "components": [
            {
              "internalType": "string",
              "name": "movieName",
              "type": "string"
            },
            {
              "internalType": "uint256",
              "name": "tokenId",
              "type": "uint256"
            },
            {
              "internalType": "uint256",
              "name": "basePrice",
              "type": "uint256"
            },
            {
              "internalType": "string",
              "name": "productionCompany",
              "type": "string"
            },
            {
              "internalType": "address payable",
              "name": "ownerAddr",
              "type": "address"
            },
            {
              "internalType": "uint256",
              "name": "minTime",
              "type": "uint256"
            },
            {
              "internalType": "uint256",
              "name": "maxTime",
              "type": "uint256"
            },
            {
              "internalType": "uint256",
              "name": "apprPercent",
              "type": "uint256"
            },
            {
              "internalType": "uint256",
              "name": "deprPercent",
              "type": "uint256"
            },
            {
              "internalType": "uint256",
              "name": "baseDays",
              "type": "uint256"
            },
            {
              "internalType": "bool",
              "name": "resale",
              "type": "bool"
            }
          ],
          "internalType": "struct FilmToken.Token[]",
          "name": "",
          "type": "tuple[]"
        }
      ],
      "stateMutability": "view",
      "type": "function",
      "constant": true
    }
  ],
  "bytecode": "0x60806040523480156200001157600080fd5b506040518060400160405280601181526020017f4d6f766965546f6b656e697a6174696f6e0000000000000000000000000000008152506040518060400160405280600481526020017f4d56544b0000000000000000000000000000000000000000000000000000000081525081600090816200008f919062000365565b508060019081620000a1919062000365565b50505033600860006101000a81548173ffffffffffffffffffffffffffffffffffffffff021916908373ffffffffffffffffffffffffffffffffffffffff1602179055506200044c565b600081519050919050565b7f4e487b7100000000000000000000000000000000000000000000000000000000600052604160045260246000fd5b7f4e487b7100000000000000000000000000000000000000000000000000000000600052602260045260246000fd5b600060028204905060018216806200016d57607f821691505b60208210810362000183576200018262000125565b5b50919050565b60008190508160005260206000209050919050565b60006020601f8301049050919050565b600082821b905092915050565b600060088302620001ed7fffffffffffffffffffffffffffffffffffffffffffffffffffffffffffffffff82620001ae565b620001f98683620001ae565b95508019841693508086168417925050509392505050565b6000819050919050565b6000819050919050565b600062000246620002406200023a8462000211565b6200021b565b62000211565b9050919050565b6000819050919050565b620002628362000225565b6200027a62000271826200024d565b848454620001bb565b825550505050565b600090565b6200029162000282565b6200029e81848462000257565b505050565b5b81811015620002c657620002ba60008262000287565b600181019050620002a4565b5050565b601f8211156200031557620002df8162000189565b620002ea846200019e565b81016020851015620002fa578190505b6200031262000309856200019e565b830182620002a3565b50505b505050565b600082821c905092915050565b60006200033a600019846008026200031a565b1980831691505092915050565b600062000355838362000327565b9150826002028217905092915050565b6200037082620000eb565b67ffffffffffffffff8111156200038c576200038b620000f6565b5b62000398825462000154565b620003a5828285620002ca565b600060209050601f831160018114620003dd5760008415620003c8578287015190505b620003d4858262000347565b86555062000444565b601f198416620003ed8662000189565b60005b828110156200041757848901518255600182019150602085019450602081019050620003f0565b8683101562000437578489015162000433601f89168262000327565b8355505b6001600288020188555050505b505050505050565b614a89806200045c6000396000f3fe60806040526004361061014b5760003560e01c806370a08231116100b6578063c87b56dd1161006f578063c87b56dd1461049d578063ca99cc3e146104da578063dd7072f614610503578063e985e9c51461052c578063f851a44014610569578063f907b4a6146105945761014b565b806370a0823114610371578063714cff56146103ae57806395d89b41146103d9578063a22cb46514610404578063b88d4fde1461042d578063c3aee736146104565761014b565b806342842e0e1161010857806342842e0e146102705780634bf5bf35146102995780634d129205146102c457806357a3106b146102ef5780636352211e1461030b5780636e323c50146103485761014b565b806301ffc9a71461015057806306fdde031461018d578063081812fc146101b8578063095ea7b3146101f557806323b872dd1461021e57806337c4f46714610247575b600080fd5b34801561015c57600080fd5b506101776004803603810190610172919061300b565b6105bd565b6040516101849190613053565b60405180910390f35b34801561019957600080fd5b506101a261069f565b6040516101af91906130fe565b60405180910390f35b3480156101c457600080fd5b506101df60048036038101906101da9190613156565b610731565b6040516101ec91906131c4565b60405180910390f35b34801561020157600080fd5b5061021c6004803603810190610217919061320b565b610777565b005b34801561022a57600080fd5b506102456004803603810190610240919061324b565b61088e565b005b34801561025357600080fd5b5061026e600480360381019061026991906133d3565b6108ee565b005b34801561027c57600080fd5b506102976004803603810190610292919061324b565b610ac8565b005b3480156102a557600080fd5b506102ae610ae8565b6040516102bb9190613670565b60405180910390f35b3480156102d057600080fd5b506102d9610e05565b6040516102e69190613750565b60405180910390f35b61030960048036038101906103049190613772565b610e93565b005b34801561031757600080fd5b50610332600480360381019061032d9190613156565b611561565b60405161033f91906131c4565b60405180910390f35b34801561035457600080fd5b5061036f600480360381019061036a91906137ce565b6115e7565b005b34801561037d57600080fd5b506103986004803603810190610393919061388c565b6119d4565b6040516103a591906138c8565b60405180910390f35b3480156103ba57600080fd5b506103c3611a8b565b6040516103d091906138c8565b60405180910390f35b3480156103e557600080fd5b506103ee611a97565b6040516103fb91906130fe565b60405180910390f35b34801561041057600080fd5b5061042b6004803603810190610426919061390f565b611b29565b005b34801561043957600080fd5b50610454600480360381019061044f91906139f0565b611b3f565b005b34801561046257600080fd5b5061047d60048036038101906104789190613156565b611ba1565b6040516104949b9a99989796959493929190613a82565b60405180910390f35b3480156104a957600080fd5b506104c460048036038101906104bf9190613156565b611d38565b6040516104d191906130fe565b60405180910390f35b3480156104e657600080fd5b5061050160048036038101906104fc9190613156565b611da0565b005b34801561050f57600080fd5b5061052a60048036038101906105259190613b3b565b611ed9565b005b34801561053857600080fd5b50610553600480360381019061054e9190613b7b565b611fad565b6040516105609190613053565b60405180910390f35b34801561057557600080fd5b5061057e612041565b60405161058b91906131c4565b60405180910390f35b3480156105a057600080fd5b506105bb60048036038101906105b69190613b3b565b612067565b005b60007f80ac58cd000000000000000000000000000000000000000000000000000000007bffffffffffffffffffffffffffffffffffffffffffffffffffffffff1916827bffffffffffffffffffffffffffffffffffffffffffffffffffffffff1916148061068857507f5b5e139f000000000000000000000000000000000000000000000000000000007bffffffffffffffffffffffffffffffffffffffffffffffffffffffff1916827bffffffffffffffffffffffffffffffffffffffffffffffffffffffff1916145b8061069857506106978261213b565b5b9050919050565b6060600080546106ae90613bea565b80601f01602080910402602001604051908101604052809291908181526020018280546106da90613bea565b80156107275780601f106106fc57610100808354040283529160200191610727565b820191906000526020600020905b81548152906001019060200180831161070a57829003601f168201915b5050505050905090565b600061073c826121a5565b6004600083815260200190815260200160002060009054906101000a900473ffffffffffffffffffffffffffffffffffffffff169050919050565b600061078282611561565b90508073ffffffffffffffffffffffffffffffffffffffff168373ffffffffffffffffffffffffffffffffffffffff16036107f2576040517f08c379a00000000000000000000000000000000000000000000000000000000081526004016107e990613c8d565b60405180910390fd5b8073ffffffffffffffffffffffffffffffffffffffff166108116121f0565b73ffffffffffffffffffffffffffffffffffffffff161480610840575061083f8161083a6121f0565b611fad565b5b61087f576040517f08c379a000000000000000000000000000000000000000000000000000000000815260040161087690613d1f565b60405180910390fd5b61088983836121f8565b505050565b61089f6108996121f0565b826122b1565b6108de576040517f08c379a00000000000000000000000000000000000000000000000000000000081526004016108d590613db1565b60405180910390fd5b6108e9838383612346565b505050565b80600080600a60008473ffffffffffffffffffffffffffffffffffffffff1673ffffffffffffffffffffffffffffffffffffffff168152602001908152602001600020805461093c90613bea565b90501190508015610982576040517f08c379a000000000000000000000000000000000000000000000000000000000815260040161097990613e1d565b60405180910390fd5b600860009054906101000a900473ffffffffffffffffffffffffffffffffffffffff1673ffffffffffffffffffffffffffffffffffffffff163373ffffffffffffffffffffffffffffffffffffffff1614610a12576040517f08c379a0000000000000000000000000000000000000000000000000000000008152600401610a0990613e89565b60405180910390fd5b83600a60008573ffffffffffffffffffffffffffffffffffffffff1673ffffffffffffffffffffffffffffffffffffffff1681526020019081526020016000209081610a5e9190614055565b50600b839080600181540180825580915050600190039060005260206000200160009091909190916101000a81548173ffffffffffffffffffffffffffffffffffffffff021916908373ffffffffffffffffffffffffffffffffffffffff16021790555050505050565b610ae383838360405180602001604052806000815250611b3f565b505050565b6060600060078054905067ffffffffffffffff811115610b0b57610b0a6132a8565b5b604051908082528060200260200182016040528015610b4457816020015b610b31612f2d565b815260200190600190039081610b295790505b5090506000805b610b55600661263f565b8111610dfc573373ffffffffffffffffffffffffffffffffffffffff166009600083815260200190815260200160002060040160009054906101000a900473ffffffffffffffffffffffffffffffffffffffff1673ffffffffffffffffffffffffffffffffffffffff1603610de9576009600082815260200190815260200160002060405180610160016040529081600082018054610bf390613bea565b80601f0160208091040260200160405190810160405280929190818152602001828054610c1f90613bea565b8015610c6c5780601f10610c4157610100808354040283529160200191610c6c565b820191906000526020600020905b815481529060010190602001808311610c4f57829003601f168201915b505050505081526020016001820154815260200160028201548152602001600382018054610c9990613bea565b80601f0160208091040260200160405190810160405280929190818152602001828054610cc590613bea565b8015610d125780601f10610ce757610100808354040283529160200191610d12565b820191906000526020600020905b815481529060010190602001808311610cf557829003601f168201915b505050505081526020016004820160009054906101000a900473ffffffffffffffffffffffffffffffffffffffff1673ffffffffffffffffffffffffffffffffffffffff1673ffffffffffffffffffffffffffffffffffffffff1681526020016005820154815260200160068201548152602001600782015481526020016008820154815260200160098201548152602001600a820160009054906101000a900460ff161515151581525050838380610dca90614156565b945081518110610ddd57610ddc61419e565b5b60200260200101819052505b8080610df490614156565b915050610b4b565b50819250505090565b6060600b805480602002602001604051908101604052809291908181526020018280548015610e8957602002820191906000526020600020905b8160009054906101000a900473ffffffffffffffffffffffffffffffffffffffff1673ffffffffffffffffffffffffffffffffffffffff1681526020019060010190808311610e3f575b5050505050905090565b806000805b600780549050811015610f385782604051602001610eb69190614209565b6040516020818303038152906040528051906020012060078281548110610ee057610edf61419e565b5b90600052602060002090600b0201600001604051602001610f0191906142a3565b6040516020818303038152906040528051906020012003610f255760019150610f38565b8080610f3090614156565b915050610e98565b5080610f79576040517f08c379a0000000000000000000000000000000000000000000000000000000008152600401610f709061432c565b60405180910390fd5b6000600c84604051610f8b9190614209565b908152602001604051809103902054905060006009600083815260200190815260200160002060405180610160016040529081600082018054610fcd90613bea565b80601f0160208091040260200160405190810160405280929190818152602001828054610ff990613bea565b80156110465780601f1061101b57610100808354040283529160200191611046565b820191906000526020600020905b81548152906001019060200180831161102957829003601f168201915b50505050508152602001600182015481526020016002820154815260200160038201805461107390613bea565b80601f016020809104026020016040519081016040528092919081815260200182805461109f90613bea565b80156110ec5780601f106110c1576101008083540402835291602001916110ec565b820191906000526020600020905b8154815290600101906020018083116110cf57829003601f168201915b505050505081526020016004820160009054906101000a900473ffffffffffffffffffffffffffffffffffffffff1673ffffffffffffffffffffffffffffffffffffffff1673ffffffffffffffffffffffffffffffffffffffff1681526020016005820154815260200160068201548152602001600782015481526020016008820154815260200160098201548152602001600a820160009054906101000a900460ff1615151515815250509050600115158161014001511515146111e6576040517f08c379a00000000000000000000000000000000000000000000000000000000081526004016111dd906143be565b60405180910390fd5b60008160400151905060008260a00151905060008360c001519050600084610120015190506000849050838b11801561123557506002828561122891906143de565b6112329190614441565b8b105b156112915760648660e0015161124b9190614441565b816112569190614472565b8161126191906143de565b905060648660e001516112749190614441565b8161127f9190614472565b8161128a91906143de565b90506113b8565b60028b8361129f91906143de565b6112a99190614441565b8b101580156112b75750818b105b156112ea5760648660e001516112cd9190614441565b816112d89190614472565b816112e391906143de565b90506113b7565b818b11801561131057506002838361130291906143de565b61130c9190614441565b8b11155b156113435760648660e001516113269190614441565b816113319190614472565b8161133c91906144b4565b90506113b6565b6002838361135191906143de565b61135b9190614441565b8b11156113b55760648660e001516113739190614441565b8161137e9190614472565b8161138991906144b4565b905060648660e0015161139c9190614441565b816113a79190614472565b816113b291906144b4565b90505b5b5b5b856080015173ffffffffffffffffffffffffffffffffffffffff166108fc349081150290604051600060405180830381858888f19350505050158015611402573d6000803e3d6000fd5b5033866080019073ffffffffffffffffffffffffffffffffffffffff16908173ffffffffffffffffffffffffffffffffffffffff168152505033600d600089815260200190815260200160002060006101000a81548173ffffffffffffffffffffffffffffffffffffffff021916908373ffffffffffffffffffffffffffffffffffffffff16021790555060008661014001901515908115158152505060005b6007805490508110156115535787600782815481106114c4576114c361419e565b5b90600052602060002090600b020160010154036115405733600782815481106114f0576114ef61419e565b5b90600052602060002090600b020160040160006101000a81548173ffffffffffffffffffffffffffffffffffffffff021916908373ffffffffffffffffffffffffffffffffffffffff1602179055505b808061154b90614156565b9150506114a2565b505050505050505050505050565b60008061156d8361264d565b9050600073ffffffffffffffffffffffffffffffffffffffff168173ffffffffffffffffffffffffffffffffffffffff16036115de576040517f08c379a00000000000000000000000000000000000000000000000000000000081526004016115d590614534565b60405180910390fd5b80915050919050565b6000604051806101600160405280898152602001611605600661263f565b8152602001888152602001600a60003373ffffffffffffffffffffffffffffffffffffffff1673ffffffffffffffffffffffffffffffffffffffff168152602001908152602001600020805461165a90613bea565b80601f016020809104026020016040519081016040528092919081815260200182805461168690613bea565b80156116d35780601f106116a8576101008083540402835291602001916116d3565b820191906000526020600020905b8154815290600101906020018083116116b657829003601f168201915b505050505081526020013373ffffffffffffffffffffffffffffffffffffffff16815260200186815260200185815260200184815260200183815260200187815260200160011515815250905061172a600661263f565b600c8960405161173a9190614209565b908152602001604051809103902081905550806009600061175b600661263f565b8152602001908152602001600020600082015181600001908161177e9190614055565b50602082015181600101556040820151816002015560608201518160030190816117a89190614055565b5060808201518160040160006101000a81548173ffffffffffffffffffffffffffffffffffffffff021916908373ffffffffffffffffffffffffffffffffffffffff16021790555060a0820151816005015560c0820151816006015560e082015181600701556101008201518160080155610120820151816009015561014082015181600a0160006101000a81548160ff02191690831515021790555090505033600d6000611857600661263f565b815260200190815260200160002060006101000a81548173ffffffffffffffffffffffffffffffffffffffff021916908373ffffffffffffffffffffffffffffffffffffffff1602179055506118b6336118b1600661263f565b61268a565b6118c060066126a8565b60078190806001815401808255809150506001900390600052602060002090600b020160009091909190915060008201518160000190816119019190614055565b506020820151816001015560408201518160020155606082015181600301908161192b9190614055565b5060808201518160040160006101000a81548173ffffffffffffffffffffffffffffffffffffffff021916908373ffffffffffffffffffffffffffffffffffffffff16021790555060a0820151816005015560c0820151816006015560e082015181600701556101008201518160080155610120820151816009015561014082015181600a0160006101000a81548160ff02191690831515021790555050505050505050505050565b60008073ffffffffffffffffffffffffffffffffffffffff168273ffffffffffffffffffffffffffffffffffffffff1603611a44576040517f08c379a0000000000000000000000000000000000000000000000000000000008152600401611a3b906145c6565b60405180910390fd5b600360008373ffffffffffffffffffffffffffffffffffffffff1673ffffffffffffffffffffffffffffffffffffffff168152602001908152602001600020549050919050565b60068060000154905081565b606060018054611aa690613bea565b80601f0160208091040260200160405190810160405280929190818152602001828054611ad290613bea565b8015611b1f5780601f10611af457610100808354040283529160200191611b1f565b820191906000526020600020905b815481529060010190602001808311611b0257829003601f168201915b5050505050905090565b611b3b611b346121f0565b83836126be565b5050565b611b50611b4a6121f0565b836122b1565b611b8f576040517f08c379a0000000000000000000000000000000000000000000000000000000008152600401611b8690613db1565b60405180910390fd5b611b9b8484848461282a565b50505050565b6009602052806000526040600020600091509050806000018054611bc490613bea565b80601f0160208091040260200160405190810160405280929190818152602001828054611bf090613bea565b8015611c3d5780601f10611c1257610100808354040283529160200191611c3d565b820191906000526020600020905b815481529060010190602001808311611c2057829003601f168201915b505050505090806001015490806002015490806003018054611c5e90613bea565b80601f0160208091040260200160405190810160405280929190818152602001828054611c8a90613bea565b8015611cd75780601f10611cac57610100808354040283529160200191611cd7565b820191906000526020600020905b815481529060010190602001808311611cba57829003601f168201915b5050505050908060040160009054906101000a900473ffffffffffffffffffffffffffffffffffffffff169080600501549080600601549080600701549080600801549080600901549080600a0160009054906101000a900460ff1690508b565b6060611d43826121a5565b6000611d4d612886565b90506000815111611d6d5760405180602001604052806000815250611d98565b80611d778461289d565b604051602001611d889291906145e6565b6040516020818303038152906040525b915050919050565b803373ffffffffffffffffffffffffffffffffffffffff16600d600083815260200190815260200160002060009054906101000a900473ffffffffffffffffffffffffffffffffffffffff1673ffffffffffffffffffffffffffffffffffffffff1614611e42576040517f08c379a0000000000000000000000000000000000000000000000000000000008152600401611e3990614656565b60405180910390fd5b6001151560096000848152602001908152602001600020600a0160009054906101000a900460ff16151503611ea557600060096000848152602001908152602001600020600a0160006101000a81548160ff021916908315150217905550611ed5565b600160096000848152602001908152602001600020600a0160006101000a81548160ff0219169083151502179055505b5050565b813373ffffffffffffffffffffffffffffffffffffffff16600d600083815260200190815260200160002060009054906101000a900473ffffffffffffffffffffffffffffffffffffffff1673ffffffffffffffffffffffffffffffffffffffff1614611f7b576040517f08c379a0000000000000000000000000000000000000000000000000000000008152600401611f7290614656565b60405180910390fd5b81600960008581526020019081526020016000206002016000828254611fa191906143de565b92505081905550505050565b6000600560008473ffffffffffffffffffffffffffffffffffffffff1673ffffffffffffffffffffffffffffffffffffffff16815260200190815260200160002060008373ffffffffffffffffffffffffffffffffffffffff1673ffffffffffffffffffffffffffffffffffffffff16815260200190815260200160002060009054906101000a900460ff16905092915050565b600860009054906101000a900473ffffffffffffffffffffffffffffffffffffffff1681565b813373ffffffffffffffffffffffffffffffffffffffff16600d600083815260200190815260200160002060009054906101000a900473ffffffffffffffffffffffffffffffffffffffff1673ffffffffffffffffffffffffffffffffffffffff1614612109576040517f08c379a000000000000000000000000000000000000000000000000000000000815260040161210090614656565b60405180910390fd5b8160096000858152602001908152602001600020600201600082825461212f91906144b4565b92505081905550505050565b60007f01ffc9a7000000000000000000000000000000000000000000000000000000007bffffffffffffffffffffffffffffffffffffffffffffffffffffffff1916827bffffffffffffffffffffffffffffffffffffffffffffffffffffffff1916149050919050565b6121ae8161296b565b6121ed576040517f08c379a00000000000000000000000000000000000000000000000000000000081526004016121e490614534565b60405180910390fd5b50565b600033905090565b816004600083815260200190815260200160002060006101000a81548173ffffffffffffffffffffffffffffffffffffffff021916908373ffffffffffffffffffffffffffffffffffffffff160217905550808273ffffffffffffffffffffffffffffffffffffffff1661226b83611561565b73ffffffffffffffffffffffffffffffffffffffff167f8c5be1e5ebec7d5bd14f71427d1e84f3dd0314c0f7b2291e5b200ac8c7c3b92560405160405180910390a45050565b6000806122bd83611561565b90508073ffffffffffffffffffffffffffffffffffffffff168473ffffffffffffffffffffffffffffffffffffffff1614806122ff57506122fe8185611fad565b5b8061233d57508373ffffffffffffffffffffffffffffffffffffffff1661232584610731565b73ffffffffffffffffffffffffffffffffffffffff16145b91505092915050565b8273ffffffffffffffffffffffffffffffffffffffff1661236682611561565b73ffffffffffffffffffffffffffffffffffffffff16146123bc576040517f08c379a00000000000000000000000000000000000000000000000000000000081526004016123b3906146e8565b60405180910390fd5b600073ffffffffffffffffffffffffffffffffffffffff168273ffffffffffffffffffffffffffffffffffffffff160361242b576040517f08c379a00000000000000000000000000000000000000000000000000000000081526004016124229061477a565b60405180910390fd5b61243883838360016129ac565b8273ffffffffffffffffffffffffffffffffffffffff1661245882611561565b73ffffffffffffffffffffffffffffffffffffffff16146124ae576040517f08c379a00000000000000000000000000000000000000000000000000000000081526004016124a5906146e8565b60405180910390fd5b6004600082815260200190815260200160002060006101000a81549073ffffffffffffffffffffffffffffffffffffffff02191690556001600360008573ffffffffffffffffffffffffffffffffffffffff1673ffffffffffffffffffffffffffffffffffffffff168152602001908152602001600020600082825403925050819055506001600360008473ffffffffffffffffffffffffffffffffffffffff1673ffffffffffffffffffffffffffffffffffffffff16815260200190815260200160002060008282540192505081905550816002600083815260200190815260200160002060006101000a81548173ffffffffffffffffffffffffffffffffffffffff021916908373ffffffffffffffffffffffffffffffffffffffff160217905550808273ffffffffffffffffffffffffffffffffffffffff168473ffffffffffffffffffffffffffffffffffffffff167fddf252ad1be2c89b69c2b068fc378daa952ba7f163c4a11628f55a4df523b3ef60405160405180910390a461263a83838360016129b2565b505050565b600081600001549050919050565b60006002600083815260200190815260200160002060009054906101000a900473ffffffffffffffffffffffffffffffffffffffff169050919050565b6126a48282604051806020016040528060008152506129b8565b5050565b6001816000016000828254019250508190555050565b8173ffffffffffffffffffffffffffffffffffffffff168373ffffffffffffffffffffffffffffffffffffffff160361272c576040517f08c379a0000000000000000000000000000000000000000000000000000000008152600401612723906147e6565b60405180910390fd5b80600560008573ffffffffffffffffffffffffffffffffffffffff1673ffffffffffffffffffffffffffffffffffffffff16815260200190815260200160002060008473ffffffffffffffffffffffffffffffffffffffff1673ffffffffffffffffffffffffffffffffffffffff16815260200190815260200160002060006101000a81548160ff0219169083151502179055508173ffffffffffffffffffffffffffffffffffffffff168373ffffffffffffffffffffffffffffffffffffffff167f17307eab39ab6107e8899845ad3d59bd9653f200f220920489ca2b5937696c318360405161281d9190613053565b60405180910390a3505050565b612835848484612346565b61284184848484612a13565b612880576040517f08c379a000000000000000000000000000000000000000000000000000000000815260040161287790614878565b60405180910390fd5b50505050565b606060405180602001604052806000815250905090565b6060600060016128ac84612b9a565b01905060008167ffffffffffffffff8111156128cb576128ca6132a8565b5b6040519080825280601f01601f1916602001820160405280156128fd5781602001600182028036833780820191505090505b509050600082602001820190505b600115612960578080600190039150507f3031323334353637383961626364656600000000000000000000000000000000600a86061a8153600a858161295457612953614412565b5b0494506000850361290b575b819350505050919050565b60008073ffffffffffffffffffffffffffffffffffffffff1661298d8361264d565b73ffffffffffffffffffffffffffffffffffffffff1614159050919050565b50505050565b50505050565b6129c28383612ced565b6129cf6000848484612a13565b612a0e576040517f08c379a0000000000000000000000000000000000000000000000000000000008152600401612a0590614878565b60405180910390fd5b505050565b6000612a348473ffffffffffffffffffffffffffffffffffffffff16612f0a565b15612b8d578373ffffffffffffffffffffffffffffffffffffffff1663150b7a02612a5d6121f0565b8786866040518563ffffffff1660e01b8152600401612a7f94939291906148ed565b6020604051808303816000875af1925050508015612abb57506040513d601f19601f82011682018060405250810190612ab8919061494e565b60015b612b3d573d8060008114612aeb576040519150601f19603f3d011682016040523d82523d6000602084013e612af0565b606091505b506000815103612b35576040517f08c379a0000000000000000000000000000000000000000000000000000000008152600401612b2c90614878565b60405180910390fd5b805181602001fd5b63150b7a0260e01b7bffffffffffffffffffffffffffffffffffffffffffffffffffffffff1916817bffffffffffffffffffffffffffffffffffffffffffffffffffffffff191614915050612b92565b600190505b949350505050565b600080600090507a184f03e93ff9f4daa797ed6e38ed64bf6a1f0100000000000000008310612bf8577a184f03e93ff9f4daa797ed6e38ed64bf6a1f0100000000000000008381612bee57612bed614412565b5b0492506040810190505b6d04ee2d6d415b85acef81000000008310612c35576d04ee2d6d415b85acef81000000008381612c2b57612c2a614412565b5b0492506020810190505b662386f26fc100008310612c6457662386f26fc100008381612c5a57612c59614412565b5b0492506010810190505b6305f5e1008310612c8d576305f5e1008381612c8357612c82614412565b5b0492506008810190505b6127108310612cb2576127108381612ca857612ca7614412565b5b0492506004810190505b60648310612cd55760648381612ccb57612cca614412565b5b0492506002810190505b600a8310612ce4576001810190505b80915050919050565b600073ffffffffffffffffffffffffffffffffffffffff168273ffffffffffffffffffffffffffffffffffffffff1603612d5c576040517f08c379a0000000000000000000000000000000000000000000000000000000008152600401612d53906149c7565b60405180910390fd5b612d658161296b565b15612da5576040517f08c379a0000000000000000000000000000000000000000000000000000000008152600401612d9c90614a33565b60405180910390fd5b612db36000838360016129ac565b612dbc8161296b565b15612dfc576040517f08c379a0000000000000000000000000000000000000000000000000000000008152600401612df390614a33565b60405180910390fd5b6001600360008473ffffffffffffffffffffffffffffffffffffffff1673ffffffffffffffffffffffffffffffffffffffff16815260200190815260200160002060008282540192505081905550816002600083815260200190815260200160002060006101000a81548173ffffffffffffffffffffffffffffffffffffffff021916908373ffffffffffffffffffffffffffffffffffffffff160217905550808273ffffffffffffffffffffffffffffffffffffffff16600073ffffffffffffffffffffffffffffffffffffffff167fddf252ad1be2c89b69c2b068fc378daa952ba7f163c4a11628f55a4df523b3ef60405160405180910390a4612f066000838360016129b2565b5050565b6000808273ffffffffffffffffffffffffffffffffffffffff163b119050919050565b60405180610160016040528060608152602001600081526020016000815260200160608152602001600073ffffffffffffffffffffffffffffffffffffffff16815260200160008152602001600081526020016000815260200160008152602001600081526020016000151581525090565b6000604051905090565b600080fd5b600080fd5b60007fffffffff0000000000000000000000000000000000000000000000000000000082169050919050565b612fe881612fb3565b8114612ff357600080fd5b50565b60008135905061300581612fdf565b92915050565b60006020828403121561302157613020612fa9565b5b600061302f84828501612ff6565b91505092915050565b60008115159050919050565b61304d81613038565b82525050565b60006020820190506130686000830184613044565b92915050565b600081519050919050565b600082825260208201905092915050565b60005b838110156130a857808201518184015260208101905061308d565b60008484015250505050565b6000601f19601f8301169050919050565b60006130d08261306e565b6130da8185613079565b93506130ea81856020860161308a565b6130f3816130b4565b840191505092915050565b6000602082019050818103600083015261311881846130c5565b905092915050565b6000819050919050565b61313381613120565b811461313e57600080fd5b50565b6000813590506131508161312a565b92915050565b60006020828403121561316c5761316b612fa9565b5b600061317a84828501613141565b91505092915050565b600073ffffffffffffffffffffffffffffffffffffffff82169050919050565b60006131ae82613183565b9050919050565b6131be816131a3565b82525050565b60006020820190506131d960008301846131b5565b92915050565b6131e8816131a3565b81146131f357600080fd5b50565b600081359050613205816131df565b92915050565b6000806040838503121561322257613221612fa9565b5b6000613230858286016131f6565b925050602061324185828601613141565b9150509250929050565b60008060006060848603121561326457613263612fa9565b5b6000613272868287016131f6565b9350506020613283868287016131f6565b925050604061329486828701613141565b9150509250925092565b600080fd5b600080fd5b7f4e487b7100000000000000000000000000000000000000000000000000000000600052604160045260246000fd5b6132e0826130b4565b810181811067ffffffffffffffff821117156132ff576132fe6132a8565b5b80604052505050565b6000613312612f9f565b905061331e82826132d7565b919050565b600067ffffffffffffffff82111561333e5761333d6132a8565b5b613347826130b4565b9050602081019050919050565b82818337600083830152505050565b600061337661337184613323565b613308565b905082815260208101848484011115613392576133916132a3565b5b61339d848285613354565b509392505050565b600082601f8301126133ba576133b961329e565b5b81356133ca848260208601613363565b91505092915050565b600080604083850312156133ea576133e9612fa9565b5b600083013567ffffffffffffffff81111561340857613407612fae565b5b613414858286016133a5565b9250506020613425858286016131f6565b9150509250929050565b600081519050919050565b600082825260208201905092915050565b6000819050602082019050919050565b600082825260208201905092915050565b60006134778261306e565b613481818561345b565b935061349181856020860161308a565b61349a816130b4565b840191505092915050565b6134ae81613120565b82525050565b60006134bf82613183565b9050919050565b6134cf816134b4565b82525050565b6134de81613038565b82525050565b6000610160830160008301518482036000860152613502828261346c565b915050602083015161351760208601826134a5565b50604083015161352a60408601826134a5565b5060608301518482036060860152613542828261346c565b915050608083015161355760808601826134c6565b5060a083015161356a60a08601826134a5565b5060c083015161357d60c08601826134a5565b5060e083015161359060e08601826134a5565b506101008301516135a56101008601826134a5565b506101208301516135ba6101208601826134a5565b506101408301516135cf6101408601826134d5565b508091505092915050565b60006135e683836134e4565b905092915050565b6000602082019050919050565b60006136068261342f565b613610818561343a565b9350836020820285016136228561344b565b8060005b8581101561365e578484038952815161363f85826135da565b945061364a836135ee565b925060208a01995050600181019050613626565b50829750879550505050505092915050565b6000602082019050818103600083015261368a81846135fb565b905092915050565b600081519050919050565b600082825260208201905092915050565b6000819050602082019050919050565b6136c7816131a3565b82525050565b60006136d983836136be565b60208301905092915050565b6000602082019050919050565b60006136fd82613692565b613707818561369d565b9350613712836136ae565b8060005b8381101561374357815161372a88826136cd565b9750613735836136e5565b925050600181019050613716565b5085935050505092915050565b6000602082019050818103600083015261376a81846136f2565b905092915050565b6000806040838503121561378957613788612fa9565b5b600061379785828601613141565b925050602083013567ffffffffffffffff8111156137b8576137b7612fae565b5b6137c4858286016133a5565b9150509250929050565b600080600080600080600060e0888a0312156137ed576137ec612fa9565b5b600088013567ffffffffffffffff81111561380b5761380a612fae565b5b6138178a828b016133a5565b97505060206138288a828b01613141565b96505060406138398a828b01613141565b955050606061384a8a828b01613141565b945050608061385b8a828b01613141565b93505060a061386c8a828b01613141565b92505060c061387d8a828b01613141565b91505092959891949750929550565b6000602082840312156138a2576138a1612fa9565b5b60006138b0848285016131f6565b91505092915050565b6138c281613120565b82525050565b60006020820190506138dd60008301846138b9565b92915050565b6138ec81613038565b81146138f757600080fd5b50565b600081359050613909816138e3565b92915050565b6000806040838503121561392657613925612fa9565b5b6000613934858286016131f6565b9250506020613945858286016138fa565b9150509250929050565b600067ffffffffffffffff82111561396a576139696132a8565b5b613973826130b4565b9050602081019050919050565b600061399361398e8461394f565b613308565b9050828152602081018484840111156139af576139ae6132a3565b5b6139ba848285613354565b509392505050565b600082601f8301126139d7576139d661329e565b5b81356139e7848260208601613980565b91505092915050565b60008060008060808587031215613a0a57613a09612fa9565b5b6000613a18878288016131f6565b9450506020613a29878288016131f6565b9350506040613a3a87828801613141565b925050606085013567ffffffffffffffff811115613a5b57613a5a612fae565b5b613a67878288016139c2565b91505092959194509250565b613a7c816134b4565b82525050565b6000610160820190508181036000830152613a9d818e6130c5565b9050613aac602083018d6138b9565b613ab9604083018c6138b9565b8181036060830152613acb818b6130c5565b9050613ada608083018a613a73565b613ae760a08301896138b9565b613af460c08301886138b9565b613b0160e08301876138b9565b613b0f6101008301866138b9565b613b1d6101208301856138b9565b613b2b610140830184613044565b9c9b505050505050505050505050565b60008060408385031215613b5257613b51612fa9565b5b6000613b6085828601613141565b9250506020613b7185828601613141565b9150509250929050565b60008060408385031215613b9257613b91612fa9565b5b6000613ba0858286016131f6565b9250506020613bb1858286016131f6565b9150509250929050565b7f4e487b7100000000000000000000000000000000000000000000000000000000600052602260045260246000fd5b60006002820490506001821680613c0257607f821691505b602082108103613c1557613c14613bbb565b5b50919050565b7f4552433732313a20617070726f76616c20746f2063757272656e74206f776e6560008201527f7200000000000000000000000000000000000000000000000000000000000000602082015250565b6000613c77602183613079565b9150613c8282613c1b565b604082019050919050565b60006020820190508181036000830152613ca681613c6a565b9050919050565b7f4552433732313a20617070726f76652063616c6c6572206973206e6f7420746f60008201527f6b656e206f776e6572206f7220617070726f76656420666f7220616c6c000000602082015250565b6000613d09603d83613079565b9150613d1482613cad565b604082019050919050565b60006020820190508181036000830152613d3881613cfc565b9050919050565b7f4552433732313a2063616c6c6572206973206e6f7420746f6b656e206f776e6560008201527f72206f7220617070726f76656400000000000000000000000000000000000000602082015250565b6000613d9b602d83613079565b9150613da682613d3f565b604082019050919050565b60006020820190508181036000830152613dca81613d8e565b9050919050565b7f4475706c69636174652050726f64756374696f6e20486f757365000000000000600082015250565b6000613e07601a83613079565b9150613e1282613dd1565b602082019050919050565b60006020820190508181036000830152613e3681613dfa565b9050919050565b7f4e6f7420616e2041646d696e2c206e6f20616363657373000000000000000000600082015250565b6000613e73601783613079565b9150613e7e82613e3d565b602082019050919050565b60006020820190508181036000830152613ea281613e66565b9050919050565b60008190508160005260206000209050919050565b60006020601f8301049050919050565b600082821b905092915050565b600060088302613f0b7fffffffffffffffffffffffffffffffffffffffffffffffffffffffffffffffff82613ece565b613f158683613ece565b95508019841693508086168417925050509392505050565b6000819050919050565b6000613f52613f4d613f4884613120565b613f2d565b613120565b9050919050565b6000819050919050565b613f6c83613f37565b613f80613f7882613f59565b848454613edb565b825550505050565b600090565b613f95613f88565b613fa0818484613f63565b505050565b5b81811015613fc457613fb9600082613f8d565b600181019050613fa6565b5050565b601f82111561400957613fda81613ea9565b613fe384613ebe565b81016020851015613ff2578190505b614006613ffe85613ebe565b830182613fa5565b50505b505050565b600082821c905092915050565b600061402c6000198460080261400e565b1980831691505092915050565b6000614045838361401b565b9150826002028217905092915050565b61405e8261306e565b67ffffffffffffffff811115614077576140766132a8565b5b6140818254613bea565b61408c828285613fc8565b600060209050601f8311600181146140bf57600084156140ad578287015190505b6140b78582614039565b86555061411f565b601f1984166140cd86613ea9565b60005b828110156140f5578489015182556001820191506020850194506020810190506140d0565b86831015614112578489015161410e601f89168261401b565b8355505b6001600288020188555050505b505050505050565b7f4e487b7100000000000000000000000000000000000000000000000000000000600052601160045260246000fd5b600061416182613120565b91507fffffffffffffffffffffffffffffffffffffffffffffffffffffffffffffffff820361419357614192614127565b5b600182019050919050565b7f4e487b7100000000000000000000000000000000000000000000000000000000600052603260045260246000fd5b600081905092915050565b60006141e38261306e565b6141ed81856141cd565b93506141fd81856020860161308a565b80840191505092915050565b600061421582846141d8565b915081905092915050565b6000815461422d81613bea565b61423781866141cd565b9450600182166000811461425257600181146142675761429a565b60ff198316865281151582028601935061429a565b61427085613ea9565b60005b8381101561429257815481890152600182019150602081019050614273565b838801955050505b50505092915050565b60006142af8284614220565b915081905092915050565b7f4120746f6b656e206973206e6f742070726573656e7420666f7220746869732060008201527f6d6f766965000000000000000000000000000000000000000000000000000000602082015250565b6000614316602583613079565b9150614321826142ba565b604082019050919050565b6000602082019050818103600083015261434581614309565b9050919050565b7f526573616c65206973206e6f7420616c6c6f77656420666f722074686973206d60008201527f6f76696500000000000000000000000000000000000000000000000000000000602082015250565b60006143a8602483613079565b91506143b38261434c565b604082019050919050565b600060208201905081810360008301526143d78161439b565b9050919050565b60006143e982613120565b91506143f483613120565b925082820190508082111561440c5761440b614127565b5b92915050565b7f4e487b7100000000000000000000000000000000000000000000000000000000600052601260045260246000fd5b600061444c82613120565b915061445783613120565b92508261446757614466614412565b5b828204905092915050565b600061447d82613120565b915061448883613120565b925082820261449681613120565b915082820484148315176144ad576144ac614127565b5b5092915050565b60006144bf82613120565b91506144ca83613120565b92508282039050818111156144e2576144e1614127565b5b92915050565b7f4552433732313a20696e76616c696420746f6b656e2049440000000000000000600082015250565b600061451e601883613079565b9150614529826144e8565b602082019050919050565b6000602082019050818103600083015261454d81614511565b9050919050565b7f4552433732313a2061646472657373207a65726f206973206e6f74206120766160008201527f6c6964206f776e65720000000000000000000000000000000000000000000000602082015250565b60006145b0602983613079565b91506145bb82614554565b604082019050919050565b600060208201905081810360008301526145df816145a3565b9050919050565b60006145f282856141d8565b91506145fe82846141d8565b91508190509392505050565b7f4e6f7420746865206f776e6572206f662074686520746f6b656e000000000000600082015250565b6000614640601a83613079565b915061464b8261460a565b602082019050919050565b6000602082019050818103600083015261466f81614633565b9050919050565b7f4552433732313a207472616e736665722066726f6d20696e636f72726563742060008201527f6f776e6572000000000000000000000000000000000000000000000000000000602082015250565b60006146d2602583613079565b91506146dd82614676565b604082019050919050565b60006020820190508181036000830152614701816146c5565b9050919050565b7f4552433732313a207472616e7366657220746f20746865207a65726f2061646460008201527f7265737300000000000000000000000000000000000000000000000000000000602082015250565b6000614764602483613079565b915061476f82614708565b604082019050919050565b6000602082019050818103600083015261479381614757565b9050919050565b7f4552433732313a20617070726f766520746f2063616c6c657200000000000000600082015250565b60006147d0601983613079565b91506147db8261479a565b602082019050919050565b600060208201905081810360008301526147ff816147c3565b9050919050565b7f4552433732313a207472616e7366657220746f206e6f6e20455243373231526560008201527f63656976657220696d706c656d656e7465720000000000000000000000000000602082015250565b6000614862603283613079565b915061486d82614806565b604082019050919050565b6000602082019050818103600083015261489181614855565b9050919050565b600081519050919050565b600082825260208201905092915050565b60006148bf82614898565b6148c981856148a3565b93506148d981856020860161308a565b6148e2816130b4565b840191505092915050565b600060808201905061490260008301876131b5565b61490f60208301866131b5565b61491c60408301856138b9565b818103606083015261492e81846148b4565b905095945050505050565b60008151905061494881612fdf565b92915050565b60006020828403121561496457614963612fa9565b5b600061497284828501614939565b91505092915050565b7f4552433732313a206d696e7420746f20746865207a65726f2061646472657373600082015250565b60006149b1602083613079565b91506149bc8261497b565b602082019050919050565b600060208201905081810360008301526149e0816149a4565b9050919050565b7f4552433732313a20746f6b656e20616c7265616479206d696e74656400000000600082015250565b6000614a1d601c83613079565b9150614a28826149e7565b602082019050919050565b60006020820190508181036000830152614a4c81614a10565b905091905056fea26469706673582212200439af6a2f54c69d5c15ca428d9e48c7f1e7a5a721fdcc8022e3076a332d1e9f64736f6c63430008130033",
  "immutableReferences": {},
  "source": "// SPDX-License-Identifier: UNLICENSED\npragma solidity ^0.8.0;\n\nimport \"@openzeppelin/contracts/token/ERC721/ERC721.sol\";\nimport \"@openzeppelin/contracts/utils/Counters.sol\";\n\ncontract FilmToken is ERC721 {\n    using Counters for Counters.Counter;\n    Counters.Counter public tokenIds;\n\n    struct Token {\n        string movieName;\n        uint256 tokenId;\n        uint basePrice;\n        string productionCompany;\n        address payable ownerAddr;\n        uint minTime;\n        uint maxTime;\n        uint apprPercent;\n        uint deprPercent;\n        uint baseDays;\n\n        bool resale;\n    }\n\n    Token[] allTokens;\n    address public admin;\n    mapping(uint256 => Token) public tokenIdToTokenMap;\n    mapping(address=>string) productionAddrToNameMap;\n    address [] allProdHouses;\n    mapping(string=>uint) nameTokenIdMap;\n    mapping(uint=>address) tokenIdToOwnerMap;\n\n    modifier duplicateProdHouse (address addr){\n        bool duplicate = bytes(productionAddrToNameMap[addr]).length > 0 ;\n        require(!duplicate,\"Duplicate Production House\");\n        _;\n    }\n\n    modifier onlyAdmin{\n        require(msg.sender == admin,\"Not an Admin, no access\");\n        _;\n    }\n\n    modifier validProdHouse(address addr){\n        bool duplicate = bytes(productionAddrToNameMap[addr]).length > 0 ;\n        require(duplicate,\"Not a registered production house\");\n        _;\n    }\n\n    modifier duplicateMovieToken(string memory name){ // self exp.\n        bool duplicate = false;\n        for(uint i=0;i<allTokens.length;i++){\n\n            if(keccak256(abi.encodePacked(allTokens[i].movieName)) == keccak256(abi.encodePacked(name))){\n                duplicate = true;break;\n            }\n        }\n\n        require(!duplicate,\"A token is already present for this movie\");\n        _;\n    }\n\n    modifier validMovieToken(string memory name){ // self exp.\n        bool duplicate = false;\n        for(uint i=0;i<allTokens.length;i++){\n\n            if(keccak256(abi.encodePacked(allTokens[i].movieName)) == keccak256(abi.encodePacked(name))){\n                duplicate = true;break;\n            }\n        }\n\n        require(duplicate,\"A token is not present for this movie\");\n        _;\n    }\n\n    modifier validMinMaxValues(uint min,uint max){ // min (both days and appr/depr, should be +ve\n        require(min<=max && min>0 && max>0,\"Invalid Min Max values\");\n        _;\n    }\n\n    modifier checkTokenOwner(uint tokenId){\n        require(tokenIdToOwnerMap[tokenId]==msg.sender,\"Not the owner of the token\");\n        _;\n    }\n\n    constructor() ERC721(\"MovieTokenization\",\"MVTK\"){\n        admin = msg.sender;\n    }\n\n    function registerProductionHouse(string memory name,address addr) public duplicateProdHouse(addr) onlyAdmin{\n        productionAddrToNameMap[addr] = name;\n        allProdHouses.push(addr);\n    }\n\n    function getAllProdHouses() public view returns (address[] memory) {\n        return allProdHouses;\n    }\n    // uint appr, uint depr,uint minTime,uint maxTime, uint baseValue)\n\n    // function createMovieToken(string memory movieName, Token memory input) public validProdHouse(msg.sender) duplicateMovieToken(movieName) validMinMaxValues(input.minTime,input.maxTime) validMinMaxValues(input.apprPercent,input.deprPercent){\n    //     //check if the user is a registerd prod house or not, handled in validProdHouse modifier\n    //     //check for duplicate token\n    //     // string memory prodName = productionAddrToNameMap[msg.sender];\n    //     //check if input values are valid\n    //     // address payable sender = payable(msg.sender);\n    //     Token memory newToken = Token(movieName,tokenIds.current(),input.basePrice,productionAddrToNameMap[msg.sender],payable(msg.sender),input.minTime,input.maxTime,input.apprPercent,input.deprPercent,true);\n\n    //     nameTokenIdMap[movieName] = tokenIds.current();\n    //     tokenIdToTokenMap[tokenIds.current()] = newToken;\n    //     tokenIdToOwnerMap[tokenIds.current()] = msg.sender;\n    //     _safeMint(msg.sender, tokenIds.current());\n    //     tokenIds.increment();\n    //     allTokens.push(newToken);\n\n\n    // }\n\n    function createMovieToken(string memory movieName, uint basePrice,uint baseDays, uint minTime,uint maxTime,uint apprPercent,uint deprPercent) public{\n        //check if the user is a registerd prod house or not, handled in validProdHouse modifier\n        //check for duplicate token\n        // string memory prodName = productionAddrToNameMap[msg.sender];\n        //check if input values are valid\n        // address payable sender = payable(msg.sender);\n        Token memory newToken = Token(movieName,tokenIds.current(),basePrice,productionAddrToNameMap[msg.sender],payable(msg.sender),minTime,maxTime,apprPercent,deprPercent,baseDays,true);\n\n        nameTokenIdMap[movieName] = tokenIds.current();\n        tokenIdToTokenMap[tokenIds.current()] = newToken;\n        tokenIdToOwnerMap[tokenIds.current()] = msg.sender;\n        _safeMint(msg.sender, tokenIds.current());\n        tokenIds.increment();\n        allTokens.push(newToken);\n\n\n    }\n\n    function buyMovieToken(uint dayss, string memory movieName) public payable validMovieToken(movieName){ //changed tokenId to movieName, as there's no visibility provided right now\n        //check if the movieName is valid, in modifier\n        //days can be +/-, - represents earlier, + later\n        uint tokenId = nameTokenIdMap[movieName];\n        Token memory token = tokenIdToTokenMap[tokenId];\n        require(token.resale == true, \"Resale is not allowed for this movie\");\n        uint value = token.basePrice;\n        uint minDays = token.minTime;\n        uint maxDays = token.maxTime;\n        uint baseDays = token.baseDays;\n\n        uint finalValue = value;// case where dayss == baseDays\n\n\n        if(dayss > minDays && dayss < (minDays+ baseDays) / 2 ){ //highest cost\n            finalValue += finalValue * (token.apprPercent/100);\n            finalValue += finalValue * (token.apprPercent/100);\n        }else if(dayss>=(baseDays+dayss)/2 && dayss<baseDays ){//2nd highest\n            finalValue += finalValue * (token.apprPercent/100);\n        }else if(dayss>baseDays && dayss<=(baseDays+maxDays)/2){//second least\n            finalValue -= finalValue * (token.apprPercent/100);\n        }else if(dayss>(baseDays+maxDays)/2){//least most\n            finalValue -= finalValue * (token.apprPercent/100);\n            finalValue -= finalValue * (token.apprPercent/100);\n        }\n\n\n\n        //get token owner and transfer ether\n        token.ownerAddr.transfer(msg.value); // failure of this reverts everything needn't explicitly handle for now, TODO: better, give a proper error message\n\n        //change ownership\n        token.ownerAddr = payable(msg.sender);\n        //also in map\n        tokenIdToOwnerMap[tokenId] = msg.sender;\n        //disable resale\n        token.resale  = false;\n        //change in token list\n        for(uint i=0;i<allTokens.length;i++){\n            if(allTokens[i].tokenId == tokenId){\n                allTokens[i].ownerAddr = payable(msg.sender);\n            }\n        }\n\n    }\n\n\n    function appreciateTokenValue(uint256 tokenId, uint value) public checkTokenOwner(tokenId){ //how will the user know tokenid, remember? give him visibility\n        tokenIdToTokenMap[tokenId].basePrice += value;\n    }\n\n    function depreciateTokenValue(uint256 tokenId, uint value) public checkTokenOwner(tokenId){\n        tokenIdToTokenMap[tokenId].basePrice -=  value;\n    }\n\n    function enableOrDisableResale(uint tokenId) public checkTokenOwner(tokenId){\n        if(tokenIdToTokenMap[tokenId].resale == true){\n            tokenIdToTokenMap[tokenId].resale = false;\n        }else{\n            tokenIdToTokenMap[tokenId].resale = true;\n        }\n    }\n\n\n    function viewTokens() public view returns(Token[] memory){\n\n        Token[] memory result = new Token[](allTokens.length);\n        uint index = 0;\n        for(uint i=0;i<=tokenIds.current();i++){ // no support to deleting tokens, so looping through all tokenids is equal to keys\n\n            if(tokenIdToTokenMap[i].ownerAddr == msg.sender){\n                result[index++]=tokenIdToTokenMap[i];\n            }\n        }\n        return result;\n    }\n\n}\n",
  "sourcePath": "/Users/saisvasgudimalla/Documents/Nani/MS_CS_UB/Spring_2023/Blockchain/FilmToken-Dapp/FilmToken-contract/contracts/FilmToken.sol",
  "compiler": {
    "name": "solc",
    "version": "0.8.19+commit.7dd6d404.Emscripten.clang"
  },
  "schemaVersion": "3.4.13",
  "updatedAt": "2023-04-29T04:32:50.842Z",
  "networkType": "ethereum",
  "devdoc": {
    "events": {
      "Approval(address,address,uint256)": {
        "details": "Emitted when `owner` enables `approved` to manage the `tokenId` token."
      },
      "ApprovalForAll(address,address,bool)": {
        "details": "Emitted when `owner` enables or disables (`approved`) `operator` to manage all of its assets."
      },
      "Transfer(address,address,uint256)": {
        "details": "Emitted when `tokenId` token is transferred from `from` to `to`."
      }
    },
    "kind": "dev",
    "methods": {
      "approve(address,uint256)": {
        "details": "See {IERC721-approve}."
      },
      "balanceOf(address)": {
        "details": "See {IERC721-balanceOf}."
      },
      "getApproved(uint256)": {
        "details": "See {IERC721-getApproved}."
      },
      "isApprovedForAll(address,address)": {
        "details": "See {IERC721-isApprovedForAll}."
      },
      "name()": {
        "details": "See {IERC721Metadata-name}."
      },
      "ownerOf(uint256)": {
        "details": "See {IERC721-ownerOf}."
      },
      "safeTransferFrom(address,address,uint256)": {
        "details": "See {IERC721-safeTransferFrom}."
      },
      "safeTransferFrom(address,address,uint256,bytes)": {
        "details": "See {IERC721-safeTransferFrom}."
      },
      "setApprovalForAll(address,bool)": {
        "details": "See {IERC721-setApprovalForAll}."
      },
      "supportsInterface(bytes4)": {
        "details": "See {IERC165-supportsInterface}."
      },
      "symbol()": {
        "details": "See {IERC721Metadata-symbol}."
      },
      "tokenURI(uint256)": {
        "details": "See {IERC721Metadata-tokenURI}."
      },
      "transferFrom(address,address,uint256)": {
        "details": "See {IERC721-transferFrom}."
      }
    },
    "version": 1
  },
  "userdoc": {
    "kind": "user",
    "methods": {},
    "version": 1
  }
}