{
  "contractName": "FilmToken",
  "abi": [
    {
      "inputs": [],
      "stateMutability": "nonpayable",
      "type": "constructor"
    },
    {
      "anonymous": false,
      "inputs": [
        {
          "indexed": true,
          "internalType": "address",
          "name": "owner",
          "type": "address"
        },
        {
          "indexed": true,
          "internalType": "address",
          "name": "approved",
          "type": "address"
        },
        {
          "indexed": true,
          "internalType": "uint256",
          "name": "tokenId",
          "type": "uint256"
        }
      ],
      "name": "Approval",
      "type": "event"
    },
    {
      "anonymous": false,
      "inputs": [
        {
          "indexed": true,
          "internalType": "address",
          "name": "owner",
          "type": "address"
        },
        {
          "indexed": true,
          "internalType": "address",
          "name": "operator",
          "type": "address"
        },
        {
          "indexed": false,
          "internalType": "bool",
          "name": "approved",
          "type": "bool"
        }
      ],
      "name": "ApprovalForAll",
      "type": "event"
    },
    {
      "anonymous": false,
      "inputs": [
        {
          "indexed": false,
          "internalType": "address",
          "name": "value",
          "type": "address"
        }
      ],
      "name": "LogAddr",
      "type": "event"
    },
    {
      "anonymous": false,
      "inputs": [
        {
          "indexed": false,
          "internalType": "string",
          "name": "value",
          "type": "string"
        }
      ],
      "name": "LogString",
      "type": "event"
    },
    {
      "anonymous": false,
      "inputs": [
        {
          "indexed": false,
          "internalType": "uint256",
          "name": "value",
          "type": "uint256"
        }
      ],
      "name": "LogValue",
      "type": "event"
    },
    {
      "anonymous": false,
      "inputs": [
        {
          "indexed": true,
          "internalType": "address",
          "name": "from",
          "type": "address"
        },
        {
          "indexed": true,
          "internalType": "address",
          "name": "to",
          "type": "address"
        },
        {
          "indexed": true,
          "internalType": "uint256",
          "name": "tokenId",
          "type": "uint256"
        }
      ],
      "name": "Transfer",
      "type": "event"
    },
    {
      "inputs": [],
      "name": "admin",
      "outputs": [
        {
          "internalType": "address",
          "name": "",
          "type": "address"
        }
      ],
      "stateMutability": "view",
      "type": "function",
      "constant": true
    },
    {
      "inputs": [
        {
          "internalType": "address",
          "name": "to",
          "type": "address"
        },
        {
          "internalType": "uint256",
          "name": "tokenId",
          "type": "uint256"
        }
      ],
      "name": "approve",
      "outputs": [],
      "stateMutability": "nonpayable",
      "type": "function"
    },
    {
      "inputs": [
        {
          "internalType": "address",
          "name": "owner",
          "type": "address"
        }
      ],
      "name": "balanceOf",
      "outputs": [
        {
          "internalType": "uint256",
          "name": "",
          "type": "uint256"
        }
      ],
      "stateMutability": "view",
      "type": "function",
      "constant": true
    },
    {
      "inputs": [
        {
          "internalType": "uint256",
          "name": "tokenId",
          "type": "uint256"
        }
      ],
      "name": "getApproved",
      "outputs": [
        {
          "internalType": "address",
          "name": "",
          "type": "address"
        }
      ],
      "stateMutability": "view",
      "type": "function",
      "constant": true
    },
    {
      "inputs": [
        {
          "internalType": "address",
          "name": "owner",
          "type": "address"
        },
        {
          "internalType": "address",
          "name": "operator",
          "type": "address"
        }
      ],
      "name": "isApprovedForAll",
      "outputs": [
        {
          "internalType": "bool",
          "name": "",
          "type": "bool"
        }
      ],
      "stateMutability": "view",
      "type": "function",
      "constant": true
    },
    {
      "inputs": [],
      "name": "name",
      "outputs": [
        {
          "internalType": "string",
          "name": "",
          "type": "string"
        }
      ],
      "stateMutability": "view",
      "type": "function",
      "constant": true
    },
    {
      "inputs": [
        {
          "internalType": "uint256",
          "name": "tokenId",
          "type": "uint256"
        }
      ],
      "name": "ownerOf",
      "outputs": [
        {
          "internalType": "address",
          "name": "",
          "type": "address"
        }
      ],
      "stateMutability": "view",
      "type": "function",
      "constant": true
    },
    {
      "inputs": [
        {
          "internalType": "address",
          "name": "from",
          "type": "address"
        },
        {
          "internalType": "address",
          "name": "to",
          "type": "address"
        },
        {
          "internalType": "uint256",
          "name": "tokenId",
          "type": "uint256"
        }
      ],
      "name": "safeTransferFrom",
      "outputs": [],
      "stateMutability": "nonpayable",
      "type": "function"
    },
    {
      "inputs": [
        {
          "internalType": "address",
          "name": "from",
          "type": "address"
        },
        {
          "internalType": "address",
          "name": "to",
          "type": "address"
        },
        {
          "internalType": "uint256",
          "name": "tokenId",
          "type": "uint256"
        },
        {
          "internalType": "bytes",
          "name": "data",
          "type": "bytes"
        }
      ],
      "name": "safeTransferFrom",
      "outputs": [],
      "stateMutability": "nonpayable",
      "type": "function"
    },
    {
      "inputs": [
        {
          "internalType": "address",
          "name": "operator",
          "type": "address"
        },
        {
          "internalType": "bool",
          "name": "approved",
          "type": "bool"
        }
      ],
      "name": "setApprovalForAll",
      "outputs": [],
      "stateMutability": "nonpayable",
      "type": "function"
    },
    {
      "inputs": [
        {
          "internalType": "bytes4",
          "name": "interfaceId",
          "type": "bytes4"
        }
      ],
      "name": "supportsInterface",
      "outputs": [
        {
          "internalType": "bool",
          "name": "",
          "type": "bool"
        }
      ],
      "stateMutability": "view",
      "type": "function",
      "constant": true
    },
    {
      "inputs": [],
      "name": "symbol",
      "outputs": [
        {
          "internalType": "string",
          "name": "",
          "type": "string"
        }
      ],
      "stateMutability": "view",
      "type": "function",
      "constant": true
    },
    {
      "inputs": [
        {
          "internalType": "uint256",
          "name": "",
          "type": "uint256"
        }
      ],
      "name": "tokenIdToTokenMap",
      "outputs": [
        {
          "internalType": "string",
          "name": "movieName",
          "type": "string"
        },
        {
          "internalType": "uint256",
          "name": "tokenId",
          "type": "uint256"
        },
        {
          "internalType": "uint256",
          "name": "basePrice",
          "type": "uint256"
        },
        {
          "internalType": "string",
          "name": "productionCompany",
          "type": "string"
        },
        {
          "internalType": "address payable",
          "name": "ownerAddr",
          "type": "address"
        },
        {
          "internalType": "uint256",
          "name": "minTime",
          "type": "uint256"
        },
        {
          "internalType": "uint256",
          "name": "maxTime",
          "type": "uint256"
        },
        {
          "internalType": "uint256",
          "name": "apprPercent",
          "type": "uint256"
        },
        {
          "internalType": "uint256",
          "name": "deprPercent",
          "type": "uint256"
        },
        {
          "internalType": "uint256",
          "name": "baseDays",
          "type": "uint256"
        },
        {
          "internalType": "bool",
          "name": "resale",
          "type": "bool"
        }
      ],
      "stateMutability": "view",
      "type": "function",
      "constant": true
    },
    {
      "inputs": [],
      "name": "tokenIds",
      "outputs": [
        {
          "internalType": "uint256",
          "name": "_value",
          "type": "uint256"
        }
      ],
      "stateMutability": "view",
      "type": "function",
      "constant": true
    },
    {
      "inputs": [
        {
          "internalType": "uint256",
          "name": "tokenId",
          "type": "uint256"
        }
      ],
      "name": "tokenURI",
      "outputs": [
        {
          "internalType": "string",
          "name": "",
          "type": "string"
        }
      ],
      "stateMutability": "view",
      "type": "function",
      "constant": true
    },
    {
      "inputs": [
        {
          "internalType": "address",
          "name": "from",
          "type": "address"
        },
        {
          "internalType": "address",
          "name": "to",
          "type": "address"
        },
        {
          "internalType": "uint256",
          "name": "tokenId",
          "type": "uint256"
        }
      ],
      "name": "transferFrom",
      "outputs": [],
      "stateMutability": "nonpayable",
      "type": "function"
    },
    {
      "inputs": [
        {
          "internalType": "string",
          "name": "name",
          "type": "string"
        },
        {
          "internalType": "address",
          "name": "addr",
          "type": "address"
        }
      ],
      "name": "registerProductionHouse",
      "outputs": [],
      "stateMutability": "nonpayable",
      "type": "function"
    },
    {
      "inputs": [],
      "name": "getAllProdHouses",
      "outputs": [
        {
          "internalType": "address[]",
          "name": "",
          "type": "address[]"
        }
      ],
      "stateMutability": "view",
      "type": "function",
      "constant": true
    },
    {
      "inputs": [
        {
          "internalType": "string",
          "name": "movieName",
          "type": "string"
        },
        {
          "internalType": "uint256",
          "name": "basePrice",
          "type": "uint256"
        },
        {
          "internalType": "uint256",
          "name": "baseDays",
          "type": "uint256"
        },
        {
          "internalType": "uint256",
          "name": "minTime",
          "type": "uint256"
        },
        {
          "internalType": "uint256",
          "name": "maxTime",
          "type": "uint256"
        },
        {
          "internalType": "uint256",
          "name": "apprPercent",
          "type": "uint256"
        },
        {
          "internalType": "uint256",
          "name": "deprPercent",
          "type": "uint256"
        }
      ],
      "name": "createMovieToken",
      "outputs": [],
      "stateMutability": "nonpayable",
      "type": "function"
    },
    {
      "inputs": [
        {
          "internalType": "uint256",
          "name": "dayss",
          "type": "uint256"
        },
        {
          "internalType": "string",
          "name": "movieName",
          "type": "string"
        }
      ],
      "name": "buyMovieToken",
      "outputs": [],
      "stateMutability": "payable",
      "type": "function",
      "payable": true
    },
    {
      "inputs": [
        {
          "internalType": "uint256",
          "name": "tokenId",
          "type": "uint256"
        },
        {
          "internalType": "uint256",
          "name": "value",
          "type": "uint256"
        }
      ],
      "name": "appreciateTokenValue",
      "outputs": [],
      "stateMutability": "nonpayable",
      "type": "function"
    },
    {
      "inputs": [
        {
          "internalType": "uint256",
          "name": "tokenId",
          "type": "uint256"
        },
        {
          "internalType": "uint256",
          "name": "value",
          "type": "uint256"
        }
      ],
      "name": "depreciateTokenValue",
      "outputs": [],
      "stateMutability": "nonpayable",
      "type": "function"
    },
    {
      "inputs": [
        {
          "internalType": "uint256",
          "name": "tokenId",
          "type": "uint256"
        }
      ],
      "name": "enableOrDisableResale",
      "outputs": [],
      "stateMutability": "nonpayable",
      "type": "function"
    },
    {
      "inputs": [],
      "name": "viewTokens",
      "outputs": [
        {
          "components": [
            {
              "internalType": "string",
              "name": "movieName",
              "type": "string"
            },
            {
              "internalType": "uint256",
              "name": "tokenId",
              "type": "uint256"
            },
            {
              "internalType": "uint256",
              "name": "basePrice",
              "type": "uint256"
            },
            {
              "internalType": "string",
              "name": "productionCompany",
              "type": "string"
            },
            {
              "internalType": "address payable",
              "name": "ownerAddr",
              "type": "address"
            },
            {
              "internalType": "uint256",
              "name": "minTime",
              "type": "uint256"
            },
            {
              "internalType": "uint256",
              "name": "maxTime",
              "type": "uint256"
            },
            {
              "internalType": "uint256",
              "name": "apprPercent",
              "type": "uint256"
            },
            {
              "internalType": "uint256",
              "name": "deprPercent",
              "type": "uint256"
            },
            {
              "internalType": "uint256",
              "name": "baseDays",
              "type": "uint256"
            },
            {
              "internalType": "bool",
              "name": "resale",
              "type": "bool"
            }
          ],
          "internalType": "struct FilmToken.Token[]",
          "name": "",
          "type": "tuple[]"
        }
      ],
      "stateMutability": "view",
      "type": "function",
      "constant": true
    },
    {
      "inputs": [],
      "name": "getAllTokenIds",
      "outputs": [
        {
          "internalType": "uint256",
          "name": "",
          "type": "uint256"
        }
      ],
      "stateMutability": "view",
      "type": "function",
      "constant": true
    }
  ],
  "bytecode": "0x60806040523480156200001157600080fd5b506040518060400160405280601181526020017f4d6f766965546f6b656e697a6174696f6e0000000000000000000000000000008152506040518060400160405280600481526020017f4d56544b0000000000000000000000000000000000000000000000000000000081525081600090816200008f919062000365565b508060019081620000a1919062000365565b50505033600860006101000a81548173ffffffffffffffffffffffffffffffffffffffff021916908373ffffffffffffffffffffffffffffffffffffffff1602179055506200044c565b600081519050919050565b7f4e487b7100000000000000000000000000000000000000000000000000000000600052604160045260246000fd5b7f4e487b7100000000000000000000000000000000000000000000000000000000600052602260045260246000fd5b600060028204905060018216806200016d57607f821691505b60208210810362000183576200018262000125565b5b50919050565b60008190508160005260206000209050919050565b60006020601f8301049050919050565b600082821b905092915050565b600060088302620001ed7fffffffffffffffffffffffffffffffffffffffffffffffffffffffffffffffff82620001ae565b620001f98683620001ae565b95508019841693508086168417925050509392505050565b6000819050919050565b6000819050919050565b600062000246620002406200023a8462000211565b6200021b565b62000211565b9050919050565b6000819050919050565b620002628362000225565b6200027a62000271826200024d565b848454620001bb565b825550505050565b600090565b6200029162000282565b6200029e81848462000257565b505050565b5b81811015620002c657620002ba60008262000287565b600181019050620002a4565b5050565b601f8211156200031557620002df8162000189565b620002ea846200019e565b81016020851015620002fa578190505b6200031262000309856200019e565b830182620002a3565b50505b505050565b600082821c905092915050565b60006200033a600019846008026200031a565b1980831691505092915050565b600062000355838362000327565b9150826002028217905092915050565b6200037082620000eb565b67ffffffffffffffff8111156200038c576200038b620000f6565b5b62000398825462000154565b620003a5828285620002ca565b600060209050601f831160018114620003dd5760008415620003c8578287015190505b620003d4858262000347565b86555062000444565b601f198416620003ed8662000189565b60005b828110156200041757848901518255600182019150602085019450602081019050620003f0565b8683101562000437578489015162000433601f89168262000327565b8355505b6001600288020188555050505b505050505050565b615095806200045c6000396000f3fe6080604052600436106101665760003560e01c806370a08231116100d1578063c3aee7361161008a578063dd7072f611610064578063dd7072f614610549578063e985e9c514610572578063f851a440146105af578063f907b4a6146105da57610166565b8063c3aee7361461049c578063c87b56dd146104e3578063ca99cc3e1461052057610166565b806370a082311461038c578063714cff56146103c957806395d89b41146103f4578063a22cb4651461041f578063b88d4fde14610448578063bdbed7221461047157610166565b806342842e0e1161012357806342842e0e1461028b5780634bf5bf35146102b45780634d129205146102df57806357a3106b1461030a5780636352211e146103265780636e323c501461036357610166565b806301ffc9a71461016b57806306fdde03146101a8578063081812fc146101d3578063095ea7b31461021057806323b872dd1461023957806337c4f46714610262575b600080fd5b34801561017757600080fd5b50610192600480360381019061018d9190613267565b610603565b60405161019f91906132af565b60405180910390f35b3480156101b457600080fd5b506101bd6106e5565b6040516101ca919061335a565b60405180910390f35b3480156101df57600080fd5b506101fa60048036038101906101f591906133b2565b610777565b6040516102079190613420565b60405180910390f35b34801561021c57600080fd5b5061023760048036038101906102329190613467565b6107bd565b005b34801561024557600080fd5b50610260600480360381019061025b91906134a7565b6108d4565b005b34801561026e57600080fd5b506102896004803603810190610284919061362f565b610934565b005b34801561029757600080fd5b506102b260048036038101906102ad91906134a7565b610a7e565b005b3480156102c057600080fd5b506102c9610a9e565b6040516102d691906138cc565b60405180910390f35b3480156102eb57600080fd5b506102f4610d52565b60405161030191906139ac565b60405180910390f35b610324600480360381019061031f91906139ce565b610de0565b005b34801561033257600080fd5b5061034d600480360381019061034891906133b2565b611631565b60405161035a9190613420565b60405180910390f35b34801561036f57600080fd5b5061038a60048036038101906103859190613a2a565b6116b7565b005b34801561039857600080fd5b506103b360048036038101906103ae9190613ae8565b611bf9565b6040516103c09190613b24565b60405180910390f35b3480156103d557600080fd5b506103de611cb0565b6040516103eb9190613b24565b60405180910390f35b34801561040057600080fd5b50610409611cbc565b604051610416919061335a565b60405180910390f35b34801561042b57600080fd5b5061044660048036038101906104419190613b6b565b611d4e565b005b34801561045457600080fd5b5061046f600480360381019061046a9190613c4c565b611d64565b005b34801561047d57600080fd5b50610486611dc6565b6040516104939190613b24565b60405180910390f35b3480156104a857600080fd5b506104c360048036038101906104be91906133b2565b611dd7565b6040516104da9b9a99989796959493929190613cde565b60405180910390f35b3480156104ef57600080fd5b5061050a600480360381019061050591906133b2565b611f6e565b604051610517919061335a565b60405180910390f35b34801561052c57600080fd5b50610547600480360381019061054291906133b2565b611fd6565b005b34801561055557600080fd5b50610570600480360381019061056b9190613d97565b61210f565b005b34801561057e57600080fd5b5061059960048036038101906105949190613dd7565b6121f6565b6040516105a691906132af565b60405180910390f35b3480156105bb57600080fd5b506105c461228a565b6040516105d19190613420565b60405180910390f35b3480156105e657600080fd5b5061060160048036038101906105fc9190613d97565b6122b0565b005b60007f80ac58cd000000000000000000000000000000000000000000000000000000007bffffffffffffffffffffffffffffffffffffffffffffffffffffffff1916827bffffffffffffffffffffffffffffffffffffffffffffffffffffffff191614806106ce57507f5b5e139f000000000000000000000000000000000000000000000000000000007bffffffffffffffffffffffffffffffffffffffffffffffffffffffff1916827bffffffffffffffffffffffffffffffffffffffffffffffffffffffff1916145b806106de57506106dd82612397565b5b9050919050565b6060600080546106f490613e46565b80601f016020809104026020016040519081016040528092919081815260200182805461072090613e46565b801561076d5780601f106107425761010080835404028352916020019161076d565b820191906000526020600020905b81548152906001019060200180831161075057829003601f168201915b5050505050905090565b600061078282612401565b6004600083815260200190815260200160002060009054906101000a900473ffffffffffffffffffffffffffffffffffffffff169050919050565b60006107c882611631565b90508073ffffffffffffffffffffffffffffffffffffffff168373ffffffffffffffffffffffffffffffffffffffff1603610838576040517f08c379a000000000000000000000000000000000000000000000000000000000815260040161082f90613ee9565b60405180910390fd5b8073ffffffffffffffffffffffffffffffffffffffff1661085761244c565b73ffffffffffffffffffffffffffffffffffffffff16148061088657506108858161088061244c565b6121f6565b5b6108c5576040517f08c379a00000000000000000000000000000000000000000000000000000000081526004016108bc90613f7b565b60405180910390fd5b6108cf8383612454565b505050565b6108e56108df61244c565b8261250d565b610924576040517f08c379a000000000000000000000000000000000000000000000000000000000815260040161091b9061400d565b60405180910390fd5b61092f8383836125a2565b505050565b80600080600a60008473ffffffffffffffffffffffffffffffffffffffff1673ffffffffffffffffffffffffffffffffffffffff168152602001908152602001600020805461098290613e46565b905011905080156109c8576040517f08c379a00000000000000000000000000000000000000000000000000000000081526004016109bf90614079565b60405180910390fd5b83600a60008573ffffffffffffffffffffffffffffffffffffffff1673ffffffffffffffffffffffffffffffffffffffff1681526020019081526020016000209081610a149190614245565b50600b839080600181540180825580915050600190039060005260206000200160009091909190916101000a81548173ffffffffffffffffffffffffffffffffffffffff021916908373ffffffffffffffffffffffffffffffffffffffff16021790555050505050565b610a9983838360405180602001604052806000815250611d64565b505050565b6060600060078054905067ffffffffffffffff811115610ac157610ac0613504565b5b604051908082528060200260200182016040528015610afa57816020015b610ae7613189565b815260200190600190039081610adf5790505b5090506000805b610b0b600661289b565b811015610d49576009600082815260200190815260200160002060405180610160016040529081600082018054610b4190613e46565b80601f0160208091040260200160405190810160405280929190818152602001828054610b6d90613e46565b8015610bba5780601f10610b8f57610100808354040283529160200191610bba565b820191906000526020600020905b815481529060010190602001808311610b9d57829003601f168201915b505050505081526020016001820154815260200160028201548152602001600382018054610be790613e46565b80601f0160208091040260200160405190810160405280929190818152602001828054610c1390613e46565b8015610c605780601f10610c3557610100808354040283529160200191610c60565b820191906000526020600020905b815481529060010190602001808311610c4357829003601f168201915b505050505081526020016004820160009054906101000a900473ffffffffffffffffffffffffffffffffffffffff1673ffffffffffffffffffffffffffffffffffffffff1673ffffffffffffffffffffffffffffffffffffffff1681526020016005820154815260200160068201548152602001600782015481526020016008820154815260200160098201548152602001600a820160009054906101000a900460ff161515151581525050838380610d1890614346565b945081518110610d2b57610d2a61438e565b5b60200260200101819052508080610d4190614346565b915050610b01565b50819250505090565b6060600b805480602002602001604051908101604052809291908181526020018280548015610dd657602002820191906000526020600020905b8160009054906101000a900473ffffffffffffffffffffffffffffffffffffffff1673ffffffffffffffffffffffffffffffffffffffff1681526020019060010190808311610d8c575b5050505050905090565b806000805b600780549050811015610e855782604051602001610e0391906143f9565b6040516020818303038152906040528051906020012060078281548110610e2d57610e2c61438e565b5b90600052602060002090600b0201600001604051602001610e4e9190614493565b6040516020818303038152906040528051906020012003610e725760019150610e85565b8080610e7d90614346565b915050610de5565b5080610ec6576040517f08c379a0000000000000000000000000000000000000000000000000000000008152600401610ebd9061451c565b60405180910390fd5b6000600c84604051610ed891906143f9565b908152602001604051809103902054905060006009600083815260200190815260200160002060405180610160016040529081600082018054610f1a90613e46565b80601f0160208091040260200160405190810160405280929190818152602001828054610f4690613e46565b8015610f935780601f10610f6857610100808354040283529160200191610f93565b820191906000526020600020905b815481529060010190602001808311610f7657829003601f168201915b505050505081526020016001820154815260200160028201548152602001600382018054610fc090613e46565b80601f0160208091040260200160405190810160405280929190818152602001828054610fec90613e46565b80156110395780601f1061100e57610100808354040283529160200191611039565b820191906000526020600020905b81548152906001019060200180831161101c57829003601f168201915b505050505081526020016004820160009054906101000a900473ffffffffffffffffffffffffffffffffffffffff1673ffffffffffffffffffffffffffffffffffffffff1673ffffffffffffffffffffffffffffffffffffffff1681526020016005820154815260200160068201548152602001600782015481526020016008820154815260200160098201548152602001600a820160009054906101000a900460ff161515151581525050905060011515816101400151151514611133576040517f08c379a000000000000000000000000000000000000000000000000000000000815260040161112a906145ae565b60405180910390fd5b60008160a0015190508087101561117f576040517f08c379a00000000000000000000000000000000000000000000000000000000081526004016111769061461a565b60405180910390fd5b3373ffffffffffffffffffffffffffffffffffffffff16826080015173ffffffffffffffffffffffffffffffffffffffff16036111f1576040517f08c379a00000000000000000000000000000000000000000000000000000000081526004016111e890614686565b60405180910390fd5b816080015173ffffffffffffffffffffffffffffffffffffffff166108fc349081150290604051600060405180830381858888f1935050505015801561123b573d6000803e3d6000fd5b5033826080019073ffffffffffffffffffffffffffffffffffffffff16908173ffffffffffffffffffffffffffffffffffffffff168152505033600d600085815260200190815260200160002060006101000a81548173ffffffffffffffffffffffffffffffffffffffff021916908373ffffffffffffffffffffffffffffffffffffffff16021790555060008261014001901515908115158152505060005b6007805490508110156116275783600782815481106112fd576112fc61438e565b5b90600052602060002090600b020160010154036115de577fa95e6e2a182411e7a6f9ed114a85c3761d87f9b8f453d842c71235aa64fff99f604051611341906146f2565b60405180910390a17ffcf771399d75a67a6d0e730ae98d34c40b6bfe6ebf8053b98ddf4da8c2706250846040516113789190613b24565b60405180910390a133600782815481106113955761139461438e565b5b90600052602060002090600b020160040160006101000a81548173ffffffffffffffffffffffffffffffffffffffff021916908373ffffffffffffffffffffffffffffffffffffffff160217905550670de0b6b3a7640000346113f89190614741565b6007828154811061140c5761140b61438e565b5b90600052602060002090600b020160020181905550600781815481106114355761143461438e565b5b90600052602060002090600b0201600960008681526020019081526020016000206000820181600001908161146a9190614788565b506001820154816001015560028201548160020155600382018160030190816114939190614788565b506004820160009054906101000a900473ffffffffffffffffffffffffffffffffffffffff168160040160006101000a81548173ffffffffffffffffffffffffffffffffffffffff021916908373ffffffffffffffffffffffffffffffffffffffff1602179055506005820154816005015560068201548160060155600782015481600701556008820154816008015560098201548160090155600a820160009054906101000a900460ff1681600a0160006101000a81548160ff0219169083151502179055509050507fcbd53414c604de87a237eff533b1f3db90381a5c6be328f2ff183a59b9946369600782815481106115925761159161438e565b5b90600052602060002090600b020160040160009054906101000a900473ffffffffffffffffffffffffffffffffffffffff166040516115d191906148c5565b60405180910390a1611614565b7fa95e6e2a182411e7a6f9ed114a85c3761d87f9b8f453d842c71235aa64fff99f60405161160b9061492c565b60405180910390a15b808061161f90614346565b9150506112db565b5050505050505050565b60008061163d836128a9565b9050600073ffffffffffffffffffffffffffffffffffffffff168173ffffffffffffffffffffffffffffffffffffffff16036116ae576040517f08c379a00000000000000000000000000000000000000000000000000000000081526004016116a590614998565b60405180910390fd5b80915050919050565b866000805b60078054905081101561175c57826040516020016116da91906143f9565b60405160208183030381529060405280519060200120600782815481106117045761170361438e565b5b90600052602060002090600b02016000016040516020016117259190614493565b6040516020818303038152906040528051906020012003611749576001915061175c565b808061175490614346565b9150506116bc565b50801561179e576040517f08c379a000000000000000000000000000000000000000000000000000000000815260040161179590614a2a565b60405180910390fd5b60006040518061016001604052808b81526020016117bc600661289b565b81526020018a8152602001600a60003373ffffffffffffffffffffffffffffffffffffffff1673ffffffffffffffffffffffffffffffffffffffff168152602001908152602001600020805461181190613e46565b80601f016020809104026020016040519081016040528092919081815260200182805461183d90613e46565b801561188a5780601f1061185f5761010080835404028352916020019161188a565b820191906000526020600020905b81548152906001019060200180831161186d57829003601f168201915b505050505081526020013373ffffffffffffffffffffffffffffffffffffffff1681526020018881526020018781526020018681526020018581526020018981526020016001151581525090507ffcf771399d75a67a6d0e730ae98d34c40b6bfe6ebf8053b98ddf4da8c2706250896040516119069190613b24565b60405180910390a17fa95e6e2a182411e7a6f9ed114a85c3761d87f9b8f453d842c71235aa64fff99f60405161193b90614a96565b60405180910390a161194d600661289b565b600c8b60405161195d91906143f9565b908152602001604051809103902081905550806009600061197e600661289b565b815260200190815260200160002060008201518160000190816119a19190614245565b50602082015181600101556040820151816002015560608201518160030190816119cb9190614245565b5060808201518160040160006101000a81548173ffffffffffffffffffffffffffffffffffffffff021916908373ffffffffffffffffffffffffffffffffffffffff16021790555060a0820151816005015560c0820151816006015560e082015181600701556101008201518160080155610120820151816009015561014082015181600a0160006101000a81548160ff02191690831515021790555090505033600d6000611a7a600661289b565b815260200190815260200160002060006101000a81548173ffffffffffffffffffffffffffffffffffffffff021916908373ffffffffffffffffffffffffffffffffffffffff160217905550611ad933611ad4600661289b565b6128e6565b611ae36006612904565b60078190806001815401808255809150506001900390600052602060002090600b02016000909190919091506000820151816000019081611b249190614245565b5060208201518160010155604082015181600201556060820151816003019081611b4e9190614245565b5060808201518160040160006101000a81548173ffffffffffffffffffffffffffffffffffffffff021916908373ffffffffffffffffffffffffffffffffffffffff16021790555060a0820151816005015560c0820151816006015560e082015181600701556101008201518160080155610120820151816009015561014082015181600a0160006101000a81548160ff021916908315150217905550505050505050505050505050565b60008073ffffffffffffffffffffffffffffffffffffffff168273ffffffffffffffffffffffffffffffffffffffff1603611c69576040517f08c379a0000000000000000000000000000000000000000000000000000000008152600401611c6090614b28565b60405180910390fd5b600360008373ffffffffffffffffffffffffffffffffffffffff1673ffffffffffffffffffffffffffffffffffffffff168152602001908152602001600020549050919050565b60068060000154905081565b606060018054611ccb90613e46565b80601f0160208091040260200160405190810160405280929190818152602001828054611cf790613e46565b8015611d445780601f10611d1957610100808354040283529160200191611d44565b820191906000526020600020905b815481529060010190602001808311611d2757829003601f168201915b5050505050905090565b611d60611d5961244c565b838361291a565b5050565b611d75611d6f61244c565b8361250d565b611db4576040517f08c379a0000000000000000000000000000000000000000000000000000000008152600401611dab9061400d565b60405180910390fd5b611dc084848484612a86565b50505050565b6000611dd2600661289b565b905090565b6009602052806000526040600020600091509050806000018054611dfa90613e46565b80601f0160208091040260200160405190810160405280929190818152602001828054611e2690613e46565b8015611e735780601f10611e4857610100808354040283529160200191611e73565b820191906000526020600020905b815481529060010190602001808311611e5657829003601f168201915b505050505090806001015490806002015490806003018054611e9490613e46565b80601f0160208091040260200160405190810160405280929190818152602001828054611ec090613e46565b8015611f0d5780601f10611ee257610100808354040283529160200191611f0d565b820191906000526020600020905b815481529060010190602001808311611ef057829003601f168201915b5050505050908060040160009054906101000a900473ffffffffffffffffffffffffffffffffffffffff169080600501549080600601549080600701549080600801549080600901549080600a0160009054906101000a900460ff1690508b565b6060611f7982612401565b6000611f83612ae2565b90506000815111611fa35760405180602001604052806000815250611fce565b80611fad84612af9565b604051602001611fbe929190614b48565b6040516020818303038152906040525b915050919050565b803373ffffffffffffffffffffffffffffffffffffffff16600d600083815260200190815260200160002060009054906101000a900473ffffffffffffffffffffffffffffffffffffffff1673ffffffffffffffffffffffffffffffffffffffff1614612078576040517f08c379a000000000000000000000000000000000000000000000000000000000815260040161206f90614bb8565b60405180910390fd5b6001151560096000848152602001908152602001600020600a0160009054906101000a900460ff161515036120db57600060096000848152602001908152602001600020600a0160006101000a81548160ff02191690831515021790555061210b565b600160096000848152602001908152602001600020600a0160006101000a81548160ff0219169083151502179055505b5050565b813373ffffffffffffffffffffffffffffffffffffffff16600d600083815260200190815260200160002060009054906101000a900473ffffffffffffffffffffffffffffffffffffffff1673ffffffffffffffffffffffffffffffffffffffff16146121b1576040517f08c379a00000000000000000000000000000000000000000000000000000000081526004016121a890614bb8565b60405180910390fd5b670de0b6b3a7640000826121c59190614bd8565b6009600085815260200190815260200160002060020160008282546121ea9190614c1a565b92505081905550505050565b6000600560008473ffffffffffffffffffffffffffffffffffffffff1673ffffffffffffffffffffffffffffffffffffffff16815260200190815260200160002060008373ffffffffffffffffffffffffffffffffffffffff1673ffffffffffffffffffffffffffffffffffffffff16815260200190815260200160002060009054906101000a900460ff16905092915050565b600860009054906101000a900473ffffffffffffffffffffffffffffffffffffffff1681565b813373ffffffffffffffffffffffffffffffffffffffff16600d600083815260200190815260200160002060009054906101000a900473ffffffffffffffffffffffffffffffffffffffff1673ffffffffffffffffffffffffffffffffffffffff1614612352576040517f08c379a000000000000000000000000000000000000000000000000000000000815260040161234990614bb8565b60405180910390fd5b670de0b6b3a7640000826123669190614bd8565b60096000858152602001908152602001600020600201600082825461238b9190614c4e565b92505081905550505050565b60007f01ffc9a7000000000000000000000000000000000000000000000000000000007bffffffffffffffffffffffffffffffffffffffffffffffffffffffff1916827bffffffffffffffffffffffffffffffffffffffffffffffffffffffff1916149050919050565b61240a81612bc7565b612449576040517f08c379a000000000000000000000000000000000000000000000000000000000815260040161244090614998565b60405180910390fd5b50565b600033905090565b816004600083815260200190815260200160002060006101000a81548173ffffffffffffffffffffffffffffffffffffffff021916908373ffffffffffffffffffffffffffffffffffffffff160217905550808273ffffffffffffffffffffffffffffffffffffffff166124c783611631565b73ffffffffffffffffffffffffffffffffffffffff167f8c5be1e5ebec7d5bd14f71427d1e84f3dd0314c0f7b2291e5b200ac8c7c3b92560405160405180910390a45050565b60008061251983611631565b90508073ffffffffffffffffffffffffffffffffffffffff168473ffffffffffffffffffffffffffffffffffffffff16148061255b575061255a81856121f6565b5b8061259957508373ffffffffffffffffffffffffffffffffffffffff1661258184610777565b73ffffffffffffffffffffffffffffffffffffffff16145b91505092915050565b8273ffffffffffffffffffffffffffffffffffffffff166125c282611631565b73ffffffffffffffffffffffffffffffffffffffff1614612618576040517f08c379a000000000000000000000000000000000000000000000000000000000815260040161260f90614cf4565b60405180910390fd5b600073ffffffffffffffffffffffffffffffffffffffff168273ffffffffffffffffffffffffffffffffffffffff1603612687576040517f08c379a000000000000000000000000000000000000000000000000000000000815260040161267e90614d86565b60405180910390fd5b6126948383836001612c08565b8273ffffffffffffffffffffffffffffffffffffffff166126b482611631565b73ffffffffffffffffffffffffffffffffffffffff161461270a576040517f08c379a000000000000000000000000000000000000000000000000000000000815260040161270190614cf4565b60405180910390fd5b6004600082815260200190815260200160002060006101000a81549073ffffffffffffffffffffffffffffffffffffffff02191690556001600360008573ffffffffffffffffffffffffffffffffffffffff1673ffffffffffffffffffffffffffffffffffffffff168152602001908152602001600020600082825403925050819055506001600360008473ffffffffffffffffffffffffffffffffffffffff1673ffffffffffffffffffffffffffffffffffffffff16815260200190815260200160002060008282540192505081905550816002600083815260200190815260200160002060006101000a81548173ffffffffffffffffffffffffffffffffffffffff021916908373ffffffffffffffffffffffffffffffffffffffff160217905550808273ffffffffffffffffffffffffffffffffffffffff168473ffffffffffffffffffffffffffffffffffffffff167fddf252ad1be2c89b69c2b068fc378daa952ba7f163c4a11628f55a4df523b3ef60405160405180910390a46128968383836001612c0e565b505050565b600081600001549050919050565b60006002600083815260200190815260200160002060009054906101000a900473ffffffffffffffffffffffffffffffffffffffff169050919050565b612900828260405180602001604052806000815250612c14565b5050565b6001816000016000828254019250508190555050565b8173ffffffffffffffffffffffffffffffffffffffff168373ffffffffffffffffffffffffffffffffffffffff1603612988576040517f08c379a000000000000000000000000000000000000000000000000000000000815260040161297f90614df2565b60405180910390fd5b80600560008573ffffffffffffffffffffffffffffffffffffffff1673ffffffffffffffffffffffffffffffffffffffff16815260200190815260200160002060008473ffffffffffffffffffffffffffffffffffffffff1673ffffffffffffffffffffffffffffffffffffffff16815260200190815260200160002060006101000a81548160ff0219169083151502179055508173ffffffffffffffffffffffffffffffffffffffff168373ffffffffffffffffffffffffffffffffffffffff167f17307eab39ab6107e8899845ad3d59bd9653f200f220920489ca2b5937696c3183604051612a7991906132af565b60405180910390a3505050565b612a918484846125a2565b612a9d84848484612c6f565b612adc576040517f08c379a0000000000000000000000000000000000000000000000000000000008152600401612ad390614e84565b60405180910390fd5b50505050565b606060405180602001604052806000815250905090565b606060006001612b0884612df6565b01905060008167ffffffffffffffff811115612b2757612b26613504565b5b6040519080825280601f01601f191660200182016040528015612b595781602001600182028036833780820191505090505b509050600082602001820190505b600115612bbc578080600190039150507f3031323334353637383961626364656600000000000000000000000000000000600a86061a8153600a8581612bb057612baf614712565b5b04945060008503612b67575b819350505050919050565b60008073ffffffffffffffffffffffffffffffffffffffff16612be9836128a9565b73ffffffffffffffffffffffffffffffffffffffff1614159050919050565b50505050565b50505050565b612c1e8383612f49565b612c2b6000848484612c6f565b612c6a576040517f08c379a0000000000000000000000000000000000000000000000000000000008152600401612c6190614e84565b60405180910390fd5b505050565b6000612c908473ffffffffffffffffffffffffffffffffffffffff16613166565b15612de9578373ffffffffffffffffffffffffffffffffffffffff1663150b7a02612cb961244c565b8786866040518563ffffffff1660e01b8152600401612cdb9493929190614ef9565b6020604051808303816000875af1925050508015612d1757506040513d601f19601f82011682018060405250810190612d149190614f5a565b60015b612d99573d8060008114612d47576040519150601f19603f3d011682016040523d82523d6000602084013e612d4c565b606091505b506000815103612d91576040517f08c379a0000000000000000000000000000000000000000000000000000000008152600401612d8890614e84565b60405180910390fd5b805181602001fd5b63150b7a0260e01b7bffffffffffffffffffffffffffffffffffffffffffffffffffffffff1916817bffffffffffffffffffffffffffffffffffffffffffffffffffffffff191614915050612dee565b600190505b949350505050565b600080600090507a184f03e93ff9f4daa797ed6e38ed64bf6a1f0100000000000000008310612e54577a184f03e93ff9f4daa797ed6e38ed64bf6a1f0100000000000000008381612e4a57612e49614712565b5b0492506040810190505b6d04ee2d6d415b85acef81000000008310612e91576d04ee2d6d415b85acef81000000008381612e8757612e86614712565b5b0492506020810190505b662386f26fc100008310612ec057662386f26fc100008381612eb657612eb5614712565b5b0492506010810190505b6305f5e1008310612ee9576305f5e1008381612edf57612ede614712565b5b0492506008810190505b6127108310612f0e576127108381612f0457612f03614712565b5b0492506004810190505b60648310612f315760648381612f2757612f26614712565b5b0492506002810190505b600a8310612f40576001810190505b80915050919050565b600073ffffffffffffffffffffffffffffffffffffffff168273ffffffffffffffffffffffffffffffffffffffff1603612fb8576040517f08c379a0000000000000000000000000000000000000000000000000000000008152600401612faf90614fd3565b60405180910390fd5b612fc181612bc7565b15613001576040517f08c379a0000000000000000000000000000000000000000000000000000000008152600401612ff89061503f565b60405180910390fd5b61300f600083836001612c08565b61301881612bc7565b15613058576040517f08c379a000000000000000000000000000000000000000000000000000000000815260040161304f9061503f565b60405180910390fd5b6001600360008473ffffffffffffffffffffffffffffffffffffffff1673ffffffffffffffffffffffffffffffffffffffff16815260200190815260200160002060008282540192505081905550816002600083815260200190815260200160002060006101000a81548173ffffffffffffffffffffffffffffffffffffffff021916908373ffffffffffffffffffffffffffffffffffffffff160217905550808273ffffffffffffffffffffffffffffffffffffffff16600073ffffffffffffffffffffffffffffffffffffffff167fddf252ad1be2c89b69c2b068fc378daa952ba7f163c4a11628f55a4df523b3ef60405160405180910390a4613162600083836001612c0e565b5050565b6000808273ffffffffffffffffffffffffffffffffffffffff163b119050919050565b60405180610160016040528060608152602001600081526020016000815260200160608152602001600073ffffffffffffffffffffffffffffffffffffffff16815260200160008152602001600081526020016000815260200160008152602001600081526020016000151581525090565b6000604051905090565b600080fd5b600080fd5b60007fffffffff0000000000000000000000000000000000000000000000000000000082169050919050565b6132448161320f565b811461324f57600080fd5b50565b6000813590506132618161323b565b92915050565b60006020828403121561327d5761327c613205565b5b600061328b84828501613252565b91505092915050565b60008115159050919050565b6132a981613294565b82525050565b60006020820190506132c460008301846132a0565b92915050565b600081519050919050565b600082825260208201905092915050565b60005b838110156133045780820151818401526020810190506132e9565b60008484015250505050565b6000601f19601f8301169050919050565b600061332c826132ca565b61333681856132d5565b93506133468185602086016132e6565b61334f81613310565b840191505092915050565b600060208201905081810360008301526133748184613321565b905092915050565b6000819050919050565b61338f8161337c565b811461339a57600080fd5b50565b6000813590506133ac81613386565b92915050565b6000602082840312156133c8576133c7613205565b5b60006133d68482850161339d565b91505092915050565b600073ffffffffffffffffffffffffffffffffffffffff82169050919050565b600061340a826133df565b9050919050565b61341a816133ff565b82525050565b60006020820190506134356000830184613411565b92915050565b613444816133ff565b811461344f57600080fd5b50565b6000813590506134618161343b565b92915050565b6000806040838503121561347e5761347d613205565b5b600061348c85828601613452565b925050602061349d8582860161339d565b9150509250929050565b6000806000606084860312156134c0576134bf613205565b5b60006134ce86828701613452565b93505060206134df86828701613452565b92505060406134f08682870161339d565b9150509250925092565b600080fd5b600080fd5b7f4e487b7100000000000000000000000000000000000000000000000000000000600052604160045260246000fd5b61353c82613310565b810181811067ffffffffffffffff8211171561355b5761355a613504565b5b80604052505050565b600061356e6131fb565b905061357a8282613533565b919050565b600067ffffffffffffffff82111561359a57613599613504565b5b6135a382613310565b9050602081019050919050565b82818337600083830152505050565b60006135d26135cd8461357f565b613564565b9050828152602081018484840111156135ee576135ed6134ff565b5b6135f98482856135b0565b509392505050565b600082601f830112613616576136156134fa565b5b81356136268482602086016135bf565b91505092915050565b6000806040838503121561364657613645613205565b5b600083013567ffffffffffffffff8111156136645761366361320a565b5b61367085828601613601565b925050602061368185828601613452565b9150509250929050565b600081519050919050565b600082825260208201905092915050565b6000819050602082019050919050565b600082825260208201905092915050565b60006136d3826132ca565b6136dd81856136b7565b93506136ed8185602086016132e6565b6136f681613310565b840191505092915050565b61370a8161337c565b82525050565b600061371b826133df565b9050919050565b61372b81613710565b82525050565b61373a81613294565b82525050565b600061016083016000830151848203600086015261375e82826136c8565b91505060208301516137736020860182613701565b5060408301516137866040860182613701565b506060830151848203606086015261379e82826136c8565b91505060808301516137b36080860182613722565b5060a08301516137c660a0860182613701565b5060c08301516137d960c0860182613701565b5060e08301516137ec60e0860182613701565b50610100830151613801610100860182613701565b50610120830151613816610120860182613701565b5061014083015161382b610140860182613731565b508091505092915050565b60006138428383613740565b905092915050565b6000602082019050919050565b60006138628261368b565b61386c8185613696565b93508360208202850161387e856136a7565b8060005b858110156138ba578484038952815161389b8582613836565b94506138a68361384a565b925060208a01995050600181019050613882565b50829750879550505050505092915050565b600060208201905081810360008301526138e68184613857565b905092915050565b600081519050919050565b600082825260208201905092915050565b6000819050602082019050919050565b613923816133ff565b82525050565b6000613935838361391a565b60208301905092915050565b6000602082019050919050565b6000613959826138ee565b61396381856138f9565b935061396e8361390a565b8060005b8381101561399f5781516139868882613929565b975061399183613941565b925050600181019050613972565b5085935050505092915050565b600060208201905081810360008301526139c6818461394e565b905092915050565b600080604083850312156139e5576139e4613205565b5b60006139f38582860161339d565b925050602083013567ffffffffffffffff811115613a1457613a1361320a565b5b613a2085828601613601565b9150509250929050565b600080600080600080600060e0888a031215613a4957613a48613205565b5b600088013567ffffffffffffffff811115613a6757613a6661320a565b5b613a738a828b01613601565b9750506020613a848a828b0161339d565b9650506040613a958a828b0161339d565b9550506060613aa68a828b0161339d565b9450506080613ab78a828b0161339d565b93505060a0613ac88a828b0161339d565b92505060c0613ad98a828b0161339d565b91505092959891949750929550565b600060208284031215613afe57613afd613205565b5b6000613b0c84828501613452565b91505092915050565b613b1e8161337c565b82525050565b6000602082019050613b396000830184613b15565b92915050565b613b4881613294565b8114613b5357600080fd5b50565b600081359050613b6581613b3f565b92915050565b60008060408385031215613b8257613b81613205565b5b6000613b9085828601613452565b9250506020613ba185828601613b56565b9150509250929050565b600067ffffffffffffffff821115613bc657613bc5613504565b5b613bcf82613310565b9050602081019050919050565b6000613bef613bea84613bab565b613564565b905082815260208101848484011115613c0b57613c0a6134ff565b5b613c168482856135b0565b509392505050565b600082601f830112613c3357613c326134fa565b5b8135613c43848260208601613bdc565b91505092915050565b60008060008060808587031215613c6657613c65613205565b5b6000613c7487828801613452565b9450506020613c8587828801613452565b9350506040613c968782880161339d565b925050606085013567ffffffffffffffff811115613cb757613cb661320a565b5b613cc387828801613c1e565b91505092959194509250565b613cd881613710565b82525050565b6000610160820190508181036000830152613cf9818e613321565b9050613d08602083018d613b15565b613d15604083018c613b15565b8181036060830152613d27818b613321565b9050613d36608083018a613ccf565b613d4360a0830189613b15565b613d5060c0830188613b15565b613d5d60e0830187613b15565b613d6b610100830186613b15565b613d79610120830185613b15565b613d876101408301846132a0565b9c9b505050505050505050505050565b60008060408385031215613dae57613dad613205565b5b6000613dbc8582860161339d565b9250506020613dcd8582860161339d565b9150509250929050565b60008060408385031215613dee57613ded613205565b5b6000613dfc85828601613452565b9250506020613e0d85828601613452565b9150509250929050565b7f4e487b7100000000000000000000000000000000000000000000000000000000600052602260045260246000fd5b60006002820490506001821680613e5e57607f821691505b602082108103613e7157613e70613e17565b5b50919050565b7f4552433732313a20617070726f76616c20746f2063757272656e74206f776e6560008201527f7200000000000000000000000000000000000000000000000000000000000000602082015250565b6000613ed36021836132d5565b9150613ede82613e77565b604082019050919050565b60006020820190508181036000830152613f0281613ec6565b9050919050565b7f4552433732313a20617070726f76652063616c6c6572206973206e6f7420746f60008201527f6b656e206f776e6572206f7220617070726f76656420666f7220616c6c000000602082015250565b6000613f65603d836132d5565b9150613f7082613f09565b604082019050919050565b60006020820190508181036000830152613f9481613f58565b9050919050565b7f4552433732313a2063616c6c6572206973206e6f7420746f6b656e206f776e6560008201527f72206f7220617070726f76656400000000000000000000000000000000000000602082015250565b6000613ff7602d836132d5565b915061400282613f9b565b604082019050919050565b6000602082019050818103600083015261402681613fea565b9050919050565b7f4475706c69636174652050726f64756374696f6e20486f757365000000000000600082015250565b6000614063601a836132d5565b915061406e8261402d565b602082019050919050565b6000602082019050818103600083015261409281614056565b9050919050565b60008190508160005260206000209050919050565b60006020601f8301049050919050565b600082821b905092915050565b6000600883026140fb7fffffffffffffffffffffffffffffffffffffffffffffffffffffffffffffffff826140be565b61410586836140be565b95508019841693508086168417925050509392505050565b6000819050919050565b600061414261413d6141388461337c565b61411d565b61337c565b9050919050565b6000819050919050565b61415c83614127565b61417061416882614149565b8484546140cb565b825550505050565b600090565b614185614178565b614190818484614153565b505050565b5b818110156141b4576141a960008261417d565b600181019050614196565b5050565b601f8211156141f9576141ca81614099565b6141d3846140ae565b810160208510156141e2578190505b6141f66141ee856140ae565b830182614195565b50505b505050565b600082821c905092915050565b600061421c600019846008026141fe565b1980831691505092915050565b6000614235838361420b565b9150826002028217905092915050565b61424e826132ca565b67ffffffffffffffff81111561426757614266613504565b5b6142718254613e46565b61427c8282856141b8565b600060209050601f8311600181146142af576000841561429d578287015190505b6142a78582614229565b86555061430f565b601f1984166142bd86614099565b60005b828110156142e5578489015182556001820191506020850194506020810190506142c0565b8683101561430257848901516142fe601f89168261420b565b8355505b6001600288020188555050505b505050505050565b7f4e487b7100000000000000000000000000000000000000000000000000000000600052601160045260246000fd5b60006143518261337c565b91507fffffffffffffffffffffffffffffffffffffffffffffffffffffffffffffffff820361438357614382614317565b5b600182019050919050565b7f4e487b7100000000000000000000000000000000000000000000000000000000600052603260045260246000fd5b600081905092915050565b60006143d3826132ca565b6143dd81856143bd565b93506143ed8185602086016132e6565b80840191505092915050565b600061440582846143c8565b915081905092915050565b6000815461441d81613e46565b61442781866143bd565b9450600182166000811461444257600181146144575761448a565b60ff198316865281151582028601935061448a565b61446085614099565b60005b8381101561448257815481890152600182019150602081019050614463565b838801955050505b50505092915050565b600061449f8284614410565b915081905092915050565b7f4120746f6b656e206973206e6f742070726573656e7420666f7220746869732060008201527f6d6f766965000000000000000000000000000000000000000000000000000000602082015250565b60006145066025836132d5565b9150614511826144aa565b604082019050919050565b60006020820190508181036000830152614535816144f9565b9050919050565b7f526573616c65206973206e6f7420616c6c6f77656420666f722074686973206d60008201527f6f76696500000000000000000000000000000000000000000000000000000000602082015250565b60006145986024836132d5565b91506145a38261453c565b604082019050919050565b600060208201905081810360008301526145c78161458b565b9050919050565b7f4e6f7420616c6c6f776564206265666f7265206d696e20646179730000000000600082015250565b6000614604601b836132d5565b915061460f826145ce565b602082019050919050565b60006020820190508181036000830152614633816145f7565b9050919050565b7f596f752061726520616c726561647920746865206f776e657200000000000000600082015250565b60006146706019836132d5565b915061467b8261463a565b602082019050919050565b6000602082019050818103600083015261469f81614663565b9050919050565b7f466f756e64746f6b656e206d617463682c206964206973000000000000000000600082015250565b60006146dc6017836132d5565b91506146e7826146a6565b602082019050919050565b6000602082019050818103600083015261470b816146cf565b9050919050565b7f4e487b7100000000000000000000000000000000000000000000000000000000600052601260045260246000fd5b600061474c8261337c565b91506147578361337c565b92508261476757614766614712565b5b828204905092915050565b60008154905061478181613e46565b9050919050565b81810361479657505061486e565b61479f82614772565b67ffffffffffffffff8111156147b8576147b7613504565b5b6147c28254613e46565b6147cd8282856141b8565b6000601f8311600181146147fc57600084156147ea578287015490505b6147f48582614229565b865550614867565b601f19841661480a87614099565b965061481586614099565b60005b8281101561483d57848901548255600182019150600185019450602081019050614818565b8683101561485a5784890154614856601f89168261420b565b8355505b6001600288020188555050505b5050505050505b565b600061488b614886614881846133df565b61411d565b6133df565b9050919050565b600061489d82614870565b9050919050565b60006148af82614892565b9050919050565b6148bf816148a4565b82525050565b60006020820190506148da60008301846148b6565b92915050565b7f4e6f206d61746368000000000000000000000000000000000000000000000000600082015250565b60006149166008836132d5565b9150614921826148e0565b602082019050919050565b6000602082019050818103600083015261494581614909565b9050919050565b7f4552433732313a20696e76616c696420746f6b656e2049440000000000000000600082015250565b60006149826018836132d5565b915061498d8261494c565b602082019050919050565b600060208201905081810360008301526149b181614975565b9050919050565b7f4120746f6b656e20697320616c72656164792070726573656e7420666f72207460008201527f686973206d6f7669650000000000000000000000000000000000000000000000602082015250565b6000614a146029836132d5565b9150614a1f826149b8565b604082019050919050565b60006020820190508181036000830152614a4381614a07565b9050919050565b7f496e206372656174650000000000000000000000000000000000000000000000600082015250565b6000614a806009836132d5565b9150614a8b82614a4a565b602082019050919050565b60006020820190508181036000830152614aaf81614a73565b9050919050565b7f4552433732313a2061646472657373207a65726f206973206e6f74206120766160008201527f6c6964206f776e65720000000000000000000000000000000000000000000000602082015250565b6000614b126029836132d5565b9150614b1d82614ab6565b604082019050919050565b60006020820190508181036000830152614b4181614b05565b9050919050565b6000614b5482856143c8565b9150614b6082846143c8565b91508190509392505050565b7f4e6f7420746865206f776e6572206f662074686520746f6b656e000000000000600082015250565b6000614ba2601a836132d5565b9150614bad82614b6c565b602082019050919050565b60006020820190508181036000830152614bd181614b95565b9050919050565b6000614be38261337c565b9150614bee8361337c565b9250828202614bfc8161337c565b91508282048414831517614c1357614c12614317565b5b5092915050565b6000614c258261337c565b9150614c308361337c565b9250828201905080821115614c4857614c47614317565b5b92915050565b6000614c598261337c565b9150614c648361337c565b9250828203905081811115614c7c57614c7b614317565b5b92915050565b7f4552433732313a207472616e736665722066726f6d20696e636f72726563742060008201527f6f776e6572000000000000000000000000000000000000000000000000000000602082015250565b6000614cde6025836132d5565b9150614ce982614c82565b604082019050919050565b60006020820190508181036000830152614d0d81614cd1565b9050919050565b7f4552433732313a207472616e7366657220746f20746865207a65726f2061646460008201527f7265737300000000000000000000000000000000000000000000000000000000602082015250565b6000614d706024836132d5565b9150614d7b82614d14565b604082019050919050565b60006020820190508181036000830152614d9f81614d63565b9050919050565b7f4552433732313a20617070726f766520746f2063616c6c657200000000000000600082015250565b6000614ddc6019836132d5565b9150614de782614da6565b602082019050919050565b60006020820190508181036000830152614e0b81614dcf565b9050919050565b7f4552433732313a207472616e7366657220746f206e6f6e20455243373231526560008201527f63656976657220696d706c656d656e7465720000000000000000000000000000602082015250565b6000614e6e6032836132d5565b9150614e7982614e12565b604082019050919050565b60006020820190508181036000830152614e9d81614e61565b9050919050565b600081519050919050565b600082825260208201905092915050565b6000614ecb82614ea4565b614ed58185614eaf565b9350614ee58185602086016132e6565b614eee81613310565b840191505092915050565b6000608082019050614f0e6000830187613411565b614f1b6020830186613411565b614f286040830185613b15565b8181036060830152614f3a8184614ec0565b905095945050505050565b600081519050614f548161323b565b92915050565b600060208284031215614f7057614f6f613205565b5b6000614f7e84828501614f45565b91505092915050565b7f4552433732313a206d696e7420746f20746865207a65726f2061646472657373600082015250565b6000614fbd6020836132d5565b9150614fc882614f87565b602082019050919050565b60006020820190508181036000830152614fec81614fb0565b9050919050565b7f4552433732313a20746f6b656e20616c7265616479206d696e74656400000000600082015250565b6000615029601c836132d5565b915061503482614ff3565b602082019050919050565b600060208201905081810360008301526150588161501c565b905091905056fea26469706673582212206dd9307a898d8f9bc5f12c3f523b8f4026826bbb661abc1f4f3d6dfc2d06db0d64736f6c63430008130033",
  "immutableReferences": {},
  "source": "// SPDX-License-Identifier: UNLICENSED\npragma solidity ^0.8.0;\n\nimport \"@openzeppelin/contracts/token/ERC721/ERC721.sol\";\nimport \"@openzeppelin/contracts/utils/Counters.sol\";\n\ncontract FilmToken is ERC721 {\n    using Counters for Counters.Counter;\n    Counters.Counter public tokenIds;\n\n    struct Token {\n        string movieName;\n        uint256 tokenId;\n        uint256 basePrice;\n        string productionCompany;\n        address payable ownerAddr;\n        uint minTime;\n        uint maxTime;\n        uint apprPercent;\n        uint deprPercent;\n        uint baseDays;\n\n        bool resale;\n    }\n\n    Token[] allTokens;\n    address public admin;\n    mapping(uint256 => Token) public tokenIdToTokenMap;\n    mapping(address=>string) productionAddrToNameMap;\n    address [] allProdHouses;\n    mapping(string=>uint) nameTokenIdMap;\n    mapping(uint=>address) tokenIdToOwnerMap;\n\n    modifier duplicateProdHouse (address addr){\n        bool duplicate = bytes(productionAddrToNameMap[addr]).length > 0 ;\n        require(!duplicate,\"Duplicate Production House\");\n        _;\n    }\n\n    modifier onlyAdmin{\n        require(msg.sender == admin,\"Not an Admin, no access\");\n        _;\n    }\n\n    modifier validProdHouse(address addr){\n        bool duplicate = bytes(productionAddrToNameMap[addr]).length > 0 ;\n        require(duplicate,\"Not a registered production house\");\n        _;\n    }\n\n    modifier duplicateMovieToken(string memory name){ // self exp.\n        bool duplicate = false;\n        for(uint i=0;i<allTokens.length;i++){\n\n            if(keccak256(abi.encodePacked(allTokens[i].movieName)) == keccak256(abi.encodePacked(name))){\n                duplicate = true;break;\n            }\n        }\n\n        require(!duplicate,\"A token is already present for this movie\");\n        _;\n    }\n\n    modifier validMovieToken(string memory name){ // self exp.\n        bool duplicate = false;\n        for(uint i=0;i<allTokens.length;i++){\n\n            if(keccak256(abi.encodePacked(allTokens[i].movieName)) == keccak256(abi.encodePacked(name))){\n                duplicate = true;break;\n            }\n        }\n\n        require(duplicate,\"A token is not present for this movie\");\n        _;\n    }\n\n    modifier validMinMaxValues(uint min,uint max){ // min (both days and appr/depr, should be +ve\n        require(min<=max && min>0 && max>0,\"Invalid Min Max values\");\n        _;\n    }\n\n    modifier checkTokenOwner(uint tokenId){\n        require(tokenIdToOwnerMap[tokenId]==msg.sender,\"Not the owner of the token\");\n        _;\n    }\n\n    constructor() ERC721(\"MovieTokenization\",\"MVTK\"){\n        admin = msg.sender;\n    }\n\n    function registerProductionHouse(string memory name,address addr) public duplicateProdHouse(addr){\n        productionAddrToNameMap[addr] = name;\n        allProdHouses.push(addr);\n    }\n\n    function getAllProdHouses() public view returns (address[] memory) {\n        return allProdHouses;\n    }\n\n\n    event LogValue(uint256 value);\n\n    event LogString(string value);\n\n    event LogAddr(address value);\n    //all user inputted prices are considered as ETH, internally we convert everything again into wei and transact\n    function createMovieToken(string memory movieName, uint256 basePrice,uint baseDays, uint minTime,uint maxTime,uint apprPercent,uint deprPercent) public  duplicateMovieToken(movieName){\n        //check if the user is a registered prod house or not, handled in validProdHouse modifier\n        //check for duplicate token\n        //check if input values are valid\n        Token memory newToken = Token(movieName,tokenIds.current(),basePrice,productionAddrToNameMap[msg.sender],payable(msg.sender),minTime,maxTime,apprPercent,deprPercent,baseDays,true);\n        emit LogValue(basePrice);\n        emit LogString(\"In create\");\n        nameTokenIdMap[movieName] = tokenIds.current();\n        tokenIdToTokenMap[tokenIds.current()] = newToken;\n        tokenIdToOwnerMap[tokenIds.current()] = msg.sender;\n        _safeMint(msg.sender, tokenIds.current());\n        tokenIds.increment();\n        allTokens.push(newToken);\n\n\n    }\n\n\n\n    function buyMovieToken(uint dayss, string memory movieName) public payable validMovieToken(movieName){ //changed tokenId to movieName, as there's no visibility provided right now\n        //check if the movieName is valid, in modifier\n        //days can be +/-, - represents earlier, + later\n        uint tokenId = nameTokenIdMap[movieName];\n        Token memory token = tokenIdToTokenMap[tokenId];\n        require(token.resale == true, \"Resale is not allowed for this movie\");\n        // uint value = token.basePrice;// base price is already converted from eth->wei\n        uint minDays = token.minTime;\n        // uint maxDays = token.maxTime;\n        // uint baseDays = token.baseDays;\n\n        // uint finalValue = value;// case where dayss == baseDays\n\n\n        require(dayss >=minDays,\"Not allowed before min days\");\n\n        require(token.ownerAddr != msg.sender,\"You are already the owner\");\n        // if(dayss == baseDays){\n        //     finalValue = value; // do nothing case\n        // }else if(dayss>=minDays && dayss<baseDays ){//highest cost\n        //     finalValue += (finalValue/ token.apprPercent);\n        // }else if(dayss>baseDays && dayss<=maxDays){//second least\n        //     emit LogString(\"second least cost\");\n        //     finalValue -= (finalValue/ token.deprPercent);\n        // }else if(dayss>maxDays){//least most\n        //     emit LogString(\"Least cost\");\n        //     finalValue -= (finalValue/ token.deprPercent);\n        //     finalValue -= (finalValue/ token.deprPercent);\n        //     emit LogValue(finalValue);\n        // }\n\n\n        // emit LogValue(finalValue);\n\n        // emit LogValue(msg.value);\n\n\n        //get token owner and transfer ether\n        token.ownerAddr.transfer(msg.value); // failure of this reverts everything needn't explicitly handle for now, TODO: better, give a proper error message\n\n        //change ownership\n        token.ownerAddr = payable(msg.sender);\n        //also in map\n        tokenIdToOwnerMap[tokenId] = msg.sender;\n        //disable resale\n        token.resale  = false;\n        //change in token list\n        for(uint i=0;i<allTokens.length;i++){\n            if(allTokens[i].tokenId == tokenId){\n                emit LogString(\"Foundtoken match, id is\");\n                emit LogValue(tokenId);\n                allTokens[i].ownerAddr = payable(msg.sender);\n                allTokens[i].basePrice = msg.value/ (10**18);\n                //remap\n                tokenIdToTokenMap[tokenId] = allTokens[i];\n                emit LogAddr(allTokens[i].ownerAddr);\n            }else{\n                emit LogString(\"No match\");\n            }\n        }\n\n    }\n\n\n    function appreciateTokenValue(uint256 tokenId, uint value) public checkTokenOwner(tokenId){ //how will the user know tokenid, remember? give him visibility\n        tokenIdToTokenMap[tokenId].basePrice += (value * 10**18);//value is inputted as eth, changed to wei\n    }\n\n    function depreciateTokenValue(uint256 tokenId, uint value) public checkTokenOwner(tokenId){\n        tokenIdToTokenMap[tokenId].basePrice -=  (value * 10**18);\n    }\n\n    function enableOrDisableResale(uint tokenId) public checkTokenOwner(tokenId){\n        if(tokenIdToTokenMap[tokenId].resale == true){\n            tokenIdToTokenMap[tokenId].resale = false;\n        }else{\n            tokenIdToTokenMap[tokenId].resale = true;\n        }\n    }\n\n\n    function viewTokens() public view returns(Token[] memory){\n\n        Token[] memory result = new Token[](allTokens.length);\n        uint index = 0;\n        for(uint i=0;i<tokenIds.current();i++){ // no support to deleting tokens, so looping through all tokenids is equal to keys\n            result[index++]=tokenIdToTokenMap[i];\n            // if(tokenIdToTokenMap[i].ownerAddr == msg.sender){\n            //     result[index++]=tokenIdToTokenMap[i];\n            // }\n        }\n        return result;\n    }\n\n    function getAllTokenIds() public view returns (uint) {\n        return tokenIds.current();\n    }\n\n\n\n}",
  "sourcePath": "/Users/saisvasgudimalla/Documents/Nani/MS_CS_UB/Spring_2023/Blockchain/FilmToken-Dapp/FilmToken-contract/contracts/FilmToken.sol",
  "compiler": {
    "name": "solc",
    "version": "0.8.19+commit.7dd6d404.Emscripten.clang"
  },
  "schemaVersion": "3.4.13",
  "updatedAt": "2023-04-30T23:07:55.594Z",
  "networkType": "ethereum",
  "devdoc": {
    "events": {
      "Approval(address,address,uint256)": {
        "details": "Emitted when `owner` enables `approved` to manage the `tokenId` token."
      },
      "ApprovalForAll(address,address,bool)": {
        "details": "Emitted when `owner` enables or disables (`approved`) `operator` to manage all of its assets."
      },
      "Transfer(address,address,uint256)": {
        "details": "Emitted when `tokenId` token is transferred from `from` to `to`."
      }
    },
    "kind": "dev",
    "methods": {
      "approve(address,uint256)": {
        "details": "See {IERC721-approve}."
      },
      "balanceOf(address)": {
        "details": "See {IERC721-balanceOf}."
      },
      "getApproved(uint256)": {
        "details": "See {IERC721-getApproved}."
      },
      "isApprovedForAll(address,address)": {
        "details": "See {IERC721-isApprovedForAll}."
      },
      "name()": {
        "details": "See {IERC721Metadata-name}."
      },
      "ownerOf(uint256)": {
        "details": "See {IERC721-ownerOf}."
      },
      "safeTransferFrom(address,address,uint256)": {
        "details": "See {IERC721-safeTransferFrom}."
      },
      "safeTransferFrom(address,address,uint256,bytes)": {
        "details": "See {IERC721-safeTransferFrom}."
      },
      "setApprovalForAll(address,bool)": {
        "details": "See {IERC721-setApprovalForAll}."
      },
      "supportsInterface(bytes4)": {
        "details": "See {IERC165-supportsInterface}."
      },
      "symbol()": {
        "details": "See {IERC721Metadata-symbol}."
      },
      "tokenURI(uint256)": {
        "details": "See {IERC721Metadata-tokenURI}."
      },
      "transferFrom(address,address,uint256)": {
        "details": "See {IERC721-transferFrom}."
      }
    },
    "version": 1
  },
  "userdoc": {
    "kind": "user",
    "methods": {},
    "version": 1
  }
}