{
  "contractName": "FilmToken",
  "abi": [
    {
      "inputs": [],
      "stateMutability": "nonpayable",
      "type": "constructor"
    },
    {
      "anonymous": false,
      "inputs": [
        {
          "indexed": true,
          "internalType": "address",
          "name": "owner",
          "type": "address"
        },
        {
          "indexed": true,
          "internalType": "address",
          "name": "approved",
          "type": "address"
        },
        {
          "indexed": true,
          "internalType": "uint256",
          "name": "tokenId",
          "type": "uint256"
        }
      ],
      "name": "Approval",
      "type": "event"
    },
    {
      "anonymous": false,
      "inputs": [
        {
          "indexed": true,
          "internalType": "address",
          "name": "owner",
          "type": "address"
        },
        {
          "indexed": true,
          "internalType": "address",
          "name": "operator",
          "type": "address"
        },
        {
          "indexed": false,
          "internalType": "bool",
          "name": "approved",
          "type": "bool"
        }
      ],
      "name": "ApprovalForAll",
      "type": "event"
    },
    {
      "anonymous": false,
      "inputs": [
        {
          "indexed": true,
          "internalType": "address",
          "name": "from",
          "type": "address"
        },
        {
          "indexed": true,
          "internalType": "address",
          "name": "to",
          "type": "address"
        },
        {
          "indexed": true,
          "internalType": "uint256",
          "name": "tokenId",
          "type": "uint256"
        }
      ],
      "name": "Transfer",
      "type": "event"
    },
    {
      "anonymous": false,
      "inputs": [
        {
          "indexed": false,
          "internalType": "uint256",
          "name": "apprPrice",
          "type": "uint256"
        }
      ],
      "name": "moviePriceAppr",
      "type": "event"
    },
    {
      "anonymous": false,
      "inputs": [
        {
          "indexed": false,
          "internalType": "uint256",
          "name": "deprPrice",
          "type": "uint256"
        }
      ],
      "name": "moviePriceDepr",
      "type": "event"
    },
    {
      "anonymous": false,
      "inputs": [
        {
          "indexed": false,
          "internalType": "string",
          "name": "movieName",
          "type": "string"
        },
        {
          "indexed": false,
          "internalType": "bool",
          "name": "resale",
          "type": "bool"
        }
      ],
      "name": "movieResale",
      "type": "event"
    },
    {
      "anonymous": false,
      "inputs": [
        {
          "indexed": false,
          "internalType": "string",
          "name": "text",
          "type": "string"
        },
        {
          "indexed": false,
          "internalType": "string",
          "name": "name",
          "type": "string"
        }
      ],
      "name": "movieSold",
      "type": "event"
    },
    {
      "anonymous": false,
      "inputs": [
        {
          "indexed": false,
          "internalType": "string",
          "name": "text",
          "type": "string"
        },
        {
          "indexed": false,
          "internalType": "string",
          "name": "name",
          "type": "string"
        }
      ],
      "name": "newMovie",
      "type": "event"
    },
    {
      "anonymous": false,
      "inputs": [
        {
          "indexed": false,
          "internalType": "string",
          "name": "text",
          "type": "string"
        },
        {
          "indexed": false,
          "internalType": "string",
          "name": "prodName",
          "type": "string"
        }
      ],
      "name": "registerProdHouse",
      "type": "event"
    },
    {
      "inputs": [],
      "name": "admin",
      "outputs": [
        {
          "internalType": "address",
          "name": "",
          "type": "address"
        }
      ],
      "stateMutability": "view",
      "type": "function",
      "constant": true
    },
    {
      "inputs": [
        {
          "internalType": "address",
          "name": "to",
          "type": "address"
        },
        {
          "internalType": "uint256",
          "name": "tokenId",
          "type": "uint256"
        }
      ],
      "name": "approve",
      "outputs": [],
      "stateMutability": "nonpayable",
      "type": "function"
    },
    {
      "inputs": [
        {
          "internalType": "address",
          "name": "owner",
          "type": "address"
        }
      ],
      "name": "balanceOf",
      "outputs": [
        {
          "internalType": "uint256",
          "name": "",
          "type": "uint256"
        }
      ],
      "stateMutability": "view",
      "type": "function",
      "constant": true
    },
    {
      "inputs": [
        {
          "internalType": "uint256",
          "name": "tokenId",
          "type": "uint256"
        }
      ],
      "name": "getApproved",
      "outputs": [
        {
          "internalType": "address",
          "name": "",
          "type": "address"
        }
      ],
      "stateMutability": "view",
      "type": "function",
      "constant": true
    },
    {
      "inputs": [
        {
          "internalType": "address",
          "name": "owner",
          "type": "address"
        },
        {
          "internalType": "address",
          "name": "operator",
          "type": "address"
        }
      ],
      "name": "isApprovedForAll",
      "outputs": [
        {
          "internalType": "bool",
          "name": "",
          "type": "bool"
        }
      ],
      "stateMutability": "view",
      "type": "function",
      "constant": true
    },
    {
      "inputs": [],
      "name": "name",
      "outputs": [
        {
          "internalType": "string",
          "name": "",
          "type": "string"
        }
      ],
      "stateMutability": "view",
      "type": "function",
      "constant": true
    },
    {
      "inputs": [
        {
          "internalType": "uint256",
          "name": "tokenId",
          "type": "uint256"
        }
      ],
      "name": "ownerOf",
      "outputs": [
        {
          "internalType": "address",
          "name": "",
          "type": "address"
        }
      ],
      "stateMutability": "view",
      "type": "function",
      "constant": true
    },
    {
      "inputs": [
        {
          "internalType": "address",
          "name": "from",
          "type": "address"
        },
        {
          "internalType": "address",
          "name": "to",
          "type": "address"
        },
        {
          "internalType": "uint256",
          "name": "tokenId",
          "type": "uint256"
        }
      ],
      "name": "safeTransferFrom",
      "outputs": [],
      "stateMutability": "nonpayable",
      "type": "function"
    },
    {
      "inputs": [
        {
          "internalType": "address",
          "name": "from",
          "type": "address"
        },
        {
          "internalType": "address",
          "name": "to",
          "type": "address"
        },
        {
          "internalType": "uint256",
          "name": "tokenId",
          "type": "uint256"
        },
        {
          "internalType": "bytes",
          "name": "data",
          "type": "bytes"
        }
      ],
      "name": "safeTransferFrom",
      "outputs": [],
      "stateMutability": "nonpayable",
      "type": "function"
    },
    {
      "inputs": [
        {
          "internalType": "address",
          "name": "operator",
          "type": "address"
        },
        {
          "internalType": "bool",
          "name": "approved",
          "type": "bool"
        }
      ],
      "name": "setApprovalForAll",
      "outputs": [],
      "stateMutability": "nonpayable",
      "type": "function"
    },
    {
      "inputs": [
        {
          "internalType": "bytes4",
          "name": "interfaceId",
          "type": "bytes4"
        }
      ],
      "name": "supportsInterface",
      "outputs": [
        {
          "internalType": "bool",
          "name": "",
          "type": "bool"
        }
      ],
      "stateMutability": "view",
      "type": "function",
      "constant": true
    },
    {
      "inputs": [],
      "name": "symbol",
      "outputs": [
        {
          "internalType": "string",
          "name": "",
          "type": "string"
        }
      ],
      "stateMutability": "view",
      "type": "function",
      "constant": true
    },
    {
      "inputs": [
        {
          "internalType": "uint256",
          "name": "",
          "type": "uint256"
        }
      ],
      "name": "tokenIdToTokenMap",
      "outputs": [
        {
          "internalType": "string",
          "name": "movieName",
          "type": "string"
        },
        {
          "internalType": "uint256",
          "name": "tokenId",
          "type": "uint256"
        },
        {
          "internalType": "uint256",
          "name": "basePrice",
          "type": "uint256"
        },
        {
          "internalType": "string",
          "name": "productionCompany",
          "type": "string"
        },
        {
          "internalType": "address payable",
          "name": "ownerAddr",
          "type": "address"
        },
        {
          "internalType": "uint256",
          "name": "minTime",
          "type": "uint256"
        },
        {
          "internalType": "uint256",
          "name": "maxTime",
          "type": "uint256"
        },
        {
          "internalType": "uint256",
          "name": "apprPercent",
          "type": "uint256"
        },
        {
          "internalType": "uint256",
          "name": "deprPercent",
          "type": "uint256"
        },
        {
          "internalType": "uint256",
          "name": "baseDays",
          "type": "uint256"
        },
        {
          "internalType": "bool",
          "name": "resale",
          "type": "bool"
        }
      ],
      "stateMutability": "view",
      "type": "function",
      "constant": true
    },
    {
      "inputs": [],
      "name": "tokenIds",
      "outputs": [
        {
          "internalType": "uint256",
          "name": "_value",
          "type": "uint256"
        }
      ],
      "stateMutability": "view",
      "type": "function",
      "constant": true
    },
    {
      "inputs": [
        {
          "internalType": "uint256",
          "name": "tokenId",
          "type": "uint256"
        }
      ],
      "name": "tokenURI",
      "outputs": [
        {
          "internalType": "string",
          "name": "",
          "type": "string"
        }
      ],
      "stateMutability": "view",
      "type": "function",
      "constant": true
    },
    {
      "inputs": [
        {
          "internalType": "address",
          "name": "from",
          "type": "address"
        },
        {
          "internalType": "address",
          "name": "to",
          "type": "address"
        },
        {
          "internalType": "uint256",
          "name": "tokenId",
          "type": "uint256"
        }
      ],
      "name": "transferFrom",
      "outputs": [],
      "stateMutability": "nonpayable",
      "type": "function"
    },
    {
      "inputs": [
        {
          "internalType": "string",
          "name": "name",
          "type": "string"
        },
        {
          "internalType": "address",
          "name": "addr",
          "type": "address"
        }
      ],
      "name": "registerProductionHouse",
      "outputs": [],
      "stateMutability": "nonpayable",
      "type": "function"
    },
    {
      "inputs": [],
      "name": "getAllProdHouses",
      "outputs": [
        {
          "internalType": "address[]",
          "name": "",
          "type": "address[]"
        }
      ],
      "stateMutability": "view",
      "type": "function",
      "constant": true
    },
    {
      "inputs": [
        {
          "internalType": "string",
          "name": "movieName",
          "type": "string"
        },
        {
          "internalType": "uint256",
          "name": "basePrice",
          "type": "uint256"
        },
        {
          "internalType": "uint256",
          "name": "baseDays",
          "type": "uint256"
        },
        {
          "internalType": "uint256",
          "name": "minTime",
          "type": "uint256"
        },
        {
          "internalType": "uint256",
          "name": "maxTime",
          "type": "uint256"
        },
        {
          "internalType": "uint256",
          "name": "apprPercent",
          "type": "uint256"
        },
        {
          "internalType": "uint256",
          "name": "deprPercent",
          "type": "uint256"
        }
      ],
      "name": "createMovieToken",
      "outputs": [],
      "stateMutability": "nonpayable",
      "type": "function"
    },
    {
      "inputs": [
        {
          "internalType": "uint256",
          "name": "dayss",
          "type": "uint256"
        },
        {
          "internalType": "string",
          "name": "movieName",
          "type": "string"
        }
      ],
      "name": "buyMovieToken",
      "outputs": [],
      "stateMutability": "payable",
      "type": "function",
      "payable": true
    },
    {
      "inputs": [
        {
          "internalType": "uint256",
          "name": "tokenId",
          "type": "uint256"
        },
        {
          "internalType": "uint256",
          "name": "value",
          "type": "uint256"
        }
      ],
      "name": "appreciateTokenValue",
      "outputs": [],
      "stateMutability": "nonpayable",
      "type": "function"
    },
    {
      "inputs": [
        {
          "internalType": "uint256",
          "name": "tokenId",
          "type": "uint256"
        },
        {
          "internalType": "uint256",
          "name": "value",
          "type": "uint256"
        }
      ],
      "name": "depreciateTokenValue",
      "outputs": [],
      "stateMutability": "nonpayable",
      "type": "function"
    },
    {
      "inputs": [
        {
          "internalType": "uint256",
          "name": "tokenId",
          "type": "uint256"
        }
      ],
      "name": "enableOrDisableResale",
      "outputs": [],
      "stateMutability": "nonpayable",
      "type": "function"
    },
    {
      "inputs": [],
      "name": "viewTokens",
      "outputs": [
        {
          "components": [
            {
              "internalType": "string",
              "name": "movieName",
              "type": "string"
            },
            {
              "internalType": "uint256",
              "name": "tokenId",
              "type": "uint256"
            },
            {
              "internalType": "uint256",
              "name": "basePrice",
              "type": "uint256"
            },
            {
              "internalType": "string",
              "name": "productionCompany",
              "type": "string"
            },
            {
              "internalType": "address payable",
              "name": "ownerAddr",
              "type": "address"
            },
            {
              "internalType": "uint256",
              "name": "minTime",
              "type": "uint256"
            },
            {
              "internalType": "uint256",
              "name": "maxTime",
              "type": "uint256"
            },
            {
              "internalType": "uint256",
              "name": "apprPercent",
              "type": "uint256"
            },
            {
              "internalType": "uint256",
              "name": "deprPercent",
              "type": "uint256"
            },
            {
              "internalType": "uint256",
              "name": "baseDays",
              "type": "uint256"
            },
            {
              "internalType": "bool",
              "name": "resale",
              "type": "bool"
            }
          ],
          "internalType": "struct FilmToken.Token[]",
          "name": "",
          "type": "tuple[]"
        }
      ],
      "stateMutability": "view",
      "type": "function",
      "constant": true
    },
    {
      "inputs": [],
      "name": "viewMyTokens",
      "outputs": [
        {
          "components": [
            {
              "internalType": "string",
              "name": "movieName",
              "type": "string"
            },
            {
              "internalType": "uint256",
              "name": "tokenId",
              "type": "uint256"
            },
            {
              "internalType": "uint256",
              "name": "basePrice",
              "type": "uint256"
            },
            {
              "internalType": "string",
              "name": "productionCompany",
              "type": "string"
            },
            {
              "internalType": "address payable",
              "name": "ownerAddr",
              "type": "address"
            },
            {
              "internalType": "uint256",
              "name": "minTime",
              "type": "uint256"
            },
            {
              "internalType": "uint256",
              "name": "maxTime",
              "type": "uint256"
            },
            {
              "internalType": "uint256",
              "name": "apprPercent",
              "type": "uint256"
            },
            {
              "internalType": "uint256",
              "name": "deprPercent",
              "type": "uint256"
            },
            {
              "internalType": "uint256",
              "name": "baseDays",
              "type": "uint256"
            },
            {
              "internalType": "bool",
              "name": "resale",
              "type": "bool"
            }
          ],
          "internalType": "struct FilmToken.Token[]",
          "name": "",
          "type": "tuple[]"
        }
      ],
      "stateMutability": "view",
      "type": "function",
      "constant": true
    },
    {
      "inputs": [],
      "name": "getAllTokenIds",
      "outputs": [
        {
          "internalType": "uint256",
          "name": "",
          "type": "uint256"
        }
      ],
      "stateMutability": "view",
      "type": "function",
      "constant": true
    }
  ],
  "bytecode": "0x60806040523480156200001157600080fd5b506040518060400160405280601181526020017f4d6f766965546f6b656e697a6174696f6e0000000000000000000000000000008152506040518060400160405280600481526020017f4d56544b0000000000000000000000000000000000000000000000000000000081525081600090816200008f919062000365565b508060019081620000a1919062000365565b50505033600860006101000a81548173ffffffffffffffffffffffffffffffffffffffff021916908373ffffffffffffffffffffffffffffffffffffffff1602179055506200044c565b600081519050919050565b7f4e487b7100000000000000000000000000000000000000000000000000000000600052604160045260246000fd5b7f4e487b7100000000000000000000000000000000000000000000000000000000600052602260045260246000fd5b600060028204905060018216806200016d57607f821691505b60208210810362000183576200018262000125565b5b50919050565b60008190508160005260206000209050919050565b60006020601f8301049050919050565b600082821b905092915050565b600060088302620001ed7fffffffffffffffffffffffffffffffffffffffffffffffffffffffffffffffff82620001ae565b620001f98683620001ae565b95508019841693508086168417925050509392505050565b6000819050919050565b6000819050919050565b600062000246620002406200023a8462000211565b6200021b565b62000211565b9050919050565b6000819050919050565b620002628362000225565b6200027a62000271826200024d565b848454620001bb565b825550505050565b600090565b6200029162000282565b6200029e81848462000257565b505050565b5b81811015620002c657620002ba60008262000287565b600181019050620002a4565b5050565b601f8211156200031557620002df8162000189565b620002ea846200019e565b81016020851015620002fa578190505b6200031262000309856200019e565b830182620002a3565b50505b505050565b600082821c905092915050565b60006200033a600019846008026200031a565b1980831691505092915050565b600062000355838362000327565b9150826002028217905092915050565b6200037082620000eb565b67ffffffffffffffff8111156200038c576200038b620000f6565b5b62000398825462000154565b620003a5828285620002ca565b600060209050601f831160018114620003dd5760008415620003c8578287015190505b620003d4858262000347565b86555062000444565b601f198416620003ed8662000189565b60005b828110156200041757848901518255600182019150602085019450602081019050620003f0565b8683101562000437578489015162000433601f89168262000327565b8355505b6001600288020188555050505b505050505050565b61565b806200045c6000396000f3fe6080604052600436106101815760003560e01c8063714cff56116100d1578063c3aee7361161008a578063dd7072f611610064578063dd7072f61461058f578063e985e9c5146105b8578063f851a440146105f5578063f907b4a61461062057610181565b8063c3aee736146104e2578063c87b56dd14610529578063ca99cc3e1461056657610181565b8063714cff56146103e457806395d89b411461040f578063a22cb4651461043a578063a5b1265314610463578063b88d4fde1461048e578063bdbed722146104b757610181565b806342842e0e1161013e57806357a3106b1161011857806357a3106b146103255780636352211e146103415780636e323c501461037e57806370a08231146103a757610181565b806342842e0e146102a65780634bf5bf35146102cf5780634d129205146102fa57610181565b806301ffc9a71461018657806306fdde03146101c3578063081812fc146101ee578063095ea7b31461022b57806323b872dd1461025457806337c4f4671461027d575b600080fd5b34801561019257600080fd5b506101ad60048036038101906101a8919061378a565b610649565b6040516101ba91906137d2565b60405180910390f35b3480156101cf57600080fd5b506101d861072b565b6040516101e5919061387d565b60405180910390f35b3480156101fa57600080fd5b50610215600480360381019061021091906138d5565b6107bd565b6040516102229190613943565b60405180910390f35b34801561023757600080fd5b50610252600480360381019061024d919061398a565b610803565b005b34801561026057600080fd5b5061027b600480360381019061027691906139ca565b61091a565b005b34801561028957600080fd5b506102a4600480360381019061029f9190613b52565b61097a565b005b3480156102b257600080fd5b506102cd60048036038101906102c891906139ca565b610afb565b005b3480156102db57600080fd5b506102e4610b1b565b6040516102f19190613def565b60405180910390f35b34801561030657600080fd5b5061030f610dcf565b60405161031c9190613ecf565b60405180910390f35b61033f600480360381019061033a9190613ef1565b610e5d565b005b34801561034d57600080fd5b50610368600480360381019061036391906138d5565b6115d8565b6040516103759190613943565b60405180910390f35b34801561038a57600080fd5b506103a560048036038101906103a09190613f4d565b61165e565b005b3480156103b357600080fd5b506103ce60048036038101906103c9919061400b565b611c00565b6040516103db9190614047565b60405180910390f35b3480156103f057600080fd5b506103f9611cb7565b6040516104069190614047565b60405180910390f35b34801561041b57600080fd5b50610424611cc3565b604051610431919061387d565b60405180910390f35b34801561044657600080fd5b50610461600480360381019061045c919061408e565b611d55565b005b34801561046f57600080fd5b50610478611d6b565b6040516104859190613def565b60405180910390f35b34801561049a57600080fd5b506104b560048036038101906104b0919061416f565b6122ad565b005b3480156104c357600080fd5b506104cc61230f565b6040516104d99190614047565b60405180910390f35b3480156104ee57600080fd5b50610509600480360381019061050491906138d5565b612320565b6040516105209b9a99989796959493929190614201565b60405180910390f35b34801561053557600080fd5b50610550600480360381019061054b91906138d5565b6124b7565b60405161055d919061387d565b60405180910390f35b34801561057257600080fd5b5061058d600480360381019061058891906138d5565b61251f565b005b34801561059b57600080fd5b506105b660048036038101906105b191906142ba565b612658565b005b3480156105c457600080fd5b506105df60048036038101906105da91906142fa565b61272c565b6040516105ec91906137d2565b60405180910390f35b34801561060157600080fd5b5061060a6127c0565b6040516106179190613943565b60405180910390f35b34801561062c57600080fd5b50610647600480360381019061064291906142ba565b6127e6565b005b60007f80ac58cd000000000000000000000000000000000000000000000000000000007bffffffffffffffffffffffffffffffffffffffffffffffffffffffff1916827bffffffffffffffffffffffffffffffffffffffffffffffffffffffff1916148061071457507f5b5e139f000000000000000000000000000000000000000000000000000000007bffffffffffffffffffffffffffffffffffffffffffffffffffffffff1916827bffffffffffffffffffffffffffffffffffffffffffffffffffffffff1916145b806107245750610723826128ba565b5b9050919050565b60606000805461073a90614369565b80601f016020809104026020016040519081016040528092919081815260200182805461076690614369565b80156107b35780601f10610788576101008083540402835291602001916107b3565b820191906000526020600020905b81548152906001019060200180831161079657829003601f168201915b5050505050905090565b60006107c882612924565b6004600083815260200190815260200160002060009054906101000a900473ffffffffffffffffffffffffffffffffffffffff169050919050565b600061080e826115d8565b90508073ffffffffffffffffffffffffffffffffffffffff168373ffffffffffffffffffffffffffffffffffffffff160361087e576040517f08c379a00000000000000000000000000000000000000000000000000000000081526004016108759061440c565b60405180910390fd5b8073ffffffffffffffffffffffffffffffffffffffff1661089d61296f565b73ffffffffffffffffffffffffffffffffffffffff1614806108cc57506108cb816108c661296f565b61272c565b5b61090b576040517f08c379a00000000000000000000000000000000000000000000000000000000081526004016109029061449e565b60405180910390fd5b6109158383612977565b505050565b61092b61092561296f565b82612a30565b61096a576040517f08c379a000000000000000000000000000000000000000000000000000000000815260040161096190614530565b60405180910390fd5b610975838383612ac5565b505050565b80600080600a60008473ffffffffffffffffffffffffffffffffffffffff1673ffffffffffffffffffffffffffffffffffffffff16815260200190815260200160002080546109c890614369565b90501190508015610a0e576040517f08c379a0000000000000000000000000000000000000000000000000000000008152600401610a059061459c565b60405180910390fd5b83600a60008573ffffffffffffffffffffffffffffffffffffffff1673ffffffffffffffffffffffffffffffffffffffff1681526020019081526020016000209081610a5a9190614768565b50600b839080600181540180825580915050600190039060005260206000200160009091909190916101000a81548173ffffffffffffffffffffffffffffffffffffffff021916908373ffffffffffffffffffffffffffffffffffffffff1602179055507f2bb3a1513a579025583749502d345d574e4dbcf7ab08428e84ead2e2cb1f033a84604051610aed9190614886565b60405180910390a150505050565b610b16838383604051806020016040528060008152506122ad565b505050565b6060600060078054905067ffffffffffffffff811115610b3e57610b3d613a27565b5b604051908082528060200260200182016040528015610b7757816020015b610b646136ac565b815260200190600190039081610b5c5790505b5090506000805b610b886006612dbe565b811015610dc6576009600082815260200190815260200160002060405180610160016040529081600082018054610bbe90614369565b80601f0160208091040260200160405190810160405280929190818152602001828054610bea90614369565b8015610c375780601f10610c0c57610100808354040283529160200191610c37565b820191906000526020600020905b815481529060010190602001808311610c1a57829003601f168201915b505050505081526020016001820154815260200160028201548152602001600382018054610c6490614369565b80601f0160208091040260200160405190810160405280929190818152602001828054610c9090614369565b8015610cdd5780601f10610cb257610100808354040283529160200191610cdd565b820191906000526020600020905b815481529060010190602001808311610cc057829003601f168201915b505050505081526020016004820160009054906101000a900473ffffffffffffffffffffffffffffffffffffffff1673ffffffffffffffffffffffffffffffffffffffff1673ffffffffffffffffffffffffffffffffffffffff1681526020016005820154815260200160068201548152602001600782015481526020016008820154815260200160098201548152602001600a820160009054906101000a900460ff161515151581525050838380610d95906148ea565b945081518110610da857610da7614932565b5b60200260200101819052508080610dbe906148ea565b915050610b7e565b50819250505090565b6060600b805480602002602001604051908101604052809291908181526020018280548015610e5357602002820191906000526020600020905b8160009054906101000a900473ffffffffffffffffffffffffffffffffffffffff1673ffffffffffffffffffffffffffffffffffffffff1681526020019060010190808311610e09575b5050505050905090565b806000805b600780549050811015610f025782604051602001610e80919061499d565b6040516020818303038152906040528051906020012060078281548110610eaa57610ea9614932565b5b90600052602060002090600b0201600001604051602001610ecb9190614a37565b6040516020818303038152906040528051906020012003610eef5760019150610f02565b8080610efa906148ea565b915050610e62565b5080610f43576040517f08c379a0000000000000000000000000000000000000000000000000000000008152600401610f3a90614ac0565b60405180910390fd5b6000600c84604051610f55919061499d565b908152602001604051809103902054905060006009600083815260200190815260200160002060405180610160016040529081600082018054610f9790614369565b80601f0160208091040260200160405190810160405280929190818152602001828054610fc390614369565b80156110105780601f10610fe557610100808354040283529160200191611010565b820191906000526020600020905b815481529060010190602001808311610ff357829003601f168201915b50505050508152602001600182015481526020016002820154815260200160038201805461103d90614369565b80601f016020809104026020016040519081016040528092919081815260200182805461106990614369565b80156110b65780601f1061108b576101008083540402835291602001916110b6565b820191906000526020600020905b81548152906001019060200180831161109957829003601f168201915b505050505081526020016004820160009054906101000a900473ffffffffffffffffffffffffffffffffffffffff1673ffffffffffffffffffffffffffffffffffffffff1673ffffffffffffffffffffffffffffffffffffffff1681526020016005820154815260200160068201548152602001600782015481526020016008820154815260200160098201548152602001600a820160009054906101000a900460ff1615151515815250509050600115158161014001511515146111b0576040517f08c379a00000000000000000000000000000000000000000000000000000000081526004016111a790614b52565b60405180910390fd5b60008160a001519050808710156111fc576040517f08c379a00000000000000000000000000000000000000000000000000000000081526004016111f390614bbe565b60405180910390fd5b3373ffffffffffffffffffffffffffffffffffffffff16826080015173ffffffffffffffffffffffffffffffffffffffff160361126e576040517f08c379a000000000000000000000000000000000000000000000000000000000815260040161126590614c2a565b60405180910390fd5b816080015173ffffffffffffffffffffffffffffffffffffffff166108fc349081150290604051600060405180830381858888f193505050501580156112b8573d6000803e3d6000fd5b5033826080019073ffffffffffffffffffffffffffffffffffffffff16908173ffffffffffffffffffffffffffffffffffffffff168152505033600d600085815260200190815260200160002060006101000a81548173ffffffffffffffffffffffffffffffffffffffff021916908373ffffffffffffffffffffffffffffffffffffffff16021790555060008261014001901515908115158152505060005b60078054905081101561158257836007828154811061137a57611379614932565b5b90600052602060002090600b0201600101540361156f5733600782815481106113a6576113a5614932565b5b90600052602060002090600b020160040160006101000a81548173ffffffffffffffffffffffffffffffffffffffff021916908373ffffffffffffffffffffffffffffffffffffffff160217905550670de0b6b3a7640000346114099190614c79565b6007828154811061141d5761141c614932565b5b90600052602060002090600b0201600201819055506007818154811061144657611445614932565b5b90600052602060002090600b0201600960008681526020019081526020016000206000820181600001908161147b9190614cc0565b506001820154816001015560028201548160020155600382018160030190816114a49190614cc0565b506004820160009054906101000a900473ffffffffffffffffffffffffffffffffffffffff168160040160006101000a81548173ffffffffffffffffffffffffffffffffffffffff021916908373ffffffffffffffffffffffffffffffffffffffff1602179055506005820154816005015560068201548160060155600782015481600701556008820154816008015560098201548160090155600a820160009054906101000a900460ff1681600a0160006101000a81548160ff0219169083151502179055509050505b808061157a906148ea565b915050611358565b507f112adc329b821d5bf004f7d3ab3d01cf7521a6da372de0a75302a5155ec186c8600960008581526020019081526020016000206000016040516115c79190614e78565b60405180910390a150505050505050565b6000806115e483612dcc565b9050600073ffffffffffffffffffffffffffffffffffffffff168173ffffffffffffffffffffffffffffffffffffffff1603611655576040517f08c379a000000000000000000000000000000000000000000000000000000000815260040161164c90614ef9565b60405180910390fd5b80915050919050565b33600080600a60008473ffffffffffffffffffffffffffffffffffffffff1673ffffffffffffffffffffffffffffffffffffffff16815260200190815260200160002080546116ac90614369565b9050119050806116f1576040517f08c379a00000000000000000000000000000000000000000000000000000000081526004016116e890614f8b565b60405180910390fd5b886000805b6007805490508110156117965782604051602001611714919061499d565b604051602081830303815290604052805190602001206007828154811061173e5761173d614932565b5b90600052602060002090600b020160000160405160200161175f9190614a37565b60405160208183030381529060405280519060200120036117835760019150611796565b808061178e906148ea565b9150506116f6565b5080156117d8576040517f08c379a00000000000000000000000000000000000000000000000000000000081526004016117cf9061501d565b60405180910390fd5b60006040518061016001604052808d81526020016117f66006612dbe565b81526020018c8152602001600a60003373ffffffffffffffffffffffffffffffffffffffff1673ffffffffffffffffffffffffffffffffffffffff168152602001908152602001600020805461184b90614369565b80601f016020809104026020016040519081016040528092919081815260200182805461187790614369565b80156118c45780601f10611899576101008083540402835291602001916118c4565b820191906000526020600020905b8154815290600101906020018083116118a757829003601f168201915b505050505081526020013373ffffffffffffffffffffffffffffffffffffffff1681526020018a81526020018981526020018881526020018781526020018b815260200160011515815250905061191b6006612dbe565b600c8d60405161192b919061499d565b908152602001604051809103902081905550806009600061194c6006612dbe565b8152602001908152602001600020600082015181600001908161196f9190614768565b50602082015181600101556040820151816002015560608201518160030190816119999190614768565b5060808201518160040160006101000a81548173ffffffffffffffffffffffffffffffffffffffff021916908373ffffffffffffffffffffffffffffffffffffffff16021790555060a0820151816005015560c0820151816006015560e082015181600701556101008201518160080155610120820151816009015561014082015181600a0160006101000a81548160ff02191690831515021790555090505033600d6000611a486006612dbe565b815260200190815260200160002060006101000a81548173ffffffffffffffffffffffffffffffffffffffff021916908373ffffffffffffffffffffffffffffffffffffffff160217905550611aa733611aa26006612dbe565b612e09565b611ab16006612e27565b60078190806001815401808255809150506001900390600052602060002090600b02016000909190919091506000820151816000019081611af29190614768565b5060208201518160010155604082015181600201556060820151816003019081611b1c9190614768565b5060808201518160040160006101000a81548173ffffffffffffffffffffffffffffffffffffffff021916908373ffffffffffffffffffffffffffffffffffffffff16021790555060a0820151816005015560c0820151816006015560e082015181600701556101008201518160080155610120820151816009015561014082015181600a0160006101000a81548160ff02191690831515021790555050507fe976ad4d65062cf6468ebac99553241df5e7695edd0d740d123c97dd10ebcca98c604051611bea9190615089565b60405180910390a1505050505050505050505050565b60008073ffffffffffffffffffffffffffffffffffffffff168273ffffffffffffffffffffffffffffffffffffffff1603611c70576040517f08c379a0000000000000000000000000000000000000000000000000000000008152600401611c6790615130565b60405180910390fd5b600360008373ffffffffffffffffffffffffffffffffffffffff1673ffffffffffffffffffffffffffffffffffffffff168152602001908152602001600020549050919050565b60068060000154905081565b606060018054611cd290614369565b80601f0160208091040260200160405190810160405280929190818152602001828054611cfe90614369565b8015611d4b5780601f10611d2057610100808354040283529160200191611d4b565b820191906000526020600020905b815481529060010190602001808311611d2e57829003601f168201915b5050505050905090565b611d67611d6061296f565b8383612e3d565b5050565b6060600060078054905067ffffffffffffffff811115611d8e57611d8d613a27565b5b604051908082528060200260200182016040528015611dc757816020015b611db46136ac565b815260200190600190039081611dac5790505b5090506000805b611dd86006612dbe565b8110156122a4576009600082815260200190815260200160002060405180610160016040529081600082018054611e0e90614369565b80601f0160208091040260200160405190810160405280929190818152602001828054611e3a90614369565b8015611e875780601f10611e5c57610100808354040283529160200191611e87565b820191906000526020600020905b815481529060010190602001808311611e6a57829003601f168201915b505050505081526020016001820154815260200160028201548152602001600382018054611eb490614369565b80601f0160208091040260200160405190810160405280929190818152602001828054611ee090614369565b8015611f2d5780601f10611f0257610100808354040283529160200191611f2d565b820191906000526020600020905b815481529060010190602001808311611f1057829003601f168201915b505050505081526020016004820160009054906101000a900473ffffffffffffffffffffffffffffffffffffffff1673ffffffffffffffffffffffffffffffffffffffff1673ffffffffffffffffffffffffffffffffffffffff1681526020016005820154815260200160068201548152602001600782015481526020016008820154815260200160098201548152602001600a820160009054906101000a900460ff161515151581525050838380611fe5906148ea565b945081518110611ff857611ff7614932565b5b60200260200101819052503373ffffffffffffffffffffffffffffffffffffffff166009600083815260200190815260200160002060040160009054906101000a900473ffffffffffffffffffffffffffffffffffffffff1673ffffffffffffffffffffffffffffffffffffffff160361229157600960008281526020019081526020016000206040518061016001604052908160008201805461209b90614369565b80601f01602080910402602001604051908101604052809291908181526020018280546120c790614369565b80156121145780601f106120e957610100808354040283529160200191612114565b820191906000526020600020905b8154815290600101906020018083116120f757829003601f168201915b50505050508152602001600182015481526020016002820154815260200160038201805461214190614369565b80601f016020809104026020016040519081016040528092919081815260200182805461216d90614369565b80156121ba5780601f1061218f576101008083540402835291602001916121ba565b820191906000526020600020905b81548152906001019060200180831161219d57829003601f168201915b505050505081526020016004820160009054906101000a900473ffffffffffffffffffffffffffffffffffffffff1673ffffffffffffffffffffffffffffffffffffffff1673ffffffffffffffffffffffffffffffffffffffff1681526020016005820154815260200160068201548152602001600782015481526020016008820154815260200160098201548152602001600a820160009054906101000a900460ff161515151581525050838380612272906148ea565b94508151811061228557612284614932565b5b60200260200101819052505b808061229c906148ea565b915050611dce565b50819250505090565b6122be6122b861296f565b83612a30565b6122fd576040517f08c379a00000000000000000000000000000000000000000000000000000000081526004016122f490614530565b60405180910390fd5b61230984848484612fa9565b50505050565b600061231b6006612dbe565b905090565b600960205280600052604060002060009150905080600001805461234390614369565b80601f016020809104026020016040519081016040528092919081815260200182805461236f90614369565b80156123bc5780601f10612391576101008083540402835291602001916123bc565b820191906000526020600020905b81548152906001019060200180831161239f57829003601f168201915b5050505050908060010154908060020154908060030180546123dd90614369565b80601f016020809104026020016040519081016040528092919081815260200182805461240990614369565b80156124565780601f1061242b57610100808354040283529160200191612456565b820191906000526020600020905b81548152906001019060200180831161243957829003601f168201915b5050505050908060040160009054906101000a900473ffffffffffffffffffffffffffffffffffffffff169080600501549080600601549080600701549080600801549080600901549080600a0160009054906101000a900460ff1690508b565b60606124c282612924565b60006124cc613005565b905060008151116124ec5760405180602001604052806000815250612517565b806124f68461301c565b604051602001612507929190615150565b6040516020818303038152906040525b915050919050565b803373ffffffffffffffffffffffffffffffffffffffff16600d600083815260200190815260200160002060009054906101000a900473ffffffffffffffffffffffffffffffffffffffff1673ffffffffffffffffffffffffffffffffffffffff16146125c1576040517f08c379a00000000000000000000000000000000000000000000000000000000081526004016125b8906151c0565b60405180910390fd5b6001151560096000848152602001908152602001600020600a0160009054906101000a900460ff1615150361262457600060096000848152602001908152602001600020600a0160006101000a81548160ff021916908315150217905550612654565b600160096000848152602001908152602001600020600a0160006101000a81548160ff0219169083151502179055505b5050565b813373ffffffffffffffffffffffffffffffffffffffff16600d600083815260200190815260200160002060009054906101000a900473ffffffffffffffffffffffffffffffffffffffff1673ffffffffffffffffffffffffffffffffffffffff16146126fa576040517f08c379a00000000000000000000000000000000000000000000000000000000081526004016126f1906151c0565b60405180910390fd5b8160096000858152602001908152602001600020600201600082825461272091906151e0565b92505081905550505050565b6000600560008473ffffffffffffffffffffffffffffffffffffffff1673ffffffffffffffffffffffffffffffffffffffff16815260200190815260200160002060008373ffffffffffffffffffffffffffffffffffffffff1673ffffffffffffffffffffffffffffffffffffffff16815260200190815260200160002060009054906101000a900460ff16905092915050565b600860009054906101000a900473ffffffffffffffffffffffffffffffffffffffff1681565b813373ffffffffffffffffffffffffffffffffffffffff16600d600083815260200190815260200160002060009054906101000a900473ffffffffffffffffffffffffffffffffffffffff1673ffffffffffffffffffffffffffffffffffffffff1614612888576040517f08c379a000000000000000000000000000000000000000000000000000000000815260040161287f906151c0565b60405180910390fd5b816009600085815260200190815260200160002060020160008282546128ae9190615214565b92505081905550505050565b60007f01ffc9a7000000000000000000000000000000000000000000000000000000007bffffffffffffffffffffffffffffffffffffffffffffffffffffffff1916827bffffffffffffffffffffffffffffffffffffffffffffffffffffffff1916149050919050565b61292d816130ea565b61296c576040517f08c379a000000000000000000000000000000000000000000000000000000000815260040161296390614ef9565b60405180910390fd5b50565b600033905090565b816004600083815260200190815260200160002060006101000a81548173ffffffffffffffffffffffffffffffffffffffff021916908373ffffffffffffffffffffffffffffffffffffffff160217905550808273ffffffffffffffffffffffffffffffffffffffff166129ea836115d8565b73ffffffffffffffffffffffffffffffffffffffff167f8c5be1e5ebec7d5bd14f71427d1e84f3dd0314c0f7b2291e5b200ac8c7c3b92560405160405180910390a45050565b600080612a3c836115d8565b90508073ffffffffffffffffffffffffffffffffffffffff168473ffffffffffffffffffffffffffffffffffffffff161480612a7e5750612a7d818561272c565b5b80612abc57508373ffffffffffffffffffffffffffffffffffffffff16612aa4846107bd565b73ffffffffffffffffffffffffffffffffffffffff16145b91505092915050565b8273ffffffffffffffffffffffffffffffffffffffff16612ae5826115d8565b73ffffffffffffffffffffffffffffffffffffffff1614612b3b576040517f08c379a0000000000000000000000000000000000000000000000000000000008152600401612b32906152ba565b60405180910390fd5b600073ffffffffffffffffffffffffffffffffffffffff168273ffffffffffffffffffffffffffffffffffffffff1603612baa576040517f08c379a0000000000000000000000000000000000000000000000000000000008152600401612ba19061534c565b60405180910390fd5b612bb7838383600161312b565b8273ffffffffffffffffffffffffffffffffffffffff16612bd7826115d8565b73ffffffffffffffffffffffffffffffffffffffff1614612c2d576040517f08c379a0000000000000000000000000000000000000000000000000000000008152600401612c24906152ba565b60405180910390fd5b6004600082815260200190815260200160002060006101000a81549073ffffffffffffffffffffffffffffffffffffffff02191690556001600360008573ffffffffffffffffffffffffffffffffffffffff1673ffffffffffffffffffffffffffffffffffffffff168152602001908152602001600020600082825403925050819055506001600360008473ffffffffffffffffffffffffffffffffffffffff1673ffffffffffffffffffffffffffffffffffffffff16815260200190815260200160002060008282540192505081905550816002600083815260200190815260200160002060006101000a81548173ffffffffffffffffffffffffffffffffffffffff021916908373ffffffffffffffffffffffffffffffffffffffff160217905550808273ffffffffffffffffffffffffffffffffffffffff168473ffffffffffffffffffffffffffffffffffffffff167fddf252ad1be2c89b69c2b068fc378daa952ba7f163c4a11628f55a4df523b3ef60405160405180910390a4612db98383836001613131565b505050565b600081600001549050919050565b60006002600083815260200190815260200160002060009054906101000a900473ffffffffffffffffffffffffffffffffffffffff169050919050565b612e23828260405180602001604052806000815250613137565b5050565b6001816000016000828254019250508190555050565b8173ffffffffffffffffffffffffffffffffffffffff168373ffffffffffffffffffffffffffffffffffffffff1603612eab576040517f08c379a0000000000000000000000000000000000000000000000000000000008152600401612ea2906153b8565b60405180910390fd5b80600560008573ffffffffffffffffffffffffffffffffffffffff1673ffffffffffffffffffffffffffffffffffffffff16815260200190815260200160002060008473ffffffffffffffffffffffffffffffffffffffff1673ffffffffffffffffffffffffffffffffffffffff16815260200190815260200160002060006101000a81548160ff0219169083151502179055508173ffffffffffffffffffffffffffffffffffffffff168373ffffffffffffffffffffffffffffffffffffffff167f17307eab39ab6107e8899845ad3d59bd9653f200f220920489ca2b5937696c3183604051612f9c91906137d2565b60405180910390a3505050565b612fb4848484612ac5565b612fc084848484613192565b612fff576040517f08c379a0000000000000000000000000000000000000000000000000000000008152600401612ff69061544a565b60405180910390fd5b50505050565b606060405180602001604052806000815250905090565b60606000600161302b84613319565b01905060008167ffffffffffffffff81111561304a57613049613a27565b5b6040519080825280601f01601f19166020018201604052801561307c5781602001600182028036833780820191505090505b509050600082602001820190505b6001156130df578080600190039150507f3031323334353637383961626364656600000000000000000000000000000000600a86061a8153600a85816130d3576130d2614c4a565b5b0494506000850361308a575b819350505050919050565b60008073ffffffffffffffffffffffffffffffffffffffff1661310c83612dcc565b73ffffffffffffffffffffffffffffffffffffffff1614159050919050565b50505050565b50505050565b613141838361346c565b61314e6000848484613192565b61318d576040517f08c379a00000000000000000000000000000000000000000000000000000000081526004016131849061544a565b60405180910390fd5b505050565b60006131b38473ffffffffffffffffffffffffffffffffffffffff16613689565b1561330c578373ffffffffffffffffffffffffffffffffffffffff1663150b7a026131dc61296f565b8786866040518563ffffffff1660e01b81526004016131fe94939291906154bf565b6020604051808303816000875af192505050801561323a57506040513d601f19601f820116820180604052508101906132379190615520565b60015b6132bc573d806000811461326a576040519150601f19603f3d011682016040523d82523d6000602084013e61326f565b606091505b5060008151036132b4576040517f08c379a00000000000000000000000000000000000000000000000000000000081526004016132ab9061544a565b60405180910390fd5b805181602001fd5b63150b7a0260e01b7bffffffffffffffffffffffffffffffffffffffffffffffffffffffff1916817bffffffffffffffffffffffffffffffffffffffffffffffffffffffff191614915050613311565b600190505b949350505050565b600080600090507a184f03e93ff9f4daa797ed6e38ed64bf6a1f0100000000000000008310613377577a184f03e93ff9f4daa797ed6e38ed64bf6a1f010000000000000000838161336d5761336c614c4a565b5b0492506040810190505b6d04ee2d6d415b85acef810000000083106133b4576d04ee2d6d415b85acef810000000083816133aa576133a9614c4a565b5b0492506020810190505b662386f26fc1000083106133e357662386f26fc1000083816133d9576133d8614c4a565b5b0492506010810190505b6305f5e100831061340c576305f5e100838161340257613401614c4a565b5b0492506008810190505b612710831061343157612710838161342757613426614c4a565b5b0492506004810190505b60648310613454576064838161344a57613449614c4a565b5b0492506002810190505b600a8310613463576001810190505b80915050919050565b600073ffffffffffffffffffffffffffffffffffffffff168273ffffffffffffffffffffffffffffffffffffffff16036134db576040517f08c379a00000000000000000000000000000000000000000000000000000000081526004016134d290615599565b60405180910390fd5b6134e4816130ea565b15613524576040517f08c379a000000000000000000000000000000000000000000000000000000000815260040161351b90615605565b60405180910390fd5b61353260008383600161312b565b61353b816130ea565b1561357b576040517f08c379a000000000000000000000000000000000000000000000000000000000815260040161357290615605565b60405180910390fd5b6001600360008473ffffffffffffffffffffffffffffffffffffffff1673ffffffffffffffffffffffffffffffffffffffff16815260200190815260200160002060008282540192505081905550816002600083815260200190815260200160002060006101000a81548173ffffffffffffffffffffffffffffffffffffffff021916908373ffffffffffffffffffffffffffffffffffffffff160217905550808273ffffffffffffffffffffffffffffffffffffffff16600073ffffffffffffffffffffffffffffffffffffffff167fddf252ad1be2c89b69c2b068fc378daa952ba7f163c4a11628f55a4df523b3ef60405160405180910390a4613685600083836001613131565b5050565b6000808273ffffffffffffffffffffffffffffffffffffffff163b119050919050565b60405180610160016040528060608152602001600081526020016000815260200160608152602001600073ffffffffffffffffffffffffffffffffffffffff16815260200160008152602001600081526020016000815260200160008152602001600081526020016000151581525090565b6000604051905090565b600080fd5b600080fd5b60007fffffffff0000000000000000000000000000000000000000000000000000000082169050919050565b61376781613732565b811461377257600080fd5b50565b6000813590506137848161375e565b92915050565b6000602082840312156137a05761379f613728565b5b60006137ae84828501613775565b91505092915050565b60008115159050919050565b6137cc816137b7565b82525050565b60006020820190506137e760008301846137c3565b92915050565b600081519050919050565b600082825260208201905092915050565b60005b8381101561382757808201518184015260208101905061380c565b60008484015250505050565b6000601f19601f8301169050919050565b600061384f826137ed565b61385981856137f8565b9350613869818560208601613809565b61387281613833565b840191505092915050565b600060208201905081810360008301526138978184613844565b905092915050565b6000819050919050565b6138b28161389f565b81146138bd57600080fd5b50565b6000813590506138cf816138a9565b92915050565b6000602082840312156138eb576138ea613728565b5b60006138f9848285016138c0565b91505092915050565b600073ffffffffffffffffffffffffffffffffffffffff82169050919050565b600061392d82613902565b9050919050565b61393d81613922565b82525050565b60006020820190506139586000830184613934565b92915050565b61396781613922565b811461397257600080fd5b50565b6000813590506139848161395e565b92915050565b600080604083850312156139a1576139a0613728565b5b60006139af85828601613975565b92505060206139c0858286016138c0565b9150509250929050565b6000806000606084860312156139e3576139e2613728565b5b60006139f186828701613975565b9350506020613a0286828701613975565b9250506040613a13868287016138c0565b9150509250925092565b600080fd5b600080fd5b7f4e487b7100000000000000000000000000000000000000000000000000000000600052604160045260246000fd5b613a5f82613833565b810181811067ffffffffffffffff82111715613a7e57613a7d613a27565b5b80604052505050565b6000613a9161371e565b9050613a9d8282613a56565b919050565b600067ffffffffffffffff821115613abd57613abc613a27565b5b613ac682613833565b9050602081019050919050565b82818337600083830152505050565b6000613af5613af084613aa2565b613a87565b905082815260208101848484011115613b1157613b10613a22565b5b613b1c848285613ad3565b509392505050565b600082601f830112613b3957613b38613a1d565b5b8135613b49848260208601613ae2565b91505092915050565b60008060408385031215613b6957613b68613728565b5b600083013567ffffffffffffffff811115613b8757613b8661372d565b5b613b9385828601613b24565b9250506020613ba485828601613975565b9150509250929050565b600081519050919050565b600082825260208201905092915050565b6000819050602082019050919050565b600082825260208201905092915050565b6000613bf6826137ed565b613c008185613bda565b9350613c10818560208601613809565b613c1981613833565b840191505092915050565b613c2d8161389f565b82525050565b6000613c3e82613902565b9050919050565b613c4e81613c33565b82525050565b613c5d816137b7565b82525050565b6000610160830160008301518482036000860152613c818282613beb565b9150506020830151613c966020860182613c24565b506040830151613ca96040860182613c24565b5060608301518482036060860152613cc18282613beb565b9150506080830151613cd66080860182613c45565b5060a0830151613ce960a0860182613c24565b5060c0830151613cfc60c0860182613c24565b5060e0830151613d0f60e0860182613c24565b50610100830151613d24610100860182613c24565b50610120830151613d39610120860182613c24565b50610140830151613d4e610140860182613c54565b508091505092915050565b6000613d658383613c63565b905092915050565b6000602082019050919050565b6000613d8582613bae565b613d8f8185613bb9565b935083602082028501613da185613bca565b8060005b85811015613ddd5784840389528151613dbe8582613d59565b9450613dc983613d6d565b925060208a01995050600181019050613da5565b50829750879550505050505092915050565b60006020820190508181036000830152613e098184613d7a565b905092915050565b600081519050919050565b600082825260208201905092915050565b6000819050602082019050919050565b613e4681613922565b82525050565b6000613e588383613e3d565b60208301905092915050565b6000602082019050919050565b6000613e7c82613e11565b613e868185613e1c565b9350613e9183613e2d565b8060005b83811015613ec2578151613ea98882613e4c565b9750613eb483613e64565b925050600181019050613e95565b5085935050505092915050565b60006020820190508181036000830152613ee98184613e71565b905092915050565b60008060408385031215613f0857613f07613728565b5b6000613f16858286016138c0565b925050602083013567ffffffffffffffff811115613f3757613f3661372d565b5b613f4385828601613b24565b9150509250929050565b600080600080600080600060e0888a031215613f6c57613f6b613728565b5b600088013567ffffffffffffffff811115613f8a57613f8961372d565b5b613f968a828b01613b24565b9750506020613fa78a828b016138c0565b9650506040613fb88a828b016138c0565b9550506060613fc98a828b016138c0565b9450506080613fda8a828b016138c0565b93505060a0613feb8a828b016138c0565b92505060c0613ffc8a828b016138c0565b91505092959891949750929550565b60006020828403121561402157614020613728565b5b600061402f84828501613975565b91505092915050565b6140418161389f565b82525050565b600060208201905061405c6000830184614038565b92915050565b61406b816137b7565b811461407657600080fd5b50565b60008135905061408881614062565b92915050565b600080604083850312156140a5576140a4613728565b5b60006140b385828601613975565b92505060206140c485828601614079565b9150509250929050565b600067ffffffffffffffff8211156140e9576140e8613a27565b5b6140f282613833565b9050602081019050919050565b600061411261410d846140ce565b613a87565b90508281526020810184848401111561412e5761412d613a22565b5b614139848285613ad3565b509392505050565b600082601f83011261415657614155613a1d565b5b81356141668482602086016140ff565b91505092915050565b6000806000806080858703121561418957614188613728565b5b600061419787828801613975565b94505060206141a887828801613975565b93505060406141b9878288016138c0565b925050606085013567ffffffffffffffff8111156141da576141d961372d565b5b6141e687828801614141565b91505092959194509250565b6141fb81613c33565b82525050565b600061016082019050818103600083015261421c818e613844565b905061422b602083018d614038565b614238604083018c614038565b818103606083015261424a818b613844565b9050614259608083018a6141f2565b61426660a0830189614038565b61427360c0830188614038565b61428060e0830187614038565b61428e610100830186614038565b61429c610120830185614038565b6142aa6101408301846137c3565b9c9b505050505050505050505050565b600080604083850312156142d1576142d0613728565b5b60006142df858286016138c0565b92505060206142f0858286016138c0565b9150509250929050565b6000806040838503121561431157614310613728565b5b600061431f85828601613975565b925050602061433085828601613975565b9150509250929050565b7f4e487b7100000000000000000000000000000000000000000000000000000000600052602260045260246000fd5b6000600282049050600182168061438157607f821691505b6020821081036143945761439361433a565b5b50919050565b7f4552433732313a20617070726f76616c20746f2063757272656e74206f776e6560008201527f7200000000000000000000000000000000000000000000000000000000000000602082015250565b60006143f66021836137f8565b91506144018261439a565b604082019050919050565b60006020820190508181036000830152614425816143e9565b9050919050565b7f4552433732313a20617070726f76652063616c6c6572206973206e6f7420746f60008201527f6b656e206f776e6572206f7220617070726f76656420666f7220616c6c000000602082015250565b6000614488603d836137f8565b91506144938261442c565b604082019050919050565b600060208201905081810360008301526144b78161447b565b9050919050565b7f4552433732313a2063616c6c6572206973206e6f7420746f6b656e206f776e6560008201527f72206f7220617070726f76656400000000000000000000000000000000000000602082015250565b600061451a602d836137f8565b9150614525826144be565b604082019050919050565b600060208201905081810360008301526145498161450d565b9050919050565b7f4475706c69636174652050726f64756374696f6e20486f757365000000000000600082015250565b6000614586601a836137f8565b915061459182614550565b602082019050919050565b600060208201905081810360008301526145b581614579565b9050919050565b60008190508160005260206000209050919050565b60006020601f8301049050919050565b600082821b905092915050565b60006008830261461e7fffffffffffffffffffffffffffffffffffffffffffffffffffffffffffffffff826145e1565b61462886836145e1565b95508019841693508086168417925050509392505050565b6000819050919050565b600061466561466061465b8461389f565b614640565b61389f565b9050919050565b6000819050919050565b61467f8361464a565b61469361468b8261466c565b8484546145ee565b825550505050565b600090565b6146a861469b565b6146b3818484614676565b505050565b5b818110156146d7576146cc6000826146a0565b6001810190506146b9565b5050565b601f82111561471c576146ed816145bc565b6146f6846145d1565b81016020851015614705578190505b614719614711856145d1565b8301826146b8565b50505b505050565b600082821c905092915050565b600061473f60001984600802614721565b1980831691505092915050565b6000614758838361472e565b9150826002028217905092915050565b614771826137ed565b67ffffffffffffffff81111561478a57614789613a27565b5b6147948254614369565b61479f8282856146db565b600060209050601f8311600181146147d257600084156147c0578287015190505b6147ca858261474c565b865550614832565b601f1984166147e0866145bc565b60005b82811015614808578489015182556001820191506020850194506020810190506147e3565b868310156148255784890151614821601f89168261472e565b8355505b6001600288020188555050505b505050505050565b7f4e6577206576656e743a2050726f6420486f7573652072656769737465726564600082015250565b60006148706020836137f8565b915061487b8261483a565b602082019050919050565b6000604082019050818103600083015261489f81614863565b905081810360208301526148b38184613844565b905092915050565b7f4e487b7100000000000000000000000000000000000000000000000000000000600052601160045260246000fd5b60006148f58261389f565b91507fffffffffffffffffffffffffffffffffffffffffffffffffffffffffffffffff8203614927576149266148bb565b5b600182019050919050565b7f4e487b7100000000000000000000000000000000000000000000000000000000600052603260045260246000fd5b600081905092915050565b6000614977826137ed565b6149818185614961565b9350614991818560208601613809565b80840191505092915050565b60006149a9828461496c565b915081905092915050565b600081546149c181614369565b6149cb8186614961565b945060018216600081146149e657600181146149fb57614a2e565b60ff1983168652811515820286019350614a2e565b614a04856145bc565b60005b83811015614a2657815481890152600182019150602081019050614a07565b838801955050505b50505092915050565b6000614a4382846149b4565b915081905092915050565b7f4120746f6b656e206973206e6f742070726573656e7420666f7220746869732060008201527f6d6f766965000000000000000000000000000000000000000000000000000000602082015250565b6000614aaa6025836137f8565b9150614ab582614a4e565b604082019050919050565b60006020820190508181036000830152614ad981614a9d565b9050919050565b7f526573616c65206973206e6f7420616c6c6f77656420666f722074686973206d60008201527f6f76696500000000000000000000000000000000000000000000000000000000602082015250565b6000614b3c6024836137f8565b9150614b4782614ae0565b604082019050919050565b60006020820190508181036000830152614b6b81614b2f565b9050919050565b7f4e6f7420616c6c6f776564206265666f7265206d696e20646179730000000000600082015250565b6000614ba8601b836137f8565b9150614bb382614b72565b602082019050919050565b60006020820190508181036000830152614bd781614b9b565b9050919050565b7f596f752061726520616c726561647920746865206f776e657200000000000000600082015250565b6000614c146019836137f8565b9150614c1f82614bde565b602082019050919050565b60006020820190508181036000830152614c4381614c07565b9050919050565b7f4e487b7100000000000000000000000000000000000000000000000000000000600052601260045260246000fd5b6000614c848261389f565b9150614c8f8361389f565b925082614c9f57614c9e614c4a565b5b828204905092915050565b600081549050614cb981614369565b9050919050565b818103614cce575050614da6565b614cd782614caa565b67ffffffffffffffff811115614cf057614cef613a27565b5b614cfa8254614369565b614d058282856146db565b6000601f831160018114614d345760008415614d22578287015490505b614d2c858261474c565b865550614d9f565b601f198416614d42876145bc565b9650614d4d866145bc565b60005b82811015614d7557848901548255600182019150600185019450602081019050614d50565b86831015614d925784890154614d8e601f89168261472e565b8355505b6001600288020188555050505b5050505050505b565b7f4e6577206576656e743a20546f6b656e20507572636861736564200000000000600082015250565b6000614dde601b836137f8565b9150614de982614da8565b602082019050919050565b60008154614e0181614369565b614e0b81866137f8565b94506001821660008114614e265760018114614e3c57614e6f565b60ff198316865281151560200286019350614e6f565b614e45856145bc565b60005b83811015614e6757815481890152600182019150602081019050614e48565b808801955050505b50505092915050565b60006040820190508181036000830152614e9181614dd1565b90508181036020830152614ea58184614df4565b905092915050565b7f4552433732313a20696e76616c696420746f6b656e2049440000000000000000600082015250565b6000614ee36018836137f8565b9150614eee82614ead565b602082019050919050565b60006020820190508181036000830152614f1281614ed6565b9050919050565b7f4e6f74206120726567697374657265642070726f64756374696f6e20686f757360008201527f6500000000000000000000000000000000000000000000000000000000000000602082015250565b6000614f756021836137f8565b9150614f8082614f19565b604082019050919050565b60006020820190508181036000830152614fa481614f68565b9050919050565b7f4120746f6b656e20697320616c72656164792070726573656e7420666f72207460008201527f686973206d6f7669650000000000000000000000000000000000000000000000602082015250565b60006150076029836137f8565b915061501282614fab565b604082019050919050565b6000602082019050818103600083015261503681614ffa565b9050919050565b7f4e6577206576656e743a20546f6b656e20437265617465640000000000000000600082015250565b60006150736018836137f8565b915061507e8261503d565b602082019050919050565b600060408201905081810360008301526150a281615066565b905081810360208301526150b68184613844565b905092915050565b7f4552433732313a2061646472657373207a65726f206973206e6f74206120766160008201527f6c6964206f776e65720000000000000000000000000000000000000000000000602082015250565b600061511a6029836137f8565b9150615125826150be565b604082019050919050565b600060208201905081810360008301526151498161510d565b9050919050565b600061515c828561496c565b9150615168828461496c565b91508190509392505050565b7f4e6f7420746865206f776e6572206f662074686520746f6b656e000000000000600082015250565b60006151aa601a836137f8565b91506151b582615174565b602082019050919050565b600060208201905081810360008301526151d98161519d565b9050919050565b60006151eb8261389f565b91506151f68361389f565b925082820190508082111561520e5761520d6148bb565b5b92915050565b600061521f8261389f565b915061522a8361389f565b9250828203905081811115615242576152416148bb565b5b92915050565b7f4552433732313a207472616e736665722066726f6d20696e636f72726563742060008201527f6f776e6572000000000000000000000000000000000000000000000000000000602082015250565b60006152a46025836137f8565b91506152af82615248565b604082019050919050565b600060208201905081810360008301526152d381615297565b9050919050565b7f4552433732313a207472616e7366657220746f20746865207a65726f2061646460008201527f7265737300000000000000000000000000000000000000000000000000000000602082015250565b60006153366024836137f8565b9150615341826152da565b604082019050919050565b6000602082019050818103600083015261536581615329565b9050919050565b7f4552433732313a20617070726f766520746f2063616c6c657200000000000000600082015250565b60006153a26019836137f8565b91506153ad8261536c565b602082019050919050565b600060208201905081810360008301526153d181615395565b9050919050565b7f4552433732313a207472616e7366657220746f206e6f6e20455243373231526560008201527f63656976657220696d706c656d656e7465720000000000000000000000000000602082015250565b60006154346032836137f8565b915061543f826153d8565b604082019050919050565b6000602082019050818103600083015261546381615427565b9050919050565b600081519050919050565b600082825260208201905092915050565b60006154918261546a565b61549b8185615475565b93506154ab818560208601613809565b6154b481613833565b840191505092915050565b60006080820190506154d46000830187613934565b6154e16020830186613934565b6154ee6040830185614038565b81810360608301526155008184615486565b905095945050505050565b60008151905061551a8161375e565b92915050565b60006020828403121561553657615535613728565b5b60006155448482850161550b565b91505092915050565b7f4552433732313a206d696e7420746f20746865207a65726f2061646472657373600082015250565b60006155836020836137f8565b915061558e8261554d565b602082019050919050565b600060208201905081810360008301526155b281615576565b9050919050565b7f4552433732313a20746f6b656e20616c7265616479206d696e74656400000000600082015250565b60006155ef601c836137f8565b91506155fa826155b9565b602082019050919050565b6000602082019050818103600083015261561e816155e2565b905091905056fea2646970667358221220841536b8decc90e1149a357853703ab12c56def9c3bbe39db5f6fb94842cb6e864736f6c63430008130033",
  "immutableReferences": {},
  "source": "// SPDX-License-Identifier: UNLICENSED\npragma solidity ^0.8.0;\n\nimport \"@openzeppelin/contracts/token/ERC721/ERC721.sol\";\nimport \"@openzeppelin/contracts/utils/Counters.sol\";\n\ncontract FilmToken is ERC721 {\n    using Counters for Counters.Counter;\n    Counters.Counter public tokenIds;\n\n    struct Token {\n        string movieName;\n        uint256 tokenId;\n        uint256 basePrice;\n        string productionCompany;\n        address payable ownerAddr;\n        uint minTime;\n        uint maxTime;\n        uint apprPercent;\n        uint deprPercent;\n        uint baseDays;\n\n        bool resale;\n    }\n\n    Token[] allTokens;\n    address public admin;\n    mapping(uint256 => Token) public tokenIdToTokenMap;\n    mapping(address=>string) productionAddrToNameMap;\n    address [] allProdHouses;\n    mapping(string=>uint) nameTokenIdMap;\n    mapping(uint=>address) tokenIdToOwnerMap;\n\n    modifier duplicateProdHouse (address addr){\n        bool duplicate = bytes(productionAddrToNameMap[addr]).length > 0 ;\n        require(!duplicate,\"Duplicate Production House\");\n        _;\n    }\n\n    modifier onlyAdmin{\n        require(msg.sender == admin,\"Not an Admin, no access\");\n        _;\n    }\n\n    modifier validProdHouse(address addr){\n        bool duplicate = bytes(productionAddrToNameMap[addr]).length > 0 ;\n        require(duplicate,\"Not a registered production house\");\n        _;\n    }\n\n    modifier duplicateMovieToken(string memory name){ // self exp.\n        bool duplicate = false;\n        for(uint i=0;i<allTokens.length;i++){\n\n            if(keccak256(abi.encodePacked(allTokens[i].movieName)) == keccak256(abi.encodePacked(name))){\n                duplicate = true;break;\n            }\n        }\n\n        require(!duplicate,\"A token is already present for this movie\");\n        _;\n    }\n\n    modifier validMovieToken(string memory name){ // self exp.\n        bool duplicate = false;\n        for(uint i=0;i<allTokens.length;i++){\n\n            if(keccak256(abi.encodePacked(allTokens[i].movieName)) == keccak256(abi.encodePacked(name))){\n                duplicate = true;break;\n            }\n        }\n\n        require(duplicate,\"A token is not present for this movie\");\n        _;\n    }\n\n    modifier validMinMaxValues(uint min,uint max){ // min (both days and appr/depr, should be +ve\n        require(min<=max && min>0 && max>0,\"Invalid Min Max values\");\n        _;\n    }\n\n    modifier checkTokenOwner(uint tokenId){\n        require(tokenIdToOwnerMap[tokenId]==msg.sender,\"Not the owner of the token\");\n        _;\n    }\n\n    event newMovie(string text,string name);\n    event movieSold(string text,string name);\n    event moviePriceAppr(uint apprPrice);\n    event moviePriceDepr(uint deprPrice);\n    event movieResale(string movieName, bool resale);\n    event registerProdHouse(string text, string prodName);\n\n    constructor() ERC721(\"MovieTokenization\",\"MVTK\"){\n        admin = msg.sender;\n    }\n\n    function registerProductionHouse(string memory name,address addr) public duplicateProdHouse(addr){\n        productionAddrToNameMap[addr] = name;\n        allProdHouses.push(addr);\n        emit registerProdHouse(\"New event: Prod House registered\",name);\n\n    }\n\n    function getAllProdHouses() public view returns (address[] memory) {\n        return allProdHouses;\n    }\n\n\n\n    //all user inputted prices are considered as ETH, internally we convert everything again into wei and transact\n    function createMovieToken(string memory movieName, uint256 basePrice,uint baseDays, uint minTime,uint maxTime,uint apprPercent,uint deprPercent) public validProdHouse(msg.sender) duplicateMovieToken(movieName){\n        //check if the user is a registered prod house or not, handled in validProdHouse modifier\n        //check for duplicate token\n        //check if input values are valid\n        Token memory newToken = Token(movieName,tokenIds.current(),basePrice,productionAddrToNameMap[msg.sender],payable(msg.sender),minTime,maxTime,apprPercent,deprPercent,baseDays,true);\n        nameTokenIdMap[movieName] = tokenIds.current();\n        tokenIdToTokenMap[tokenIds.current()] = newToken;\n        tokenIdToOwnerMap[tokenIds.current()] = msg.sender;\n        _safeMint(msg.sender, tokenIds.current());\n        tokenIds.increment();\n        allTokens.push(newToken);\n\n        emit newMovie(\"New event: Token Created\", movieName);\n\n\n    }\n\n\n\n    function buyMovieToken(uint dayss, string memory movieName) public payable validMovieToken(movieName){ //changed tokenId to movieName, as there's no visibility provided right now\n        //check if the movieName is valid, in modifier\n        //days can be +/-, - represents earlier, + later\n        uint tokenId = nameTokenIdMap[movieName];\n        Token memory token = tokenIdToTokenMap[tokenId];\n        require(token.resale == true, \"Resale is not allowed for this movie\");\n        // uint value = token.basePrice;// base price is already converted from eth->wei\n        uint minDays = token.minTime;\n        // uint maxDays = token.maxTime;\n        // uint baseDays = token.baseDays;\n\n        // uint finalValue = value;// case where dayss == baseDays\n\n\n        require(dayss >=minDays,\"Not allowed before min days\");\n\n        require(token.ownerAddr != msg.sender,\"You are already the owner\");\n\n\n        //get token owner and transfer ether\n        token.ownerAddr.transfer(msg.value); // failure of this reverts everything needn't explicitly handle for now, TODO: better, give a proper error message\n\n        //change ownership\n        token.ownerAddr = payable(msg.sender);\n        //also in map\n        tokenIdToOwnerMap[tokenId] = msg.sender;\n        //disable resale\n        token.resale  = false;\n        //change in token list\n        for(uint i=0;i<allTokens.length;i++){\n            if(allTokens[i].tokenId == tokenId){\n                allTokens[i].ownerAddr = payable(msg.sender);\n                allTokens[i].basePrice = msg.value/ (10**18);\n                //remap\n                tokenIdToTokenMap[tokenId] = allTokens[i];\n            }\n        }\n        emit movieSold(\"New event: Token Purchased \",tokenIdToTokenMap[tokenId].movieName);\n\n    }\n\n\n    function appreciateTokenValue(uint256 tokenId, uint value) public checkTokenOwner(tokenId){ //how will the user know tokenid, remember? give him visibility\n        tokenIdToTokenMap[tokenId].basePrice += (value);\n    }\n\n    function depreciateTokenValue(uint256 tokenId, uint value) public checkTokenOwner(tokenId){\n        tokenIdToTokenMap[tokenId].basePrice -=  (value);\n    }\n\n    function enableOrDisableResale(uint tokenId) public checkTokenOwner(tokenId){\n        if(tokenIdToTokenMap[tokenId].resale == true){\n            tokenIdToTokenMap[tokenId].resale = false;\n        }else{\n            tokenIdToTokenMap[tokenId].resale = true;\n        }\n    }\n\n\n    function viewTokens() public view returns(Token[] memory){\n\n        Token[] memory result = new Token[](allTokens.length);\n        uint index = 0;\n        for(uint i=0;i<tokenIds.current();i++){ // no support to deleting tokens, so looping through all tokenids is equal to keys\n            result[index++]=tokenIdToTokenMap[i];\n            // if(tokenIdToTokenMap[i].ownerAddr == msg.sender){\n            //     result[index++]=tokenIdToTokenMap[i];\n            // }\n        }\n        return result;\n    }\n\n    function viewMyTokens() public view returns(Token[] memory){\n\n        Token[] memory result = new Token[](allTokens.length);\n        uint index = 0;\n        for(uint i=0;i<tokenIds.current();i++){ // no support to deleting tokens, so looping through all tokenids is equal to keys\n            result[index++]=tokenIdToTokenMap[i];\n             if(tokenIdToTokenMap[i].ownerAddr == msg.sender){\n                 result[index++]=tokenIdToTokenMap[i];\n             }\n        }\n        return result;\n    }\n\n    function getAllTokenIds() public view returns (uint) {\n        return tokenIds.current();\n    }\n\n\n\n}",
  "sourcePath": "/Users/saisvasgudimalla/Documents/Nani/MS_CS_UB/Spring_2023/Blockchain/FilmToken/FilmToken-contract/contracts/FilmToken.sol",
  "compiler": {
    "name": "solc",
    "version": "0.8.19+commit.7dd6d404.Emscripten.clang"
  },
  "schemaVersion": "3.4.13",
  "updatedAt": "2023-05-09T15:14:38.425Z",
  "networkType": "ethereum",
  "devdoc": {
    "events": {
      "Approval(address,address,uint256)": {
        "details": "Emitted when `owner` enables `approved` to manage the `tokenId` token."
      },
      "ApprovalForAll(address,address,bool)": {
        "details": "Emitted when `owner` enables or disables (`approved`) `operator` to manage all of its assets."
      },
      "Transfer(address,address,uint256)": {
        "details": "Emitted when `tokenId` token is transferred from `from` to `to`."
      }
    },
    "kind": "dev",
    "methods": {
      "approve(address,uint256)": {
        "details": "See {IERC721-approve}."
      },
      "balanceOf(address)": {
        "details": "See {IERC721-balanceOf}."
      },
      "getApproved(uint256)": {
        "details": "See {IERC721-getApproved}."
      },
      "isApprovedForAll(address,address)": {
        "details": "See {IERC721-isApprovedForAll}."
      },
      "name()": {
        "details": "See {IERC721Metadata-name}."
      },
      "ownerOf(uint256)": {
        "details": "See {IERC721-ownerOf}."
      },
      "safeTransferFrom(address,address,uint256)": {
        "details": "See {IERC721-safeTransferFrom}."
      },
      "safeTransferFrom(address,address,uint256,bytes)": {
        "details": "See {IERC721-safeTransferFrom}."
      },
      "setApprovalForAll(address,bool)": {
        "details": "See {IERC721-setApprovalForAll}."
      },
      "supportsInterface(bytes4)": {
        "details": "See {IERC165-supportsInterface}."
      },
      "symbol()": {
        "details": "See {IERC721Metadata-symbol}."
      },
      "tokenURI(uint256)": {
        "details": "See {IERC721Metadata-tokenURI}."
      },
      "transferFrom(address,address,uint256)": {
        "details": "See {IERC721-transferFrom}."
      }
    },
    "version": 1
  },
  "userdoc": {
    "kind": "user",
    "methods": {},
    "version": 1
  }
}