{
  "contractName": "MovieToken",
  "abi": [
    {
      "inputs": [],
      "stateMutability": "nonpayable",
      "type": "constructor"
    },
    {
      "anonymous": false,
      "inputs": [
        {
          "indexed": true,
          "internalType": "address",
          "name": "owner",
          "type": "address"
        },
        {
          "indexed": true,
          "internalType": "address",
          "name": "approved",
          "type": "address"
        },
        {
          "indexed": true,
          "internalType": "uint256",
          "name": "tokenId",
          "type": "uint256"
        }
      ],
      "name": "Approval",
      "type": "event"
    },
    {
      "anonymous": false,
      "inputs": [
        {
          "indexed": true,
          "internalType": "address",
          "name": "owner",
          "type": "address"
        },
        {
          "indexed": true,
          "internalType": "address",
          "name": "operator",
          "type": "address"
        },
        {
          "indexed": false,
          "internalType": "bool",
          "name": "approved",
          "type": "bool"
        }
      ],
      "name": "ApprovalForAll",
      "type": "event"
    },
    {
      "anonymous": false,
      "inputs": [
        {
          "indexed": true,
          "internalType": "address",
          "name": "from",
          "type": "address"
        },
        {
          "indexed": true,
          "internalType": "address",
          "name": "to",
          "type": "address"
        },
        {
          "indexed": true,
          "internalType": "uint256",
          "name": "tokenId",
          "type": "uint256"
        }
      ],
      "name": "Transfer",
      "type": "event"
    },
    {
      "inputs": [],
      "name": "admin",
      "outputs": [
        {
          "internalType": "address",
          "name": "",
          "type": "address"
        }
      ],
      "stateMutability": "view",
      "type": "function"
    },
    {
      "inputs": [
        {
          "internalType": "address",
          "name": "to",
          "type": "address"
        },
        {
          "internalType": "uint256",
          "name": "tokenId",
          "type": "uint256"
        }
      ],
      "name": "approve",
      "outputs": [],
      "stateMutability": "nonpayable",
      "type": "function"
    },
    {
      "inputs": [
        {
          "internalType": "address",
          "name": "owner",
          "type": "address"
        }
      ],
      "name": "balanceOf",
      "outputs": [
        {
          "internalType": "uint256",
          "name": "",
          "type": "uint256"
        }
      ],
      "stateMutability": "view",
      "type": "function"
    },
    {
      "inputs": [
        {
          "internalType": "uint256",
          "name": "tokenId",
          "type": "uint256"
        }
      ],
      "name": "getApproved",
      "outputs": [
        {
          "internalType": "address",
          "name": "",
          "type": "address"
        }
      ],
      "stateMutability": "view",
      "type": "function"
    },
    {
      "inputs": [
        {
          "internalType": "address",
          "name": "owner",
          "type": "address"
        },
        {
          "internalType": "address",
          "name": "operator",
          "type": "address"
        }
      ],
      "name": "isApprovedForAll",
      "outputs": [
        {
          "internalType": "bool",
          "name": "",
          "type": "bool"
        }
      ],
      "stateMutability": "view",
      "type": "function"
    },
    {
      "inputs": [],
      "name": "name",
      "outputs": [
        {
          "internalType": "string",
          "name": "",
          "type": "string"
        }
      ],
      "stateMutability": "view",
      "type": "function"
    },
    {
      "inputs": [
        {
          "internalType": "uint256",
          "name": "tokenId",
          "type": "uint256"
        }
      ],
      "name": "ownerOf",
      "outputs": [
        {
          "internalType": "address",
          "name": "",
          "type": "address"
        }
      ],
      "stateMutability": "view",
      "type": "function"
    },
    {
      "inputs": [
        {
          "internalType": "address",
          "name": "from",
          "type": "address"
        },
        {
          "internalType": "address",
          "name": "to",
          "type": "address"
        },
        {
          "internalType": "uint256",
          "name": "tokenId",
          "type": "uint256"
        }
      ],
      "name": "safeTransferFrom",
      "outputs": [],
      "stateMutability": "nonpayable",
      "type": "function"
    },
    {
      "inputs": [
        {
          "internalType": "address",
          "name": "from",
          "type": "address"
        },
        {
          "internalType": "address",
          "name": "to",
          "type": "address"
        },
        {
          "internalType": "uint256",
          "name": "tokenId",
          "type": "uint256"
        },
        {
          "internalType": "bytes",
          "name": "data",
          "type": "bytes"
        }
      ],
      "name": "safeTransferFrom",
      "outputs": [],
      "stateMutability": "nonpayable",
      "type": "function"
    },
    {
      "inputs": [
        {
          "internalType": "address",
          "name": "operator",
          "type": "address"
        },
        {
          "internalType": "bool",
          "name": "approved",
          "type": "bool"
        }
      ],
      "name": "setApprovalForAll",
      "outputs": [],
      "stateMutability": "nonpayable",
      "type": "function"
    },
    {
      "inputs": [
        {
          "internalType": "bytes4",
          "name": "interfaceId",
          "type": "bytes4"
        }
      ],
      "name": "supportsInterface",
      "outputs": [
        {
          "internalType": "bool",
          "name": "",
          "type": "bool"
        }
      ],
      "stateMutability": "view",
      "type": "function"
    },
    {
      "inputs": [],
      "name": "symbol",
      "outputs": [
        {
          "internalType": "string",
          "name": "",
          "type": "string"
        }
      ],
      "stateMutability": "view",
      "type": "function"
    },
    {
      "inputs": [
        {
          "internalType": "uint256",
          "name": "",
          "type": "uint256"
        }
      ],
      "name": "tokenIdToTokenMap",
      "outputs": [
        {
          "internalType": "string",
          "name": "movieName",
          "type": "string"
        },
        {
          "internalType": "uint256",
          "name": "tokenId",
          "type": "uint256"
        },
        {
          "internalType": "uint256",
          "name": "basePrice",
          "type": "uint256"
        },
        {
          "internalType": "string",
          "name": "productionCompany",
          "type": "string"
        },
        {
          "internalType": "address payable",
          "name": "ownerAddr",
          "type": "address"
        },
        {
          "internalType": "uint256",
          "name": "minTime",
          "type": "uint256"
        },
        {
          "internalType": "uint256",
          "name": "maxTime",
          "type": "uint256"
        },
        {
          "internalType": "uint256",
          "name": "apprPercent",
          "type": "uint256"
        },
        {
          "internalType": "uint256",
          "name": "deprPercent",
          "type": "uint256"
        },
        {
          "internalType": "uint256",
          "name": "baseDays",
          "type": "uint256"
        },
        {
          "internalType": "bool",
          "name": "resale",
          "type": "bool"
        }
      ],
      "stateMutability": "view",
      "type": "function"
    },
    {
      "inputs": [],
      "name": "tokenIds",
      "outputs": [
        {
          "internalType": "uint256",
          "name": "_value",
          "type": "uint256"
        }
      ],
      "stateMutability": "view",
      "type": "function"
    },
    {
      "inputs": [
        {
          "internalType": "uint256",
          "name": "tokenId",
          "type": "uint256"
        }
      ],
      "name": "tokenURI",
      "outputs": [
        {
          "internalType": "string",
          "name": "",
          "type": "string"
        }
      ],
      "stateMutability": "view",
      "type": "function"
    },
    {
      "inputs": [
        {
          "internalType": "address",
          "name": "from",
          "type": "address"
        },
        {
          "internalType": "address",
          "name": "to",
          "type": "address"
        },
        {
          "internalType": "uint256",
          "name": "tokenId",
          "type": "uint256"
        }
      ],
      "name": "transferFrom",
      "outputs": [],
      "stateMutability": "nonpayable",
      "type": "function"
    },
    {
      "inputs": [
        {
          "internalType": "string",
          "name": "name",
          "type": "string"
        },
        {
          "internalType": "address",
          "name": "addr",
          "type": "address"
        }
      ],
      "name": "registerProductionHouse",
      "outputs": [],
      "stateMutability": "nonpayable",
      "type": "function"
    },
    {
      "inputs": [
        {
          "internalType": "string",
          "name": "movieName",
          "type": "string"
        },
        {
          "internalType": "uint256",
          "name": "basePrice",
          "type": "uint256"
        },
        {
          "internalType": "uint256",
          "name": "baseDays",
          "type": "uint256"
        },
        {
          "internalType": "uint256",
          "name": "minTime",
          "type": "uint256"
        },
        {
          "internalType": "uint256",
          "name": "maxTime",
          "type": "uint256"
        },
        {
          "internalType": "uint256",
          "name": "apprPercent",
          "type": "uint256"
        },
        {
          "internalType": "uint256",
          "name": "deprPercent",
          "type": "uint256"
        }
      ],
      "name": "createMovieToken",
      "outputs": [],
      "stateMutability": "nonpayable",
      "type": "function"
    },
    {
      "inputs": [
        {
          "internalType": "uint256",
          "name": "dayss",
          "type": "uint256"
        },
        {
          "internalType": "string",
          "name": "movieName",
          "type": "string"
        }
      ],
      "name": "buyMovieToken",
      "outputs": [],
      "stateMutability": "payable",
      "type": "function"
    },
    {
      "inputs": [
        {
          "internalType": "uint256",
          "name": "tokenId",
          "type": "uint256"
        },
        {
          "internalType": "uint256",
          "name": "value",
          "type": "uint256"
        }
      ],
      "name": "appreciateTokenValue",
      "outputs": [],
      "stateMutability": "nonpayable",
      "type": "function"
    },
    {
      "inputs": [
        {
          "internalType": "uint256",
          "name": "tokenId",
          "type": "uint256"
        },
        {
          "internalType": "uint256",
          "name": "value",
          "type": "uint256"
        }
      ],
      "name": "depreciateTokenValue",
      "outputs": [],
      "stateMutability": "nonpayable",
      "type": "function"
    },
    {
      "inputs": [
        {
          "internalType": "uint256",
          "name": "tokenId",
          "type": "uint256"
        }
      ],
      "name": "enableOrDisableResale",
      "outputs": [],
      "stateMutability": "nonpayable",
      "type": "function"
    },
    {
      "inputs": [],
      "name": "viewTokens",
      "outputs": [
        {
          "components": [
            {
              "internalType": "string",
              "name": "movieName",
              "type": "string"
            },
            {
              "internalType": "uint256",
              "name": "tokenId",
              "type": "uint256"
            },
            {
              "internalType": "uint256",
              "name": "basePrice",
              "type": "uint256"
            },
            {
              "internalType": "string",
              "name": "productionCompany",
              "type": "string"
            },
            {
              "internalType": "address payable",
              "name": "ownerAddr",
              "type": "address"
            },
            {
              "internalType": "uint256",
              "name": "minTime",
              "type": "uint256"
            },
            {
              "internalType": "uint256",
              "name": "maxTime",
              "type": "uint256"
            },
            {
              "internalType": "uint256",
              "name": "apprPercent",
              "type": "uint256"
            },
            {
              "internalType": "uint256",
              "name": "deprPercent",
              "type": "uint256"
            },
            {
              "internalType": "uint256",
              "name": "baseDays",
              "type": "uint256"
            },
            {
              "internalType": "bool",
              "name": "resale",
              "type": "bool"
            }
          ],
          "internalType": "struct MovieToken.Token[]",
          "name": "",
          "type": "tuple[]"
        }
      ],
      "stateMutability": "view",
      "type": "function"
    }
  ],
  "bytecode": "0x60806040523480156200001157600080fd5b506040518060400160405280601181526020017f4d6f766965546f6b656e697a6174696f6e0000000000000000000000000000008152506040518060400160405280600481526020017f4d56544b0000000000000000000000000000000000000000000000000000000081525081600090816200008f919062000365565b508060019081620000a1919062000365565b50505033600860006101000a81548173ffffffffffffffffffffffffffffffffffffffff021916908373ffffffffffffffffffffffffffffffffffffffff1602179055506200044c565b600081519050919050565b7f4e487b7100000000000000000000000000000000000000000000000000000000600052604160045260246000fd5b7f4e487b7100000000000000000000000000000000000000000000000000000000600052602260045260246000fd5b600060028204905060018216806200016d57607f821691505b60208210810362000183576200018262000125565b5b50919050565b60008190508160005260206000209050919050565b60006020601f8301049050919050565b600082821b905092915050565b600060088302620001ed7fffffffffffffffffffffffffffffffffffffffffffffffffffffffffffffffff82620001ae565b620001f98683620001ae565b95508019841693508086168417925050509392505050565b6000819050919050565b6000819050919050565b600062000246620002406200023a8462000211565b6200021b565b62000211565b9050919050565b6000819050919050565b620002628362000225565b6200027a62000271826200024d565b848454620001bb565b825550505050565b600090565b6200029162000282565b6200029e81848462000257565b505050565b5b81811015620002c657620002ba60008262000287565b600181019050620002a4565b5050565b601f8211156200031557620002df8162000189565b620002ea846200019e565b81016020851015620002fa578190505b6200031262000309856200019e565b830182620002a3565b50505b505050565b600082821c905092915050565b60006200033a600019846008026200031a565b1980831691505092915050565b600062000355838362000327565b9150826002028217905092915050565b6200037082620000eb565b67ffffffffffffffff8111156200038c576200038b620000f6565b5b62000398825462000154565b620003a5828285620002ca565b600060209050601f831160018114620003dd5760008415620003c8578287015190505b620003d4858262000347565b86555062000444565b601f198416620003ed8662000189565b60005b828110156200041757848901518255600182019150602085019450602081019050620003f0565b8683101562000437578489015162000433601f89168262000327565b8355505b6001600288020188555050505b505050505050565b614b24806200045c6000396000f3fe6080604052600436106101405760003560e01c806370a08231116100b6578063c87b56dd1161006f578063c87b56dd14610467578063ca99cc3e146104a4578063dd7072f6146104cd578063e985e9c5146104f6578063f851a44014610533578063f907b4a61461055e57610140565b806370a082311461033b578063714cff561461037857806395d89b41146103a3578063a22cb465146103ce578063b88d4fde146103f7578063c3aee7361461042057610140565b806337c4f4671161010857806337c4f4671461023c57806342842e0e146102655780634bf5bf351461028e57806357a3106b146102b95780636352211e146102d55780636e323c501461031257610140565b806301ffc9a71461014557806306fdde0314610182578063081812fc146101ad578063095ea7b3146101ea57806323b872dd14610213575b600080fd5b34801561015157600080fd5b5061016c60048036038101906101679190613062565b610587565b60405161017991906130aa565b60405180910390f35b34801561018e57600080fd5b50610197610669565b6040516101a49190613155565b60405180910390f35b3480156101b957600080fd5b506101d460048036038101906101cf91906131ad565b6106fb565b6040516101e1919061321b565b60405180910390f35b3480156101f657600080fd5b50610211600480360381019061020c9190613262565b610741565b005b34801561021f57600080fd5b5061023a600480360381019061023591906132a2565b610858565b005b34801561024857600080fd5b50610263600480360381019061025e919061342a565b6108b8565b005b34801561027157600080fd5b5061028c600480360381019061028791906132a2565b610a2f565b005b34801561029a57600080fd5b506102a3610a4f565b6040516102b091906136c7565b60405180910390f35b6102d360048036038101906102ce91906136e9565b610d6c565b005b3480156102e157600080fd5b506102fc60048036038101906102f791906131ad565b61143a565b604051610309919061321b565b60405180910390f35b34801561031e57600080fd5b5061033960048036038101906103349190613745565b6114c0565b005b34801561034757600080fd5b50610362600480360381019061035d9190613803565b611a2b565b60405161036f919061383f565b60405180910390f35b34801561038457600080fd5b5061038d611ae2565b60405161039a919061383f565b60405180910390f35b3480156103af57600080fd5b506103b8611aee565b6040516103c59190613155565b60405180910390f35b3480156103da57600080fd5b506103f560048036038101906103f09190613886565b611b80565b005b34801561040357600080fd5b5061041e60048036038101906104199190613967565b611b96565b005b34801561042c57600080fd5b50610447600480360381019061044291906131ad565b611bf8565b60405161045e9b9a999897969594939291906139f9565b60405180910390f35b34801561047357600080fd5b5061048e600480360381019061048991906131ad565b611d8f565b60405161049b9190613155565b60405180910390f35b3480156104b057600080fd5b506104cb60048036038101906104c691906131ad565b611df7565b005b3480156104d957600080fd5b506104f460048036038101906104ef9190613ab2565b611f30565b005b34801561050257600080fd5b5061051d60048036038101906105189190613af2565b612004565b60405161052a91906130aa565b60405180910390f35b34801561053f57600080fd5b50610548612098565b604051610555919061321b565b60405180910390f35b34801561056a57600080fd5b5061058560048036038101906105809190613ab2565b6120be565b005b60007f80ac58cd000000000000000000000000000000000000000000000000000000007bffffffffffffffffffffffffffffffffffffffffffffffffffffffff1916827bffffffffffffffffffffffffffffffffffffffffffffffffffffffff1916148061065257507f5b5e139f000000000000000000000000000000000000000000000000000000007bffffffffffffffffffffffffffffffffffffffffffffffffffffffff1916827bffffffffffffffffffffffffffffffffffffffffffffffffffffffff1916145b80610662575061066182612192565b5b9050919050565b60606000805461067890613b61565b80601f01602080910402602001604051908101604052809291908181526020018280546106a490613b61565b80156106f15780601f106106c6576101008083540402835291602001916106f1565b820191906000526020600020905b8154815290600101906020018083116106d457829003601f168201915b5050505050905090565b6000610706826121fc565b6004600083815260200190815260200160002060009054906101000a900473ffffffffffffffffffffffffffffffffffffffff169050919050565b600061074c8261143a565b90508073ffffffffffffffffffffffffffffffffffffffff168373ffffffffffffffffffffffffffffffffffffffff16036107bc576040517f08c379a00000000000000000000000000000000000000000000000000000000081526004016107b390613c04565b60405180910390fd5b8073ffffffffffffffffffffffffffffffffffffffff166107db612247565b73ffffffffffffffffffffffffffffffffffffffff16148061080a575061080981610804612247565b612004565b5b610849576040517f08c379a000000000000000000000000000000000000000000000000000000000815260040161084090613c96565b60405180910390fd5b610853838361224f565b505050565b610869610863612247565b82612308565b6108a8576040517f08c379a000000000000000000000000000000000000000000000000000000000815260040161089f90613d28565b60405180910390fd5b6108b383838361239d565b505050565b33600080600a60008473ffffffffffffffffffffffffffffffffffffffff1673ffffffffffffffffffffffffffffffffffffffff168152602001908152602001600020805461090690613b61565b9050119050801561094c576040517f08c379a000000000000000000000000000000000000000000000000000000000815260040161094390613d94565b60405180910390fd5b600860009054906101000a900473ffffffffffffffffffffffffffffffffffffffff1673ffffffffffffffffffffffffffffffffffffffff163373ffffffffffffffffffffffffffffffffffffffff16146109dc576040517f08c379a00000000000000000000000000000000000000000000000000000000081526004016109d390613e00565b60405180910390fd5b83600a60008573ffffffffffffffffffffffffffffffffffffffff1673ffffffffffffffffffffffffffffffffffffffff1681526020019081526020016000209081610a289190613fcc565b5050505050565b610a4a83838360405180602001604052806000815250611b96565b505050565b6060600060078054905067ffffffffffffffff811115610a7257610a716132ff565b5b604051908082528060200260200182016040528015610aab57816020015b610a98612f84565b815260200190600190039081610a905790505b5090506000805b610abc6006612696565b8111610d63573373ffffffffffffffffffffffffffffffffffffffff166009600083815260200190815260200160002060040160009054906101000a900473ffffffffffffffffffffffffffffffffffffffff1673ffffffffffffffffffffffffffffffffffffffff1603610d50576009600082815260200190815260200160002060405180610160016040529081600082018054610b5a90613b61565b80601f0160208091040260200160405190810160405280929190818152602001828054610b8690613b61565b8015610bd35780601f10610ba857610100808354040283529160200191610bd3565b820191906000526020600020905b815481529060010190602001808311610bb657829003601f168201915b505050505081526020016001820154815260200160028201548152602001600382018054610c0090613b61565b80601f0160208091040260200160405190810160405280929190818152602001828054610c2c90613b61565b8015610c795780601f10610c4e57610100808354040283529160200191610c79565b820191906000526020600020905b815481529060010190602001808311610c5c57829003601f168201915b505050505081526020016004820160009054906101000a900473ffffffffffffffffffffffffffffffffffffffff1673ffffffffffffffffffffffffffffffffffffffff1673ffffffffffffffffffffffffffffffffffffffff1681526020016005820154815260200160068201548152602001600782015481526020016008820154815260200160098201548152602001600a820160009054906101000a900460ff161515151581525050838380610d31906140cd565b945081518110610d4457610d43614115565b5b60200260200101819052505b8080610d5b906140cd565b915050610ab2565b50819250505090565b806000805b600780549050811015610e115782604051602001610d8f9190614180565b6040516020818303038152906040528051906020012060078281548110610db957610db8614115565b5b90600052602060002090600b0201600001604051602001610dda919061421a565b6040516020818303038152906040528051906020012003610dfe5760019150610e11565b8080610e09906140cd565b915050610d71565b5080610e52576040517f08c379a0000000000000000000000000000000000000000000000000000000008152600401610e49906142a3565b60405180910390fd5b6000600b84604051610e649190614180565b908152602001604051809103902054905060006009600083815260200190815260200160002060405180610160016040529081600082018054610ea690613b61565b80601f0160208091040260200160405190810160405280929190818152602001828054610ed290613b61565b8015610f1f5780601f10610ef457610100808354040283529160200191610f1f565b820191906000526020600020905b815481529060010190602001808311610f0257829003601f168201915b505050505081526020016001820154815260200160028201548152602001600382018054610f4c90613b61565b80601f0160208091040260200160405190810160405280929190818152602001828054610f7890613b61565b8015610fc55780601f10610f9a57610100808354040283529160200191610fc5565b820191906000526020600020905b815481529060010190602001808311610fa857829003601f168201915b505050505081526020016004820160009054906101000a900473ffffffffffffffffffffffffffffffffffffffff1673ffffffffffffffffffffffffffffffffffffffff1673ffffffffffffffffffffffffffffffffffffffff1681526020016005820154815260200160068201548152602001600782015481526020016008820154815260200160098201548152602001600a820160009054906101000a900460ff1615151515815250509050600115158161014001511515146110bf576040517f08c379a00000000000000000000000000000000000000000000000000000000081526004016110b690614335565b60405180910390fd5b60008160400151905060008260a00151905060008360c001519050600084610120015190506000849050838b11801561110e5750600282856111019190614355565b61110b91906143b8565b8b105b1561116a5760648660e0015161112491906143b8565b8161112f91906143e9565b8161113a9190614355565b905060648660e0015161114d91906143b8565b8161115891906143e9565b816111639190614355565b9050611291565b60028b836111789190614355565b61118291906143b8565b8b101580156111905750818b105b156111c35760648660e001516111a691906143b8565b816111b191906143e9565b816111bc9190614355565b9050611290565b818b1180156111e95750600283836111db9190614355565b6111e591906143b8565b8b11155b1561121c5760648660e001516111ff91906143b8565b8161120a91906143e9565b81611215919061442b565b905061128f565b6002838361122a9190614355565b61123491906143b8565b8b111561128e5760648660e0015161124c91906143b8565b8161125791906143e9565b81611262919061442b565b905060648660e0015161127591906143b8565b8161128091906143e9565b8161128b919061442b565b90505b5b5b5b856080015173ffffffffffffffffffffffffffffffffffffffff166108fc349081150290604051600060405180830381858888f193505050501580156112db573d6000803e3d6000fd5b5033866080019073ffffffffffffffffffffffffffffffffffffffff16908173ffffffffffffffffffffffffffffffffffffffff168152505033600c600089815260200190815260200160002060006101000a81548173ffffffffffffffffffffffffffffffffffffffff021916908373ffffffffffffffffffffffffffffffffffffffff16021790555060008661014001901515908115158152505060005b60078054905081101561142c57876007828154811061139d5761139c614115565b5b90600052602060002090600b020160010154036114195733600782815481106113c9576113c8614115565b5b90600052602060002090600b020160040160006101000a81548173ffffffffffffffffffffffffffffffffffffffff021916908373ffffffffffffffffffffffffffffffffffffffff1602179055505b8080611424906140cd565b91505061137b565b505050505050505050505050565b600080611446836126a4565b9050600073ffffffffffffffffffffffffffffffffffffffff168173ffffffffffffffffffffffffffffffffffffffff16036114b7576040517f08c379a00000000000000000000000000000000000000000000000000000000081526004016114ae906144ab565b60405180910390fd5b80915050919050565b33600080600a60008473ffffffffffffffffffffffffffffffffffffffff1673ffffffffffffffffffffffffffffffffffffffff168152602001908152602001600020805461150e90613b61565b905011905080611553576040517f08c379a000000000000000000000000000000000000000000000000000000000815260040161154a9061453d565b60405180910390fd5b886000805b6007805490508110156115f857826040516020016115769190614180565b60405160208183030381529060405280519060200120600782815481106115a05761159f614115565b5b90600052602060002090600b02016000016040516020016115c1919061421a565b60405160208183030381529060405280519060200120036115e557600191506115f8565b80806115f0906140cd565b915050611558565b50801561163a576040517f08c379a0000000000000000000000000000000000000000000000000000000008152600401611631906145cf565b60405180910390fd5b60006040518061016001604052808d81526020016116586006612696565b81526020018c8152602001600a60003373ffffffffffffffffffffffffffffffffffffffff1673ffffffffffffffffffffffffffffffffffffffff16815260200190815260200160002080546116ad90613b61565b80601f01602080910402602001604051908101604052809291908181526020018280546116d990613b61565b80156117265780601f106116fb57610100808354040283529160200191611726565b820191906000526020600020905b81548152906001019060200180831161170957829003601f168201915b505050505081526020013373ffffffffffffffffffffffffffffffffffffffff1681526020018a81526020018981526020018881526020018781526020018b815260200160011515815250905061177d6006612696565b600b8d60405161178d9190614180565b90815260200160405180910390208190555080600960006117ae6006612696565b815260200190815260200160002060008201518160000190816117d19190613fcc565b50602082015181600101556040820151816002015560608201518160030190816117fb9190613fcc565b5060808201518160040160006101000a81548173ffffffffffffffffffffffffffffffffffffffff021916908373ffffffffffffffffffffffffffffffffffffffff16021790555060a0820151816005015560c0820151816006015560e082015181600701556101008201518160080155610120820151816009015561014082015181600a0160006101000a81548160ff02191690831515021790555090505033600c60006118aa6006612696565b815260200190815260200160002060006101000a81548173ffffffffffffffffffffffffffffffffffffffff021916908373ffffffffffffffffffffffffffffffffffffffff160217905550611909336119046006612696565b6126e1565b61191360066126ff565b60078190806001815401808255809150506001900390600052602060002090600b020160009091909190915060008201518160000190816119549190613fcc565b506020820151816001015560408201518160020155606082015181600301908161197e9190613fcc565b5060808201518160040160006101000a81548173ffffffffffffffffffffffffffffffffffffffff021916908373ffffffffffffffffffffffffffffffffffffffff16021790555060a0820151816005015560c0820151816006015560e082015181600701556101008201518160080155610120820151816009015561014082015181600a0160006101000a81548160ff0219169083151502179055505050505050505050505050505050565b60008073ffffffffffffffffffffffffffffffffffffffff168273ffffffffffffffffffffffffffffffffffffffff1603611a9b576040517f08c379a0000000000000000000000000000000000000000000000000000000008152600401611a9290614661565b60405180910390fd5b600360008373ffffffffffffffffffffffffffffffffffffffff1673ffffffffffffffffffffffffffffffffffffffff168152602001908152602001600020549050919050565b60068060000154905081565b606060018054611afd90613b61565b80601f0160208091040260200160405190810160405280929190818152602001828054611b2990613b61565b8015611b765780601f10611b4b57610100808354040283529160200191611b76565b820191906000526020600020905b815481529060010190602001808311611b5957829003601f168201915b5050505050905090565b611b92611b8b612247565b8383612715565b5050565b611ba7611ba1612247565b83612308565b611be6576040517f08c379a0000000000000000000000000000000000000000000000000000000008152600401611bdd90613d28565b60405180910390fd5b611bf284848484612881565b50505050565b6009602052806000526040600020600091509050806000018054611c1b90613b61565b80601f0160208091040260200160405190810160405280929190818152602001828054611c4790613b61565b8015611c945780601f10611c6957610100808354040283529160200191611c94565b820191906000526020600020905b815481529060010190602001808311611c7757829003601f168201915b505050505090806001015490806002015490806003018054611cb590613b61565b80601f0160208091040260200160405190810160405280929190818152602001828054611ce190613b61565b8015611d2e5780601f10611d0357610100808354040283529160200191611d2e565b820191906000526020600020905b815481529060010190602001808311611d1157829003601f168201915b5050505050908060040160009054906101000a900473ffffffffffffffffffffffffffffffffffffffff169080600501549080600601549080600701549080600801549080600901549080600a0160009054906101000a900460ff1690508b565b6060611d9a826121fc565b6000611da46128dd565b90506000815111611dc45760405180602001604052806000815250611def565b80611dce846128f4565b604051602001611ddf929190614681565b6040516020818303038152906040525b915050919050565b803373ffffffffffffffffffffffffffffffffffffffff16600c600083815260200190815260200160002060009054906101000a900473ffffffffffffffffffffffffffffffffffffffff1673ffffffffffffffffffffffffffffffffffffffff1614611e99576040517f08c379a0000000000000000000000000000000000000000000000000000000008152600401611e90906146f1565b60405180910390fd5b6001151560096000848152602001908152602001600020600a0160009054906101000a900460ff16151503611efc57600060096000848152602001908152602001600020600a0160006101000a81548160ff021916908315150217905550611f2c565b600160096000848152602001908152602001600020600a0160006101000a81548160ff0219169083151502179055505b5050565b813373ffffffffffffffffffffffffffffffffffffffff16600c600083815260200190815260200160002060009054906101000a900473ffffffffffffffffffffffffffffffffffffffff1673ffffffffffffffffffffffffffffffffffffffff1614611fd2576040517f08c379a0000000000000000000000000000000000000000000000000000000008152600401611fc9906146f1565b60405180910390fd5b81600960008581526020019081526020016000206002016000828254611ff89190614355565b92505081905550505050565b6000600560008473ffffffffffffffffffffffffffffffffffffffff1673ffffffffffffffffffffffffffffffffffffffff16815260200190815260200160002060008373ffffffffffffffffffffffffffffffffffffffff1673ffffffffffffffffffffffffffffffffffffffff16815260200190815260200160002060009054906101000a900460ff16905092915050565b600860009054906101000a900473ffffffffffffffffffffffffffffffffffffffff1681565b813373ffffffffffffffffffffffffffffffffffffffff16600c600083815260200190815260200160002060009054906101000a900473ffffffffffffffffffffffffffffffffffffffff1673ffffffffffffffffffffffffffffffffffffffff1614612160576040517f08c379a0000000000000000000000000000000000000000000000000000000008152600401612157906146f1565b60405180910390fd5b81600960008581526020019081526020016000206002016000828254612186919061442b565b92505081905550505050565b60007f01ffc9a7000000000000000000000000000000000000000000000000000000007bffffffffffffffffffffffffffffffffffffffffffffffffffffffff1916827bffffffffffffffffffffffffffffffffffffffffffffffffffffffff1916149050919050565b612205816129c2565b612244576040517f08c379a000000000000000000000000000000000000000000000000000000000815260040161223b906144ab565b60405180910390fd5b50565b600033905090565b816004600083815260200190815260200160002060006101000a81548173ffffffffffffffffffffffffffffffffffffffff021916908373ffffffffffffffffffffffffffffffffffffffff160217905550808273ffffffffffffffffffffffffffffffffffffffff166122c28361143a565b73ffffffffffffffffffffffffffffffffffffffff167f8c5be1e5ebec7d5bd14f71427d1e84f3dd0314c0f7b2291e5b200ac8c7c3b92560405160405180910390a45050565b6000806123148361143a565b90508073ffffffffffffffffffffffffffffffffffffffff168473ffffffffffffffffffffffffffffffffffffffff16148061235657506123558185612004565b5b8061239457508373ffffffffffffffffffffffffffffffffffffffff1661237c846106fb565b73ffffffffffffffffffffffffffffffffffffffff16145b91505092915050565b8273ffffffffffffffffffffffffffffffffffffffff166123bd8261143a565b73ffffffffffffffffffffffffffffffffffffffff1614612413576040517f08c379a000000000000000000000000000000000000000000000000000000000815260040161240a90614783565b60405180910390fd5b600073ffffffffffffffffffffffffffffffffffffffff168273ffffffffffffffffffffffffffffffffffffffff1603612482576040517f08c379a000000000000000000000000000000000000000000000000000000000815260040161247990614815565b60405180910390fd5b61248f8383836001612a03565b8273ffffffffffffffffffffffffffffffffffffffff166124af8261143a565b73ffffffffffffffffffffffffffffffffffffffff1614612505576040517f08c379a00000000000000000000000000000000000000000000000000000000081526004016124fc90614783565b60405180910390fd5b6004600082815260200190815260200160002060006101000a81549073ffffffffffffffffffffffffffffffffffffffff02191690556001600360008573ffffffffffffffffffffffffffffffffffffffff1673ffffffffffffffffffffffffffffffffffffffff168152602001908152602001600020600082825403925050819055506001600360008473ffffffffffffffffffffffffffffffffffffffff1673ffffffffffffffffffffffffffffffffffffffff16815260200190815260200160002060008282540192505081905550816002600083815260200190815260200160002060006101000a81548173ffffffffffffffffffffffffffffffffffffffff021916908373ffffffffffffffffffffffffffffffffffffffff160217905550808273ffffffffffffffffffffffffffffffffffffffff168473ffffffffffffffffffffffffffffffffffffffff167fddf252ad1be2c89b69c2b068fc378daa952ba7f163c4a11628f55a4df523b3ef60405160405180910390a46126918383836001612a09565b505050565b600081600001549050919050565b60006002600083815260200190815260200160002060009054906101000a900473ffffffffffffffffffffffffffffffffffffffff169050919050565b6126fb828260405180602001604052806000815250612a0f565b5050565b6001816000016000828254019250508190555050565b8173ffffffffffffffffffffffffffffffffffffffff168373ffffffffffffffffffffffffffffffffffffffff1603612783576040517f08c379a000000000000000000000000000000000000000000000000000000000815260040161277a90614881565b60405180910390fd5b80600560008573ffffffffffffffffffffffffffffffffffffffff1673ffffffffffffffffffffffffffffffffffffffff16815260200190815260200160002060008473ffffffffffffffffffffffffffffffffffffffff1673ffffffffffffffffffffffffffffffffffffffff16815260200190815260200160002060006101000a81548160ff0219169083151502179055508173ffffffffffffffffffffffffffffffffffffffff168373ffffffffffffffffffffffffffffffffffffffff167f17307eab39ab6107e8899845ad3d59bd9653f200f220920489ca2b5937696c318360405161287491906130aa565b60405180910390a3505050565b61288c84848461239d565b61289884848484612a6a565b6128d7576040517f08c379a00000000000000000000000000000000000000000000000000000000081526004016128ce90614913565b60405180910390fd5b50505050565b606060405180602001604052806000815250905090565b60606000600161290384612bf1565b01905060008167ffffffffffffffff811115612922576129216132ff565b5b6040519080825280601f01601f1916602001820160405280156129545781602001600182028036833780820191505090505b509050600082602001820190505b6001156129b7578080600190039150507f3031323334353637383961626364656600000000000000000000000000000000600a86061a8153600a85816129ab576129aa614389565b5b04945060008503612962575b819350505050919050565b60008073ffffffffffffffffffffffffffffffffffffffff166129e4836126a4565b73ffffffffffffffffffffffffffffffffffffffff1614159050919050565b50505050565b50505050565b612a198383612d44565b612a266000848484612a6a565b612a65576040517f08c379a0000000000000000000000000000000000000000000000000000000008152600401612a5c90614913565b60405180910390fd5b505050565b6000612a8b8473ffffffffffffffffffffffffffffffffffffffff16612f61565b15612be4578373ffffffffffffffffffffffffffffffffffffffff1663150b7a02612ab4612247565b8786866040518563ffffffff1660e01b8152600401612ad69493929190614988565b6020604051808303816000875af1925050508015612b1257506040513d601f19601f82011682018060405250810190612b0f91906149e9565b60015b612b94573d8060008114612b42576040519150601f19603f3d011682016040523d82523d6000602084013e612b47565b606091505b506000815103612b8c576040517f08c379a0000000000000000000000000000000000000000000000000000000008152600401612b8390614913565b60405180910390fd5b805181602001fd5b63150b7a0260e01b7bffffffffffffffffffffffffffffffffffffffffffffffffffffffff1916817bffffffffffffffffffffffffffffffffffffffffffffffffffffffff191614915050612be9565b600190505b949350505050565b600080600090507a184f03e93ff9f4daa797ed6e38ed64bf6a1f0100000000000000008310612c4f577a184f03e93ff9f4daa797ed6e38ed64bf6a1f0100000000000000008381612c4557612c44614389565b5b0492506040810190505b6d04ee2d6d415b85acef81000000008310612c8c576d04ee2d6d415b85acef81000000008381612c8257612c81614389565b5b0492506020810190505b662386f26fc100008310612cbb57662386f26fc100008381612cb157612cb0614389565b5b0492506010810190505b6305f5e1008310612ce4576305f5e1008381612cda57612cd9614389565b5b0492506008810190505b6127108310612d09576127108381612cff57612cfe614389565b5b0492506004810190505b60648310612d2c5760648381612d2257612d21614389565b5b0492506002810190505b600a8310612d3b576001810190505b80915050919050565b600073ffffffffffffffffffffffffffffffffffffffff168273ffffffffffffffffffffffffffffffffffffffff1603612db3576040517f08c379a0000000000000000000000000000000000000000000000000000000008152600401612daa90614a62565b60405180910390fd5b612dbc816129c2565b15612dfc576040517f08c379a0000000000000000000000000000000000000000000000000000000008152600401612df390614ace565b60405180910390fd5b612e0a600083836001612a03565b612e13816129c2565b15612e53576040517f08c379a0000000000000000000000000000000000000000000000000000000008152600401612e4a90614ace565b60405180910390fd5b6001600360008473ffffffffffffffffffffffffffffffffffffffff1673ffffffffffffffffffffffffffffffffffffffff16815260200190815260200160002060008282540192505081905550816002600083815260200190815260200160002060006101000a81548173ffffffffffffffffffffffffffffffffffffffff021916908373ffffffffffffffffffffffffffffffffffffffff160217905550808273ffffffffffffffffffffffffffffffffffffffff16600073ffffffffffffffffffffffffffffffffffffffff167fddf252ad1be2c89b69c2b068fc378daa952ba7f163c4a11628f55a4df523b3ef60405160405180910390a4612f5d600083836001612a09565b5050565b6000808273ffffffffffffffffffffffffffffffffffffffff163b119050919050565b60405180610160016040528060608152602001600081526020016000815260200160608152602001600073ffffffffffffffffffffffffffffffffffffffff16815260200160008152602001600081526020016000815260200160008152602001600081526020016000151581525090565b6000604051905090565b600080fd5b600080fd5b60007fffffffff0000000000000000000000000000000000000000000000000000000082169050919050565b61303f8161300a565b811461304a57600080fd5b50565b60008135905061305c81613036565b92915050565b60006020828403121561307857613077613000565b5b60006130868482850161304d565b91505092915050565b60008115159050919050565b6130a48161308f565b82525050565b60006020820190506130bf600083018461309b565b92915050565b600081519050919050565b600082825260208201905092915050565b60005b838110156130ff5780820151818401526020810190506130e4565b60008484015250505050565b6000601f19601f8301169050919050565b6000613127826130c5565b61313181856130d0565b93506131418185602086016130e1565b61314a8161310b565b840191505092915050565b6000602082019050818103600083015261316f818461311c565b905092915050565b6000819050919050565b61318a81613177565b811461319557600080fd5b50565b6000813590506131a781613181565b92915050565b6000602082840312156131c3576131c2613000565b5b60006131d184828501613198565b91505092915050565b600073ffffffffffffffffffffffffffffffffffffffff82169050919050565b6000613205826131da565b9050919050565b613215816131fa565b82525050565b6000602082019050613230600083018461320c565b92915050565b61323f816131fa565b811461324a57600080fd5b50565b60008135905061325c81613236565b92915050565b6000806040838503121561327957613278613000565b5b60006132878582860161324d565b925050602061329885828601613198565b9150509250929050565b6000806000606084860312156132bb576132ba613000565b5b60006132c98682870161324d565b93505060206132da8682870161324d565b92505060406132eb86828701613198565b9150509250925092565b600080fd5b600080fd5b7f4e487b7100000000000000000000000000000000000000000000000000000000600052604160045260246000fd5b6133378261310b565b810181811067ffffffffffffffff82111715613356576133556132ff565b5b80604052505050565b6000613369612ff6565b9050613375828261332e565b919050565b600067ffffffffffffffff821115613395576133946132ff565b5b61339e8261310b565b9050602081019050919050565b82818337600083830152505050565b60006133cd6133c88461337a565b61335f565b9050828152602081018484840111156133e9576133e86132fa565b5b6133f48482856133ab565b509392505050565b600082601f830112613411576134106132f5565b5b81356134218482602086016133ba565b91505092915050565b6000806040838503121561344157613440613000565b5b600083013567ffffffffffffffff81111561345f5761345e613005565b5b61346b858286016133fc565b925050602061347c8582860161324d565b9150509250929050565b600081519050919050565b600082825260208201905092915050565b6000819050602082019050919050565b600082825260208201905092915050565b60006134ce826130c5565b6134d881856134b2565b93506134e88185602086016130e1565b6134f18161310b565b840191505092915050565b61350581613177565b82525050565b6000613516826131da565b9050919050565b6135268161350b565b82525050565b6135358161308f565b82525050565b600061016083016000830151848203600086015261355982826134c3565b915050602083015161356e60208601826134fc565b50604083015161358160408601826134fc565b506060830151848203606086015261359982826134c3565b91505060808301516135ae608086018261351d565b5060a08301516135c160a08601826134fc565b5060c08301516135d460c08601826134fc565b5060e08301516135e760e08601826134fc565b506101008301516135fc6101008601826134fc565b506101208301516136116101208601826134fc565b5061014083015161362661014086018261352c565b508091505092915050565b600061363d838361353b565b905092915050565b6000602082019050919050565b600061365d82613486565b6136678185613491565b935083602082028501613679856134a2565b8060005b858110156136b557848403895281516136968582613631565b94506136a183613645565b925060208a0199505060018101905061367d565b50829750879550505050505092915050565b600060208201905081810360008301526136e18184613652565b905092915050565b60008060408385031215613700576136ff613000565b5b600061370e85828601613198565b925050602083013567ffffffffffffffff81111561372f5761372e613005565b5b61373b858286016133fc565b9150509250929050565b600080600080600080600060e0888a03121561376457613763613000565b5b600088013567ffffffffffffffff81111561378257613781613005565b5b61378e8a828b016133fc565b975050602061379f8a828b01613198565b96505060406137b08a828b01613198565b95505060606137c18a828b01613198565b94505060806137d28a828b01613198565b93505060a06137e38a828b01613198565b92505060c06137f48a828b01613198565b91505092959891949750929550565b60006020828403121561381957613818613000565b5b60006138278482850161324d565b91505092915050565b61383981613177565b82525050565b60006020820190506138546000830184613830565b92915050565b6138638161308f565b811461386e57600080fd5b50565b6000813590506138808161385a565b92915050565b6000806040838503121561389d5761389c613000565b5b60006138ab8582860161324d565b92505060206138bc85828601613871565b9150509250929050565b600067ffffffffffffffff8211156138e1576138e06132ff565b5b6138ea8261310b565b9050602081019050919050565b600061390a613905846138c6565b61335f565b905082815260208101848484011115613926576139256132fa565b5b6139318482856133ab565b509392505050565b600082601f83011261394e5761394d6132f5565b5b813561395e8482602086016138f7565b91505092915050565b6000806000806080858703121561398157613980613000565b5b600061398f8782880161324d565b94505060206139a08782880161324d565b93505060406139b187828801613198565b925050606085013567ffffffffffffffff8111156139d2576139d1613005565b5b6139de87828801613939565b91505092959194509250565b6139f38161350b565b82525050565b6000610160820190508181036000830152613a14818e61311c565b9050613a23602083018d613830565b613a30604083018c613830565b8181036060830152613a42818b61311c565b9050613a51608083018a6139ea565b613a5e60a0830189613830565b613a6b60c0830188613830565b613a7860e0830187613830565b613a86610100830186613830565b613a94610120830185613830565b613aa261014083018461309b565b9c9b505050505050505050505050565b60008060408385031215613ac957613ac8613000565b5b6000613ad785828601613198565b9250506020613ae885828601613198565b9150509250929050565b60008060408385031215613b0957613b08613000565b5b6000613b178582860161324d565b9250506020613b288582860161324d565b9150509250929050565b7f4e487b7100000000000000000000000000000000000000000000000000000000600052602260045260246000fd5b60006002820490506001821680613b7957607f821691505b602082108103613b8c57613b8b613b32565b5b50919050565b7f4552433732313a20617070726f76616c20746f2063757272656e74206f776e6560008201527f7200000000000000000000000000000000000000000000000000000000000000602082015250565b6000613bee6021836130d0565b9150613bf982613b92565b604082019050919050565b60006020820190508181036000830152613c1d81613be1565b9050919050565b7f4552433732313a20617070726f76652063616c6c6572206973206e6f7420746f60008201527f6b656e206f776e6572206f7220617070726f76656420666f7220616c6c000000602082015250565b6000613c80603d836130d0565b9150613c8b82613c24565b604082019050919050565b60006020820190508181036000830152613caf81613c73565b9050919050565b7f4552433732313a2063616c6c6572206973206e6f7420746f6b656e206f776e6560008201527f72206f7220617070726f76656400000000000000000000000000000000000000602082015250565b6000613d12602d836130d0565b9150613d1d82613cb6565b604082019050919050565b60006020820190508181036000830152613d4181613d05565b9050919050565b7f4475706c69636174652050726f64756374696f6e20486f757365000000000000600082015250565b6000613d7e601a836130d0565b9150613d8982613d48565b602082019050919050565b60006020820190508181036000830152613dad81613d71565b9050919050565b7f4e6f7420616e2041646d696e2c206e6f20616363657373000000000000000000600082015250565b6000613dea6017836130d0565b9150613df582613db4565b602082019050919050565b60006020820190508181036000830152613e1981613ddd565b9050919050565b60008190508160005260206000209050919050565b60006020601f8301049050919050565b600082821b905092915050565b600060088302613e827fffffffffffffffffffffffffffffffffffffffffffffffffffffffffffffffff82613e45565b613e8c8683613e45565b95508019841693508086168417925050509392505050565b6000819050919050565b6000613ec9613ec4613ebf84613177565b613ea4565b613177565b9050919050565b6000819050919050565b613ee383613eae565b613ef7613eef82613ed0565b848454613e52565b825550505050565b600090565b613f0c613eff565b613f17818484613eda565b505050565b5b81811015613f3b57613f30600082613f04565b600181019050613f1d565b5050565b601f821115613f8057613f5181613e20565b613f5a84613e35565b81016020851015613f69578190505b613f7d613f7585613e35565b830182613f1c565b50505b505050565b600082821c905092915050565b6000613fa360001984600802613f85565b1980831691505092915050565b6000613fbc8383613f92565b9150826002028217905092915050565b613fd5826130c5565b67ffffffffffffffff811115613fee57613fed6132ff565b5b613ff88254613b61565b614003828285613f3f565b600060209050601f8311600181146140365760008415614024578287015190505b61402e8582613fb0565b865550614096565b601f19841661404486613e20565b60005b8281101561406c57848901518255600182019150602085019450602081019050614047565b868310156140895784890151614085601f891682613f92565b8355505b6001600288020188555050505b505050505050565b7f4e487b7100000000000000000000000000000000000000000000000000000000600052601160045260246000fd5b60006140d882613177565b91507fffffffffffffffffffffffffffffffffffffffffffffffffffffffffffffffff820361410a5761410961409e565b5b600182019050919050565b7f4e487b7100000000000000000000000000000000000000000000000000000000600052603260045260246000fd5b600081905092915050565b600061415a826130c5565b6141648185614144565b93506141748185602086016130e1565b80840191505092915050565b600061418c828461414f565b915081905092915050565b600081546141a481613b61565b6141ae8186614144565b945060018216600081146141c957600181146141de57614211565b60ff1983168652811515820286019350614211565b6141e785613e20565b60005b83811015614209578154818901526001820191506020810190506141ea565b838801955050505b50505092915050565b60006142268284614197565b915081905092915050565b7f4120746f6b656e206973206e6f742070726573656e7420666f7220746869732060008201527f6d6f766965000000000000000000000000000000000000000000000000000000602082015250565b600061428d6025836130d0565b915061429882614231565b604082019050919050565b600060208201905081810360008301526142bc81614280565b9050919050565b7f526573616c65206973206e6f7420616c6c6f77656420666f722074686973206d60008201527f6f76696500000000000000000000000000000000000000000000000000000000602082015250565b600061431f6024836130d0565b915061432a826142c3565b604082019050919050565b6000602082019050818103600083015261434e81614312565b9050919050565b600061436082613177565b915061436b83613177565b92508282019050808211156143835761438261409e565b5b92915050565b7f4e487b7100000000000000000000000000000000000000000000000000000000600052601260045260246000fd5b60006143c382613177565b91506143ce83613177565b9250826143de576143dd614389565b5b828204905092915050565b60006143f482613177565b91506143ff83613177565b925082820261440d81613177565b915082820484148315176144245761442361409e565b5b5092915050565b600061443682613177565b915061444183613177565b92508282039050818111156144595761445861409e565b5b92915050565b7f4552433732313a20696e76616c696420746f6b656e2049440000000000000000600082015250565b60006144956018836130d0565b91506144a08261445f565b602082019050919050565b600060208201905081810360008301526144c481614488565b9050919050565b7f4e6f74206120726567697374657265642070726f64756374696f6e20686f757360008201527f6500000000000000000000000000000000000000000000000000000000000000602082015250565b60006145276021836130d0565b9150614532826144cb565b604082019050919050565b600060208201905081810360008301526145568161451a565b9050919050565b7f4120746f6b656e20697320616c72656164792070726573656e7420666f72207460008201527f686973206d6f7669650000000000000000000000000000000000000000000000602082015250565b60006145b96029836130d0565b91506145c48261455d565b604082019050919050565b600060208201905081810360008301526145e8816145ac565b9050919050565b7f4552433732313a2061646472657373207a65726f206973206e6f74206120766160008201527f6c6964206f776e65720000000000000000000000000000000000000000000000602082015250565b600061464b6029836130d0565b9150614656826145ef565b604082019050919050565b6000602082019050818103600083015261467a8161463e565b9050919050565b600061468d828561414f565b9150614699828461414f565b91508190509392505050565b7f4e6f7420746865206f776e6572206f662074686520746f6b656e000000000000600082015250565b60006146db601a836130d0565b91506146e6826146a5565b602082019050919050565b6000602082019050818103600083015261470a816146ce565b9050919050565b7f4552433732313a207472616e736665722066726f6d20696e636f72726563742060008201527f6f776e6572000000000000000000000000000000000000000000000000000000602082015250565b600061476d6025836130d0565b915061477882614711565b604082019050919050565b6000602082019050818103600083015261479c81614760565b9050919050565b7f4552433732313a207472616e7366657220746f20746865207a65726f2061646460008201527f7265737300000000000000000000000000000000000000000000000000000000602082015250565b60006147ff6024836130d0565b915061480a826147a3565b604082019050919050565b6000602082019050818103600083015261482e816147f2565b9050919050565b7f4552433732313a20617070726f766520746f2063616c6c657200000000000000600082015250565b600061486b6019836130d0565b915061487682614835565b602082019050919050565b6000602082019050818103600083015261489a8161485e565b9050919050565b7f4552433732313a207472616e7366657220746f206e6f6e20455243373231526560008201527f63656976657220696d706c656d656e7465720000000000000000000000000000602082015250565b60006148fd6032836130d0565b9150614908826148a1565b604082019050919050565b6000602082019050818103600083015261492c816148f0565b9050919050565b600081519050919050565b600082825260208201905092915050565b600061495a82614933565b614964818561493e565b93506149748185602086016130e1565b61497d8161310b565b840191505092915050565b600060808201905061499d600083018761320c565b6149aa602083018661320c565b6149b76040830185613830565b81810360608301526149c9818461494f565b905095945050505050565b6000815190506149e381613036565b92915050565b6000602082840312156149ff576149fe613000565b5b6000614a0d848285016149d4565b91505092915050565b7f4552433732313a206d696e7420746f20746865207a65726f2061646472657373600082015250565b6000614a4c6020836130d0565b9150614a5782614a16565b602082019050919050565b60006020820190508181036000830152614a7b81614a3f565b9050919050565b7f4552433732313a20746f6b656e20616c7265616479206d696e74656400000000600082015250565b6000614ab8601c836130d0565b9150614ac382614a82565b602082019050919050565b60006020820190508181036000830152614ae781614aab565b905091905056fea2646970667358221220e03173c01a82acafdede42b4d736ca8beb319ff75de1a96ef5302ebcaacafb0a64736f6c63430008130033",
  "immutableReferences": {},
  "source": "// SPDX-License-Identifier: UNLICENSED\npragma solidity ^0.8.0;\n\nimport \"@openzeppelin/contracts/token/ERC721/ERC721.sol\";\nimport \"@openzeppelin/contracts/utils/Counters.sol\";\n\ncontract MovieToken is ERC721 {\n    using Counters for Counters.Counter;\n    Counters.Counter public tokenIds;\n\n    struct Token {\n        string movieName;\n        uint256 tokenId;\n        uint basePrice;\n        string productionCompany;\n        address payable ownerAddr;\n        uint minTime;\n        uint maxTime;\n        uint apprPercent;\n        uint deprPercent;\n        uint baseDays;\n\n        bool resale;\n    }\n\n    Token[] allTokens;\n    address public admin;\n    mapping(uint256 => Token) public tokenIdToTokenMap;\n    mapping(address=>string) productionAddrToNameMap;\n    mapping(string=>uint) nameTokenIdMap;\n    mapping(uint=>address) tokenIdToOwnerMap;\n\n    modifier duplicateProdHouse (address addr){\n        bool duplicate = bytes(productionAddrToNameMap[addr]).length > 0 ;\n        require(!duplicate,\"Duplicate Production House\");\n        _;\n    }\n\n    modifier onlyAdmin{\n        require(msg.sender == admin,\"Not an Admin, no access\");\n        _;\n    }\n\n    modifier validProdHouse(address addr){\n        bool duplicate = bytes(productionAddrToNameMap[addr]).length > 0 ;\n        require(duplicate,\"Not a registered production house\");\n        _;\n    }\n\n    modifier duplicateMovieToken(string memory name){ // self exp.\n        bool duplicate = false;\n        for(uint i=0;i<allTokens.length;i++){\n\n            if(keccak256(abi.encodePacked(allTokens[i].movieName)) == keccak256(abi.encodePacked(name))){\n                duplicate = true;break;\n            }\n        }\n\n        require(!duplicate,\"A token is already present for this movie\");\n        _;\n    }\n\n    modifier validMovieToken(string memory name){ // self exp.\n        bool duplicate = false;\n        for(uint i=0;i<allTokens.length;i++){\n\n            if(keccak256(abi.encodePacked(allTokens[i].movieName)) == keccak256(abi.encodePacked(name))){\n                duplicate = true;break;\n            }\n        }\n\n        require(duplicate,\"A token is not present for this movie\");\n        _;\n    }\n\n    modifier validMinMaxValues(uint min,uint max){ // min (both days and appr/depr, should be +ve\n        require(min<=max && min>0 && max>0,\"Invalid Min Max values\");\n        _;\n    }\n\n    modifier checkTokenOwner(uint tokenId){\n        require(tokenIdToOwnerMap[tokenId]==msg.sender,\"Not the owner of the token\");\n        _;\n    }\n\n    constructor() ERC721(\"MovieTokenization\",\"MVTK\"){\n        admin = msg.sender;\n    }\n\n    function registerProductionHouse(string memory name,address addr) public duplicateProdHouse(msg.sender) onlyAdmin{\n        productionAddrToNameMap[addr] = name;\n    }\n    // uint appr, uint depr,uint minTime,uint maxTime, uint baseValue)\n\n    // function createMovieToken(string memory movieName, Token memory input) public validProdHouse(msg.sender) duplicateMovieToken(movieName) validMinMaxValues(input.minTime,input.maxTime) validMinMaxValues(input.apprPercent,input.deprPercent){\n    //     //check if the user is a registerd prod house or not, handled in validProdHouse modifier\n    //     //check for duplicate token\n    //     // string memory prodName = productionAddrToNameMap[msg.sender];\n    //     //check if input values are valid\n    //     // address payable sender = payable(msg.sender);\n    //     Token memory newToken = Token(movieName,tokenIds.current(),input.basePrice,productionAddrToNameMap[msg.sender],payable(msg.sender),input.minTime,input.maxTime,input.apprPercent,input.deprPercent,true);\n\n    //     nameTokenIdMap[movieName] = tokenIds.current();\n    //     tokenIdToTokenMap[tokenIds.current()] = newToken;\n    //     tokenIdToOwnerMap[tokenIds.current()] = msg.sender;\n    //     _safeMint(msg.sender, tokenIds.current());\n    //     tokenIds.increment();\n    //     allTokens.push(newToken);\n\n\n    // }\n\n    function createMovieToken(string memory movieName, uint basePrice,uint baseDays, uint minTime,uint maxTime,uint apprPercent,uint deprPercent) public validProdHouse(msg.sender) duplicateMovieToken(movieName){\n        //check if the user is a registerd prod house or not, handled in validProdHouse modifier\n        //check for duplicate token\n        // string memory prodName = productionAddrToNameMap[msg.sender];\n        //check if input values are valid\n        // address payable sender = payable(msg.sender);\n        Token memory newToken = Token(movieName,tokenIds.current(),basePrice,productionAddrToNameMap[msg.sender],payable(msg.sender),minTime,maxTime,apprPercent,deprPercent,baseDays,true);\n\n        nameTokenIdMap[movieName] = tokenIds.current();\n        tokenIdToTokenMap[tokenIds.current()] = newToken;\n        tokenIdToOwnerMap[tokenIds.current()] = msg.sender;\n        _safeMint(msg.sender, tokenIds.current());\n        tokenIds.increment();\n        allTokens.push(newToken);\n\n\n    }\n\n    function buyMovieToken(uint dayss, string memory movieName) public payable validMovieToken(movieName){ //changed tokenId to movieName, as there's no visibility provided right now\n        //check if the movieName is valid, in modifier\n        //days can be +/-, - represents earlier, + later\n        uint tokenId = nameTokenIdMap[movieName];\n        Token memory token = tokenIdToTokenMap[tokenId];\n        require(token.resale == true, \"Resale is not allowed for this movie\");\n        uint value = token.basePrice;\n        uint minDays = token.minTime;\n        uint maxDays = token.maxTime;\n        uint baseDays = token.baseDays;\n\n        uint finalValue = value;// case where dayss == baseDays\n\n\n        if(dayss > minDays && dayss < (minDays+ baseDays) / 2 ){ //highest cost\n            finalValue += finalValue * (token.apprPercent/100);\n            finalValue += finalValue * (token.apprPercent/100);\n        }else if(dayss>=(baseDays+dayss)/2 && dayss<baseDays ){//2nd highest\n            finalValue += finalValue * (token.apprPercent/100);\n        }else if(dayss>baseDays && dayss<=(baseDays+maxDays)/2){//second least\n            finalValue -= finalValue * (token.apprPercent/100);\n        }else if(dayss>(baseDays+maxDays)/2){//least most\n            finalValue -= finalValue * (token.apprPercent/100);\n            finalValue -= finalValue * (token.apprPercent/100);\n        }\n\n\n\n        //get token owner and transfer ether\n        token.ownerAddr.transfer(msg.value); // failure of this reverts everything needn't explicitly handle for now, TODO: better, give a proper error message\n\n        //change ownership\n        token.ownerAddr = payable(msg.sender);\n        //also in map\n        tokenIdToOwnerMap[tokenId] = msg.sender;\n        //disable resale\n        token.resale  = false;\n        //change in token list\n        for(uint i=0;i<allTokens.length;i++){\n            if(allTokens[i].tokenId == tokenId){\n                allTokens[i].ownerAddr = payable(msg.sender);\n            }\n        }\n\n    }\n\n\n    function appreciateTokenValue(uint256 tokenId, uint value) public checkTokenOwner(tokenId){ //how will the user know tokenid, remember? give him visibility\n        tokenIdToTokenMap[tokenId].basePrice += value;\n    }\n\n    function depreciateTokenValue(uint256 tokenId, uint value) public checkTokenOwner(tokenId){\n        tokenIdToTokenMap[tokenId].basePrice -=  value;\n    }\n\n    function enableOrDisableResale(uint tokenId) public checkTokenOwner(tokenId){\n        if(tokenIdToTokenMap[tokenId].resale == true){\n            tokenIdToTokenMap[tokenId].resale = false;\n        }else{\n            tokenIdToTokenMap[tokenId].resale = true;\n        }\n    }\n\n\n    function viewTokens() public view returns(Token[] memory){\n\n        Token[] memory result = new Token[](allTokens.length);\n        uint index = 0;\n        for(uint i=0;i<=tokenIds.current();i++){ // no support to deleting tokens, so looping through all tokenids is equal to keys\n\n            if(tokenIdToTokenMap[i].ownerAddr == msg.sender){\n                result[index++]=tokenIdToTokenMap[i];\n            }\n        }\n        return result;\n    }\n\n}\n",
  "sourcePath": "/Users/saisvasgudimalla/Documents/Nani/MS_CS_UB/Spring_2023/Blockchain/FilmToken-Dapp/FilmToken-contract/contracts/FilmToken.sol",
  "compiler": {
    "name": "solc",
    "version": "0.8.19+commit.7dd6d404.Emscripten.clang"
  },
  "schemaVersion": "3.4.13",
  "updatedAt": "2023-04-29T01:43:13.444Z",
  "devdoc": {
    "events": {
      "Approval(address,address,uint256)": {
        "details": "Emitted when `owner` enables `approved` to manage the `tokenId` token."
      },
      "ApprovalForAll(address,address,bool)": {
        "details": "Emitted when `owner` enables or disables (`approved`) `operator` to manage all of its assets."
      },
      "Transfer(address,address,uint256)": {
        "details": "Emitted when `tokenId` token is transferred from `from` to `to`."
      }
    },
    "kind": "dev",
    "methods": {
      "approve(address,uint256)": {
        "details": "See {IERC721-approve}."
      },
      "balanceOf(address)": {
        "details": "See {IERC721-balanceOf}."
      },
      "getApproved(uint256)": {
        "details": "See {IERC721-getApproved}."
      },
      "isApprovedForAll(address,address)": {
        "details": "See {IERC721-isApprovedForAll}."
      },
      "name()": {
        "details": "See {IERC721Metadata-name}."
      },
      "ownerOf(uint256)": {
        "details": "See {IERC721-ownerOf}."
      },
      "safeTransferFrom(address,address,uint256)": {
        "details": "See {IERC721-safeTransferFrom}."
      },
      "safeTransferFrom(address,address,uint256,bytes)": {
        "details": "See {IERC721-safeTransferFrom}."
      },
      "setApprovalForAll(address,bool)": {
        "details": "See {IERC721-setApprovalForAll}."
      },
      "supportsInterface(bytes4)": {
        "details": "See {IERC165-supportsInterface}."
      },
      "symbol()": {
        "details": "See {IERC721Metadata-symbol}."
      },
      "tokenURI(uint256)": {
        "details": "See {IERC721Metadata-tokenURI}."
      },
      "transferFrom(address,address,uint256)": {
        "details": "See {IERC721-transferFrom}."
      }
    },
    "version": 1
  },
  "userdoc": {
    "kind": "user",
    "methods": {},
    "version": 1
  }
}