{
  "contractName": "MovieToken",
  "abi": [
    {
      "inputs": [],
      "stateMutability": "nonpayable",
      "type": "constructor"
    },
    {
      "anonymous": false,
      "inputs": [
        {
          "indexed": true,
          "internalType": "address",
          "name": "owner",
          "type": "address"
        },
        {
          "indexed": true,
          "internalType": "address",
          "name": "approved",
          "type": "address"
        },
        {
          "indexed": true,
          "internalType": "uint256",
          "name": "tokenId",
          "type": "uint256"
        }
      ],
      "name": "Approval",
      "type": "event"
    },
    {
      "anonymous": false,
      "inputs": [
        {
          "indexed": true,
          "internalType": "address",
          "name": "owner",
          "type": "address"
        },
        {
          "indexed": true,
          "internalType": "address",
          "name": "operator",
          "type": "address"
        },
        {
          "indexed": false,
          "internalType": "bool",
          "name": "approved",
          "type": "bool"
        }
      ],
      "name": "ApprovalForAll",
      "type": "event"
    },
    {
      "anonymous": false,
      "inputs": [
        {
          "indexed": true,
          "internalType": "address",
          "name": "from",
          "type": "address"
        },
        {
          "indexed": true,
          "internalType": "address",
          "name": "to",
          "type": "address"
        },
        {
          "indexed": true,
          "internalType": "uint256",
          "name": "tokenId",
          "type": "uint256"
        }
      ],
      "name": "Transfer",
      "type": "event"
    },
    {
      "inputs": [],
      "name": "admin",
      "outputs": [
        {
          "internalType": "address",
          "name": "",
          "type": "address"
        }
      ],
      "stateMutability": "view",
      "type": "function"
    },
    {
      "inputs": [
        {
          "internalType": "address",
          "name": "to",
          "type": "address"
        },
        {
          "internalType": "uint256",
          "name": "tokenId",
          "type": "uint256"
        }
      ],
      "name": "approve",
      "outputs": [],
      "stateMutability": "nonpayable",
      "type": "function"
    },
    {
      "inputs": [
        {
          "internalType": "address",
          "name": "owner",
          "type": "address"
        }
      ],
      "name": "balanceOf",
      "outputs": [
        {
          "internalType": "uint256",
          "name": "",
          "type": "uint256"
        }
      ],
      "stateMutability": "view",
      "type": "function"
    },
    {
      "inputs": [
        {
          "internalType": "uint256",
          "name": "tokenId",
          "type": "uint256"
        }
      ],
      "name": "getApproved",
      "outputs": [
        {
          "internalType": "address",
          "name": "",
          "type": "address"
        }
      ],
      "stateMutability": "view",
      "type": "function"
    },
    {
      "inputs": [
        {
          "internalType": "address",
          "name": "owner",
          "type": "address"
        },
        {
          "internalType": "address",
          "name": "operator",
          "type": "address"
        }
      ],
      "name": "isApprovedForAll",
      "outputs": [
        {
          "internalType": "bool",
          "name": "",
          "type": "bool"
        }
      ],
      "stateMutability": "view",
      "type": "function"
    },
    {
      "inputs": [],
      "name": "name",
      "outputs": [
        {
          "internalType": "string",
          "name": "",
          "type": "string"
        }
      ],
      "stateMutability": "view",
      "type": "function"
    },
    {
      "inputs": [
        {
          "internalType": "uint256",
          "name": "tokenId",
          "type": "uint256"
        }
      ],
      "name": "ownerOf",
      "outputs": [
        {
          "internalType": "address",
          "name": "",
          "type": "address"
        }
      ],
      "stateMutability": "view",
      "type": "function"
    },
    {
      "inputs": [
        {
          "internalType": "address",
          "name": "from",
          "type": "address"
        },
        {
          "internalType": "address",
          "name": "to",
          "type": "address"
        },
        {
          "internalType": "uint256",
          "name": "tokenId",
          "type": "uint256"
        }
      ],
      "name": "safeTransferFrom",
      "outputs": [],
      "stateMutability": "nonpayable",
      "type": "function"
    },
    {
      "inputs": [
        {
          "internalType": "address",
          "name": "from",
          "type": "address"
        },
        {
          "internalType": "address",
          "name": "to",
          "type": "address"
        },
        {
          "internalType": "uint256",
          "name": "tokenId",
          "type": "uint256"
        },
        {
          "internalType": "bytes",
          "name": "data",
          "type": "bytes"
        }
      ],
      "name": "safeTransferFrom",
      "outputs": [],
      "stateMutability": "nonpayable",
      "type": "function"
    },
    {
      "inputs": [
        {
          "internalType": "address",
          "name": "operator",
          "type": "address"
        },
        {
          "internalType": "bool",
          "name": "approved",
          "type": "bool"
        }
      ],
      "name": "setApprovalForAll",
      "outputs": [],
      "stateMutability": "nonpayable",
      "type": "function"
    },
    {
      "inputs": [
        {
          "internalType": "bytes4",
          "name": "interfaceId",
          "type": "bytes4"
        }
      ],
      "name": "supportsInterface",
      "outputs": [
        {
          "internalType": "bool",
          "name": "",
          "type": "bool"
        }
      ],
      "stateMutability": "view",
      "type": "function"
    },
    {
      "inputs": [],
      "name": "symbol",
      "outputs": [
        {
          "internalType": "string",
          "name": "",
          "type": "string"
        }
      ],
      "stateMutability": "view",
      "type": "function"
    },
    {
      "inputs": [
        {
          "internalType": "uint256",
          "name": "",
          "type": "uint256"
        }
      ],
      "name": "tokenIdToTokenMap",
      "outputs": [
        {
          "internalType": "string",
          "name": "movieName",
          "type": "string"
        },
        {
          "internalType": "uint256",
          "name": "tokenId",
          "type": "uint256"
        },
        {
          "internalType": "uint256",
          "name": "basePrice",
          "type": "uint256"
        },
        {
          "internalType": "string",
          "name": "productionCompany",
          "type": "string"
        },
        {
          "internalType": "address payable",
          "name": "ownerAddr",
          "type": "address"
        },
        {
          "internalType": "uint256",
          "name": "minTime",
          "type": "uint256"
        },
        {
          "internalType": "uint256",
          "name": "maxTime",
          "type": "uint256"
        },
        {
          "internalType": "uint256",
          "name": "apprPercent",
          "type": "uint256"
        },
        {
          "internalType": "uint256",
          "name": "deprPercent",
          "type": "uint256"
        },
        {
          "internalType": "bool",
          "name": "resale",
          "type": "bool"
        }
      ],
      "stateMutability": "view",
      "type": "function"
    },
    {
      "inputs": [],
      "name": "tokenIds",
      "outputs": [
        {
          "internalType": "uint256",
          "name": "_value",
          "type": "uint256"
        }
      ],
      "stateMutability": "view",
      "type": "function"
    },
    {
      "inputs": [
        {
          "internalType": "uint256",
          "name": "tokenId",
          "type": "uint256"
        }
      ],
      "name": "tokenURI",
      "outputs": [
        {
          "internalType": "string",
          "name": "",
          "type": "string"
        }
      ],
      "stateMutability": "view",
      "type": "function"
    },
    {
      "inputs": [
        {
          "internalType": "address",
          "name": "from",
          "type": "address"
        },
        {
          "internalType": "address",
          "name": "to",
          "type": "address"
        },
        {
          "internalType": "uint256",
          "name": "tokenId",
          "type": "uint256"
        }
      ],
      "name": "transferFrom",
      "outputs": [],
      "stateMutability": "nonpayable",
      "type": "function"
    },
    {
      "inputs": [
        {
          "internalType": "string",
          "name": "name",
          "type": "string"
        },
        {
          "internalType": "address",
          "name": "addr",
          "type": "address"
        }
      ],
      "name": "registerProductionHouse",
      "outputs": [],
      "stateMutability": "nonpayable",
      "type": "function"
    },
    {
      "inputs": [
        {
          "internalType": "string",
          "name": "movieName",
          "type": "string"
        },
        {
          "internalType": "uint256",
          "name": "basePrice",
          "type": "uint256"
        },
        {
          "internalType": "uint256",
          "name": "minTime",
          "type": "uint256"
        },
        {
          "internalType": "uint256",
          "name": "maxTime",
          "type": "uint256"
        },
        {
          "internalType": "uint256",
          "name": "apprPercent",
          "type": "uint256"
        },
        {
          "internalType": "uint256",
          "name": "deprPercent",
          "type": "uint256"
        }
      ],
      "name": "createMovieToken",
      "outputs": [],
      "stateMutability": "nonpayable",
      "type": "function"
    },
    {
      "inputs": [
        {
          "internalType": "uint256",
          "name": "dayss",
          "type": "uint256"
        },
        {
          "internalType": "string",
          "name": "movieName",
          "type": "string"
        }
      ],
      "name": "buyMovieToken",
      "outputs": [],
      "stateMutability": "payable",
      "type": "function"
    },
    {
      "inputs": [
        {
          "internalType": "uint256",
          "name": "tokenId",
          "type": "uint256"
        },
        {
          "internalType": "uint256",
          "name": "value",
          "type": "uint256"
        }
      ],
      "name": "appreciateTokenValue",
      "outputs": [],
      "stateMutability": "nonpayable",
      "type": "function"
    },
    {
      "inputs": [
        {
          "internalType": "uint256",
          "name": "tokenId",
          "type": "uint256"
        },
        {
          "internalType": "uint256",
          "name": "value",
          "type": "uint256"
        }
      ],
      "name": "depreciateTokenValue",
      "outputs": [],
      "stateMutability": "nonpayable",
      "type": "function"
    },
    {
      "inputs": [
        {
          "internalType": "uint256",
          "name": "tokenId",
          "type": "uint256"
        }
      ],
      "name": "enableOrDisableResale",
      "outputs": [],
      "stateMutability": "nonpayable",
      "type": "function"
    },
    {
      "inputs": [],
      "name": "viewTokens",
      "outputs": [
        {
          "components": [
            {
              "internalType": "string",
              "name": "movieName",
              "type": "string"
            },
            {
              "internalType": "uint256",
              "name": "tokenId",
              "type": "uint256"
            },
            {
              "internalType": "uint256",
              "name": "basePrice",
              "type": "uint256"
            },
            {
              "internalType": "string",
              "name": "productionCompany",
              "type": "string"
            },
            {
              "internalType": "address payable",
              "name": "ownerAddr",
              "type": "address"
            },
            {
              "internalType": "uint256",
              "name": "minTime",
              "type": "uint256"
            },
            {
              "internalType": "uint256",
              "name": "maxTime",
              "type": "uint256"
            },
            {
              "internalType": "uint256",
              "name": "apprPercent",
              "type": "uint256"
            },
            {
              "internalType": "uint256",
              "name": "deprPercent",
              "type": "uint256"
            },
            {
              "internalType": "bool",
              "name": "resale",
              "type": "bool"
            }
          ],
          "internalType": "struct MovieToken.Token[]",
          "name": "",
          "type": "tuple[]"
        }
      ],
      "stateMutability": "view",
      "type": "function"
    }
  ],
  "bytecode": "0x60806040523480156200001157600080fd5b506040518060400160405280601181526020017f4d6f766965546f6b656e697a6174696f6e0000000000000000000000000000008152506040518060400160405280600481526020017f4d56544b0000000000000000000000000000000000000000000000000000000081525081600090816200008f919062000365565b508060019081620000a1919062000365565b50505033600860006101000a81548173ffffffffffffffffffffffffffffffffffffffff021916908373ffffffffffffffffffffffffffffffffffffffff1602179055506200044c565b600081519050919050565b7f4e487b7100000000000000000000000000000000000000000000000000000000600052604160045260246000fd5b7f4e487b7100000000000000000000000000000000000000000000000000000000600052602260045260246000fd5b600060028204905060018216806200016d57607f821691505b60208210810362000183576200018262000125565b5b50919050565b60008190508160005260206000209050919050565b60006020601f8301049050919050565b600082821b905092915050565b600060088302620001ed7fffffffffffffffffffffffffffffffffffffffffffffffffffffffffffffffff82620001ae565b620001f98683620001ae565b95508019841693508086168417925050509392505050565b6000819050919050565b6000819050919050565b600062000246620002406200023a8462000211565b6200021b565b62000211565b9050919050565b6000819050919050565b620002628362000225565b6200027a62000271826200024d565b848454620001bb565b825550505050565b600090565b6200029162000282565b6200029e81848462000257565b505050565b5b81811015620002c657620002ba60008262000287565b600181019050620002a4565b5050565b601f8211156200031557620002df8162000189565b620002ea846200019e565b81016020851015620002fa578190505b6200031262000309856200019e565b830182620002a3565b50505b505050565b600082821c905092915050565b60006200033a600019846008026200031a565b1980831691505092915050565b600062000355838362000327565b9150826002028217905092915050565b6200037082620000eb565b67ffffffffffffffff8111156200038c576200038b620000f6565b5b62000398825462000154565b620003a5828285620002ca565b600060209050601f831160018114620003dd5760008415620003c8578287015190505b620003d4858262000347565b86555062000444565b601f198416620003ed8662000189565b60005b828110156200041757848901518255600182019150602085019450602081019050620003f0565b8683101562000437578489015162000433601f89168262000327565b8355505b6001600288020188555050505b505050505050565b614a24806200045c6000396000f3fe6080604052600436106101405760003560e01c806370a08231116100b6578063c87b56dd1161006f578063c87b56dd14610466578063ca99cc3e146104a3578063dd7072f6146104cc578063e985e9c5146104f5578063f851a44014610532578063f907b4a61461055d57610140565b806370a082311461033b578063714cff561461037857806395d89b41146103a3578063a22cb465146103ce578063b88d4fde146103f7578063c3aee7361461042057610140565b806337c4f4671161010857806337c4f4671461023c57806342842e0e146102655780634bf5bf351461028e57806357a3106b146102b95780635b507969146102d55780636352211e146102fe57610140565b806301ffc9a71461014557806306fdde0314610182578063081812fc146101ad578063095ea7b3146101ea57806323b872dd14610213575b600080fd5b34801561015157600080fd5b5061016c60048036038101906101679190612f9b565b610586565b6040516101799190612fe3565b60405180910390f35b34801561018e57600080fd5b50610197610668565b6040516101a4919061308e565b60405180910390f35b3480156101b957600080fd5b506101d460048036038101906101cf91906130e6565b6106fa565b6040516101e19190613154565b60405180910390f35b3480156101f657600080fd5b50610211600480360381019061020c919061319b565b610740565b005b34801561021f57600080fd5b5061023a600480360381019061023591906131db565b610857565b005b34801561024857600080fd5b50610263600480360381019061025e9190613363565b6108b7565b005b34801561027157600080fd5b5061028c600480360381019061028791906131db565b610a2e565b005b34801561029a57600080fd5b506102a3610a4e565b6040516102b091906135eb565b60405180910390f35b6102d360048036038101906102ce919061360d565b610d61565b005b3480156102e157600080fd5b506102fc60048036038101906102f79190613669565b61139d565b005b34801561030a57600080fd5b50610325600480360381019061032091906130e6565b6118eb565b6040516103329190613154565b60405180910390f35b34801561034757600080fd5b50610362600480360381019061035d9190613712565b611971565b60405161036f919061374e565b60405180910390f35b34801561038457600080fd5b5061038d611a28565b60405161039a919061374e565b60405180910390f35b3480156103af57600080fd5b506103b8611a34565b6040516103c5919061308e565b60405180910390f35b3480156103da57600080fd5b506103f560048036038101906103f09190613795565b611ac6565b005b34801561040357600080fd5b5061041e60048036038101906104199190613876565b611adc565b005b34801561042c57600080fd5b50610447600480360381019061044291906130e6565b611b3e565b60405161045d9a99989796959493929190613908565b60405180910390f35b34801561047257600080fd5b5061048d600480360381019061048891906130e6565b611ccf565b60405161049a919061308e565b60405180910390f35b3480156104af57600080fd5b506104ca60048036038101906104c591906130e6565b611d37565b005b3480156104d857600080fd5b506104f360048036038101906104ee91906139b2565b611e70565b005b34801561050157600080fd5b5061051c600480360381019061051791906139f2565b611f44565b6040516105299190612fe3565b60405180910390f35b34801561053e57600080fd5b50610547611fd8565b6040516105549190613154565b60405180910390f35b34801561056957600080fd5b50610584600480360381019061057f91906139b2565b611ffe565b005b60007f80ac58cd000000000000000000000000000000000000000000000000000000007bffffffffffffffffffffffffffffffffffffffffffffffffffffffff1916827bffffffffffffffffffffffffffffffffffffffffffffffffffffffff1916148061065157507f5b5e139f000000000000000000000000000000000000000000000000000000007bffffffffffffffffffffffffffffffffffffffffffffffffffffffff1916827bffffffffffffffffffffffffffffffffffffffffffffffffffffffff1916145b806106615750610660826120d2565b5b9050919050565b60606000805461067790613a61565b80601f01602080910402602001604051908101604052809291908181526020018280546106a390613a61565b80156106f05780601f106106c5576101008083540402835291602001916106f0565b820191906000526020600020905b8154815290600101906020018083116106d357829003601f168201915b5050505050905090565b60006107058261213c565b6004600083815260200190815260200160002060009054906101000a900473ffffffffffffffffffffffffffffffffffffffff169050919050565b600061074b826118eb565b90508073ffffffffffffffffffffffffffffffffffffffff168373ffffffffffffffffffffffffffffffffffffffff16036107bb576040517f08c379a00000000000000000000000000000000000000000000000000000000081526004016107b290613b04565b60405180910390fd5b8073ffffffffffffffffffffffffffffffffffffffff166107da612187565b73ffffffffffffffffffffffffffffffffffffffff161480610809575061080881610803612187565b611f44565b5b610848576040517f08c379a000000000000000000000000000000000000000000000000000000000815260040161083f90613b96565b60405180910390fd5b610852838361218f565b505050565b610868610862612187565b82612248565b6108a7576040517f08c379a000000000000000000000000000000000000000000000000000000000815260040161089e90613c28565b60405180910390fd5b6108b28383836122dd565b505050565b33600080600a60008473ffffffffffffffffffffffffffffffffffffffff1673ffffffffffffffffffffffffffffffffffffffff168152602001908152602001600020805461090590613a61565b9050119050801561094b576040517f08c379a000000000000000000000000000000000000000000000000000000000815260040161094290613c94565b60405180910390fd5b600860009054906101000a900473ffffffffffffffffffffffffffffffffffffffff1673ffffffffffffffffffffffffffffffffffffffff163373ffffffffffffffffffffffffffffffffffffffff16146109db576040517f08c379a00000000000000000000000000000000000000000000000000000000081526004016109d290613d00565b60405180910390fd5b83600a60008573ffffffffffffffffffffffffffffffffffffffff1673ffffffffffffffffffffffffffffffffffffffff1681526020019081526020016000209081610a279190613ecc565b5050505050565b610a4983838360405180602001604052806000815250611adc565b505050565b6060600060078054905067ffffffffffffffff811115610a7157610a70613238565b5b604051908082528060200260200182016040528015610aaa57816020015b610a97612ec4565b815260200190600190039081610a8f5790505b5090506000805b610abb60066125d6565b8111610d58573373ffffffffffffffffffffffffffffffffffffffff166009600083815260200190815260200160002060040160009054906101000a900473ffffffffffffffffffffffffffffffffffffffff1673ffffffffffffffffffffffffffffffffffffffff1603610d45576009600082815260200190815260200160002060405180610140016040529081600082018054610b5990613a61565b80601f0160208091040260200160405190810160405280929190818152602001828054610b8590613a61565b8015610bd25780601f10610ba757610100808354040283529160200191610bd2565b820191906000526020600020905b815481529060010190602001808311610bb557829003601f168201915b505050505081526020016001820154815260200160028201548152602001600382018054610bff90613a61565b80601f0160208091040260200160405190810160405280929190818152602001828054610c2b90613a61565b8015610c785780601f10610c4d57610100808354040283529160200191610c78565b820191906000526020600020905b815481529060010190602001808311610c5b57829003601f168201915b505050505081526020016004820160009054906101000a900473ffffffffffffffffffffffffffffffffffffffff1673ffffffffffffffffffffffffffffffffffffffff1673ffffffffffffffffffffffffffffffffffffffff168152602001600582015481526020016006820154815260200160078201548152602001600882015481526020016009820160009054906101000a900460ff161515151581525050838380610d2690613fcd565b945081518110610d3957610d38614015565b5b60200260200101819052505b8080610d5090613fcd565b915050610ab1565b50819250505090565b806000805b600780549050811015610e065782604051602001610d849190614080565b6040516020818303038152906040528051906020012060078281548110610dae57610dad614015565b5b90600052602060002090600a0201600001604051602001610dcf919061411a565b6040516020818303038152906040528051906020012003610df35760019150610e06565b8080610dfe90613fcd565b915050610d66565b5080610e47576040517f08c379a0000000000000000000000000000000000000000000000000000000008152600401610e3e906141a3565b60405180910390fd5b6000600b84604051610e599190614080565b908152602001604051809103902054905060006009600083815260200190815260200160002060405180610140016040529081600082018054610e9b90613a61565b80601f0160208091040260200160405190810160405280929190818152602001828054610ec790613a61565b8015610f145780601f10610ee957610100808354040283529160200191610f14565b820191906000526020600020905b815481529060010190602001808311610ef757829003601f168201915b505050505081526020016001820154815260200160028201548152602001600382018054610f4190613a61565b80601f0160208091040260200160405190810160405280929190818152602001828054610f6d90613a61565b8015610fba5780601f10610f8f57610100808354040283529160200191610fba565b820191906000526020600020905b815481529060010190602001808311610f9d57829003601f168201915b505050505081526020016004820160009054906101000a900473ffffffffffffffffffffffffffffffffffffffff1673ffffffffffffffffffffffffffffffffffffffff1673ffffffffffffffffffffffffffffffffffffffff168152602001600582015481526020016006820154815260200160078201548152602001600882015481526020016009820160009054906101000a900460ff1615151515815250509050600115158161012001511515146110aa576040517f08c379a00000000000000000000000000000000000000000000000000000000081526004016110a190614235565b60405180910390fd5b60008160400151905060008260a00151905060008360c001519050600083905060008a101561116157828a11156111325760648560e001516110ec9190614284565b816110f791906142b5565b8161110291906142f7565b905060648560e001516111159190614284565b8161112091906142b5565b8161112b91906142f7565b905061115c565b60648560e001516111439190614284565b8161114e91906142b5565b8161115991906142f7565b90505b6111f5565b60008a11156111f457818a11156111c95760648560e001516111839190614284565b8161118e91906142b5565b81611199919061432b565b905060648560e001516111ac9190614284565b816111b791906142b5565b816111c2919061432b565b90506111f3565b60648560e001516111da9190614284565b816111e591906142b5565b816111f0919061432b565b90505b5b5b846080015173ffffffffffffffffffffffffffffffffffffffff166108fc349081150290604051600060405180830381858888f1935050505015801561123f573d6000803e3d6000fd5b5033856080019073ffffffffffffffffffffffffffffffffffffffff16908173ffffffffffffffffffffffffffffffffffffffff168152505033600c600088815260200190815260200160002060006101000a81548173ffffffffffffffffffffffffffffffffffffffff021916908373ffffffffffffffffffffffffffffffffffffffff16021790555060008561012001901515908115158152505060005b60078054905081101561139057866007828154811061130157611300614015565b5b90600052602060002090600a0201600101540361137d57336007828154811061132d5761132c614015565b5b90600052602060002090600a020160040160006101000a81548173ffffffffffffffffffffffffffffffffffffffff021916908373ffffffffffffffffffffffffffffffffffffffff1602179055505b808061138890613fcd565b9150506112df565b5050505050505050505050565b33600080600a60008473ffffffffffffffffffffffffffffffffffffffff1673ffffffffffffffffffffffffffffffffffffffff16815260200190815260200160002080546113eb90613a61565b905011905080611430576040517f08c379a0000000000000000000000000000000000000000000000000000000008152600401611427906143d1565b60405180910390fd5b876000805b6007805490508110156114d557826040516020016114539190614080565b604051602081830303815290604052805190602001206007828154811061147d5761147c614015565b5b90600052602060002090600a020160000160405160200161149e919061411a565b60405160208183030381529060405280519060200120036114c257600191506114d5565b80806114cd90613fcd565b915050611435565b508015611517576040517f08c379a000000000000000000000000000000000000000000000000000000000815260040161150e90614463565b60405180910390fd5b60006040518061014001604052808c815260200161153560066125d6565b81526020018b8152602001600a60003373ffffffffffffffffffffffffffffffffffffffff1673ffffffffffffffffffffffffffffffffffffffff168152602001908152602001600020805461158a90613a61565b80601f01602080910402602001604051908101604052809291908181526020018280546115b690613a61565b80156116035780601f106115d857610100808354040283529160200191611603565b820191906000526020600020905b8154815290600101906020018083116115e657829003601f168201915b505050505081526020013373ffffffffffffffffffffffffffffffffffffffff1681526020018a815260200189815260200188815260200187815260200160011515815250905061165460066125d6565b600b8c6040516116649190614080565b908152602001604051809103902081905550806009600061168560066125d6565b815260200190815260200160002060008201518160000190816116a89190613ecc565b50602082015181600101556040820151816002015560608201518160030190816116d29190613ecc565b5060808201518160040160006101000a81548173ffffffffffffffffffffffffffffffffffffffff021916908373ffffffffffffffffffffffffffffffffffffffff16021790555060a0820151816005015560c0820151816006015560e0820151816007015561010082015181600801556101208201518160090160006101000a81548160ff02191690831515021790555090505033600c600061177660066125d6565b815260200190815260200160002060006101000a81548173ffffffffffffffffffffffffffffffffffffffff021916908373ffffffffffffffffffffffffffffffffffffffff1602179055506117d5336117d060066125d6565b6125e4565b6117df6006612602565b60078190806001815401808255809150506001900390600052602060002090600a020160009091909190915060008201518160000190816118209190613ecc565b506020820151816001015560408201518160020155606082015181600301908161184a9190613ecc565b5060808201518160040160006101000a81548173ffffffffffffffffffffffffffffffffffffffff021916908373ffffffffffffffffffffffffffffffffffffffff16021790555060a0820151816005015560c0820151816006015560e0820151816007015561010082015181600801556101208201518160090160006101000a81548160ff02191690831515021790555050505050505050505050505050565b6000806118f783612618565b9050600073ffffffffffffffffffffffffffffffffffffffff168173ffffffffffffffffffffffffffffffffffffffff1603611968576040517f08c379a000000000000000000000000000000000000000000000000000000000815260040161195f906144cf565b60405180910390fd5b80915050919050565b60008073ffffffffffffffffffffffffffffffffffffffff168273ffffffffffffffffffffffffffffffffffffffff16036119e1576040517f08c379a00000000000000000000000000000000000000000000000000000000081526004016119d890614561565b60405180910390fd5b600360008373ffffffffffffffffffffffffffffffffffffffff1673ffffffffffffffffffffffffffffffffffffffff168152602001908152602001600020549050919050565b60068060000154905081565b606060018054611a4390613a61565b80601f0160208091040260200160405190810160405280929190818152602001828054611a6f90613a61565b8015611abc5780601f10611a9157610100808354040283529160200191611abc565b820191906000526020600020905b815481529060010190602001808311611a9f57829003601f168201915b5050505050905090565b611ad8611ad1612187565b8383612655565b5050565b611aed611ae7612187565b83612248565b611b2c576040517f08c379a0000000000000000000000000000000000000000000000000000000008152600401611b2390613c28565b60405180910390fd5b611b38848484846127c1565b50505050565b6009602052806000526040600020600091509050806000018054611b6190613a61565b80601f0160208091040260200160405190810160405280929190818152602001828054611b8d90613a61565b8015611bda5780601f10611baf57610100808354040283529160200191611bda565b820191906000526020600020905b815481529060010190602001808311611bbd57829003601f168201915b505050505090806001015490806002015490806003018054611bfb90613a61565b80601f0160208091040260200160405190810160405280929190818152602001828054611c2790613a61565b8015611c745780601f10611c4957610100808354040283529160200191611c74565b820191906000526020600020905b815481529060010190602001808311611c5757829003601f168201915b5050505050908060040160009054906101000a900473ffffffffffffffffffffffffffffffffffffffff16908060050154908060060154908060070154908060080154908060090160009054906101000a900460ff1690508a565b6060611cda8261213c565b6000611ce461281d565b90506000815111611d045760405180602001604052806000815250611d2f565b80611d0e84612834565b604051602001611d1f929190614581565b6040516020818303038152906040525b915050919050565b803373ffffffffffffffffffffffffffffffffffffffff16600c600083815260200190815260200160002060009054906101000a900473ffffffffffffffffffffffffffffffffffffffff1673ffffffffffffffffffffffffffffffffffffffff1614611dd9576040517f08c379a0000000000000000000000000000000000000000000000000000000008152600401611dd0906145f1565b60405180910390fd5b600115156009600084815260200190815260200160002060090160009054906101000a900460ff16151503611e3c5760006009600084815260200190815260200160002060090160006101000a81548160ff021916908315150217905550611e6c565b60016009600084815260200190815260200160002060090160006101000a81548160ff0219169083151502179055505b5050565b813373ffffffffffffffffffffffffffffffffffffffff16600c600083815260200190815260200160002060009054906101000a900473ffffffffffffffffffffffffffffffffffffffff1673ffffffffffffffffffffffffffffffffffffffff1614611f12576040517f08c379a0000000000000000000000000000000000000000000000000000000008152600401611f09906145f1565b60405180910390fd5b81600960008581526020019081526020016000206002016000828254611f3891906142f7565b92505081905550505050565b6000600560008473ffffffffffffffffffffffffffffffffffffffff1673ffffffffffffffffffffffffffffffffffffffff16815260200190815260200160002060008373ffffffffffffffffffffffffffffffffffffffff1673ffffffffffffffffffffffffffffffffffffffff16815260200190815260200160002060009054906101000a900460ff16905092915050565b600860009054906101000a900473ffffffffffffffffffffffffffffffffffffffff1681565b813373ffffffffffffffffffffffffffffffffffffffff16600c600083815260200190815260200160002060009054906101000a900473ffffffffffffffffffffffffffffffffffffffff1673ffffffffffffffffffffffffffffffffffffffff16146120a0576040517f08c379a0000000000000000000000000000000000000000000000000000000008152600401612097906145f1565b60405180910390fd5b816009600085815260200190815260200160002060020160008282546120c6919061432b565b92505081905550505050565b60007f01ffc9a7000000000000000000000000000000000000000000000000000000007bffffffffffffffffffffffffffffffffffffffffffffffffffffffff1916827bffffffffffffffffffffffffffffffffffffffffffffffffffffffff1916149050919050565b61214581612902565b612184576040517f08c379a000000000000000000000000000000000000000000000000000000000815260040161217b906144cf565b60405180910390fd5b50565b600033905090565b816004600083815260200190815260200160002060006101000a81548173ffffffffffffffffffffffffffffffffffffffff021916908373ffffffffffffffffffffffffffffffffffffffff160217905550808273ffffffffffffffffffffffffffffffffffffffff16612202836118eb565b73ffffffffffffffffffffffffffffffffffffffff167f8c5be1e5ebec7d5bd14f71427d1e84f3dd0314c0f7b2291e5b200ac8c7c3b92560405160405180910390a45050565b600080612254836118eb565b90508073ffffffffffffffffffffffffffffffffffffffff168473ffffffffffffffffffffffffffffffffffffffff16148061229657506122958185611f44565b5b806122d457508373ffffffffffffffffffffffffffffffffffffffff166122bc846106fa565b73ffffffffffffffffffffffffffffffffffffffff16145b91505092915050565b8273ffffffffffffffffffffffffffffffffffffffff166122fd826118eb565b73ffffffffffffffffffffffffffffffffffffffff1614612353576040517f08c379a000000000000000000000000000000000000000000000000000000000815260040161234a90614683565b60405180910390fd5b600073ffffffffffffffffffffffffffffffffffffffff168273ffffffffffffffffffffffffffffffffffffffff16036123c2576040517f08c379a00000000000000000000000000000000000000000000000000000000081526004016123b990614715565b60405180910390fd5b6123cf8383836001612943565b8273ffffffffffffffffffffffffffffffffffffffff166123ef826118eb565b73ffffffffffffffffffffffffffffffffffffffff1614612445576040517f08c379a000000000000000000000000000000000000000000000000000000000815260040161243c90614683565b60405180910390fd5b6004600082815260200190815260200160002060006101000a81549073ffffffffffffffffffffffffffffffffffffffff02191690556001600360008573ffffffffffffffffffffffffffffffffffffffff1673ffffffffffffffffffffffffffffffffffffffff168152602001908152602001600020600082825403925050819055506001600360008473ffffffffffffffffffffffffffffffffffffffff1673ffffffffffffffffffffffffffffffffffffffff16815260200190815260200160002060008282540192505081905550816002600083815260200190815260200160002060006101000a81548173ffffffffffffffffffffffffffffffffffffffff021916908373ffffffffffffffffffffffffffffffffffffffff160217905550808273ffffffffffffffffffffffffffffffffffffffff168473ffffffffffffffffffffffffffffffffffffffff167fddf252ad1be2c89b69c2b068fc378daa952ba7f163c4a11628f55a4df523b3ef60405160405180910390a46125d18383836001612949565b505050565b600081600001549050919050565b6125fe82826040518060200160405280600081525061294f565b5050565b6001816000016000828254019250508190555050565b60006002600083815260200190815260200160002060009054906101000a900473ffffffffffffffffffffffffffffffffffffffff169050919050565b8173ffffffffffffffffffffffffffffffffffffffff168373ffffffffffffffffffffffffffffffffffffffff16036126c3576040517f08c379a00000000000000000000000000000000000000000000000000000000081526004016126ba90614781565b60405180910390fd5b80600560008573ffffffffffffffffffffffffffffffffffffffff1673ffffffffffffffffffffffffffffffffffffffff16815260200190815260200160002060008473ffffffffffffffffffffffffffffffffffffffff1673ffffffffffffffffffffffffffffffffffffffff16815260200190815260200160002060006101000a81548160ff0219169083151502179055508173ffffffffffffffffffffffffffffffffffffffff168373ffffffffffffffffffffffffffffffffffffffff167f17307eab39ab6107e8899845ad3d59bd9653f200f220920489ca2b5937696c31836040516127b49190612fe3565b60405180910390a3505050565b6127cc8484846122dd565b6127d8848484846129aa565b612817576040517f08c379a000000000000000000000000000000000000000000000000000000000815260040161280e90614813565b60405180910390fd5b50505050565b606060405180602001604052806000815250905090565b60606000600161284384612b31565b01905060008167ffffffffffffffff81111561286257612861613238565b5b6040519080825280601f01601f1916602001820160405280156128945781602001600182028036833780820191505090505b509050600082602001820190505b6001156128f7578080600190039150507f3031323334353637383961626364656600000000000000000000000000000000600a86061a8153600a85816128eb576128ea614255565b5b049450600085036128a2575b819350505050919050565b60008073ffffffffffffffffffffffffffffffffffffffff1661292483612618565b73ffffffffffffffffffffffffffffffffffffffff1614159050919050565b50505050565b50505050565b6129598383612c84565b61296660008484846129aa565b6129a5576040517f08c379a000000000000000000000000000000000000000000000000000000000815260040161299c90614813565b60405180910390fd5b505050565b60006129cb8473ffffffffffffffffffffffffffffffffffffffff16612ea1565b15612b24578373ffffffffffffffffffffffffffffffffffffffff1663150b7a026129f4612187565b8786866040518563ffffffff1660e01b8152600401612a169493929190614888565b6020604051808303816000875af1925050508015612a5257506040513d601f19601f82011682018060405250810190612a4f91906148e9565b60015b612ad4573d8060008114612a82576040519150601f19603f3d011682016040523d82523d6000602084013e612a87565b606091505b506000815103612acc576040517f08c379a0000000000000000000000000000000000000000000000000000000008152600401612ac390614813565b60405180910390fd5b805181602001fd5b63150b7a0260e01b7bffffffffffffffffffffffffffffffffffffffffffffffffffffffff1916817bffffffffffffffffffffffffffffffffffffffffffffffffffffffff191614915050612b29565b600190505b949350505050565b600080600090507a184f03e93ff9f4daa797ed6e38ed64bf6a1f0100000000000000008310612b8f577a184f03e93ff9f4daa797ed6e38ed64bf6a1f0100000000000000008381612b8557612b84614255565b5b0492506040810190505b6d04ee2d6d415b85acef81000000008310612bcc576d04ee2d6d415b85acef81000000008381612bc257612bc1614255565b5b0492506020810190505b662386f26fc100008310612bfb57662386f26fc100008381612bf157612bf0614255565b5b0492506010810190505b6305f5e1008310612c24576305f5e1008381612c1a57612c19614255565b5b0492506008810190505b6127108310612c49576127108381612c3f57612c3e614255565b5b0492506004810190505b60648310612c6c5760648381612c6257612c61614255565b5b0492506002810190505b600a8310612c7b576001810190505b80915050919050565b600073ffffffffffffffffffffffffffffffffffffffff168273ffffffffffffffffffffffffffffffffffffffff1603612cf3576040517f08c379a0000000000000000000000000000000000000000000000000000000008152600401612cea90614962565b60405180910390fd5b612cfc81612902565b15612d3c576040517f08c379a0000000000000000000000000000000000000000000000000000000008152600401612d33906149ce565b60405180910390fd5b612d4a600083836001612943565b612d5381612902565b15612d93576040517f08c379a0000000000000000000000000000000000000000000000000000000008152600401612d8a906149ce565b60405180910390fd5b6001600360008473ffffffffffffffffffffffffffffffffffffffff1673ffffffffffffffffffffffffffffffffffffffff16815260200190815260200160002060008282540192505081905550816002600083815260200190815260200160002060006101000a81548173ffffffffffffffffffffffffffffffffffffffff021916908373ffffffffffffffffffffffffffffffffffffffff160217905550808273ffffffffffffffffffffffffffffffffffffffff16600073ffffffffffffffffffffffffffffffffffffffff167fddf252ad1be2c89b69c2b068fc378daa952ba7f163c4a11628f55a4df523b3ef60405160405180910390a4612e9d600083836001612949565b5050565b6000808273ffffffffffffffffffffffffffffffffffffffff163b119050919050565b60405180610140016040528060608152602001600081526020016000815260200160608152602001600073ffffffffffffffffffffffffffffffffffffffff168152602001600081526020016000815260200160008152602001600081526020016000151581525090565b6000604051905090565b600080fd5b600080fd5b60007fffffffff0000000000000000000000000000000000000000000000000000000082169050919050565b612f7881612f43565b8114612f8357600080fd5b50565b600081359050612f9581612f6f565b92915050565b600060208284031215612fb157612fb0612f39565b5b6000612fbf84828501612f86565b91505092915050565b60008115159050919050565b612fdd81612fc8565b82525050565b6000602082019050612ff86000830184612fd4565b92915050565b600081519050919050565b600082825260208201905092915050565b60005b8381101561303857808201518184015260208101905061301d565b60008484015250505050565b6000601f19601f8301169050919050565b600061306082612ffe565b61306a8185613009565b935061307a81856020860161301a565b61308381613044565b840191505092915050565b600060208201905081810360008301526130a88184613055565b905092915050565b6000819050919050565b6130c3816130b0565b81146130ce57600080fd5b50565b6000813590506130e0816130ba565b92915050565b6000602082840312156130fc576130fb612f39565b5b600061310a848285016130d1565b91505092915050565b600073ffffffffffffffffffffffffffffffffffffffff82169050919050565b600061313e82613113565b9050919050565b61314e81613133565b82525050565b60006020820190506131696000830184613145565b92915050565b61317881613133565b811461318357600080fd5b50565b6000813590506131958161316f565b92915050565b600080604083850312156131b2576131b1612f39565b5b60006131c085828601613186565b92505060206131d1858286016130d1565b9150509250929050565b6000806000606084860312156131f4576131f3612f39565b5b600061320286828701613186565b935050602061321386828701613186565b9250506040613224868287016130d1565b9150509250925092565b600080fd5b600080fd5b7f4e487b7100000000000000000000000000000000000000000000000000000000600052604160045260246000fd5b61327082613044565b810181811067ffffffffffffffff8211171561328f5761328e613238565b5b80604052505050565b60006132a2612f2f565b90506132ae8282613267565b919050565b600067ffffffffffffffff8211156132ce576132cd613238565b5b6132d782613044565b9050602081019050919050565b82818337600083830152505050565b6000613306613301846132b3565b613298565b90508281526020810184848401111561332257613321613233565b5b61332d8482856132e4565b509392505050565b600082601f83011261334a5761334961322e565b5b813561335a8482602086016132f3565b91505092915050565b6000806040838503121561337a57613379612f39565b5b600083013567ffffffffffffffff81111561339857613397612f3e565b5b6133a485828601613335565b92505060206133b585828601613186565b9150509250929050565b600081519050919050565b600082825260208201905092915050565b6000819050602082019050919050565b600082825260208201905092915050565b600061340782612ffe565b61341181856133eb565b935061342181856020860161301a565b61342a81613044565b840191505092915050565b61343e816130b0565b82525050565b600061344f82613113565b9050919050565b61345f81613444565b82525050565b61346e81612fc8565b82525050565b600061014083016000830151848203600086015261349282826133fc565b91505060208301516134a76020860182613435565b5060408301516134ba6040860182613435565b50606083015184820360608601526134d282826133fc565b91505060808301516134e76080860182613456565b5060a08301516134fa60a0860182613435565b5060c083015161350d60c0860182613435565b5060e083015161352060e0860182613435565b50610100830151613535610100860182613435565b5061012083015161354a610120860182613465565b508091505092915050565b60006135618383613474565b905092915050565b6000602082019050919050565b6000613581826133bf565b61358b81856133ca565b93508360208202850161359d856133db565b8060005b858110156135d957848403895281516135ba8582613555565b94506135c583613569565b925060208a019950506001810190506135a1565b50829750879550505050505092915050565b600060208201905081810360008301526136058184613576565b905092915050565b6000806040838503121561362457613623612f39565b5b6000613632858286016130d1565b925050602083013567ffffffffffffffff81111561365357613652612f3e565b5b61365f85828601613335565b9150509250929050565b60008060008060008060c0878903121561368657613685612f39565b5b600087013567ffffffffffffffff8111156136a4576136a3612f3e565b5b6136b089828a01613335565b96505060206136c189828a016130d1565b95505060406136d289828a016130d1565b94505060606136e389828a016130d1565b93505060806136f489828a016130d1565b92505060a061370589828a016130d1565b9150509295509295509295565b60006020828403121561372857613727612f39565b5b600061373684828501613186565b91505092915050565b613748816130b0565b82525050565b6000602082019050613763600083018461373f565b92915050565b61377281612fc8565b811461377d57600080fd5b50565b60008135905061378f81613769565b92915050565b600080604083850312156137ac576137ab612f39565b5b60006137ba85828601613186565b92505060206137cb85828601613780565b9150509250929050565b600067ffffffffffffffff8211156137f0576137ef613238565b5b6137f982613044565b9050602081019050919050565b6000613819613814846137d5565b613298565b90508281526020810184848401111561383557613834613233565b5b6138408482856132e4565b509392505050565b600082601f83011261385d5761385c61322e565b5b813561386d848260208601613806565b91505092915050565b600080600080608085870312156138905761388f612f39565b5b600061389e87828801613186565b94505060206138af87828801613186565b93505060406138c0878288016130d1565b925050606085013567ffffffffffffffff8111156138e1576138e0612f3e565b5b6138ed87828801613848565b91505092959194509250565b61390281613444565b82525050565b6000610140820190508181036000830152613923818d613055565b9050613932602083018c61373f565b61393f604083018b61373f565b8181036060830152613951818a613055565b905061396060808301896138f9565b61396d60a083018861373f565b61397a60c083018761373f565b61398760e083018661373f565b61399561010083018561373f565b6139a3610120830184612fd4565b9b9a5050505050505050505050565b600080604083850312156139c9576139c8612f39565b5b60006139d7858286016130d1565b92505060206139e8858286016130d1565b9150509250929050565b60008060408385031215613a0957613a08612f39565b5b6000613a1785828601613186565b9250506020613a2885828601613186565b9150509250929050565b7f4e487b7100000000000000000000000000000000000000000000000000000000600052602260045260246000fd5b60006002820490506001821680613a7957607f821691505b602082108103613a8c57613a8b613a32565b5b50919050565b7f4552433732313a20617070726f76616c20746f2063757272656e74206f776e6560008201527f7200000000000000000000000000000000000000000000000000000000000000602082015250565b6000613aee602183613009565b9150613af982613a92565b604082019050919050565b60006020820190508181036000830152613b1d81613ae1565b9050919050565b7f4552433732313a20617070726f76652063616c6c6572206973206e6f7420746f60008201527f6b656e206f776e6572206f7220617070726f76656420666f7220616c6c000000602082015250565b6000613b80603d83613009565b9150613b8b82613b24565b604082019050919050565b60006020820190508181036000830152613baf81613b73565b9050919050565b7f4552433732313a2063616c6c6572206973206e6f7420746f6b656e206f776e6560008201527f72206f7220617070726f76656400000000000000000000000000000000000000602082015250565b6000613c12602d83613009565b9150613c1d82613bb6565b604082019050919050565b60006020820190508181036000830152613c4181613c05565b9050919050565b7f4475706c69636174652050726f64756374696f6e20486f757365000000000000600082015250565b6000613c7e601a83613009565b9150613c8982613c48565b602082019050919050565b60006020820190508181036000830152613cad81613c71565b9050919050565b7f4e6f7420616e2041646d696e2c206e6f20616363657373000000000000000000600082015250565b6000613cea601783613009565b9150613cf582613cb4565b602082019050919050565b60006020820190508181036000830152613d1981613cdd565b9050919050565b60008190508160005260206000209050919050565b60006020601f8301049050919050565b600082821b905092915050565b600060088302613d827fffffffffffffffffffffffffffffffffffffffffffffffffffffffffffffffff82613d45565b613d8c8683613d45565b95508019841693508086168417925050509392505050565b6000819050919050565b6000613dc9613dc4613dbf846130b0565b613da4565b6130b0565b9050919050565b6000819050919050565b613de383613dae565b613df7613def82613dd0565b848454613d52565b825550505050565b600090565b613e0c613dff565b613e17818484613dda565b505050565b5b81811015613e3b57613e30600082613e04565b600181019050613e1d565b5050565b601f821115613e8057613e5181613d20565b613e5a84613d35565b81016020851015613e69578190505b613e7d613e7585613d35565b830182613e1c565b50505b505050565b600082821c905092915050565b6000613ea360001984600802613e85565b1980831691505092915050565b6000613ebc8383613e92565b9150826002028217905092915050565b613ed582612ffe565b67ffffffffffffffff811115613eee57613eed613238565b5b613ef88254613a61565b613f03828285613e3f565b600060209050601f831160018114613f365760008415613f24578287015190505b613f2e8582613eb0565b865550613f96565b601f198416613f4486613d20565b60005b82811015613f6c57848901518255600182019150602085019450602081019050613f47565b86831015613f895784890151613f85601f891682613e92565b8355505b6001600288020188555050505b505050505050565b7f4e487b7100000000000000000000000000000000000000000000000000000000600052601160045260246000fd5b6000613fd8826130b0565b91507fffffffffffffffffffffffffffffffffffffffffffffffffffffffffffffffff820361400a57614009613f9e565b5b600182019050919050565b7f4e487b7100000000000000000000000000000000000000000000000000000000600052603260045260246000fd5b600081905092915050565b600061405a82612ffe565b6140648185614044565b935061407481856020860161301a565b80840191505092915050565b600061408c828461404f565b915081905092915050565b600081546140a481613a61565b6140ae8186614044565b945060018216600081146140c957600181146140de57614111565b60ff1983168652811515820286019350614111565b6140e785613d20565b60005b83811015614109578154818901526001820191506020810190506140ea565b838801955050505b50505092915050565b60006141268284614097565b915081905092915050565b7f4120746f6b656e206973206e6f742070726573656e7420666f7220746869732060008201527f6d6f766965000000000000000000000000000000000000000000000000000000602082015250565b600061418d602583613009565b915061419882614131565b604082019050919050565b600060208201905081810360008301526141bc81614180565b9050919050565b7f526573616c65206973206e6f7420616c6c6f77656420666f722074686973206d60008201527f6f76696500000000000000000000000000000000000000000000000000000000602082015250565b600061421f602483613009565b915061422a826141c3565b604082019050919050565b6000602082019050818103600083015261424e81614212565b9050919050565b7f4e487b7100000000000000000000000000000000000000000000000000000000600052601260045260246000fd5b600061428f826130b0565b915061429a836130b0565b9250826142aa576142a9614255565b5b828204905092915050565b60006142c0826130b0565b91506142cb836130b0565b92508282026142d9816130b0565b915082820484148315176142f0576142ef613f9e565b5b5092915050565b6000614302826130b0565b915061430d836130b0565b925082820190508082111561432557614324613f9e565b5b92915050565b6000614336826130b0565b9150614341836130b0565b925082820390508181111561435957614358613f9e565b5b92915050565b7f4e6f74206120726567697374657265642070726f64756374696f6e20686f757360008201527f6500000000000000000000000000000000000000000000000000000000000000602082015250565b60006143bb602183613009565b91506143c68261435f565b604082019050919050565b600060208201905081810360008301526143ea816143ae565b9050919050565b7f4120746f6b656e20697320616c72656164792070726573656e7420666f72207460008201527f686973206d6f7669650000000000000000000000000000000000000000000000602082015250565b600061444d602983613009565b9150614458826143f1565b604082019050919050565b6000602082019050818103600083015261447c81614440565b9050919050565b7f4552433732313a20696e76616c696420746f6b656e2049440000000000000000600082015250565b60006144b9601883613009565b91506144c482614483565b602082019050919050565b600060208201905081810360008301526144e8816144ac565b9050919050565b7f4552433732313a2061646472657373207a65726f206973206e6f74206120766160008201527f6c6964206f776e65720000000000000000000000000000000000000000000000602082015250565b600061454b602983613009565b9150614556826144ef565b604082019050919050565b6000602082019050818103600083015261457a8161453e565b9050919050565b600061458d828561404f565b9150614599828461404f565b91508190509392505050565b7f4e6f7420746865206f776e6572206f662074686520746f6b656e000000000000600082015250565b60006145db601a83613009565b91506145e6826145a5565b602082019050919050565b6000602082019050818103600083015261460a816145ce565b9050919050565b7f4552433732313a207472616e736665722066726f6d20696e636f72726563742060008201527f6f776e6572000000000000000000000000000000000000000000000000000000602082015250565b600061466d602583613009565b915061467882614611565b604082019050919050565b6000602082019050818103600083015261469c81614660565b9050919050565b7f4552433732313a207472616e7366657220746f20746865207a65726f2061646460008201527f7265737300000000000000000000000000000000000000000000000000000000602082015250565b60006146ff602483613009565b915061470a826146a3565b604082019050919050565b6000602082019050818103600083015261472e816146f2565b9050919050565b7f4552433732313a20617070726f766520746f2063616c6c657200000000000000600082015250565b600061476b601983613009565b915061477682614735565b602082019050919050565b6000602082019050818103600083015261479a8161475e565b9050919050565b7f4552433732313a207472616e7366657220746f206e6f6e20455243373231526560008201527f63656976657220696d706c656d656e7465720000000000000000000000000000602082015250565b60006147fd603283613009565b9150614808826147a1565b604082019050919050565b6000602082019050818103600083015261482c816147f0565b9050919050565b600081519050919050565b600082825260208201905092915050565b600061485a82614833565b614864818561483e565b935061487481856020860161301a565b61487d81613044565b840191505092915050565b600060808201905061489d6000830187613145565b6148aa6020830186613145565b6148b7604083018561373f565b81810360608301526148c9818461484f565b905095945050505050565b6000815190506148e381612f6f565b92915050565b6000602082840312156148ff576148fe612f39565b5b600061490d848285016148d4565b91505092915050565b7f4552433732313a206d696e7420746f20746865207a65726f2061646472657373600082015250565b600061494c602083613009565b915061495782614916565b602082019050919050565b6000602082019050818103600083015261497b8161493f565b9050919050565b7f4552433732313a20746f6b656e20616c7265616479206d696e74656400000000600082015250565b60006149b8601c83613009565b91506149c382614982565b602082019050919050565b600060208201905081810360008301526149e7816149ab565b905091905056fea26469706673582212200b1533c4dcda2c38ea0ec359f07d5815a2c9aa7f962bf9c4e459f7012e6e03e364736f6c63430008130033",
  "immutableReferences": {},
  "source": "// SPDX-License-Identifier: UNLICENSED\npragma solidity ^0.8.0;\n\nimport \"@openzeppelin/contracts/token/ERC721/ERC721.sol\";\nimport \"@openzeppelin/contracts/utils/Counters.sol\";\n\ncontract MovieToken is ERC721 {\n    using Counters for Counters.Counter;\n    Counters.Counter public tokenIds;\n\n    struct Token {\n        string movieName;\n        uint256 tokenId;\n        uint basePrice;\n        string productionCompany;\n        address payable ownerAddr;\n        uint minTime;\n        uint maxTime;\n        uint apprPercent;\n        uint deprPercent;\n\n        bool resale;\n    }\n\n    Token[] allTokens;\n    address public admin;\n    mapping(uint256 => Token) public tokenIdToTokenMap;\n    mapping(address=>string) productionAddrToNameMap;\n    mapping(string=>uint) nameTokenIdMap;\n    mapping(uint=>address) tokenIdToOwnerMap;\n\n    modifier duplicateProdHouse (address addr){\n        bool duplicate = bytes(productionAddrToNameMap[addr]).length > 0 ;\n        require(!duplicate,\"Duplicate Production House\");\n        _;\n    }\n\n    modifier onlyAdmin{\n        require(msg.sender == admin,\"Not an Admin, no access\");\n        _;\n    }\n\n    modifier validProdHouse(address addr){\n        bool duplicate = bytes(productionAddrToNameMap[addr]).length > 0 ;\n        require(duplicate,\"Not a registered production house\");\n        _;\n    }\n\n    modifier duplicateMovieToken(string memory name){ // self exp.\n        bool duplicate = false;\n        for(uint i=0;i<allTokens.length;i++){\n\n            if(keccak256(abi.encodePacked(allTokens[i].movieName)) == keccak256(abi.encodePacked(name))){\n                duplicate = true;break;\n            }\n        }\n\n        require(!duplicate,\"A token is already present for this movie\");\n        _;\n    }\n\n    modifier validMovieToken(string memory name){ // self exp.\n        bool duplicate = false;\n        for(uint i=0;i<allTokens.length;i++){\n\n            if(keccak256(abi.encodePacked(allTokens[i].movieName)) == keccak256(abi.encodePacked(name))){\n                duplicate = true;break;\n            }\n        }\n\n        require(duplicate,\"A token is not present for this movie\");\n        _;\n    }\n\n    modifier validMinMaxValues(uint min,uint max){ // min (both days and appr/depr, should be +ve\n        require(min<=max && min>0 && max>0,\"Invalid Min Max values\");\n        _;\n    }\n\n    modifier checkTokenOwner(uint tokenId){\n        require(tokenIdToOwnerMap[tokenId]==msg.sender,\"Not the owner of the token\");\n        _;\n    }\n\n    constructor() ERC721(\"MovieTokenization\",\"MVTK\"){\n        admin = msg.sender;\n    }\n\n    function registerProductionHouse(string memory name,address addr) public duplicateProdHouse(msg.sender) onlyAdmin{\n        productionAddrToNameMap[addr] = name;\n    }\n    // uint appr, uint depr,uint minTime,uint maxTime, uint baseValue)\n\n    // function createMovieToken(string memory movieName, Token memory input) public validProdHouse(msg.sender) duplicateMovieToken(movieName) validMinMaxValues(input.minTime,input.maxTime) validMinMaxValues(input.apprPercent,input.deprPercent){\n    //     //check if the user is a registerd prod house or not, handled in validProdHouse modifier\n    //     //check for duplicate token\n    //     // string memory prodName = productionAddrToNameMap[msg.sender];\n    //     //check if input values are valid\n    //     // address payable sender = payable(msg.sender);\n    //     Token memory newToken = Token(movieName,tokenIds.current(),input.basePrice,productionAddrToNameMap[msg.sender],payable(msg.sender),input.minTime,input.maxTime,input.apprPercent,input.deprPercent,true);\n\n    //     nameTokenIdMap[movieName] = tokenIds.current();\n    //     tokenIdToTokenMap[tokenIds.current()] = newToken;\n    //     tokenIdToOwnerMap[tokenIds.current()] = msg.sender;\n    //     _safeMint(msg.sender, tokenIds.current());\n    //     tokenIds.increment();\n    //     allTokens.push(newToken);\n\n\n    // }\n\n    function createMovieToken(string memory movieName, uint basePrice,uint minTime,uint maxTime,uint apprPercent,uint deprPercent) public validProdHouse(msg.sender) duplicateMovieToken(movieName){\n        //check if the user is a registerd prod house or not, handled in validProdHouse modifier\n        //check for duplicate token\n        // string memory prodName = productionAddrToNameMap[msg.sender];\n        //check if input values are valid\n        // address payable sender = payable(msg.sender);\n        Token memory newToken = Token(movieName,tokenIds.current(),basePrice,productionAddrToNameMap[msg.sender],payable(msg.sender),minTime,maxTime,apprPercent,deprPercent,true);\n\n        nameTokenIdMap[movieName] = tokenIds.current();\n        tokenIdToTokenMap[tokenIds.current()] = newToken;\n        tokenIdToOwnerMap[tokenIds.current()] = msg.sender;\n        _safeMint(msg.sender, tokenIds.current());\n        tokenIds.increment();\n        allTokens.push(newToken);\n\n\n    }\n\n    function buyMovieToken(uint dayss, string memory movieName) public payable validMovieToken(movieName){ //changed tokenId to movieName, as there's no visibility provided right now\n        //check if the movieName is valid, in modifier\n        //days can be +/-, - represents earlier, + later\n        uint tokenId = nameTokenIdMap[movieName];\n        Token memory token = tokenIdToTokenMap[tokenId];\n        require(token.resale == true, \"Resale is not allowed for this movie\");\n        uint value = token.basePrice;\n        uint minDays = token.minTime;\n        uint maxDays = token.maxTime;\n\n        uint finalValue = value;\n\n        if(dayss<0){\n            if(dayss>minDays){//highest cost\n                finalValue += finalValue * (token.apprPercent/100);\n                finalValue += finalValue * (token.apprPercent/100);\n            }else{//second highest\n                finalValue += finalValue * (token.apprPercent/100);\n            }\n        }else if(dayss>0){\n            if(dayss>maxDays){//least cost\n                finalValue -= finalValue * (token.apprPercent/100);\n                finalValue -= finalValue * (token.apprPercent/100);\n            }else{//second least\n                finalValue -= finalValue * (token.apprPercent/100);\n            }\n        }\n\n        //get token owner and transfer ether\n        token.ownerAddr.transfer(msg.value); // failure of this reverts everything needn't explicitly handle for now, TODO: better, give a proper error message\n\n        //change ownership\n        token.ownerAddr = payable(msg.sender);\n        //also in map\n        tokenIdToOwnerMap[tokenId] = msg.sender;\n        //disable resale\n        token.resale  = false;\n        //change in token list\n        for(uint i=0;i<allTokens.length;i++){\n            if(allTokens[i].tokenId == tokenId){\n                allTokens[i].ownerAddr = payable(msg.sender);\n            }\n        }\n\n    }\n\n\n    function appreciateTokenValue(uint256 tokenId, uint value) public checkTokenOwner(tokenId){ //how will the user know tokenid, remember? give him visibility\n        tokenIdToTokenMap[tokenId].basePrice += value;\n    }\n\n    function depreciateTokenValue(uint256 tokenId, uint value) public checkTokenOwner(tokenId){\n        tokenIdToTokenMap[tokenId].basePrice -=  value;\n    }\n\n    function enableOrDisableResale(uint tokenId) public checkTokenOwner(tokenId){\n        if(tokenIdToTokenMap[tokenId].resale == true){\n            tokenIdToTokenMap[tokenId].resale = false;\n        }else{\n            tokenIdToTokenMap[tokenId].resale = true;\n        }\n    }\n\n\n    function viewTokens() public view returns(Token[] memory){\n\n        Token[] memory result = new Token[](allTokens.length);\n        uint index = 0;\n        for(uint i=0;i<=tokenIds.current();i++){ // no support to deleting tokens, so looping through all tokenids is equal to keys\n\n            if(tokenIdToTokenMap[i].ownerAddr == msg.sender){\n                result[index++]=tokenIdToTokenMap[i];\n            }\n        }\n        return result;\n    }\n\n}\n",
  "sourcePath": "/Users/saisvasgudimalla/Documents/Nani/MS_CS_UB/Spring_2023/Blockchain/FilmToken-Dapp/FilmToken-contract/contracts/FilmToken.sol",
  "compiler": {
    "name": "solc",
    "version": "0.8.19+commit.7dd6d404.Emscripten.clang"
  },
  "schemaVersion": "3.4.13",
  "updatedAt": "2023-04-29T00:39:50.854Z",
  "devdoc": {
    "events": {
      "Approval(address,address,uint256)": {
        "details": "Emitted when `owner` enables `approved` to manage the `tokenId` token."
      },
      "ApprovalForAll(address,address,bool)": {
        "details": "Emitted when `owner` enables or disables (`approved`) `operator` to manage all of its assets."
      },
      "Transfer(address,address,uint256)": {
        "details": "Emitted when `tokenId` token is transferred from `from` to `to`."
      }
    },
    "kind": "dev",
    "methods": {
      "approve(address,uint256)": {
        "details": "See {IERC721-approve}."
      },
      "balanceOf(address)": {
        "details": "See {IERC721-balanceOf}."
      },
      "getApproved(uint256)": {
        "details": "See {IERC721-getApproved}."
      },
      "isApprovedForAll(address,address)": {
        "details": "See {IERC721-isApprovedForAll}."
      },
      "name()": {
        "details": "See {IERC721Metadata-name}."
      },
      "ownerOf(uint256)": {
        "details": "See {IERC721-ownerOf}."
      },
      "safeTransferFrom(address,address,uint256)": {
        "details": "See {IERC721-safeTransferFrom}."
      },
      "safeTransferFrom(address,address,uint256,bytes)": {
        "details": "See {IERC721-safeTransferFrom}."
      },
      "setApprovalForAll(address,bool)": {
        "details": "See {IERC721-setApprovalForAll}."
      },
      "supportsInterface(bytes4)": {
        "details": "See {IERC165-supportsInterface}."
      },
      "symbol()": {
        "details": "See {IERC721Metadata-symbol}."
      },
      "tokenURI(uint256)": {
        "details": "See {IERC721Metadata-tokenURI}."
      },
      "transferFrom(address,address,uint256)": {
        "details": "See {IERC721-transferFrom}."
      }
    },
    "version": 1
  },
  "userdoc": {
    "kind": "user",
    "methods": {},
    "version": 1
  }
}