{
  "contractName": "MovieToken",
  "abi": [
    {
      "inputs": [],
      "stateMutability": "nonpayable",
      "type": "constructor"
    },
    {
      "anonymous": false,
      "inputs": [
        {
          "indexed": true,
          "internalType": "address",
          "name": "owner",
          "type": "address"
        },
        {
          "indexed": true,
          "internalType": "address",
          "name": "approved",
          "type": "address"
        },
        {
          "indexed": true,
          "internalType": "uint256",
          "name": "tokenId",
          "type": "uint256"
        }
      ],
      "name": "Approval",
      "type": "event"
    },
    {
      "anonymous": false,
      "inputs": [
        {
          "indexed": true,
          "internalType": "address",
          "name": "owner",
          "type": "address"
        },
        {
          "indexed": true,
          "internalType": "address",
          "name": "operator",
          "type": "address"
        },
        {
          "indexed": false,
          "internalType": "bool",
          "name": "approved",
          "type": "bool"
        }
      ],
      "name": "ApprovalForAll",
      "type": "event"
    },
    {
      "anonymous": false,
      "inputs": [
        {
          "indexed": true,
          "internalType": "address",
          "name": "from",
          "type": "address"
        },
        {
          "indexed": true,
          "internalType": "address",
          "name": "to",
          "type": "address"
        },
        {
          "indexed": true,
          "internalType": "uint256",
          "name": "tokenId",
          "type": "uint256"
        }
      ],
      "name": "Transfer",
      "type": "event"
    },
    {
      "inputs": [],
      "name": "admin",
      "outputs": [
        {
          "internalType": "address",
          "name": "",
          "type": "address"
        }
      ],
      "stateMutability": "view",
      "type": "function"
    },
    {
      "inputs": [
        {
          "internalType": "address",
          "name": "to",
          "type": "address"
        },
        {
          "internalType": "uint256",
          "name": "tokenId",
          "type": "uint256"
        }
      ],
      "name": "approve",
      "outputs": [],
      "stateMutability": "nonpayable",
      "type": "function"
    },
    {
      "inputs": [
        {
          "internalType": "address",
          "name": "owner",
          "type": "address"
        }
      ],
      "name": "balanceOf",
      "outputs": [
        {
          "internalType": "uint256",
          "name": "",
          "type": "uint256"
        }
      ],
      "stateMutability": "view",
      "type": "function"
    },
    {
      "inputs": [
        {
          "internalType": "uint256",
          "name": "tokenId",
          "type": "uint256"
        }
      ],
      "name": "getApproved",
      "outputs": [
        {
          "internalType": "address",
          "name": "",
          "type": "address"
        }
      ],
      "stateMutability": "view",
      "type": "function"
    },
    {
      "inputs": [
        {
          "internalType": "address",
          "name": "owner",
          "type": "address"
        },
        {
          "internalType": "address",
          "name": "operator",
          "type": "address"
        }
      ],
      "name": "isApprovedForAll",
      "outputs": [
        {
          "internalType": "bool",
          "name": "",
          "type": "bool"
        }
      ],
      "stateMutability": "view",
      "type": "function"
    },
    {
      "inputs": [],
      "name": "name",
      "outputs": [
        {
          "internalType": "string",
          "name": "",
          "type": "string"
        }
      ],
      "stateMutability": "view",
      "type": "function"
    },
    {
      "inputs": [
        {
          "internalType": "uint256",
          "name": "tokenId",
          "type": "uint256"
        }
      ],
      "name": "ownerOf",
      "outputs": [
        {
          "internalType": "address",
          "name": "",
          "type": "address"
        }
      ],
      "stateMutability": "view",
      "type": "function"
    },
    {
      "inputs": [
        {
          "internalType": "address",
          "name": "from",
          "type": "address"
        },
        {
          "internalType": "address",
          "name": "to",
          "type": "address"
        },
        {
          "internalType": "uint256",
          "name": "tokenId",
          "type": "uint256"
        }
      ],
      "name": "safeTransferFrom",
      "outputs": [],
      "stateMutability": "nonpayable",
      "type": "function"
    },
    {
      "inputs": [
        {
          "internalType": "address",
          "name": "from",
          "type": "address"
        },
        {
          "internalType": "address",
          "name": "to",
          "type": "address"
        },
        {
          "internalType": "uint256",
          "name": "tokenId",
          "type": "uint256"
        },
        {
          "internalType": "bytes",
          "name": "data",
          "type": "bytes"
        }
      ],
      "name": "safeTransferFrom",
      "outputs": [],
      "stateMutability": "nonpayable",
      "type": "function"
    },
    {
      "inputs": [
        {
          "internalType": "address",
          "name": "operator",
          "type": "address"
        },
        {
          "internalType": "bool",
          "name": "approved",
          "type": "bool"
        }
      ],
      "name": "setApprovalForAll",
      "outputs": [],
      "stateMutability": "nonpayable",
      "type": "function"
    },
    {
      "inputs": [
        {
          "internalType": "bytes4",
          "name": "interfaceId",
          "type": "bytes4"
        }
      ],
      "name": "supportsInterface",
      "outputs": [
        {
          "internalType": "bool",
          "name": "",
          "type": "bool"
        }
      ],
      "stateMutability": "view",
      "type": "function"
    },
    {
      "inputs": [],
      "name": "symbol",
      "outputs": [
        {
          "internalType": "string",
          "name": "",
          "type": "string"
        }
      ],
      "stateMutability": "view",
      "type": "function"
    },
    {
      "inputs": [
        {
          "internalType": "uint256",
          "name": "",
          "type": "uint256"
        }
      ],
      "name": "tokenIdToTokenMap",
      "outputs": [
        {
          "internalType": "string",
          "name": "movieName",
          "type": "string"
        },
        {
          "internalType": "uint256",
          "name": "tokenId",
          "type": "uint256"
        },
        {
          "internalType": "uint256",
          "name": "basePrice",
          "type": "uint256"
        },
        {
          "internalType": "string",
          "name": "productionCompany",
          "type": "string"
        },
        {
          "internalType": "address payable",
          "name": "ownerAddr",
          "type": "address"
        },
        {
          "internalType": "uint256",
          "name": "minTime",
          "type": "uint256"
        },
        {
          "internalType": "uint256",
          "name": "maxTime",
          "type": "uint256"
        },
        {
          "internalType": "uint256",
          "name": "apprPercent",
          "type": "uint256"
        },
        {
          "internalType": "uint256",
          "name": "deprPercent",
          "type": "uint256"
        },
        {
          "internalType": "bool",
          "name": "resale",
          "type": "bool"
        }
      ],
      "stateMutability": "view",
      "type": "function"
    },
    {
      "inputs": [],
      "name": "tokenIds",
      "outputs": [
        {
          "internalType": "uint256",
          "name": "_value",
          "type": "uint256"
        }
      ],
      "stateMutability": "view",
      "type": "function"
    },
    {
      "inputs": [
        {
          "internalType": "uint256",
          "name": "tokenId",
          "type": "uint256"
        }
      ],
      "name": "tokenURI",
      "outputs": [
        {
          "internalType": "string",
          "name": "",
          "type": "string"
        }
      ],
      "stateMutability": "view",
      "type": "function"
    },
    {
      "inputs": [
        {
          "internalType": "address",
          "name": "from",
          "type": "address"
        },
        {
          "internalType": "address",
          "name": "to",
          "type": "address"
        },
        {
          "internalType": "uint256",
          "name": "tokenId",
          "type": "uint256"
        }
      ],
      "name": "transferFrom",
      "outputs": [],
      "stateMutability": "nonpayable",
      "type": "function"
    },
    {
      "inputs": [
        {
          "internalType": "string",
          "name": "name",
          "type": "string"
        },
        {
          "internalType": "address",
          "name": "addr",
          "type": "address"
        }
      ],
      "name": "registerProductionHouse",
      "outputs": [],
      "stateMutability": "nonpayable",
      "type": "function"
    },
    {
      "inputs": [
        {
          "internalType": "string",
          "name": "movieName",
          "type": "string"
        },
        {
          "components": [
            {
              "internalType": "string",
              "name": "movieName",
              "type": "string"
            },
            {
              "internalType": "uint256",
              "name": "tokenId",
              "type": "uint256"
            },
            {
              "internalType": "uint256",
              "name": "basePrice",
              "type": "uint256"
            },
            {
              "internalType": "string",
              "name": "productionCompany",
              "type": "string"
            },
            {
              "internalType": "address payable",
              "name": "ownerAddr",
              "type": "address"
            },
            {
              "internalType": "uint256",
              "name": "minTime",
              "type": "uint256"
            },
            {
              "internalType": "uint256",
              "name": "maxTime",
              "type": "uint256"
            },
            {
              "internalType": "uint256",
              "name": "apprPercent",
              "type": "uint256"
            },
            {
              "internalType": "uint256",
              "name": "deprPercent",
              "type": "uint256"
            },
            {
              "internalType": "bool",
              "name": "resale",
              "type": "bool"
            }
          ],
          "internalType": "struct MovieToken.Token",
          "name": "input",
          "type": "tuple"
        }
      ],
      "name": "createMovieToken",
      "outputs": [],
      "stateMutability": "nonpayable",
      "type": "function"
    },
    {
      "inputs": [
        {
          "internalType": "uint256",
          "name": "dayss",
          "type": "uint256"
        },
        {
          "internalType": "string",
          "name": "movieName",
          "type": "string"
        }
      ],
      "name": "buyMovieToken",
      "outputs": [],
      "stateMutability": "payable",
      "type": "function"
    },
    {
      "inputs": [
        {
          "internalType": "uint256",
          "name": "tokenId",
          "type": "uint256"
        },
        {
          "internalType": "uint256",
          "name": "value",
          "type": "uint256"
        }
      ],
      "name": "appreciateTokenValue",
      "outputs": [],
      "stateMutability": "nonpayable",
      "type": "function"
    },
    {
      "inputs": [
        {
          "internalType": "uint256",
          "name": "tokenId",
          "type": "uint256"
        },
        {
          "internalType": "uint256",
          "name": "value",
          "type": "uint256"
        }
      ],
      "name": "depreciateTokenValue",
      "outputs": [],
      "stateMutability": "nonpayable",
      "type": "function"
    },
    {
      "inputs": [
        {
          "internalType": "uint256",
          "name": "tokenId",
          "type": "uint256"
        }
      ],
      "name": "enableOrDisableResale",
      "outputs": [],
      "stateMutability": "nonpayable",
      "type": "function"
    },
    {
      "inputs": [],
      "name": "viewTokens",
      "outputs": [
        {
          "components": [
            {
              "internalType": "string",
              "name": "movieName",
              "type": "string"
            },
            {
              "internalType": "uint256",
              "name": "tokenId",
              "type": "uint256"
            },
            {
              "internalType": "uint256",
              "name": "basePrice",
              "type": "uint256"
            },
            {
              "internalType": "string",
              "name": "productionCompany",
              "type": "string"
            },
            {
              "internalType": "address payable",
              "name": "ownerAddr",
              "type": "address"
            },
            {
              "internalType": "uint256",
              "name": "minTime",
              "type": "uint256"
            },
            {
              "internalType": "uint256",
              "name": "maxTime",
              "type": "uint256"
            },
            {
              "internalType": "uint256",
              "name": "apprPercent",
              "type": "uint256"
            },
            {
              "internalType": "uint256",
              "name": "deprPercent",
              "type": "uint256"
            },
            {
              "internalType": "bool",
              "name": "resale",
              "type": "bool"
            }
          ],
          "internalType": "struct MovieToken.Token[]",
          "name": "",
          "type": "tuple[]"
        }
      ],
      "stateMutability": "view",
      "type": "function"
    }
  ],
  "bytecode": "0x60806040523480156200001157600080fd5b506040518060400160405280601181526020017f4d6f766965546f6b656e697a6174696f6e0000000000000000000000000000008152506040518060400160405280600481526020017f4d56544b0000000000000000000000000000000000000000000000000000000081525081600090816200008f919062000365565b508060019081620000a1919062000365565b50505033600860006101000a81548173ffffffffffffffffffffffffffffffffffffffff021916908373ffffffffffffffffffffffffffffffffffffffff1602179055506200044c565b600081519050919050565b7f4e487b7100000000000000000000000000000000000000000000000000000000600052604160045260246000fd5b7f4e487b7100000000000000000000000000000000000000000000000000000000600052602260045260246000fd5b600060028204905060018216806200016d57607f821691505b60208210810362000183576200018262000125565b5b50919050565b60008190508160005260206000209050919050565b60006020601f8301049050919050565b600082821b905092915050565b600060088302620001ed7fffffffffffffffffffffffffffffffffffffffffffffffffffffffffffffffff82620001ae565b620001f98683620001ae565b95508019841693508086168417925050509392505050565b6000819050919050565b6000819050919050565b600062000246620002406200023a8462000211565b6200021b565b62000211565b9050919050565b6000819050919050565b620002628362000225565b6200027a62000271826200024d565b848454620001bb565b825550505050565b600090565b6200029162000282565b6200029e81848462000257565b505050565b5b81811015620002c657620002ba60008262000287565b600181019050620002a4565b5050565b601f8211156200031557620002df8162000189565b620002ea846200019e565b81016020851015620002fa578190505b6200031262000309856200019e565b830182620002a3565b50505b505050565b600082821c905092915050565b60006200033a600019846008026200031a565b1980831691505092915050565b600062000355838362000327565b9150826002028217905092915050565b6200037082620000eb565b67ffffffffffffffff8111156200038c576200038b620000f6565b5b62000398825462000154565b620003a5828285620002ca565b600060209050601f831160018114620003dd5760008415620003c8578287015190505b620003d4858262000347565b86555062000444565b601f198416620003ed8662000189565b60005b828110156200041757848901518255600182019150602085019450602081019050620003f0565b8683101562000437578489015162000433601f89168262000327565b8355505b6001600288020188555050505b505050505050565b614ca3806200045c6000396000f3fe6080604052600436106101405760003560e01c8063714cff56116100b6578063c87b56dd1161006f578063c87b56dd14610466578063ca99cc3e146104a3578063dd7072f6146104cc578063e985e9c5146104f5578063f851a44014610532578063f907b4a61461055d57610140565b8063714cff561461034f57806394abe53c1461037a57806395d89b41146103a3578063a22cb465146103ce578063b88d4fde146103f7578063c3aee7361461042057610140565b806337c4f4671161010857806337c4f4671461023c57806342842e0e146102655780634bf5bf351461028e57806357a3106b146102b95780636352211e146102d557806370a082311461031257610140565b806301ffc9a71461014557806306fdde0314610182578063081812fc146101ad578063095ea7b3146101ea57806323b872dd14610213575b600080fd5b34801561015157600080fd5b5061016c6004803603810190610167919061307b565b610586565b60405161017991906130c3565b60405180910390f35b34801561018e57600080fd5b50610197610668565b6040516101a4919061316e565b60405180910390f35b3480156101b957600080fd5b506101d460048036038101906101cf91906131c6565b6106fa565b6040516101e19190613234565b60405180910390f35b3480156101f657600080fd5b50610211600480360381019061020c919061327b565b610740565b005b34801561021f57600080fd5b5061023a600480360381019061023591906132bb565b610857565b005b34801561024857600080fd5b50610263600480360381019061025e9190613443565b6108b7565b005b34801561027157600080fd5b5061028c600480360381019061028791906132bb565b610a2e565b005b34801561029a57600080fd5b506102a3610a4e565b6040516102b091906136cb565b60405180910390f35b6102d360048036038101906102ce91906136ed565b610d61565b005b3480156102e157600080fd5b506102fc60048036038101906102f791906131c6565b61139d565b6040516103099190613234565b60405180910390f35b34801561031e57600080fd5b5061033960048036038101906103349190613749565b611423565b6040516103469190613785565b60405180910390f35b34801561035b57600080fd5b506103646114da565b6040516103719190613785565b60405180910390f35b34801561038657600080fd5b506103a1600480360381019061039c9190613930565b6114e6565b005b3480156103af57600080fd5b506103b8611b14565b6040516103c5919061316e565b60405180910390f35b3480156103da57600080fd5b506103f560048036038101906103f091906139a8565b611ba6565b005b34801561040357600080fd5b5061041e60048036038101906104199190613a89565b611bbc565b005b34801561042c57600080fd5b50610447600480360381019061044291906131c6565b611c1e565b60405161045d9a99989796959493929190613b1b565b60405180910390f35b34801561047257600080fd5b5061048d600480360381019061048891906131c6565b611daf565b60405161049a919061316e565b60405180910390f35b3480156104af57600080fd5b506104ca60048036038101906104c591906131c6565b611e17565b005b3480156104d857600080fd5b506104f360048036038101906104ee9190613bc5565b611f50565b005b34801561050157600080fd5b5061051c60048036038101906105179190613c05565b612024565b60405161052991906130c3565b60405180910390f35b34801561053e57600080fd5b506105476120b8565b6040516105549190613234565b60405180910390f35b34801561056957600080fd5b50610584600480360381019061057f9190613bc5565b6120de565b005b60007f80ac58cd000000000000000000000000000000000000000000000000000000007bffffffffffffffffffffffffffffffffffffffffffffffffffffffff1916827bffffffffffffffffffffffffffffffffffffffffffffffffffffffff1916148061065157507f5b5e139f000000000000000000000000000000000000000000000000000000007bffffffffffffffffffffffffffffffffffffffffffffffffffffffff1916827bffffffffffffffffffffffffffffffffffffffffffffffffffffffff1916145b806106615750610660826121b2565b5b9050919050565b60606000805461067790613c74565b80601f01602080910402602001604051908101604052809291908181526020018280546106a390613c74565b80156106f05780601f106106c5576101008083540402835291602001916106f0565b820191906000526020600020905b8154815290600101906020018083116106d357829003601f168201915b5050505050905090565b60006107058261221c565b6004600083815260200190815260200160002060009054906101000a900473ffffffffffffffffffffffffffffffffffffffff169050919050565b600061074b8261139d565b90508073ffffffffffffffffffffffffffffffffffffffff168373ffffffffffffffffffffffffffffffffffffffff16036107bb576040517f08c379a00000000000000000000000000000000000000000000000000000000081526004016107b290613d17565b60405180910390fd5b8073ffffffffffffffffffffffffffffffffffffffff166107da612267565b73ffffffffffffffffffffffffffffffffffffffff161480610809575061080881610803612267565b612024565b5b610848576040517f08c379a000000000000000000000000000000000000000000000000000000000815260040161083f90613da9565b60405180910390fd5b610852838361226f565b505050565b610868610862612267565b82612328565b6108a7576040517f08c379a000000000000000000000000000000000000000000000000000000000815260040161089e90613e3b565b60405180910390fd5b6108b28383836123bd565b505050565b33600080600a60008473ffffffffffffffffffffffffffffffffffffffff1673ffffffffffffffffffffffffffffffffffffffff168152602001908152602001600020805461090590613c74565b9050119050801561094b576040517f08c379a000000000000000000000000000000000000000000000000000000000815260040161094290613ea7565b60405180910390fd5b600860009054906101000a900473ffffffffffffffffffffffffffffffffffffffff1673ffffffffffffffffffffffffffffffffffffffff163373ffffffffffffffffffffffffffffffffffffffff16146109db576040517f08c379a00000000000000000000000000000000000000000000000000000000081526004016109d290613f13565b60405180910390fd5b83600a60008573ffffffffffffffffffffffffffffffffffffffff1673ffffffffffffffffffffffffffffffffffffffff1681526020019081526020016000209081610a2791906140df565b5050505050565b610a4983838360405180602001604052806000815250611bbc565b505050565b6060600060078054905067ffffffffffffffff811115610a7157610a70613318565b5b604051908082528060200260200182016040528015610aaa57816020015b610a97612fa4565b815260200190600190039081610a8f5790505b5090506000805b610abb60066126b6565b8111610d58573373ffffffffffffffffffffffffffffffffffffffff166009600083815260200190815260200160002060040160009054906101000a900473ffffffffffffffffffffffffffffffffffffffff1673ffffffffffffffffffffffffffffffffffffffff1603610d45576009600082815260200190815260200160002060405180610140016040529081600082018054610b5990613c74565b80601f0160208091040260200160405190810160405280929190818152602001828054610b8590613c74565b8015610bd25780601f10610ba757610100808354040283529160200191610bd2565b820191906000526020600020905b815481529060010190602001808311610bb557829003601f168201915b505050505081526020016001820154815260200160028201548152602001600382018054610bff90613c74565b80601f0160208091040260200160405190810160405280929190818152602001828054610c2b90613c74565b8015610c785780601f10610c4d57610100808354040283529160200191610c78565b820191906000526020600020905b815481529060010190602001808311610c5b57829003601f168201915b505050505081526020016004820160009054906101000a900473ffffffffffffffffffffffffffffffffffffffff1673ffffffffffffffffffffffffffffffffffffffff1673ffffffffffffffffffffffffffffffffffffffff168152602001600582015481526020016006820154815260200160078201548152602001600882015481526020016009820160009054906101000a900460ff161515151581525050838380610d26906141e0565b945081518110610d3957610d38614228565b5b60200260200101819052505b8080610d50906141e0565b915050610ab1565b50819250505090565b806000805b600780549050811015610e065782604051602001610d849190614293565b6040516020818303038152906040528051906020012060078281548110610dae57610dad614228565b5b90600052602060002090600a0201600001604051602001610dcf919061432d565b6040516020818303038152906040528051906020012003610df35760019150610e06565b8080610dfe906141e0565b915050610d66565b5080610e47576040517f08c379a0000000000000000000000000000000000000000000000000000000008152600401610e3e906143b6565b60405180910390fd5b6000600b84604051610e599190614293565b908152602001604051809103902054905060006009600083815260200190815260200160002060405180610140016040529081600082018054610e9b90613c74565b80601f0160208091040260200160405190810160405280929190818152602001828054610ec790613c74565b8015610f145780601f10610ee957610100808354040283529160200191610f14565b820191906000526020600020905b815481529060010190602001808311610ef757829003601f168201915b505050505081526020016001820154815260200160028201548152602001600382018054610f4190613c74565b80601f0160208091040260200160405190810160405280929190818152602001828054610f6d90613c74565b8015610fba5780601f10610f8f57610100808354040283529160200191610fba565b820191906000526020600020905b815481529060010190602001808311610f9d57829003601f168201915b505050505081526020016004820160009054906101000a900473ffffffffffffffffffffffffffffffffffffffff1673ffffffffffffffffffffffffffffffffffffffff1673ffffffffffffffffffffffffffffffffffffffff168152602001600582015481526020016006820154815260200160078201548152602001600882015481526020016009820160009054906101000a900460ff1615151515815250509050600115158161012001511515146110aa576040517f08c379a00000000000000000000000000000000000000000000000000000000081526004016110a190614448565b60405180910390fd5b60008160400151905060008260a00151905060008360c001519050600083905060008a101561116157828a11156111325760648560e001516110ec9190614497565b816110f791906144c8565b81611102919061450a565b905060648560e001516111159190614497565b8161112091906144c8565b8161112b919061450a565b905061115c565b60648560e001516111439190614497565b8161114e91906144c8565b81611159919061450a565b90505b6111f5565b60008a11156111f457818a11156111c95760648560e001516111839190614497565b8161118e91906144c8565b81611199919061453e565b905060648560e001516111ac9190614497565b816111b791906144c8565b816111c2919061453e565b90506111f3565b60648560e001516111da9190614497565b816111e591906144c8565b816111f0919061453e565b90505b5b5b846080015173ffffffffffffffffffffffffffffffffffffffff166108fc349081150290604051600060405180830381858888f1935050505015801561123f573d6000803e3d6000fd5b5033856080019073ffffffffffffffffffffffffffffffffffffffff16908173ffffffffffffffffffffffffffffffffffffffff168152505033600c600088815260200190815260200160002060006101000a81548173ffffffffffffffffffffffffffffffffffffffff021916908373ffffffffffffffffffffffffffffffffffffffff16021790555060008561012001901515908115158152505060005b60078054905081101561139057866007828154811061130157611300614228565b5b90600052602060002090600a0201600101540361137d57336007828154811061132d5761132c614228565b5b90600052602060002090600a020160040160006101000a81548173ffffffffffffffffffffffffffffffffffffffff021916908373ffffffffffffffffffffffffffffffffffffffff1602179055505b8080611388906141e0565b9150506112df565b5050505050505050505050565b6000806113a9836126c4565b9050600073ffffffffffffffffffffffffffffffffffffffff168173ffffffffffffffffffffffffffffffffffffffff160361141a576040517f08c379a0000000000000000000000000000000000000000000000000000000008152600401611411906145be565b60405180910390fd5b80915050919050565b60008073ffffffffffffffffffffffffffffffffffffffff168273ffffffffffffffffffffffffffffffffffffffff1603611493576040517f08c379a000000000000000000000000000000000000000000000000000000000815260040161148a90614650565b60405180910390fd5b600360008373ffffffffffffffffffffffffffffffffffffffff1673ffffffffffffffffffffffffffffffffffffffff168152602001908152602001600020549050919050565b60068060000154905081565b33600080600a60008473ffffffffffffffffffffffffffffffffffffffff1673ffffffffffffffffffffffffffffffffffffffff168152602001908152602001600020805461153490613c74565b905011905080611579576040517f08c379a0000000000000000000000000000000000000000000000000000000008152600401611570906146e2565b60405180910390fd5b836000805b60078054905081101561161e578260405160200161159c9190614293565b60405160208183030381529060405280519060200120600782815481106115c6576115c5614228565b5b90600052602060002090600a02016000016040516020016115e7919061432d565b604051602081830303815290604052805190602001200361160b576001915061161e565b8080611616906141e0565b91505061157e565b508015611660576040517f08c379a000000000000000000000000000000000000000000000000000000000815260040161165790614774565b60405180910390fd5b8460a001518560c0015180821115801561167a5750600082115b80156116865750600081115b6116c5576040517f08c379a00000000000000000000000000000000000000000000000000000000081526004016116bc906147e0565b60405180910390fd5b8660e001518761010001518082111580156116e05750600082115b80156116ec5750600081115b61172b576040517f08c379a0000000000000000000000000000000000000000000000000000000008152600401611722906147e0565b60405180910390fd5b60006040518061014001604052808c815260200161174960066126b6565b81526020018b604001518152602001600a60003373ffffffffffffffffffffffffffffffffffffffff1673ffffffffffffffffffffffffffffffffffffffff16815260200190815260200160002080546117a290613c74565b80601f01602080910402602001604051908101604052809291908181526020018280546117ce90613c74565b801561181b5780601f106117f05761010080835404028352916020019161181b565b820191906000526020600020905b8154815290600101906020018083116117fe57829003601f168201915b505050505081526020013373ffffffffffffffffffffffffffffffffffffffff1681526020018b60a0015181526020018b60c0015181526020018b60e0015181526020018b6101000151815260200160011515815250905061187d60066126b6565b600b8c60405161188d9190614293565b90815260200160405180910390208190555080600960006118ae60066126b6565b815260200190815260200160002060008201518160000190816118d191906140df565b50602082015181600101556040820151816002015560608201518160030190816118fb91906140df565b5060808201518160040160006101000a81548173ffffffffffffffffffffffffffffffffffffffff021916908373ffffffffffffffffffffffffffffffffffffffff16021790555060a0820151816005015560c0820151816006015560e0820151816007015561010082015181600801556101208201518160090160006101000a81548160ff02191690831515021790555090505033600c600061199f60066126b6565b815260200190815260200160002060006101000a81548173ffffffffffffffffffffffffffffffffffffffff021916908373ffffffffffffffffffffffffffffffffffffffff1602179055506119fe336119f960066126b6565b612701565b611a08600661271f565b60078190806001815401808255809150506001900390600052602060002090600a02016000909190919091506000820151816000019081611a4991906140df565b5060208201518160010155604082015181600201556060820151816003019081611a7391906140df565b5060808201518160040160006101000a81548173ffffffffffffffffffffffffffffffffffffffff021916908373ffffffffffffffffffffffffffffffffffffffff16021790555060a0820151816005015560c0820151816006015560e0820151816007015561010082015181600801556101208201518160090160006101000a81548160ff02191690831515021790555050505050505050505050505050565b606060018054611b2390613c74565b80601f0160208091040260200160405190810160405280929190818152602001828054611b4f90613c74565b8015611b9c5780601f10611b7157610100808354040283529160200191611b9c565b820191906000526020600020905b815481529060010190602001808311611b7f57829003601f168201915b5050505050905090565b611bb8611bb1612267565b8383612735565b5050565b611bcd611bc7612267565b83612328565b611c0c576040517f08c379a0000000000000000000000000000000000000000000000000000000008152600401611c0390613e3b565b60405180910390fd5b611c18848484846128a1565b50505050565b6009602052806000526040600020600091509050806000018054611c4190613c74565b80601f0160208091040260200160405190810160405280929190818152602001828054611c6d90613c74565b8015611cba5780601f10611c8f57610100808354040283529160200191611cba565b820191906000526020600020905b815481529060010190602001808311611c9d57829003601f168201915b505050505090806001015490806002015490806003018054611cdb90613c74565b80601f0160208091040260200160405190810160405280929190818152602001828054611d0790613c74565b8015611d545780601f10611d2957610100808354040283529160200191611d54565b820191906000526020600020905b815481529060010190602001808311611d3757829003601f168201915b5050505050908060040160009054906101000a900473ffffffffffffffffffffffffffffffffffffffff16908060050154908060060154908060070154908060080154908060090160009054906101000a900460ff1690508a565b6060611dba8261221c565b6000611dc46128fd565b90506000815111611de45760405180602001604052806000815250611e0f565b80611dee84612914565b604051602001611dff929190614800565b6040516020818303038152906040525b915050919050565b803373ffffffffffffffffffffffffffffffffffffffff16600c600083815260200190815260200160002060009054906101000a900473ffffffffffffffffffffffffffffffffffffffff1673ffffffffffffffffffffffffffffffffffffffff1614611eb9576040517f08c379a0000000000000000000000000000000000000000000000000000000008152600401611eb090614870565b60405180910390fd5b600115156009600084815260200190815260200160002060090160009054906101000a900460ff16151503611f1c5760006009600084815260200190815260200160002060090160006101000a81548160ff021916908315150217905550611f4c565b60016009600084815260200190815260200160002060090160006101000a81548160ff0219169083151502179055505b5050565b813373ffffffffffffffffffffffffffffffffffffffff16600c600083815260200190815260200160002060009054906101000a900473ffffffffffffffffffffffffffffffffffffffff1673ffffffffffffffffffffffffffffffffffffffff1614611ff2576040517f08c379a0000000000000000000000000000000000000000000000000000000008152600401611fe990614870565b60405180910390fd5b81600960008581526020019081526020016000206002016000828254612018919061450a565b92505081905550505050565b6000600560008473ffffffffffffffffffffffffffffffffffffffff1673ffffffffffffffffffffffffffffffffffffffff16815260200190815260200160002060008373ffffffffffffffffffffffffffffffffffffffff1673ffffffffffffffffffffffffffffffffffffffff16815260200190815260200160002060009054906101000a900460ff16905092915050565b600860009054906101000a900473ffffffffffffffffffffffffffffffffffffffff1681565b813373ffffffffffffffffffffffffffffffffffffffff16600c600083815260200190815260200160002060009054906101000a900473ffffffffffffffffffffffffffffffffffffffff1673ffffffffffffffffffffffffffffffffffffffff1614612180576040517f08c379a000000000000000000000000000000000000000000000000000000000815260040161217790614870565b60405180910390fd5b816009600085815260200190815260200160002060020160008282546121a6919061453e565b92505081905550505050565b60007f01ffc9a7000000000000000000000000000000000000000000000000000000007bffffffffffffffffffffffffffffffffffffffffffffffffffffffff1916827bffffffffffffffffffffffffffffffffffffffffffffffffffffffff1916149050919050565b612225816129e2565b612264576040517f08c379a000000000000000000000000000000000000000000000000000000000815260040161225b906145be565b60405180910390fd5b50565b600033905090565b816004600083815260200190815260200160002060006101000a81548173ffffffffffffffffffffffffffffffffffffffff021916908373ffffffffffffffffffffffffffffffffffffffff160217905550808273ffffffffffffffffffffffffffffffffffffffff166122e28361139d565b73ffffffffffffffffffffffffffffffffffffffff167f8c5be1e5ebec7d5bd14f71427d1e84f3dd0314c0f7b2291e5b200ac8c7c3b92560405160405180910390a45050565b6000806123348361139d565b90508073ffffffffffffffffffffffffffffffffffffffff168473ffffffffffffffffffffffffffffffffffffffff16148061237657506123758185612024565b5b806123b457508373ffffffffffffffffffffffffffffffffffffffff1661239c846106fa565b73ffffffffffffffffffffffffffffffffffffffff16145b91505092915050565b8273ffffffffffffffffffffffffffffffffffffffff166123dd8261139d565b73ffffffffffffffffffffffffffffffffffffffff1614612433576040517f08c379a000000000000000000000000000000000000000000000000000000000815260040161242a90614902565b60405180910390fd5b600073ffffffffffffffffffffffffffffffffffffffff168273ffffffffffffffffffffffffffffffffffffffff16036124a2576040517f08c379a000000000000000000000000000000000000000000000000000000000815260040161249990614994565b60405180910390fd5b6124af8383836001612a23565b8273ffffffffffffffffffffffffffffffffffffffff166124cf8261139d565b73ffffffffffffffffffffffffffffffffffffffff1614612525576040517f08c379a000000000000000000000000000000000000000000000000000000000815260040161251c90614902565b60405180910390fd5b6004600082815260200190815260200160002060006101000a81549073ffffffffffffffffffffffffffffffffffffffff02191690556001600360008573ffffffffffffffffffffffffffffffffffffffff1673ffffffffffffffffffffffffffffffffffffffff168152602001908152602001600020600082825403925050819055506001600360008473ffffffffffffffffffffffffffffffffffffffff1673ffffffffffffffffffffffffffffffffffffffff16815260200190815260200160002060008282540192505081905550816002600083815260200190815260200160002060006101000a81548173ffffffffffffffffffffffffffffffffffffffff021916908373ffffffffffffffffffffffffffffffffffffffff160217905550808273ffffffffffffffffffffffffffffffffffffffff168473ffffffffffffffffffffffffffffffffffffffff167fddf252ad1be2c89b69c2b068fc378daa952ba7f163c4a11628f55a4df523b3ef60405160405180910390a46126b18383836001612a29565b505050565b600081600001549050919050565b60006002600083815260200190815260200160002060009054906101000a900473ffffffffffffffffffffffffffffffffffffffff169050919050565b61271b828260405180602001604052806000815250612a2f565b5050565b6001816000016000828254019250508190555050565b8173ffffffffffffffffffffffffffffffffffffffff168373ffffffffffffffffffffffffffffffffffffffff16036127a3576040517f08c379a000000000000000000000000000000000000000000000000000000000815260040161279a90614a00565b60405180910390fd5b80600560008573ffffffffffffffffffffffffffffffffffffffff1673ffffffffffffffffffffffffffffffffffffffff16815260200190815260200160002060008473ffffffffffffffffffffffffffffffffffffffff1673ffffffffffffffffffffffffffffffffffffffff16815260200190815260200160002060006101000a81548160ff0219169083151502179055508173ffffffffffffffffffffffffffffffffffffffff168373ffffffffffffffffffffffffffffffffffffffff167f17307eab39ab6107e8899845ad3d59bd9653f200f220920489ca2b5937696c318360405161289491906130c3565b60405180910390a3505050565b6128ac8484846123bd565b6128b884848484612a8a565b6128f7576040517f08c379a00000000000000000000000000000000000000000000000000000000081526004016128ee90614a92565b60405180910390fd5b50505050565b606060405180602001604052806000815250905090565b60606000600161292384612c11565b01905060008167ffffffffffffffff81111561294257612941613318565b5b6040519080825280601f01601f1916602001820160405280156129745781602001600182028036833780820191505090505b509050600082602001820190505b6001156129d7578080600190039150507f3031323334353637383961626364656600000000000000000000000000000000600a86061a8153600a85816129cb576129ca614468565b5b04945060008503612982575b819350505050919050565b60008073ffffffffffffffffffffffffffffffffffffffff16612a04836126c4565b73ffffffffffffffffffffffffffffffffffffffff1614159050919050565b50505050565b50505050565b612a398383612d64565b612a466000848484612a8a565b612a85576040517f08c379a0000000000000000000000000000000000000000000000000000000008152600401612a7c90614a92565b60405180910390fd5b505050565b6000612aab8473ffffffffffffffffffffffffffffffffffffffff16612f81565b15612c04578373ffffffffffffffffffffffffffffffffffffffff1663150b7a02612ad4612267565b8786866040518563ffffffff1660e01b8152600401612af69493929190614b07565b6020604051808303816000875af1925050508015612b3257506040513d601f19601f82011682018060405250810190612b2f9190614b68565b60015b612bb4573d8060008114612b62576040519150601f19603f3d011682016040523d82523d6000602084013e612b67565b606091505b506000815103612bac576040517f08c379a0000000000000000000000000000000000000000000000000000000008152600401612ba390614a92565b60405180910390fd5b805181602001fd5b63150b7a0260e01b7bffffffffffffffffffffffffffffffffffffffffffffffffffffffff1916817bffffffffffffffffffffffffffffffffffffffffffffffffffffffff191614915050612c09565b600190505b949350505050565b600080600090507a184f03e93ff9f4daa797ed6e38ed64bf6a1f0100000000000000008310612c6f577a184f03e93ff9f4daa797ed6e38ed64bf6a1f0100000000000000008381612c6557612c64614468565b5b0492506040810190505b6d04ee2d6d415b85acef81000000008310612cac576d04ee2d6d415b85acef81000000008381612ca257612ca1614468565b5b0492506020810190505b662386f26fc100008310612cdb57662386f26fc100008381612cd157612cd0614468565b5b0492506010810190505b6305f5e1008310612d04576305f5e1008381612cfa57612cf9614468565b5b0492506008810190505b6127108310612d29576127108381612d1f57612d1e614468565b5b0492506004810190505b60648310612d4c5760648381612d4257612d41614468565b5b0492506002810190505b600a8310612d5b576001810190505b80915050919050565b600073ffffffffffffffffffffffffffffffffffffffff168273ffffffffffffffffffffffffffffffffffffffff1603612dd3576040517f08c379a0000000000000000000000000000000000000000000000000000000008152600401612dca90614be1565b60405180910390fd5b612ddc816129e2565b15612e1c576040517f08c379a0000000000000000000000000000000000000000000000000000000008152600401612e1390614c4d565b60405180910390fd5b612e2a600083836001612a23565b612e33816129e2565b15612e73576040517f08c379a0000000000000000000000000000000000000000000000000000000008152600401612e6a90614c4d565b60405180910390fd5b6001600360008473ffffffffffffffffffffffffffffffffffffffff1673ffffffffffffffffffffffffffffffffffffffff16815260200190815260200160002060008282540192505081905550816002600083815260200190815260200160002060006101000a81548173ffffffffffffffffffffffffffffffffffffffff021916908373ffffffffffffffffffffffffffffffffffffffff160217905550808273ffffffffffffffffffffffffffffffffffffffff16600073ffffffffffffffffffffffffffffffffffffffff167fddf252ad1be2c89b69c2b068fc378daa952ba7f163c4a11628f55a4df523b3ef60405160405180910390a4612f7d600083836001612a29565b5050565b6000808273ffffffffffffffffffffffffffffffffffffffff163b119050919050565b60405180610140016040528060608152602001600081526020016000815260200160608152602001600073ffffffffffffffffffffffffffffffffffffffff168152602001600081526020016000815260200160008152602001600081526020016000151581525090565b6000604051905090565b600080fd5b600080fd5b60007fffffffff0000000000000000000000000000000000000000000000000000000082169050919050565b61305881613023565b811461306357600080fd5b50565b6000813590506130758161304f565b92915050565b60006020828403121561309157613090613019565b5b600061309f84828501613066565b91505092915050565b60008115159050919050565b6130bd816130a8565b82525050565b60006020820190506130d860008301846130b4565b92915050565b600081519050919050565b600082825260208201905092915050565b60005b838110156131185780820151818401526020810190506130fd565b60008484015250505050565b6000601f19601f8301169050919050565b6000613140826130de565b61314a81856130e9565b935061315a8185602086016130fa565b61316381613124565b840191505092915050565b600060208201905081810360008301526131888184613135565b905092915050565b6000819050919050565b6131a381613190565b81146131ae57600080fd5b50565b6000813590506131c08161319a565b92915050565b6000602082840312156131dc576131db613019565b5b60006131ea848285016131b1565b91505092915050565b600073ffffffffffffffffffffffffffffffffffffffff82169050919050565b600061321e826131f3565b9050919050565b61322e81613213565b82525050565b60006020820190506132496000830184613225565b92915050565b61325881613213565b811461326357600080fd5b50565b6000813590506132758161324f565b92915050565b6000806040838503121561329257613291613019565b5b60006132a085828601613266565b92505060206132b1858286016131b1565b9150509250929050565b6000806000606084860312156132d4576132d3613019565b5b60006132e286828701613266565b93505060206132f386828701613266565b9250506040613304868287016131b1565b9150509250925092565b600080fd5b600080fd5b7f4e487b7100000000000000000000000000000000000000000000000000000000600052604160045260246000fd5b61335082613124565b810181811067ffffffffffffffff8211171561336f5761336e613318565b5b80604052505050565b600061338261300f565b905061338e8282613347565b919050565b600067ffffffffffffffff8211156133ae576133ad613318565b5b6133b782613124565b9050602081019050919050565b82818337600083830152505050565b60006133e66133e184613393565b613378565b90508281526020810184848401111561340257613401613313565b5b61340d8482856133c4565b509392505050565b600082601f83011261342a5761342961330e565b5b813561343a8482602086016133d3565b91505092915050565b6000806040838503121561345a57613459613019565b5b600083013567ffffffffffffffff8111156134785761347761301e565b5b61348485828601613415565b925050602061349585828601613266565b9150509250929050565b600081519050919050565b600082825260208201905092915050565b6000819050602082019050919050565b600082825260208201905092915050565b60006134e7826130de565b6134f181856134cb565b93506135018185602086016130fa565b61350a81613124565b840191505092915050565b61351e81613190565b82525050565b600061352f826131f3565b9050919050565b61353f81613524565b82525050565b61354e816130a8565b82525050565b600061014083016000830151848203600086015261357282826134dc565b91505060208301516135876020860182613515565b50604083015161359a6040860182613515565b50606083015184820360608601526135b282826134dc565b91505060808301516135c76080860182613536565b5060a08301516135da60a0860182613515565b5060c08301516135ed60c0860182613515565b5060e083015161360060e0860182613515565b50610100830151613615610100860182613515565b5061012083015161362a610120860182613545565b508091505092915050565b60006136418383613554565b905092915050565b6000602082019050919050565b60006136618261349f565b61366b81856134aa565b93508360208202850161367d856134bb565b8060005b858110156136b9578484038952815161369a8582613635565b94506136a583613649565b925060208a01995050600181019050613681565b50829750879550505050505092915050565b600060208201905081810360008301526136e58184613656565b905092915050565b6000806040838503121561370457613703613019565b5b6000613712858286016131b1565b925050602083013567ffffffffffffffff8111156137335761373261301e565b5b61373f85828601613415565b9150509250929050565b60006020828403121561375f5761375e613019565b5b600061376d84828501613266565b91505092915050565b61377f81613190565b82525050565b600060208201905061379a6000830184613776565b92915050565b600080fd5b600080fd5b6137b381613524565b81146137be57600080fd5b50565b6000813590506137d0816137aa565b92915050565b6137df816130a8565b81146137ea57600080fd5b50565b6000813590506137fc816137d6565b92915050565b60006101408284031215613819576138186137a0565b5b613824610140613378565b9050600082013567ffffffffffffffff811115613844576138436137a5565b5b61385084828501613415565b6000830152506020613864848285016131b1565b6020830152506040613878848285016131b1565b604083015250606082013567ffffffffffffffff81111561389c5761389b6137a5565b5b6138a884828501613415565b60608301525060806138bc848285016137c1565b60808301525060a06138d0848285016131b1565b60a08301525060c06138e4848285016131b1565b60c08301525060e06138f8848285016131b1565b60e08301525061010061390d848285016131b1565b61010083015250610120613923848285016137ed565b6101208301525092915050565b6000806040838503121561394757613946613019565b5b600083013567ffffffffffffffff8111156139655761396461301e565b5b61397185828601613415565b925050602083013567ffffffffffffffff8111156139925761399161301e565b5b61399e85828601613802565b9150509250929050565b600080604083850312156139bf576139be613019565b5b60006139cd85828601613266565b92505060206139de858286016137ed565b9150509250929050565b600067ffffffffffffffff821115613a0357613a02613318565b5b613a0c82613124565b9050602081019050919050565b6000613a2c613a27846139e8565b613378565b905082815260208101848484011115613a4857613a47613313565b5b613a538482856133c4565b509392505050565b600082601f830112613a7057613a6f61330e565b5b8135613a80848260208601613a19565b91505092915050565b60008060008060808587031215613aa357613aa2613019565b5b6000613ab187828801613266565b9450506020613ac287828801613266565b9350506040613ad3878288016131b1565b925050606085013567ffffffffffffffff811115613af457613af361301e565b5b613b0087828801613a5b565b91505092959194509250565b613b1581613524565b82525050565b6000610140820190508181036000830152613b36818d613135565b9050613b45602083018c613776565b613b52604083018b613776565b8181036060830152613b64818a613135565b9050613b736080830189613b0c565b613b8060a0830188613776565b613b8d60c0830187613776565b613b9a60e0830186613776565b613ba8610100830185613776565b613bb66101208301846130b4565b9b9a5050505050505050505050565b60008060408385031215613bdc57613bdb613019565b5b6000613bea858286016131b1565b9250506020613bfb858286016131b1565b9150509250929050565b60008060408385031215613c1c57613c1b613019565b5b6000613c2a85828601613266565b9250506020613c3b85828601613266565b9150509250929050565b7f4e487b7100000000000000000000000000000000000000000000000000000000600052602260045260246000fd5b60006002820490506001821680613c8c57607f821691505b602082108103613c9f57613c9e613c45565b5b50919050565b7f4552433732313a20617070726f76616c20746f2063757272656e74206f776e6560008201527f7200000000000000000000000000000000000000000000000000000000000000602082015250565b6000613d016021836130e9565b9150613d0c82613ca5565b604082019050919050565b60006020820190508181036000830152613d3081613cf4565b9050919050565b7f4552433732313a20617070726f76652063616c6c6572206973206e6f7420746f60008201527f6b656e206f776e6572206f7220617070726f76656420666f7220616c6c000000602082015250565b6000613d93603d836130e9565b9150613d9e82613d37565b604082019050919050565b60006020820190508181036000830152613dc281613d86565b9050919050565b7f4552433732313a2063616c6c6572206973206e6f7420746f6b656e206f776e6560008201527f72206f7220617070726f76656400000000000000000000000000000000000000602082015250565b6000613e25602d836130e9565b9150613e3082613dc9565b604082019050919050565b60006020820190508181036000830152613e5481613e18565b9050919050565b7f4475706c69636174652050726f64756374696f6e20486f757365000000000000600082015250565b6000613e91601a836130e9565b9150613e9c82613e5b565b602082019050919050565b60006020820190508181036000830152613ec081613e84565b9050919050565b7f4e6f7420616e2041646d696e2c206e6f20616363657373000000000000000000600082015250565b6000613efd6017836130e9565b9150613f0882613ec7565b602082019050919050565b60006020820190508181036000830152613f2c81613ef0565b9050919050565b60008190508160005260206000209050919050565b60006020601f8301049050919050565b600082821b905092915050565b600060088302613f957fffffffffffffffffffffffffffffffffffffffffffffffffffffffffffffffff82613f58565b613f9f8683613f58565b95508019841693508086168417925050509392505050565b6000819050919050565b6000613fdc613fd7613fd284613190565b613fb7565b613190565b9050919050565b6000819050919050565b613ff683613fc1565b61400a61400282613fe3565b848454613f65565b825550505050565b600090565b61401f614012565b61402a818484613fed565b505050565b5b8181101561404e57614043600082614017565b600181019050614030565b5050565b601f8211156140935761406481613f33565b61406d84613f48565b8101602085101561407c578190505b61409061408885613f48565b83018261402f565b50505b505050565b600082821c905092915050565b60006140b660001984600802614098565b1980831691505092915050565b60006140cf83836140a5565b9150826002028217905092915050565b6140e8826130de565b67ffffffffffffffff81111561410157614100613318565b5b61410b8254613c74565b614116828285614052565b600060209050601f8311600181146141495760008415614137578287015190505b61414185826140c3565b8655506141a9565b601f19841661415786613f33565b60005b8281101561417f5784890151825560018201915060208501945060208101905061415a565b8683101561419c5784890151614198601f8916826140a5565b8355505b6001600288020188555050505b505050505050565b7f4e487b7100000000000000000000000000000000000000000000000000000000600052601160045260246000fd5b60006141eb82613190565b91507fffffffffffffffffffffffffffffffffffffffffffffffffffffffffffffffff820361421d5761421c6141b1565b5b600182019050919050565b7f4e487b7100000000000000000000000000000000000000000000000000000000600052603260045260246000fd5b600081905092915050565b600061426d826130de565b6142778185614257565b93506142878185602086016130fa565b80840191505092915050565b600061429f8284614262565b915081905092915050565b600081546142b781613c74565b6142c18186614257565b945060018216600081146142dc57600181146142f157614324565b60ff1983168652811515820286019350614324565b6142fa85613f33565b60005b8381101561431c578154818901526001820191506020810190506142fd565b838801955050505b50505092915050565b600061433982846142aa565b915081905092915050565b7f4120746f6b656e206973206e6f742070726573656e7420666f7220746869732060008201527f6d6f766965000000000000000000000000000000000000000000000000000000602082015250565b60006143a06025836130e9565b91506143ab82614344565b604082019050919050565b600060208201905081810360008301526143cf81614393565b9050919050565b7f526573616c65206973206e6f7420616c6c6f77656420666f722074686973206d60008201527f6f76696500000000000000000000000000000000000000000000000000000000602082015250565b60006144326024836130e9565b915061443d826143d6565b604082019050919050565b6000602082019050818103600083015261446181614425565b9050919050565b7f4e487b7100000000000000000000000000000000000000000000000000000000600052601260045260246000fd5b60006144a282613190565b91506144ad83613190565b9250826144bd576144bc614468565b5b828204905092915050565b60006144d382613190565b91506144de83613190565b92508282026144ec81613190565b91508282048414831517614503576145026141b1565b5b5092915050565b600061451582613190565b915061452083613190565b9250828201905080821115614538576145376141b1565b5b92915050565b600061454982613190565b915061455483613190565b925082820390508181111561456c5761456b6141b1565b5b92915050565b7f4552433732313a20696e76616c696420746f6b656e2049440000000000000000600082015250565b60006145a86018836130e9565b91506145b382614572565b602082019050919050565b600060208201905081810360008301526145d78161459b565b9050919050565b7f4552433732313a2061646472657373207a65726f206973206e6f74206120766160008201527f6c6964206f776e65720000000000000000000000000000000000000000000000602082015250565b600061463a6029836130e9565b9150614645826145de565b604082019050919050565b600060208201905081810360008301526146698161462d565b9050919050565b7f4e6f74206120726567697374657265642070726f64756374696f6e20686f757360008201527f6500000000000000000000000000000000000000000000000000000000000000602082015250565b60006146cc6021836130e9565b91506146d782614670565b604082019050919050565b600060208201905081810360008301526146fb816146bf565b9050919050565b7f4120746f6b656e20697320616c72656164792070726573656e7420666f72207460008201527f686973206d6f7669650000000000000000000000000000000000000000000000602082015250565b600061475e6029836130e9565b915061476982614702565b604082019050919050565b6000602082019050818103600083015261478d81614751565b9050919050565b7f496e76616c6964204d696e204d61782076616c75657300000000000000000000600082015250565b60006147ca6016836130e9565b91506147d582614794565b602082019050919050565b600060208201905081810360008301526147f9816147bd565b9050919050565b600061480c8285614262565b91506148188284614262565b91508190509392505050565b7f4e6f7420746865206f776e6572206f662074686520746f6b656e000000000000600082015250565b600061485a601a836130e9565b915061486582614824565b602082019050919050565b600060208201905081810360008301526148898161484d565b9050919050565b7f4552433732313a207472616e736665722066726f6d20696e636f72726563742060008201527f6f776e6572000000000000000000000000000000000000000000000000000000602082015250565b60006148ec6025836130e9565b91506148f782614890565b604082019050919050565b6000602082019050818103600083015261491b816148df565b9050919050565b7f4552433732313a207472616e7366657220746f20746865207a65726f2061646460008201527f7265737300000000000000000000000000000000000000000000000000000000602082015250565b600061497e6024836130e9565b915061498982614922565b604082019050919050565b600060208201905081810360008301526149ad81614971565b9050919050565b7f4552433732313a20617070726f766520746f2063616c6c657200000000000000600082015250565b60006149ea6019836130e9565b91506149f5826149b4565b602082019050919050565b60006020820190508181036000830152614a19816149dd565b9050919050565b7f4552433732313a207472616e7366657220746f206e6f6e20455243373231526560008201527f63656976657220696d706c656d656e7465720000000000000000000000000000602082015250565b6000614a7c6032836130e9565b9150614a8782614a20565b604082019050919050565b60006020820190508181036000830152614aab81614a6f565b9050919050565b600081519050919050565b600082825260208201905092915050565b6000614ad982614ab2565b614ae38185614abd565b9350614af38185602086016130fa565b614afc81613124565b840191505092915050565b6000608082019050614b1c6000830187613225565b614b296020830186613225565b614b366040830185613776565b8181036060830152614b488184614ace565b905095945050505050565b600081519050614b628161304f565b92915050565b600060208284031215614b7e57614b7d613019565b5b6000614b8c84828501614b53565b91505092915050565b7f4552433732313a206d696e7420746f20746865207a65726f2061646472657373600082015250565b6000614bcb6020836130e9565b9150614bd682614b95565b602082019050919050565b60006020820190508181036000830152614bfa81614bbe565b9050919050565b7f4552433732313a20746f6b656e20616c7265616479206d696e74656400000000600082015250565b6000614c37601c836130e9565b9150614c4282614c01565b602082019050919050565b60006020820190508181036000830152614c6681614c2a565b905091905056fea2646970667358221220f94619399cca2bce1609d3ebf0f131b936d0e0232a00bc0edc175a5e3b091ddf64736f6c63430008130033",
  "immutableReferences": {},
  "source": "// SPDX-License-Identifier: UNLICENSED\npragma solidity ^0.8.0;\n\nimport \"../node_modules/@openzeppelin/contracts/token/ERC721/ERC721.sol\";\nimport \"../node_modules/@openzeppelin/contracts/utils/Counters.sol\";\n\ncontract MovieToken is ERC721 {\n    using Counters for Counters.Counter;\n    Counters.Counter public tokenIds;\n\n    struct Token {\n        string movieName;\n        uint256 tokenId;\n        uint basePrice;\n        string productionCompany;\n        address payable ownerAddr;\n        uint minTime;\n        uint maxTime;\n        uint apprPercent;\n        uint deprPercent;\n\n        bool resale;\n    }\n\n    Token[] allTokens;\n    address public admin;\n    mapping(uint256 => Token) public tokenIdToTokenMap;\n    mapping(address=>string) productionAddrToNameMap;\n    mapping(string=>uint) nameTokenIdMap;\n    mapping(uint=>address) tokenIdToOwnerMap;\n\n    modifier duplicateProdHouse (address addr){\n        bool duplicate = bytes(productionAddrToNameMap[addr]).length > 0 ;\n        require(!duplicate,\"Duplicate Production House\");\n        _;\n    }\n\n    modifier onlyAdmin{\n        require(msg.sender == admin,\"Not an Admin, no access\");\n        _;\n    }\n\n    modifier validProdHouse(address addr){\n        bool duplicate = bytes(productionAddrToNameMap[addr]).length > 0 ;\n        require(duplicate,\"Not a registered production house\");\n        _;\n    }\n\n    modifier duplicateMovieToken(string memory name){ // self exp.\n        bool duplicate = false;\n        for(uint i=0;i<allTokens.length;i++){\n\n            if(keccak256(abi.encodePacked(allTokens[i].movieName)) == keccak256(abi.encodePacked(name))){\n                duplicate = true;break;\n            }\n        }\n\n        require(!duplicate,\"A token is already present for this movie\");\n        _;\n    }\n\n    modifier validMovieToken(string memory name){ // self exp.\n        bool duplicate = false;\n        for(uint i=0;i<allTokens.length;i++){\n\n            if(keccak256(abi.encodePacked(allTokens[i].movieName)) == keccak256(abi.encodePacked(name))){\n                duplicate = true;break;\n            }\n        }\n\n        require(duplicate,\"A token is not present for this movie\");\n        _;\n    }\n\n    modifier validMinMaxValues(uint min,uint max){ // min (both days and appr/depr, should be +ve\n        require(min<=max && min>0 && max>0,\"Invalid Min Max values\");\n        _;\n    }\n\n    modifier checkTokenOwner(uint tokenId){\n        require(tokenIdToOwnerMap[tokenId]==msg.sender,\"Not the owner of the token\");\n        _;\n    }\n\n    constructor() ERC721(\"MovieTokenization\",\"MVTK\"){\n        admin = msg.sender;\n    }\n\n    function registerProductionHouse(string memory name,address addr) public duplicateProdHouse(msg.sender) onlyAdmin{\n        productionAddrToNameMap[addr] = name;\n    }\n    // uint appr, uint depr,uint minTime,uint maxTime, uint baseValue)\n\n    function createMovieToken(string memory movieName, Token memory input) public validProdHouse(msg.sender) duplicateMovieToken(movieName) validMinMaxValues(input.minTime,input.maxTime) validMinMaxValues(input.apprPercent,input.deprPercent){\n        //check if the user is a registerd prod house or not, handled in validProdHouse modifier\n        //check for duplicate token\n        // string memory prodName = productionAddrToNameMap[msg.sender];\n        //check if input values are valid\n        // address payable sender = payable(msg.sender);\n        Token memory newToken = Token(movieName,tokenIds.current(),input.basePrice,productionAddrToNameMap[msg.sender],payable(msg.sender),input.minTime,input.maxTime,input.apprPercent,input.deprPercent,true);\n\n        nameTokenIdMap[movieName] = tokenIds.current();\n        tokenIdToTokenMap[tokenIds.current()] = newToken;\n        tokenIdToOwnerMap[tokenIds.current()] = msg.sender;\n        _safeMint(msg.sender, tokenIds.current());\n        tokenIds.increment();\n        allTokens.push(newToken);\n\n\n    }\n\n    function buyMovieToken(uint dayss, string memory movieName) public payable validMovieToken(movieName){ //changed tokenId to movieName, as there's no visibility provided right now\n        //check if the movieName is valid, in modifier\n        //days can be +/-, - represents earlier, + later\n        uint tokenId = nameTokenIdMap[movieName];\n        Token memory token = tokenIdToTokenMap[tokenId];\n        require(token.resale == true, \"Resale is not allowed for this movie\");\n        uint value = token.basePrice;\n        uint minDays = token.minTime;\n        uint maxDays = token.maxTime;\n\n        uint finalValue = value;\n\n        if(dayss<0){\n            if(dayss>minDays){//highest cost\n                finalValue += finalValue * (token.apprPercent/100);\n                finalValue += finalValue * (token.apprPercent/100);\n            }else{//second highest\n                finalValue += finalValue * (token.apprPercent/100);\n            }\n        }else if(dayss>0){\n            if(dayss>maxDays){//least cost\n                finalValue -= finalValue * (token.apprPercent/100);\n                finalValue -= finalValue * (token.apprPercent/100);\n            }else{//second least\n                finalValue -= finalValue * (token.apprPercent/100);\n            }\n        }\n\n        //get token owner and transfer ether\n        token.ownerAddr.transfer(msg.value); // failure of this reverts everything needn't explicitly handle for now, TODO: better, give a proper error message\n\n        //change ownership\n        token.ownerAddr = payable(msg.sender);\n        //also in map\n        tokenIdToOwnerMap[tokenId] = msg.sender;\n        //disable resale\n        token.resale  = false;\n        //change in token list\n        for(uint i=0;i<allTokens.length;i++){\n            if(allTokens[i].tokenId == tokenId){\n                allTokens[i].ownerAddr = payable(msg.sender);\n            }\n        }\n\n    }\n\n\n    function appreciateTokenValue(uint256 tokenId, uint value) public checkTokenOwner(tokenId){ //how will the user know tokenid, remember? give him visibility\n        tokenIdToTokenMap[tokenId].basePrice += value;\n    }\n\n    function depreciateTokenValue(uint256 tokenId, uint value) public checkTokenOwner(tokenId){\n        tokenIdToTokenMap[tokenId].basePrice -=  value;\n    }\n\n    function enableOrDisableResale(uint tokenId) public checkTokenOwner(tokenId){\n        if(tokenIdToTokenMap[tokenId].resale == true){\n            tokenIdToTokenMap[tokenId].resale = false;\n        }else{\n            tokenIdToTokenMap[tokenId].resale = true;\n        }\n    }\n\n\n    function viewTokens() public view returns(Token[] memory){\n\n        Token[] memory result = new Token[](allTokens.length);\n        uint index = 0;\n        for(uint i=0;i<=tokenIds.current();i++){ // no support to deleting tokens, so looping through all tokenids is equal to keys\n\n            if(tokenIdToTokenMap[i].ownerAddr == msg.sender){\n                result[index++]=tokenIdToTokenMap[i];\n            }\n        }\n        return result;\n    }\n\n}\n",
  "sourcePath": "/Users/saisvasgudimalla/Documents/Nani/MS_CS_UB/Spring_2023/Blockchain/FilmToken-Dapp/FilmToken-contract/contracts/FilmToken.sol",
  "compiler": {
    "name": "solc",
    "version": "0.8.19+commit.7dd6d404.Emscripten.clang"
  },
  "schemaVersion": "3.4.13",
  "updatedAt": "2023-04-26T23:43:52.031Z",
  "devdoc": {
    "events": {
      "Approval(address,address,uint256)": {
        "details": "Emitted when `owner` enables `approved` to manage the `tokenId` token."
      },
      "ApprovalForAll(address,address,bool)": {
        "details": "Emitted when `owner` enables or disables (`approved`) `operator` to manage all of its assets."
      },
      "Transfer(address,address,uint256)": {
        "details": "Emitted when `tokenId` token is transferred from `from` to `to`."
      }
    },
    "kind": "dev",
    "methods": {
      "approve(address,uint256)": {
        "details": "See {IERC721-approve}."
      },
      "balanceOf(address)": {
        "details": "See {IERC721-balanceOf}."
      },
      "getApproved(uint256)": {
        "details": "See {IERC721-getApproved}."
      },
      "isApprovedForAll(address,address)": {
        "details": "See {IERC721-isApprovedForAll}."
      },
      "name()": {
        "details": "See {IERC721Metadata-name}."
      },
      "ownerOf(uint256)": {
        "details": "See {IERC721-ownerOf}."
      },
      "safeTransferFrom(address,address,uint256)": {
        "details": "See {IERC721-safeTransferFrom}."
      },
      "safeTransferFrom(address,address,uint256,bytes)": {
        "details": "See {IERC721-safeTransferFrom}."
      },
      "setApprovalForAll(address,bool)": {
        "details": "See {IERC721-setApprovalForAll}."
      },
      "supportsInterface(bytes4)": {
        "details": "See {IERC165-supportsInterface}."
      },
      "symbol()": {
        "details": "See {IERC721Metadata-symbol}."
      },
      "tokenURI(uint256)": {
        "details": "See {IERC721Metadata-tokenURI}."
      },
      "transferFrom(address,address,uint256)": {
        "details": "See {IERC721-transferFrom}."
      }
    },
    "version": 1
  },
  "userdoc": {
    "kind": "user",
    "methods": {},
    "version": 1
  }
}