{
  "contractName": "MovieToken",
  "abi": [
    {
      "inputs": [],
      "stateMutability": "nonpayable",
      "type": "constructor"
    },
    {
      "anonymous": false,
      "inputs": [
        {
          "indexed": true,
          "internalType": "address",
          "name": "owner",
          "type": "address"
        },
        {
          "indexed": true,
          "internalType": "address",
          "name": "approved",
          "type": "address"
        },
        {
          "indexed": true,
          "internalType": "uint256",
          "name": "tokenId",
          "type": "uint256"
        }
      ],
      "name": "Approval",
      "type": "event"
    },
    {
      "anonymous": false,
      "inputs": [
        {
          "indexed": true,
          "internalType": "address",
          "name": "owner",
          "type": "address"
        },
        {
          "indexed": true,
          "internalType": "address",
          "name": "operator",
          "type": "address"
        },
        {
          "indexed": false,
          "internalType": "bool",
          "name": "approved",
          "type": "bool"
        }
      ],
      "name": "ApprovalForAll",
      "type": "event"
    },
    {
      "anonymous": false,
      "inputs": [
        {
          "indexed": true,
          "internalType": "address",
          "name": "from",
          "type": "address"
        },
        {
          "indexed": true,
          "internalType": "address",
          "name": "to",
          "type": "address"
        },
        {
          "indexed": true,
          "internalType": "uint256",
          "name": "tokenId",
          "type": "uint256"
        }
      ],
      "name": "Transfer",
      "type": "event"
    },
    {
      "inputs": [],
      "name": "admin",
      "outputs": [
        {
          "internalType": "address",
          "name": "",
          "type": "address"
        }
      ],
      "stateMutability": "view",
      "type": "function"
    },
    {
      "inputs": [
        {
          "internalType": "address",
          "name": "to",
          "type": "address"
        },
        {
          "internalType": "uint256",
          "name": "tokenId",
          "type": "uint256"
        }
      ],
      "name": "approve",
      "outputs": [],
      "stateMutability": "nonpayable",
      "type": "function"
    },
    {
      "inputs": [
        {
          "internalType": "address",
          "name": "owner",
          "type": "address"
        }
      ],
      "name": "balanceOf",
      "outputs": [
        {
          "internalType": "uint256",
          "name": "",
          "type": "uint256"
        }
      ],
      "stateMutability": "view",
      "type": "function"
    },
    {
      "inputs": [
        {
          "internalType": "uint256",
          "name": "tokenId",
          "type": "uint256"
        }
      ],
      "name": "getApproved",
      "outputs": [
        {
          "internalType": "address",
          "name": "",
          "type": "address"
        }
      ],
      "stateMutability": "view",
      "type": "function"
    },
    {
      "inputs": [
        {
          "internalType": "address",
          "name": "owner",
          "type": "address"
        },
        {
          "internalType": "address",
          "name": "operator",
          "type": "address"
        }
      ],
      "name": "isApprovedForAll",
      "outputs": [
        {
          "internalType": "bool",
          "name": "",
          "type": "bool"
        }
      ],
      "stateMutability": "view",
      "type": "function"
    },
    {
      "inputs": [],
      "name": "name",
      "outputs": [
        {
          "internalType": "string",
          "name": "",
          "type": "string"
        }
      ],
      "stateMutability": "view",
      "type": "function"
    },
    {
      "inputs": [
        {
          "internalType": "uint256",
          "name": "tokenId",
          "type": "uint256"
        }
      ],
      "name": "ownerOf",
      "outputs": [
        {
          "internalType": "address",
          "name": "",
          "type": "address"
        }
      ],
      "stateMutability": "view",
      "type": "function"
    },
    {
      "inputs": [
        {
          "internalType": "address",
          "name": "from",
          "type": "address"
        },
        {
          "internalType": "address",
          "name": "to",
          "type": "address"
        },
        {
          "internalType": "uint256",
          "name": "tokenId",
          "type": "uint256"
        }
      ],
      "name": "safeTransferFrom",
      "outputs": [],
      "stateMutability": "nonpayable",
      "type": "function"
    },
    {
      "inputs": [
        {
          "internalType": "address",
          "name": "from",
          "type": "address"
        },
        {
          "internalType": "address",
          "name": "to",
          "type": "address"
        },
        {
          "internalType": "uint256",
          "name": "tokenId",
          "type": "uint256"
        },
        {
          "internalType": "bytes",
          "name": "data",
          "type": "bytes"
        }
      ],
      "name": "safeTransferFrom",
      "outputs": [],
      "stateMutability": "nonpayable",
      "type": "function"
    },
    {
      "inputs": [
        {
          "internalType": "address",
          "name": "operator",
          "type": "address"
        },
        {
          "internalType": "bool",
          "name": "approved",
          "type": "bool"
        }
      ],
      "name": "setApprovalForAll",
      "outputs": [],
      "stateMutability": "nonpayable",
      "type": "function"
    },
    {
      "inputs": [
        {
          "internalType": "bytes4",
          "name": "interfaceId",
          "type": "bytes4"
        }
      ],
      "name": "supportsInterface",
      "outputs": [
        {
          "internalType": "bool",
          "name": "",
          "type": "bool"
        }
      ],
      "stateMutability": "view",
      "type": "function"
    },
    {
      "inputs": [],
      "name": "symbol",
      "outputs": [
        {
          "internalType": "string",
          "name": "",
          "type": "string"
        }
      ],
      "stateMutability": "view",
      "type": "function"
    },
    {
      "inputs": [
        {
          "internalType": "uint256",
          "name": "",
          "type": "uint256"
        }
      ],
      "name": "tokenIdToTokenMap",
      "outputs": [
        {
          "internalType": "string",
          "name": "movieName",
          "type": "string"
        },
        {
          "internalType": "uint256",
          "name": "tokenId",
          "type": "uint256"
        },
        {
          "internalType": "uint256",
          "name": "basePrice",
          "type": "uint256"
        },
        {
          "internalType": "string",
          "name": "productionCompany",
          "type": "string"
        },
        {
          "internalType": "address payable",
          "name": "ownerAddr",
          "type": "address"
        },
        {
          "internalType": "uint256",
          "name": "minTime",
          "type": "uint256"
        },
        {
          "internalType": "uint256",
          "name": "maxTime",
          "type": "uint256"
        },
        {
          "internalType": "uint256",
          "name": "apprPercent",
          "type": "uint256"
        },
        {
          "internalType": "uint256",
          "name": "deprPercent",
          "type": "uint256"
        },
        {
          "internalType": "uint256",
          "name": "baseDays",
          "type": "uint256"
        },
        {
          "internalType": "bool",
          "name": "resale",
          "type": "bool"
        }
      ],
      "stateMutability": "view",
      "type": "function"
    },
    {
      "inputs": [],
      "name": "tokenIds",
      "outputs": [
        {
          "internalType": "uint256",
          "name": "_value",
          "type": "uint256"
        }
      ],
      "stateMutability": "view",
      "type": "function"
    },
    {
      "inputs": [
        {
          "internalType": "uint256",
          "name": "tokenId",
          "type": "uint256"
        }
      ],
      "name": "tokenURI",
      "outputs": [
        {
          "internalType": "string",
          "name": "",
          "type": "string"
        }
      ],
      "stateMutability": "view",
      "type": "function"
    },
    {
      "inputs": [
        {
          "internalType": "address",
          "name": "from",
          "type": "address"
        },
        {
          "internalType": "address",
          "name": "to",
          "type": "address"
        },
        {
          "internalType": "uint256",
          "name": "tokenId",
          "type": "uint256"
        }
      ],
      "name": "transferFrom",
      "outputs": [],
      "stateMutability": "nonpayable",
      "type": "function"
    },
    {
      "inputs": [
        {
          "internalType": "string",
          "name": "name",
          "type": "string"
        },
        {
          "internalType": "address",
          "name": "addr",
          "type": "address"
        }
      ],
      "name": "registerProductionHouse",
      "outputs": [],
      "stateMutability": "nonpayable",
      "type": "function"
    },
    {
      "inputs": [],
      "name": "getAllProdHouses",
      "outputs": [
        {
          "internalType": "address[]",
          "name": "",
          "type": "address[]"
        }
      ],
      "stateMutability": "view",
      "type": "function"
    },
    {
      "inputs": [
        {
          "internalType": "string",
          "name": "movieName",
          "type": "string"
        },
        {
          "internalType": "uint256",
          "name": "basePrice",
          "type": "uint256"
        },
        {
          "internalType": "uint256",
          "name": "baseDays",
          "type": "uint256"
        },
        {
          "internalType": "uint256",
          "name": "minTime",
          "type": "uint256"
        },
        {
          "internalType": "uint256",
          "name": "maxTime",
          "type": "uint256"
        },
        {
          "internalType": "uint256",
          "name": "apprPercent",
          "type": "uint256"
        },
        {
          "internalType": "uint256",
          "name": "deprPercent",
          "type": "uint256"
        }
      ],
      "name": "createMovieToken",
      "outputs": [],
      "stateMutability": "nonpayable",
      "type": "function"
    },
    {
      "inputs": [
        {
          "internalType": "uint256",
          "name": "dayss",
          "type": "uint256"
        },
        {
          "internalType": "string",
          "name": "movieName",
          "type": "string"
        }
      ],
      "name": "buyMovieToken",
      "outputs": [],
      "stateMutability": "payable",
      "type": "function"
    },
    {
      "inputs": [
        {
          "internalType": "uint256",
          "name": "tokenId",
          "type": "uint256"
        },
        {
          "internalType": "uint256",
          "name": "value",
          "type": "uint256"
        }
      ],
      "name": "appreciateTokenValue",
      "outputs": [],
      "stateMutability": "nonpayable",
      "type": "function"
    },
    {
      "inputs": [
        {
          "internalType": "uint256",
          "name": "tokenId",
          "type": "uint256"
        },
        {
          "internalType": "uint256",
          "name": "value",
          "type": "uint256"
        }
      ],
      "name": "depreciateTokenValue",
      "outputs": [],
      "stateMutability": "nonpayable",
      "type": "function"
    },
    {
      "inputs": [
        {
          "internalType": "uint256",
          "name": "tokenId",
          "type": "uint256"
        }
      ],
      "name": "enableOrDisableResale",
      "outputs": [],
      "stateMutability": "nonpayable",
      "type": "function"
    },
    {
      "inputs": [],
      "name": "viewTokens",
      "outputs": [
        {
          "components": [
            {
              "internalType": "string",
              "name": "movieName",
              "type": "string"
            },
            {
              "internalType": "uint256",
              "name": "tokenId",
              "type": "uint256"
            },
            {
              "internalType": "uint256",
              "name": "basePrice",
              "type": "uint256"
            },
            {
              "internalType": "string",
              "name": "productionCompany",
              "type": "string"
            },
            {
              "internalType": "address payable",
              "name": "ownerAddr",
              "type": "address"
            },
            {
              "internalType": "uint256",
              "name": "minTime",
              "type": "uint256"
            },
            {
              "internalType": "uint256",
              "name": "maxTime",
              "type": "uint256"
            },
            {
              "internalType": "uint256",
              "name": "apprPercent",
              "type": "uint256"
            },
            {
              "internalType": "uint256",
              "name": "deprPercent",
              "type": "uint256"
            },
            {
              "internalType": "uint256",
              "name": "baseDays",
              "type": "uint256"
            },
            {
              "internalType": "bool",
              "name": "resale",
              "type": "bool"
            }
          ],
          "internalType": "struct MovieToken.Token[]",
          "name": "",
          "type": "tuple[]"
        }
      ],
      "stateMutability": "view",
      "type": "function"
    }
  ],
  "bytecode": "0x60806040523480156200001157600080fd5b506040518060400160405280601181526020017f4d6f766965546f6b656e697a6174696f6e0000000000000000000000000000008152506040518060400160405280600481526020017f4d56544b0000000000000000000000000000000000000000000000000000000081525081600090816200008f919062000365565b508060019081620000a1919062000365565b50505033600860006101000a81548173ffffffffffffffffffffffffffffffffffffffff021916908373ffffffffffffffffffffffffffffffffffffffff1602179055506200044c565b600081519050919050565b7f4e487b7100000000000000000000000000000000000000000000000000000000600052604160045260246000fd5b7f4e487b7100000000000000000000000000000000000000000000000000000000600052602260045260246000fd5b600060028204905060018216806200016d57607f821691505b60208210810362000183576200018262000125565b5b50919050565b60008190508160005260206000209050919050565b60006020601f8301049050919050565b600082821b905092915050565b600060088302620001ed7fffffffffffffffffffffffffffffffffffffffffffffffffffffffffffffffff82620001ae565b620001f98683620001ae565b95508019841693508086168417925050509392505050565b6000819050919050565b6000819050919050565b600062000246620002406200023a8462000211565b6200021b565b62000211565b9050919050565b6000819050919050565b620002628362000225565b6200027a62000271826200024d565b848454620001bb565b825550505050565b600090565b6200029162000282565b6200029e81848462000257565b505050565b5b81811015620002c657620002ba60008262000287565b600181019050620002a4565b5050565b601f8211156200031557620002df8162000189565b620002ea846200019e565b81016020851015620002fa578190505b6200031262000309856200019e565b830182620002a3565b50505b505050565b600082821c905092915050565b60006200033a600019846008026200031a565b1980831691505092915050565b600062000355838362000327565b9150826002028217905092915050565b6200037082620000eb565b67ffffffffffffffff8111156200038c576200038b620000f6565b5b62000398825462000154565b620003a5828285620002ca565b600060209050601f831160018114620003dd5760008415620003c8578287015190505b620003d4858262000347565b86555062000444565b601f198416620003ed8662000189565b60005b828110156200041757848901518255600182019150602085019450602081019050620003f0565b8683101562000437578489015162000433601f89168262000327565b8355505b6001600288020188555050505b505050505050565b614d2b806200045c6000396000f3fe60806040526004361061014b5760003560e01c806370a08231116100b6578063c87b56dd1161006f578063c87b56dd1461049d578063ca99cc3e146104da578063dd7072f614610503578063e985e9c51461052c578063f851a44014610569578063f907b4a6146105945761014b565b806370a0823114610371578063714cff56146103ae57806395d89b41146103d9578063a22cb46514610404578063b88d4fde1461042d578063c3aee736146104565761014b565b806342842e0e1161010857806342842e0e146102705780634bf5bf35146102995780634d129205146102c457806357a3106b146102ef5780636352211e1461030b5780636e323c50146103485761014b565b806301ffc9a71461015057806306fdde031461018d578063081812fc146101b8578063095ea7b3146101f557806323b872dd1461021e57806337c4f46714610247575b600080fd5b34801561015c57600080fd5b5061017760048036038101906101729190613189565b6105bd565b60405161018491906131d1565b60405180910390f35b34801561019957600080fd5b506101a261069f565b6040516101af919061327c565b60405180910390f35b3480156101c457600080fd5b506101df60048036038101906101da91906132d4565b610731565b6040516101ec9190613342565b60405180910390f35b34801561020157600080fd5b5061021c60048036038101906102179190613389565b610777565b005b34801561022a57600080fd5b50610245600480360381019061024091906133c9565b61088e565b005b34801561025357600080fd5b5061026e60048036038101906102699190613551565b6108ee565b005b34801561027c57600080fd5b50610297600480360381019061029291906133c9565b610ac8565b005b3480156102a557600080fd5b506102ae610ae8565b6040516102bb91906137ee565b60405180910390f35b3480156102d057600080fd5b506102d9610e05565b6040516102e691906138ce565b60405180910390f35b610309600480360381019061030491906138f0565b610e93565b005b34801561031757600080fd5b50610332600480360381019061032d91906132d4565b611561565b60405161033f9190613342565b60405180910390f35b34801561035457600080fd5b5061036f600480360381019061036a919061394c565b6115e7565b005b34801561037d57600080fd5b5061039860048036038101906103939190613a0a565b611b52565b6040516103a59190613a46565b60405180910390f35b3480156103ba57600080fd5b506103c3611c09565b6040516103d09190613a46565b60405180910390f35b3480156103e557600080fd5b506103ee611c15565b6040516103fb919061327c565b60405180910390f35b34801561041057600080fd5b5061042b60048036038101906104269190613a8d565b611ca7565b005b34801561043957600080fd5b50610454600480360381019061044f9190613b6e565b611cbd565b005b34801561046257600080fd5b5061047d600480360381019061047891906132d4565b611d1f565b6040516104949b9a99989796959493929190613c00565b60405180910390f35b3480156104a957600080fd5b506104c460048036038101906104bf91906132d4565b611eb6565b6040516104d1919061327c565b60405180910390f35b3480156104e657600080fd5b5061050160048036038101906104fc91906132d4565b611f1e565b005b34801561050f57600080fd5b5061052a60048036038101906105259190613cb9565b612057565b005b34801561053857600080fd5b50610553600480360381019061054e9190613cf9565b61212b565b60405161056091906131d1565b60405180910390f35b34801561057557600080fd5b5061057e6121bf565b60405161058b9190613342565b60405180910390f35b3480156105a057600080fd5b506105bb60048036038101906105b69190613cb9565b6121e5565b005b60007f80ac58cd000000000000000000000000000000000000000000000000000000007bffffffffffffffffffffffffffffffffffffffffffffffffffffffff1916827bffffffffffffffffffffffffffffffffffffffffffffffffffffffff1916148061068857507f5b5e139f000000000000000000000000000000000000000000000000000000007bffffffffffffffffffffffffffffffffffffffffffffffffffffffff1916827bffffffffffffffffffffffffffffffffffffffffffffffffffffffff1916145b806106985750610697826122b9565b5b9050919050565b6060600080546106ae90613d68565b80601f01602080910402602001604051908101604052809291908181526020018280546106da90613d68565b80156107275780601f106106fc57610100808354040283529160200191610727565b820191906000526020600020905b81548152906001019060200180831161070a57829003601f168201915b5050505050905090565b600061073c82612323565b6004600083815260200190815260200160002060009054906101000a900473ffffffffffffffffffffffffffffffffffffffff169050919050565b600061078282611561565b90508073ffffffffffffffffffffffffffffffffffffffff168373ffffffffffffffffffffffffffffffffffffffff16036107f2576040517f08c379a00000000000000000000000000000000000000000000000000000000081526004016107e990613e0b565b60405180910390fd5b8073ffffffffffffffffffffffffffffffffffffffff1661081161236e565b73ffffffffffffffffffffffffffffffffffffffff161480610840575061083f8161083a61236e565b61212b565b5b61087f576040517f08c379a000000000000000000000000000000000000000000000000000000000815260040161087690613e9d565b60405180910390fd5b6108898383612376565b505050565b61089f61089961236e565b8261242f565b6108de576040517f08c379a00000000000000000000000000000000000000000000000000000000081526004016108d590613f2f565b60405180910390fd5b6108e98383836124c4565b505050565b80600080600a60008473ffffffffffffffffffffffffffffffffffffffff1673ffffffffffffffffffffffffffffffffffffffff168152602001908152602001600020805461093c90613d68565b90501190508015610982576040517f08c379a000000000000000000000000000000000000000000000000000000000815260040161097990613f9b565b60405180910390fd5b600860009054906101000a900473ffffffffffffffffffffffffffffffffffffffff1673ffffffffffffffffffffffffffffffffffffffff163373ffffffffffffffffffffffffffffffffffffffff1614610a12576040517f08c379a0000000000000000000000000000000000000000000000000000000008152600401610a0990614007565b60405180910390fd5b83600a60008573ffffffffffffffffffffffffffffffffffffffff1673ffffffffffffffffffffffffffffffffffffffff1681526020019081526020016000209081610a5e91906141d3565b50600b839080600181540180825580915050600190039060005260206000200160009091909190916101000a81548173ffffffffffffffffffffffffffffffffffffffff021916908373ffffffffffffffffffffffffffffffffffffffff16021790555050505050565b610ae383838360405180602001604052806000815250611cbd565b505050565b6060600060078054905067ffffffffffffffff811115610b0b57610b0a613426565b5b604051908082528060200260200182016040528015610b4457816020015b610b316130ab565b815260200190600190039081610b295790505b5090506000805b610b5560066127bd565b8111610dfc573373ffffffffffffffffffffffffffffffffffffffff166009600083815260200190815260200160002060040160009054906101000a900473ffffffffffffffffffffffffffffffffffffffff1673ffffffffffffffffffffffffffffffffffffffff1603610de9576009600082815260200190815260200160002060405180610160016040529081600082018054610bf390613d68565b80601f0160208091040260200160405190810160405280929190818152602001828054610c1f90613d68565b8015610c6c5780601f10610c4157610100808354040283529160200191610c6c565b820191906000526020600020905b815481529060010190602001808311610c4f57829003601f168201915b505050505081526020016001820154815260200160028201548152602001600382018054610c9990613d68565b80601f0160208091040260200160405190810160405280929190818152602001828054610cc590613d68565b8015610d125780601f10610ce757610100808354040283529160200191610d12565b820191906000526020600020905b815481529060010190602001808311610cf557829003601f168201915b505050505081526020016004820160009054906101000a900473ffffffffffffffffffffffffffffffffffffffff1673ffffffffffffffffffffffffffffffffffffffff1673ffffffffffffffffffffffffffffffffffffffff1681526020016005820154815260200160068201548152602001600782015481526020016008820154815260200160098201548152602001600a820160009054906101000a900460ff161515151581525050838380610dca906142d4565b945081518110610ddd57610ddc61431c565b5b60200260200101819052505b8080610df4906142d4565b915050610b4b565b50819250505090565b6060600b805480602002602001604051908101604052809291908181526020018280548015610e8957602002820191906000526020600020905b8160009054906101000a900473ffffffffffffffffffffffffffffffffffffffff1673ffffffffffffffffffffffffffffffffffffffff1681526020019060010190808311610e3f575b5050505050905090565b806000805b600780549050811015610f385782604051602001610eb69190614387565b6040516020818303038152906040528051906020012060078281548110610ee057610edf61431c565b5b90600052602060002090600b0201600001604051602001610f019190614421565b6040516020818303038152906040528051906020012003610f255760019150610f38565b8080610f30906142d4565b915050610e98565b5080610f79576040517f08c379a0000000000000000000000000000000000000000000000000000000008152600401610f70906144aa565b60405180910390fd5b6000600c84604051610f8b9190614387565b908152602001604051809103902054905060006009600083815260200190815260200160002060405180610160016040529081600082018054610fcd90613d68565b80601f0160208091040260200160405190810160405280929190818152602001828054610ff990613d68565b80156110465780601f1061101b57610100808354040283529160200191611046565b820191906000526020600020905b81548152906001019060200180831161102957829003601f168201915b50505050508152602001600182015481526020016002820154815260200160038201805461107390613d68565b80601f016020809104026020016040519081016040528092919081815260200182805461109f90613d68565b80156110ec5780601f106110c1576101008083540402835291602001916110ec565b820191906000526020600020905b8154815290600101906020018083116110cf57829003601f168201915b505050505081526020016004820160009054906101000a900473ffffffffffffffffffffffffffffffffffffffff1673ffffffffffffffffffffffffffffffffffffffff1673ffffffffffffffffffffffffffffffffffffffff1681526020016005820154815260200160068201548152602001600782015481526020016008820154815260200160098201548152602001600a820160009054906101000a900460ff1615151515815250509050600115158161014001511515146111e6576040517f08c379a00000000000000000000000000000000000000000000000000000000081526004016111dd9061453c565b60405180910390fd5b60008160400151905060008260a00151905060008360c001519050600084610120015190506000849050838b118015611235575060028285611228919061455c565b61123291906145bf565b8b105b156112915760648660e0015161124b91906145bf565b8161125691906145f0565b81611261919061455c565b905060648660e0015161127491906145bf565b8161127f91906145f0565b8161128a919061455c565b90506113b8565b60028b8361129f919061455c565b6112a991906145bf565b8b101580156112b75750818b105b156112ea5760648660e001516112cd91906145bf565b816112d891906145f0565b816112e3919061455c565b90506113b7565b818b118015611310575060028383611302919061455c565b61130c91906145bf565b8b11155b156113435760648660e0015161132691906145bf565b8161133191906145f0565b8161133c9190614632565b90506113b6565b60028383611351919061455c565b61135b91906145bf565b8b11156113b55760648660e0015161137391906145bf565b8161137e91906145f0565b816113899190614632565b905060648660e0015161139c91906145bf565b816113a791906145f0565b816113b29190614632565b90505b5b5b5b856080015173ffffffffffffffffffffffffffffffffffffffff166108fc349081150290604051600060405180830381858888f19350505050158015611402573d6000803e3d6000fd5b5033866080019073ffffffffffffffffffffffffffffffffffffffff16908173ffffffffffffffffffffffffffffffffffffffff168152505033600d600089815260200190815260200160002060006101000a81548173ffffffffffffffffffffffffffffffffffffffff021916908373ffffffffffffffffffffffffffffffffffffffff16021790555060008661014001901515908115158152505060005b6007805490508110156115535787600782815481106114c4576114c361431c565b5b90600052602060002090600b020160010154036115405733600782815481106114f0576114ef61431c565b5b90600052602060002090600b020160040160006101000a81548173ffffffffffffffffffffffffffffffffffffffff021916908373ffffffffffffffffffffffffffffffffffffffff1602179055505b808061154b906142d4565b9150506114a2565b505050505050505050505050565b60008061156d836127cb565b9050600073ffffffffffffffffffffffffffffffffffffffff168173ffffffffffffffffffffffffffffffffffffffff16036115de576040517f08c379a00000000000000000000000000000000000000000000000000000000081526004016115d5906146b2565b60405180910390fd5b80915050919050565b33600080600a60008473ffffffffffffffffffffffffffffffffffffffff1673ffffffffffffffffffffffffffffffffffffffff168152602001908152602001600020805461163590613d68565b90501190508061167a576040517f08c379a000000000000000000000000000000000000000000000000000000000815260040161167190614744565b60405180910390fd5b886000805b60078054905081101561171f578260405160200161169d9190614387565b60405160208183030381529060405280519060200120600782815481106116c7576116c661431c565b5b90600052602060002090600b02016000016040516020016116e89190614421565b604051602081830303815290604052805190602001200361170c576001915061171f565b8080611717906142d4565b91505061167f565b508015611761576040517f08c379a0000000000000000000000000000000000000000000000000000000008152600401611758906147d6565b60405180910390fd5b60006040518061016001604052808d815260200161177f60066127bd565b81526020018c8152602001600a60003373ffffffffffffffffffffffffffffffffffffffff1673ffffffffffffffffffffffffffffffffffffffff16815260200190815260200160002080546117d490613d68565b80601f016020809104026020016040519081016040528092919081815260200182805461180090613d68565b801561184d5780601f106118225761010080835404028352916020019161184d565b820191906000526020600020905b81548152906001019060200180831161183057829003601f168201915b505050505081526020013373ffffffffffffffffffffffffffffffffffffffff1681526020018a81526020018981526020018881526020018781526020018b81526020016001151581525090506118a460066127bd565b600c8d6040516118b49190614387565b90815260200160405180910390208190555080600960006118d560066127bd565b815260200190815260200160002060008201518160000190816118f891906141d3565b506020820151816001015560408201518160020155606082015181600301908161192291906141d3565b5060808201518160040160006101000a81548173ffffffffffffffffffffffffffffffffffffffff021916908373ffffffffffffffffffffffffffffffffffffffff16021790555060a0820151816005015560c0820151816006015560e082015181600701556101008201518160080155610120820151816009015561014082015181600a0160006101000a81548160ff02191690831515021790555090505033600d60006119d160066127bd565b815260200190815260200160002060006101000a81548173ffffffffffffffffffffffffffffffffffffffff021916908373ffffffffffffffffffffffffffffffffffffffff160217905550611a3033611a2b60066127bd565b612808565b611a3a6006612826565b60078190806001815401808255809150506001900390600052602060002090600b02016000909190919091506000820151816000019081611a7b91906141d3565b5060208201518160010155604082015181600201556060820151816003019081611aa591906141d3565b5060808201518160040160006101000a81548173ffffffffffffffffffffffffffffffffffffffff021916908373ffffffffffffffffffffffffffffffffffffffff16021790555060a0820151816005015560c0820151816006015560e082015181600701556101008201518160080155610120820151816009015561014082015181600a0160006101000a81548160ff0219169083151502179055505050505050505050505050505050565b60008073ffffffffffffffffffffffffffffffffffffffff168273ffffffffffffffffffffffffffffffffffffffff1603611bc2576040517f08c379a0000000000000000000000000000000000000000000000000000000008152600401611bb990614868565b60405180910390fd5b600360008373ffffffffffffffffffffffffffffffffffffffff1673ffffffffffffffffffffffffffffffffffffffff168152602001908152602001600020549050919050565b60068060000154905081565b606060018054611c2490613d68565b80601f0160208091040260200160405190810160405280929190818152602001828054611c5090613d68565b8015611c9d5780601f10611c7257610100808354040283529160200191611c9d565b820191906000526020600020905b815481529060010190602001808311611c8057829003601f168201915b5050505050905090565b611cb9611cb261236e565b838361283c565b5050565b611cce611cc861236e565b8361242f565b611d0d576040517f08c379a0000000000000000000000000000000000000000000000000000000008152600401611d0490613f2f565b60405180910390fd5b611d19848484846129a8565b50505050565b6009602052806000526040600020600091509050806000018054611d4290613d68565b80601f0160208091040260200160405190810160405280929190818152602001828054611d6e90613d68565b8015611dbb5780601f10611d9057610100808354040283529160200191611dbb565b820191906000526020600020905b815481529060010190602001808311611d9e57829003601f168201915b505050505090806001015490806002015490806003018054611ddc90613d68565b80601f0160208091040260200160405190810160405280929190818152602001828054611e0890613d68565b8015611e555780601f10611e2a57610100808354040283529160200191611e55565b820191906000526020600020905b815481529060010190602001808311611e3857829003601f168201915b5050505050908060040160009054906101000a900473ffffffffffffffffffffffffffffffffffffffff169080600501549080600601549080600701549080600801549080600901549080600a0160009054906101000a900460ff1690508b565b6060611ec182612323565b6000611ecb612a04565b90506000815111611eeb5760405180602001604052806000815250611f16565b80611ef584612a1b565b604051602001611f06929190614888565b6040516020818303038152906040525b915050919050565b803373ffffffffffffffffffffffffffffffffffffffff16600d600083815260200190815260200160002060009054906101000a900473ffffffffffffffffffffffffffffffffffffffff1673ffffffffffffffffffffffffffffffffffffffff1614611fc0576040517f08c379a0000000000000000000000000000000000000000000000000000000008152600401611fb7906148f8565b60405180910390fd5b6001151560096000848152602001908152602001600020600a0160009054906101000a900460ff1615150361202357600060096000848152602001908152602001600020600a0160006101000a81548160ff021916908315150217905550612053565b600160096000848152602001908152602001600020600a0160006101000a81548160ff0219169083151502179055505b5050565b813373ffffffffffffffffffffffffffffffffffffffff16600d600083815260200190815260200160002060009054906101000a900473ffffffffffffffffffffffffffffffffffffffff1673ffffffffffffffffffffffffffffffffffffffff16146120f9576040517f08c379a00000000000000000000000000000000000000000000000000000000081526004016120f0906148f8565b60405180910390fd5b8160096000858152602001908152602001600020600201600082825461211f919061455c565b92505081905550505050565b6000600560008473ffffffffffffffffffffffffffffffffffffffff1673ffffffffffffffffffffffffffffffffffffffff16815260200190815260200160002060008373ffffffffffffffffffffffffffffffffffffffff1673ffffffffffffffffffffffffffffffffffffffff16815260200190815260200160002060009054906101000a900460ff16905092915050565b600860009054906101000a900473ffffffffffffffffffffffffffffffffffffffff1681565b813373ffffffffffffffffffffffffffffffffffffffff16600d600083815260200190815260200160002060009054906101000a900473ffffffffffffffffffffffffffffffffffffffff1673ffffffffffffffffffffffffffffffffffffffff1614612287576040517f08c379a000000000000000000000000000000000000000000000000000000000815260040161227e906148f8565b60405180910390fd5b816009600085815260200190815260200160002060020160008282546122ad9190614632565b92505081905550505050565b60007f01ffc9a7000000000000000000000000000000000000000000000000000000007bffffffffffffffffffffffffffffffffffffffffffffffffffffffff1916827bffffffffffffffffffffffffffffffffffffffffffffffffffffffff1916149050919050565b61232c81612ae9565b61236b576040517f08c379a0000000000000000000000000000000000000000000000000000000008152600401612362906146b2565b60405180910390fd5b50565b600033905090565b816004600083815260200190815260200160002060006101000a81548173ffffffffffffffffffffffffffffffffffffffff021916908373ffffffffffffffffffffffffffffffffffffffff160217905550808273ffffffffffffffffffffffffffffffffffffffff166123e983611561565b73ffffffffffffffffffffffffffffffffffffffff167f8c5be1e5ebec7d5bd14f71427d1e84f3dd0314c0f7b2291e5b200ac8c7c3b92560405160405180910390a45050565b60008061243b83611561565b90508073ffffffffffffffffffffffffffffffffffffffff168473ffffffffffffffffffffffffffffffffffffffff16148061247d575061247c818561212b565b5b806124bb57508373ffffffffffffffffffffffffffffffffffffffff166124a384610731565b73ffffffffffffffffffffffffffffffffffffffff16145b91505092915050565b8273ffffffffffffffffffffffffffffffffffffffff166124e482611561565b73ffffffffffffffffffffffffffffffffffffffff161461253a576040517f08c379a00000000000000000000000000000000000000000000000000000000081526004016125319061498a565b60405180910390fd5b600073ffffffffffffffffffffffffffffffffffffffff168273ffffffffffffffffffffffffffffffffffffffff16036125a9576040517f08c379a00000000000000000000000000000000000000000000000000000000081526004016125a090614a1c565b60405180910390fd5b6125b68383836001612b2a565b8273ffffffffffffffffffffffffffffffffffffffff166125d682611561565b73ffffffffffffffffffffffffffffffffffffffff161461262c576040517f08c379a00000000000000000000000000000000000000000000000000000000081526004016126239061498a565b60405180910390fd5b6004600082815260200190815260200160002060006101000a81549073ffffffffffffffffffffffffffffffffffffffff02191690556001600360008573ffffffffffffffffffffffffffffffffffffffff1673ffffffffffffffffffffffffffffffffffffffff168152602001908152602001600020600082825403925050819055506001600360008473ffffffffffffffffffffffffffffffffffffffff1673ffffffffffffffffffffffffffffffffffffffff16815260200190815260200160002060008282540192505081905550816002600083815260200190815260200160002060006101000a81548173ffffffffffffffffffffffffffffffffffffffff021916908373ffffffffffffffffffffffffffffffffffffffff160217905550808273ffffffffffffffffffffffffffffffffffffffff168473ffffffffffffffffffffffffffffffffffffffff167fddf252ad1be2c89b69c2b068fc378daa952ba7f163c4a11628f55a4df523b3ef60405160405180910390a46127b88383836001612b30565b505050565b600081600001549050919050565b60006002600083815260200190815260200160002060009054906101000a900473ffffffffffffffffffffffffffffffffffffffff169050919050565b612822828260405180602001604052806000815250612b36565b5050565b6001816000016000828254019250508190555050565b8173ffffffffffffffffffffffffffffffffffffffff168373ffffffffffffffffffffffffffffffffffffffff16036128aa576040517f08c379a00000000000000000000000000000000000000000000000000000000081526004016128a190614a88565b60405180910390fd5b80600560008573ffffffffffffffffffffffffffffffffffffffff1673ffffffffffffffffffffffffffffffffffffffff16815260200190815260200160002060008473ffffffffffffffffffffffffffffffffffffffff1673ffffffffffffffffffffffffffffffffffffffff16815260200190815260200160002060006101000a81548160ff0219169083151502179055508173ffffffffffffffffffffffffffffffffffffffff168373ffffffffffffffffffffffffffffffffffffffff167f17307eab39ab6107e8899845ad3d59bd9653f200f220920489ca2b5937696c318360405161299b91906131d1565b60405180910390a3505050565b6129b38484846124c4565b6129bf84848484612b91565b6129fe576040517f08c379a00000000000000000000000000000000000000000000000000000000081526004016129f590614b1a565b60405180910390fd5b50505050565b606060405180602001604052806000815250905090565b606060006001612a2a84612d18565b01905060008167ffffffffffffffff811115612a4957612a48613426565b5b6040519080825280601f01601f191660200182016040528015612a7b5781602001600182028036833780820191505090505b509050600082602001820190505b600115612ade578080600190039150507f3031323334353637383961626364656600000000000000000000000000000000600a86061a8153600a8581612ad257612ad1614590565b5b04945060008503612a89575b819350505050919050565b60008073ffffffffffffffffffffffffffffffffffffffff16612b0b836127cb565b73ffffffffffffffffffffffffffffffffffffffff1614159050919050565b50505050565b50505050565b612b408383612e6b565b612b4d6000848484612b91565b612b8c576040517f08c379a0000000000000000000000000000000000000000000000000000000008152600401612b8390614b1a565b60405180910390fd5b505050565b6000612bb28473ffffffffffffffffffffffffffffffffffffffff16613088565b15612d0b578373ffffffffffffffffffffffffffffffffffffffff1663150b7a02612bdb61236e565b8786866040518563ffffffff1660e01b8152600401612bfd9493929190614b8f565b6020604051808303816000875af1925050508015612c3957506040513d601f19601f82011682018060405250810190612c369190614bf0565b60015b612cbb573d8060008114612c69576040519150601f19603f3d011682016040523d82523d6000602084013e612c6e565b606091505b506000815103612cb3576040517f08c379a0000000000000000000000000000000000000000000000000000000008152600401612caa90614b1a565b60405180910390fd5b805181602001fd5b63150b7a0260e01b7bffffffffffffffffffffffffffffffffffffffffffffffffffffffff1916817bffffffffffffffffffffffffffffffffffffffffffffffffffffffff191614915050612d10565b600190505b949350505050565b600080600090507a184f03e93ff9f4daa797ed6e38ed64bf6a1f0100000000000000008310612d76577a184f03e93ff9f4daa797ed6e38ed64bf6a1f0100000000000000008381612d6c57612d6b614590565b5b0492506040810190505b6d04ee2d6d415b85acef81000000008310612db3576d04ee2d6d415b85acef81000000008381612da957612da8614590565b5b0492506020810190505b662386f26fc100008310612de257662386f26fc100008381612dd857612dd7614590565b5b0492506010810190505b6305f5e1008310612e0b576305f5e1008381612e0157612e00614590565b5b0492506008810190505b6127108310612e30576127108381612e2657612e25614590565b5b0492506004810190505b60648310612e535760648381612e4957612e48614590565b5b0492506002810190505b600a8310612e62576001810190505b80915050919050565b600073ffffffffffffffffffffffffffffffffffffffff168273ffffffffffffffffffffffffffffffffffffffff1603612eda576040517f08c379a0000000000000000000000000000000000000000000000000000000008152600401612ed190614c69565b60405180910390fd5b612ee381612ae9565b15612f23576040517f08c379a0000000000000000000000000000000000000000000000000000000008152600401612f1a90614cd5565b60405180910390fd5b612f31600083836001612b2a565b612f3a81612ae9565b15612f7a576040517f08c379a0000000000000000000000000000000000000000000000000000000008152600401612f7190614cd5565b60405180910390fd5b6001600360008473ffffffffffffffffffffffffffffffffffffffff1673ffffffffffffffffffffffffffffffffffffffff16815260200190815260200160002060008282540192505081905550816002600083815260200190815260200160002060006101000a81548173ffffffffffffffffffffffffffffffffffffffff021916908373ffffffffffffffffffffffffffffffffffffffff160217905550808273ffffffffffffffffffffffffffffffffffffffff16600073ffffffffffffffffffffffffffffffffffffffff167fddf252ad1be2c89b69c2b068fc378daa952ba7f163c4a11628f55a4df523b3ef60405160405180910390a4613084600083836001612b30565b5050565b6000808273ffffffffffffffffffffffffffffffffffffffff163b119050919050565b60405180610160016040528060608152602001600081526020016000815260200160608152602001600073ffffffffffffffffffffffffffffffffffffffff16815260200160008152602001600081526020016000815260200160008152602001600081526020016000151581525090565b6000604051905090565b600080fd5b600080fd5b60007fffffffff0000000000000000000000000000000000000000000000000000000082169050919050565b61316681613131565b811461317157600080fd5b50565b6000813590506131838161315d565b92915050565b60006020828403121561319f5761319e613127565b5b60006131ad84828501613174565b91505092915050565b60008115159050919050565b6131cb816131b6565b82525050565b60006020820190506131e660008301846131c2565b92915050565b600081519050919050565b600082825260208201905092915050565b60005b8381101561322657808201518184015260208101905061320b565b60008484015250505050565b6000601f19601f8301169050919050565b600061324e826131ec565b61325881856131f7565b9350613268818560208601613208565b61327181613232565b840191505092915050565b600060208201905081810360008301526132968184613243565b905092915050565b6000819050919050565b6132b18161329e565b81146132bc57600080fd5b50565b6000813590506132ce816132a8565b92915050565b6000602082840312156132ea576132e9613127565b5b60006132f8848285016132bf565b91505092915050565b600073ffffffffffffffffffffffffffffffffffffffff82169050919050565b600061332c82613301565b9050919050565b61333c81613321565b82525050565b60006020820190506133576000830184613333565b92915050565b61336681613321565b811461337157600080fd5b50565b6000813590506133838161335d565b92915050565b600080604083850312156133a05761339f613127565b5b60006133ae85828601613374565b92505060206133bf858286016132bf565b9150509250929050565b6000806000606084860312156133e2576133e1613127565b5b60006133f086828701613374565b935050602061340186828701613374565b9250506040613412868287016132bf565b9150509250925092565b600080fd5b600080fd5b7f4e487b7100000000000000000000000000000000000000000000000000000000600052604160045260246000fd5b61345e82613232565b810181811067ffffffffffffffff8211171561347d5761347c613426565b5b80604052505050565b600061349061311d565b905061349c8282613455565b919050565b600067ffffffffffffffff8211156134bc576134bb613426565b5b6134c582613232565b9050602081019050919050565b82818337600083830152505050565b60006134f46134ef846134a1565b613486565b9050828152602081018484840111156135105761350f613421565b5b61351b8482856134d2565b509392505050565b600082601f8301126135385761353761341c565b5b81356135488482602086016134e1565b91505092915050565b6000806040838503121561356857613567613127565b5b600083013567ffffffffffffffff8111156135865761358561312c565b5b61359285828601613523565b92505060206135a385828601613374565b9150509250929050565b600081519050919050565b600082825260208201905092915050565b6000819050602082019050919050565b600082825260208201905092915050565b60006135f5826131ec565b6135ff81856135d9565b935061360f818560208601613208565b61361881613232565b840191505092915050565b61362c8161329e565b82525050565b600061363d82613301565b9050919050565b61364d81613632565b82525050565b61365c816131b6565b82525050565b600061016083016000830151848203600086015261368082826135ea565b91505060208301516136956020860182613623565b5060408301516136a86040860182613623565b50606083015184820360608601526136c082826135ea565b91505060808301516136d56080860182613644565b5060a08301516136e860a0860182613623565b5060c08301516136fb60c0860182613623565b5060e083015161370e60e0860182613623565b50610100830151613723610100860182613623565b50610120830151613738610120860182613623565b5061014083015161374d610140860182613653565b508091505092915050565b60006137648383613662565b905092915050565b6000602082019050919050565b6000613784826135ad565b61378e81856135b8565b9350836020820285016137a0856135c9565b8060005b858110156137dc57848403895281516137bd8582613758565b94506137c88361376c565b925060208a019950506001810190506137a4565b50829750879550505050505092915050565b600060208201905081810360008301526138088184613779565b905092915050565b600081519050919050565b600082825260208201905092915050565b6000819050602082019050919050565b61384581613321565b82525050565b6000613857838361383c565b60208301905092915050565b6000602082019050919050565b600061387b82613810565b613885818561381b565b93506138908361382c565b8060005b838110156138c15781516138a8888261384b565b97506138b383613863565b925050600181019050613894565b5085935050505092915050565b600060208201905081810360008301526138e88184613870565b905092915050565b6000806040838503121561390757613906613127565b5b6000613915858286016132bf565b925050602083013567ffffffffffffffff8111156139365761393561312c565b5b61394285828601613523565b9150509250929050565b600080600080600080600060e0888a03121561396b5761396a613127565b5b600088013567ffffffffffffffff8111156139895761398861312c565b5b6139958a828b01613523565b97505060206139a68a828b016132bf565b96505060406139b78a828b016132bf565b95505060606139c88a828b016132bf565b94505060806139d98a828b016132bf565b93505060a06139ea8a828b016132bf565b92505060c06139fb8a828b016132bf565b91505092959891949750929550565b600060208284031215613a2057613a1f613127565b5b6000613a2e84828501613374565b91505092915050565b613a408161329e565b82525050565b6000602082019050613a5b6000830184613a37565b92915050565b613a6a816131b6565b8114613a7557600080fd5b50565b600081359050613a8781613a61565b92915050565b60008060408385031215613aa457613aa3613127565b5b6000613ab285828601613374565b9250506020613ac385828601613a78565b9150509250929050565b600067ffffffffffffffff821115613ae857613ae7613426565b5b613af182613232565b9050602081019050919050565b6000613b11613b0c84613acd565b613486565b905082815260208101848484011115613b2d57613b2c613421565b5b613b388482856134d2565b509392505050565b600082601f830112613b5557613b5461341c565b5b8135613b65848260208601613afe565b91505092915050565b60008060008060808587031215613b8857613b87613127565b5b6000613b9687828801613374565b9450506020613ba787828801613374565b9350506040613bb8878288016132bf565b925050606085013567ffffffffffffffff811115613bd957613bd861312c565b5b613be587828801613b40565b91505092959194509250565b613bfa81613632565b82525050565b6000610160820190508181036000830152613c1b818e613243565b9050613c2a602083018d613a37565b613c37604083018c613a37565b8181036060830152613c49818b613243565b9050613c58608083018a613bf1565b613c6560a0830189613a37565b613c7260c0830188613a37565b613c7f60e0830187613a37565b613c8d610100830186613a37565b613c9b610120830185613a37565b613ca96101408301846131c2565b9c9b505050505050505050505050565b60008060408385031215613cd057613ccf613127565b5b6000613cde858286016132bf565b9250506020613cef858286016132bf565b9150509250929050565b60008060408385031215613d1057613d0f613127565b5b6000613d1e85828601613374565b9250506020613d2f85828601613374565b9150509250929050565b7f4e487b7100000000000000000000000000000000000000000000000000000000600052602260045260246000fd5b60006002820490506001821680613d8057607f821691505b602082108103613d9357613d92613d39565b5b50919050565b7f4552433732313a20617070726f76616c20746f2063757272656e74206f776e6560008201527f7200000000000000000000000000000000000000000000000000000000000000602082015250565b6000613df56021836131f7565b9150613e0082613d99565b604082019050919050565b60006020820190508181036000830152613e2481613de8565b9050919050565b7f4552433732313a20617070726f76652063616c6c6572206973206e6f7420746f60008201527f6b656e206f776e6572206f7220617070726f76656420666f7220616c6c000000602082015250565b6000613e87603d836131f7565b9150613e9282613e2b565b604082019050919050565b60006020820190508181036000830152613eb681613e7a565b9050919050565b7f4552433732313a2063616c6c6572206973206e6f7420746f6b656e206f776e6560008201527f72206f7220617070726f76656400000000000000000000000000000000000000602082015250565b6000613f19602d836131f7565b9150613f2482613ebd565b604082019050919050565b60006020820190508181036000830152613f4881613f0c565b9050919050565b7f4475706c69636174652050726f64756374696f6e20486f757365000000000000600082015250565b6000613f85601a836131f7565b9150613f9082613f4f565b602082019050919050565b60006020820190508181036000830152613fb481613f78565b9050919050565b7f4e6f7420616e2041646d696e2c206e6f20616363657373000000000000000000600082015250565b6000613ff16017836131f7565b9150613ffc82613fbb565b602082019050919050565b6000602082019050818103600083015261402081613fe4565b9050919050565b60008190508160005260206000209050919050565b60006020601f8301049050919050565b600082821b905092915050565b6000600883026140897fffffffffffffffffffffffffffffffffffffffffffffffffffffffffffffffff8261404c565b614093868361404c565b95508019841693508086168417925050509392505050565b6000819050919050565b60006140d06140cb6140c68461329e565b6140ab565b61329e565b9050919050565b6000819050919050565b6140ea836140b5565b6140fe6140f6826140d7565b848454614059565b825550505050565b600090565b614113614106565b61411e8184846140e1565b505050565b5b818110156141425761413760008261410b565b600181019050614124565b5050565b601f8211156141875761415881614027565b6141618461403c565b81016020851015614170578190505b61418461417c8561403c565b830182614123565b50505b505050565b600082821c905092915050565b60006141aa6000198460080261418c565b1980831691505092915050565b60006141c38383614199565b9150826002028217905092915050565b6141dc826131ec565b67ffffffffffffffff8111156141f5576141f4613426565b5b6141ff8254613d68565b61420a828285614146565b600060209050601f83116001811461423d576000841561422b578287015190505b61423585826141b7565b86555061429d565b601f19841661424b86614027565b60005b828110156142735784890151825560018201915060208501945060208101905061424e565b86831015614290578489015161428c601f891682614199565b8355505b6001600288020188555050505b505050505050565b7f4e487b7100000000000000000000000000000000000000000000000000000000600052601160045260246000fd5b60006142df8261329e565b91507fffffffffffffffffffffffffffffffffffffffffffffffffffffffffffffffff8203614311576143106142a5565b5b600182019050919050565b7f4e487b7100000000000000000000000000000000000000000000000000000000600052603260045260246000fd5b600081905092915050565b6000614361826131ec565b61436b818561434b565b935061437b818560208601613208565b80840191505092915050565b60006143938284614356565b915081905092915050565b600081546143ab81613d68565b6143b5818661434b565b945060018216600081146143d057600181146143e557614418565b60ff1983168652811515820286019350614418565b6143ee85614027565b60005b83811015614410578154818901526001820191506020810190506143f1565b838801955050505b50505092915050565b600061442d828461439e565b915081905092915050565b7f4120746f6b656e206973206e6f742070726573656e7420666f7220746869732060008201527f6d6f766965000000000000000000000000000000000000000000000000000000602082015250565b60006144946025836131f7565b915061449f82614438565b604082019050919050565b600060208201905081810360008301526144c381614487565b9050919050565b7f526573616c65206973206e6f7420616c6c6f77656420666f722074686973206d60008201527f6f76696500000000000000000000000000000000000000000000000000000000602082015250565b60006145266024836131f7565b9150614531826144ca565b604082019050919050565b6000602082019050818103600083015261455581614519565b9050919050565b60006145678261329e565b91506145728361329e565b925082820190508082111561458a576145896142a5565b5b92915050565b7f4e487b7100000000000000000000000000000000000000000000000000000000600052601260045260246000fd5b60006145ca8261329e565b91506145d58361329e565b9250826145e5576145e4614590565b5b828204905092915050565b60006145fb8261329e565b91506146068361329e565b92508282026146148161329e565b9150828204841483151761462b5761462a6142a5565b5b5092915050565b600061463d8261329e565b91506146488361329e565b92508282039050818111156146605761465f6142a5565b5b92915050565b7f4552433732313a20696e76616c696420746f6b656e2049440000000000000000600082015250565b600061469c6018836131f7565b91506146a782614666565b602082019050919050565b600060208201905081810360008301526146cb8161468f565b9050919050565b7f4e6f74206120726567697374657265642070726f64756374696f6e20686f757360008201527f6500000000000000000000000000000000000000000000000000000000000000602082015250565b600061472e6021836131f7565b9150614739826146d2565b604082019050919050565b6000602082019050818103600083015261475d81614721565b9050919050565b7f4120746f6b656e20697320616c72656164792070726573656e7420666f72207460008201527f686973206d6f7669650000000000000000000000000000000000000000000000602082015250565b60006147c06029836131f7565b91506147cb82614764565b604082019050919050565b600060208201905081810360008301526147ef816147b3565b9050919050565b7f4552433732313a2061646472657373207a65726f206973206e6f74206120766160008201527f6c6964206f776e65720000000000000000000000000000000000000000000000602082015250565b60006148526029836131f7565b915061485d826147f6565b604082019050919050565b6000602082019050818103600083015261488181614845565b9050919050565b60006148948285614356565b91506148a08284614356565b91508190509392505050565b7f4e6f7420746865206f776e6572206f662074686520746f6b656e000000000000600082015250565b60006148e2601a836131f7565b91506148ed826148ac565b602082019050919050565b60006020820190508181036000830152614911816148d5565b9050919050565b7f4552433732313a207472616e736665722066726f6d20696e636f72726563742060008201527f6f776e6572000000000000000000000000000000000000000000000000000000602082015250565b60006149746025836131f7565b915061497f82614918565b604082019050919050565b600060208201905081810360008301526149a381614967565b9050919050565b7f4552433732313a207472616e7366657220746f20746865207a65726f2061646460008201527f7265737300000000000000000000000000000000000000000000000000000000602082015250565b6000614a066024836131f7565b9150614a11826149aa565b604082019050919050565b60006020820190508181036000830152614a35816149f9565b9050919050565b7f4552433732313a20617070726f766520746f2063616c6c657200000000000000600082015250565b6000614a726019836131f7565b9150614a7d82614a3c565b602082019050919050565b60006020820190508181036000830152614aa181614a65565b9050919050565b7f4552433732313a207472616e7366657220746f206e6f6e20455243373231526560008201527f63656976657220696d706c656d656e7465720000000000000000000000000000602082015250565b6000614b046032836131f7565b9150614b0f82614aa8565b604082019050919050565b60006020820190508181036000830152614b3381614af7565b9050919050565b600081519050919050565b600082825260208201905092915050565b6000614b6182614b3a565b614b6b8185614b45565b9350614b7b818560208601613208565b614b8481613232565b840191505092915050565b6000608082019050614ba46000830187613333565b614bb16020830186613333565b614bbe6040830185613a37565b8181036060830152614bd08184614b56565b905095945050505050565b600081519050614bea8161315d565b92915050565b600060208284031215614c0657614c05613127565b5b6000614c1484828501614bdb565b91505092915050565b7f4552433732313a206d696e7420746f20746865207a65726f2061646472657373600082015250565b6000614c536020836131f7565b9150614c5e82614c1d565b602082019050919050565b60006020820190508181036000830152614c8281614c46565b9050919050565b7f4552433732313a20746f6b656e20616c7265616479206d696e74656400000000600082015250565b6000614cbf601c836131f7565b9150614cca82614c89565b602082019050919050565b60006020820190508181036000830152614cee81614cb2565b905091905056fea264697066735822122050a2b93745882ff9a7e667afc7e0960449f9defaec96bfbec5888859d0fff6f664736f6c63430008130033",
  "immutableReferences": {},
  "source": "// SPDX-License-Identifier: UNLICENSED\npragma solidity ^0.8.0;\n\nimport \"@openzeppelin/contracts/token/ERC721/ERC721.sol\";\nimport \"@openzeppelin/contracts/utils/Counters.sol\";\n\ncontract MovieToken is ERC721 {\n    using Counters for Counters.Counter;\n    Counters.Counter public tokenIds;\n\n    struct Token {\n        string movieName;\n        uint256 tokenId;\n        uint basePrice;\n        string productionCompany;\n        address payable ownerAddr;\n        uint minTime;\n        uint maxTime;\n        uint apprPercent;\n        uint deprPercent;\n        uint baseDays;\n\n        bool resale;\n    }\n\n    Token[] allTokens;\n    address public admin;\n    mapping(uint256 => Token) public tokenIdToTokenMap;\n    mapping(address=>string) productionAddrToNameMap;\n    address [] allProdHouses;\n    mapping(string=>uint) nameTokenIdMap;\n    mapping(uint=>address) tokenIdToOwnerMap;\n\n    modifier duplicateProdHouse (address addr){\n        bool duplicate = bytes(productionAddrToNameMap[addr]).length > 0 ;\n        require(!duplicate,\"Duplicate Production House\");\n        _;\n    }\n\n    modifier onlyAdmin{\n        require(msg.sender == admin,\"Not an Admin, no access\");\n        _;\n    }\n\n    modifier validProdHouse(address addr){\n        bool duplicate = bytes(productionAddrToNameMap[addr]).length > 0 ;\n        require(duplicate,\"Not a registered production house\");\n        _;\n    }\n\n    modifier duplicateMovieToken(string memory name){ // self exp.\n        bool duplicate = false;\n        for(uint i=0;i<allTokens.length;i++){\n\n            if(keccak256(abi.encodePacked(allTokens[i].movieName)) == keccak256(abi.encodePacked(name))){\n                duplicate = true;break;\n            }\n        }\n\n        require(!duplicate,\"A token is already present for this movie\");\n        _;\n    }\n\n    modifier validMovieToken(string memory name){ // self exp.\n        bool duplicate = false;\n        for(uint i=0;i<allTokens.length;i++){\n\n            if(keccak256(abi.encodePacked(allTokens[i].movieName)) == keccak256(abi.encodePacked(name))){\n                duplicate = true;break;\n            }\n        }\n\n        require(duplicate,\"A token is not present for this movie\");\n        _;\n    }\n\n    modifier validMinMaxValues(uint min,uint max){ // min (both days and appr/depr, should be +ve\n        require(min<=max && min>0 && max>0,\"Invalid Min Max values\");\n        _;\n    }\n\n    modifier checkTokenOwner(uint tokenId){\n        require(tokenIdToOwnerMap[tokenId]==msg.sender,\"Not the owner of the token\");\n        _;\n    }\n\n    constructor() ERC721(\"MovieTokenization\",\"MVTK\"){\n        admin = msg.sender;\n    }\n\n    function registerProductionHouse(string memory name,address addr) public duplicateProdHouse(addr) onlyAdmin{\n        productionAddrToNameMap[addr] = name;\n        allProdHouses.push(addr);\n    }\n\n    function getAllProdHouses() public view returns (address[] memory) {\n        return allProdHouses;\n    }\n    // uint appr, uint depr,uint minTime,uint maxTime, uint baseValue)\n\n    // function createMovieToken(string memory movieName, Token memory input) public validProdHouse(msg.sender) duplicateMovieToken(movieName) validMinMaxValues(input.minTime,input.maxTime) validMinMaxValues(input.apprPercent,input.deprPercent){\n    //     //check if the user is a registerd prod house or not, handled in validProdHouse modifier\n    //     //check for duplicate token\n    //     // string memory prodName = productionAddrToNameMap[msg.sender];\n    //     //check if input values are valid\n    //     // address payable sender = payable(msg.sender);\n    //     Token memory newToken = Token(movieName,tokenIds.current(),input.basePrice,productionAddrToNameMap[msg.sender],payable(msg.sender),input.minTime,input.maxTime,input.apprPercent,input.deprPercent,true);\n\n    //     nameTokenIdMap[movieName] = tokenIds.current();\n    //     tokenIdToTokenMap[tokenIds.current()] = newToken;\n    //     tokenIdToOwnerMap[tokenIds.current()] = msg.sender;\n    //     _safeMint(msg.sender, tokenIds.current());\n    //     tokenIds.increment();\n    //     allTokens.push(newToken);\n\n\n    // }\n\n    function createMovieToken(string memory movieName, uint basePrice,uint baseDays, uint minTime,uint maxTime,uint apprPercent,uint deprPercent) public validProdHouse(msg.sender) duplicateMovieToken(movieName){\n        //check if the user is a registerd prod house or not, handled in validProdHouse modifier\n        //check for duplicate token\n        // string memory prodName = productionAddrToNameMap[msg.sender];\n        //check if input values are valid\n        // address payable sender = payable(msg.sender);\n        Token memory newToken = Token(movieName,tokenIds.current(),basePrice,productionAddrToNameMap[msg.sender],payable(msg.sender),minTime,maxTime,apprPercent,deprPercent,baseDays,true);\n\n        nameTokenIdMap[movieName] = tokenIds.current();\n        tokenIdToTokenMap[tokenIds.current()] = newToken;\n        tokenIdToOwnerMap[tokenIds.current()] = msg.sender;\n        _safeMint(msg.sender, tokenIds.current());\n        tokenIds.increment();\n        allTokens.push(newToken);\n\n\n    }\n\n    function buyMovieToken(uint dayss, string memory movieName) public payable validMovieToken(movieName){ //changed tokenId to movieName, as there's no visibility provided right now\n        //check if the movieName is valid, in modifier\n        //days can be +/-, - represents earlier, + later\n        uint tokenId = nameTokenIdMap[movieName];\n        Token memory token = tokenIdToTokenMap[tokenId];\n        require(token.resale == true, \"Resale is not allowed for this movie\");\n        uint value = token.basePrice;\n        uint minDays = token.minTime;\n        uint maxDays = token.maxTime;\n        uint baseDays = token.baseDays;\n\n        uint finalValue = value;// case where dayss == baseDays\n\n\n        if(dayss > minDays && dayss < (minDays+ baseDays) / 2 ){ //highest cost\n            finalValue += finalValue * (token.apprPercent/100);\n            finalValue += finalValue * (token.apprPercent/100);\n        }else if(dayss>=(baseDays+dayss)/2 && dayss<baseDays ){//2nd highest\n            finalValue += finalValue * (token.apprPercent/100);\n        }else if(dayss>baseDays && dayss<=(baseDays+maxDays)/2){//second least\n            finalValue -= finalValue * (token.apprPercent/100);\n        }else if(dayss>(baseDays+maxDays)/2){//least most\n            finalValue -= finalValue * (token.apprPercent/100);\n            finalValue -= finalValue * (token.apprPercent/100);\n        }\n\n\n\n        //get token owner and transfer ether\n        token.ownerAddr.transfer(msg.value); // failure of this reverts everything needn't explicitly handle for now, TODO: better, give a proper error message\n\n        //change ownership\n        token.ownerAddr = payable(msg.sender);\n        //also in map\n        tokenIdToOwnerMap[tokenId] = msg.sender;\n        //disable resale\n        token.resale  = false;\n        //change in token list\n        for(uint i=0;i<allTokens.length;i++){\n            if(allTokens[i].tokenId == tokenId){\n                allTokens[i].ownerAddr = payable(msg.sender);\n            }\n        }\n\n    }\n\n\n    function appreciateTokenValue(uint256 tokenId, uint value) public checkTokenOwner(tokenId){ //how will the user know tokenid, remember? give him visibility\n        tokenIdToTokenMap[tokenId].basePrice += value;\n    }\n\n    function depreciateTokenValue(uint256 tokenId, uint value) public checkTokenOwner(tokenId){\n        tokenIdToTokenMap[tokenId].basePrice -=  value;\n    }\n\n    function enableOrDisableResale(uint tokenId) public checkTokenOwner(tokenId){\n        if(tokenIdToTokenMap[tokenId].resale == true){\n            tokenIdToTokenMap[tokenId].resale = false;\n        }else{\n            tokenIdToTokenMap[tokenId].resale = true;\n        }\n    }\n\n\n    function viewTokens() public view returns(Token[] memory){\n\n        Token[] memory result = new Token[](allTokens.length);\n        uint index = 0;\n        for(uint i=0;i<=tokenIds.current();i++){ // no support to deleting tokens, so looping through all tokenids is equal to keys\n\n            if(tokenIdToTokenMap[i].ownerAddr == msg.sender){\n                result[index++]=tokenIdToTokenMap[i];\n            }\n        }\n        return result;\n    }\n\n}\n",
  "sourcePath": "/Users/saisvasgudimalla/Documents/Nani/MS_CS_UB/Spring_2023/Blockchain/FilmToken-Dapp/FilmToken-contract/contracts/FilmToken.sol",
  "compiler": {
    "name": "solc",
    "version": "0.8.19+commit.7dd6d404.Emscripten.clang"
  },
  "schemaVersion": "3.4.13",
  "updatedAt": "2023-04-29T03:43:30.947Z",
  "devdoc": {
    "events": {
      "Approval(address,address,uint256)": {
        "details": "Emitted when `owner` enables `approved` to manage the `tokenId` token."
      },
      "ApprovalForAll(address,address,bool)": {
        "details": "Emitted when `owner` enables or disables (`approved`) `operator` to manage all of its assets."
      },
      "Transfer(address,address,uint256)": {
        "details": "Emitted when `tokenId` token is transferred from `from` to `to`."
      }
    },
    "kind": "dev",
    "methods": {
      "approve(address,uint256)": {
        "details": "See {IERC721-approve}."
      },
      "balanceOf(address)": {
        "details": "See {IERC721-balanceOf}."
      },
      "getApproved(uint256)": {
        "details": "See {IERC721-getApproved}."
      },
      "isApprovedForAll(address,address)": {
        "details": "See {IERC721-isApprovedForAll}."
      },
      "name()": {
        "details": "See {IERC721Metadata-name}."
      },
      "ownerOf(uint256)": {
        "details": "See {IERC721-ownerOf}."
      },
      "safeTransferFrom(address,address,uint256)": {
        "details": "See {IERC721-safeTransferFrom}."
      },
      "safeTransferFrom(address,address,uint256,bytes)": {
        "details": "See {IERC721-safeTransferFrom}."
      },
      "setApprovalForAll(address,bool)": {
        "details": "See {IERC721-setApprovalForAll}."
      },
      "supportsInterface(bytes4)": {
        "details": "See {IERC165-supportsInterface}."
      },
      "symbol()": {
        "details": "See {IERC721Metadata-symbol}."
      },
      "tokenURI(uint256)": {
        "details": "See {IERC721Metadata-tokenURI}."
      },
      "transferFrom(address,address,uint256)": {
        "details": "See {IERC721-transferFrom}."
      }
    },
    "version": 1
  },
  "userdoc": {
    "kind": "user",
    "methods": {},
    "version": 1
  }
}