{
  "contractName": "FilmToken",
  "abi": [
    {
      "inputs": [],
      "stateMutability": "nonpayable",
      "type": "constructor"
    },
    {
      "anonymous": false,
      "inputs": [
        {
          "indexed": true,
          "internalType": "address",
          "name": "owner",
          "type": "address"
        },
        {
          "indexed": true,
          "internalType": "address",
          "name": "approved",
          "type": "address"
        },
        {
          "indexed": true,
          "internalType": "uint256",
          "name": "tokenId",
          "type": "uint256"
        }
      ],
      "name": "Approval",
      "type": "event"
    },
    {
      "anonymous": false,
      "inputs": [
        {
          "indexed": true,
          "internalType": "address",
          "name": "owner",
          "type": "address"
        },
        {
          "indexed": true,
          "internalType": "address",
          "name": "operator",
          "type": "address"
        },
        {
          "indexed": false,
          "internalType": "bool",
          "name": "approved",
          "type": "bool"
        }
      ],
      "name": "ApprovalForAll",
      "type": "event"
    },
    {
      "anonymous": false,
      "inputs": [
        {
          "indexed": true,
          "internalType": "address",
          "name": "from",
          "type": "address"
        },
        {
          "indexed": true,
          "internalType": "address",
          "name": "to",
          "type": "address"
        },
        {
          "indexed": true,
          "internalType": "uint256",
          "name": "tokenId",
          "type": "uint256"
        }
      ],
      "name": "Transfer",
      "type": "event"
    },
    {
      "inputs": [],
      "name": "admin",
      "outputs": [
        {
          "internalType": "address",
          "name": "",
          "type": "address"
        }
      ],
      "stateMutability": "view",
      "type": "function",
      "constant": true
    },
    {
      "inputs": [
        {
          "internalType": "address",
          "name": "to",
          "type": "address"
        },
        {
          "internalType": "uint256",
          "name": "tokenId",
          "type": "uint256"
        }
      ],
      "name": "approve",
      "outputs": [],
      "stateMutability": "nonpayable",
      "type": "function"
    },
    {
      "inputs": [
        {
          "internalType": "address",
          "name": "owner",
          "type": "address"
        }
      ],
      "name": "balanceOf",
      "outputs": [
        {
          "internalType": "uint256",
          "name": "",
          "type": "uint256"
        }
      ],
      "stateMutability": "view",
      "type": "function",
      "constant": true
    },
    {
      "inputs": [
        {
          "internalType": "uint256",
          "name": "tokenId",
          "type": "uint256"
        }
      ],
      "name": "getApproved",
      "outputs": [
        {
          "internalType": "address",
          "name": "",
          "type": "address"
        }
      ],
      "stateMutability": "view",
      "type": "function",
      "constant": true
    },
    {
      "inputs": [
        {
          "internalType": "address",
          "name": "owner",
          "type": "address"
        },
        {
          "internalType": "address",
          "name": "operator",
          "type": "address"
        }
      ],
      "name": "isApprovedForAll",
      "outputs": [
        {
          "internalType": "bool",
          "name": "",
          "type": "bool"
        }
      ],
      "stateMutability": "view",
      "type": "function",
      "constant": true
    },
    {
      "inputs": [],
      "name": "name",
      "outputs": [
        {
          "internalType": "string",
          "name": "",
          "type": "string"
        }
      ],
      "stateMutability": "view",
      "type": "function",
      "constant": true
    },
    {
      "inputs": [
        {
          "internalType": "uint256",
          "name": "tokenId",
          "type": "uint256"
        }
      ],
      "name": "ownerOf",
      "outputs": [
        {
          "internalType": "address",
          "name": "",
          "type": "address"
        }
      ],
      "stateMutability": "view",
      "type": "function",
      "constant": true
    },
    {
      "inputs": [
        {
          "internalType": "address",
          "name": "from",
          "type": "address"
        },
        {
          "internalType": "address",
          "name": "to",
          "type": "address"
        },
        {
          "internalType": "uint256",
          "name": "tokenId",
          "type": "uint256"
        }
      ],
      "name": "safeTransferFrom",
      "outputs": [],
      "stateMutability": "nonpayable",
      "type": "function"
    },
    {
      "inputs": [
        {
          "internalType": "address",
          "name": "from",
          "type": "address"
        },
        {
          "internalType": "address",
          "name": "to",
          "type": "address"
        },
        {
          "internalType": "uint256",
          "name": "tokenId",
          "type": "uint256"
        },
        {
          "internalType": "bytes",
          "name": "data",
          "type": "bytes"
        }
      ],
      "name": "safeTransferFrom",
      "outputs": [],
      "stateMutability": "nonpayable",
      "type": "function"
    },
    {
      "inputs": [
        {
          "internalType": "address",
          "name": "operator",
          "type": "address"
        },
        {
          "internalType": "bool",
          "name": "approved",
          "type": "bool"
        }
      ],
      "name": "setApprovalForAll",
      "outputs": [],
      "stateMutability": "nonpayable",
      "type": "function"
    },
    {
      "inputs": [
        {
          "internalType": "bytes4",
          "name": "interfaceId",
          "type": "bytes4"
        }
      ],
      "name": "supportsInterface",
      "outputs": [
        {
          "internalType": "bool",
          "name": "",
          "type": "bool"
        }
      ],
      "stateMutability": "view",
      "type": "function",
      "constant": true
    },
    {
      "inputs": [],
      "name": "symbol",
      "outputs": [
        {
          "internalType": "string",
          "name": "",
          "type": "string"
        }
      ],
      "stateMutability": "view",
      "type": "function",
      "constant": true
    },
    {
      "inputs": [
        {
          "internalType": "uint256",
          "name": "",
          "type": "uint256"
        }
      ],
      "name": "tokenIdToTokenMap",
      "outputs": [
        {
          "internalType": "string",
          "name": "movieName",
          "type": "string"
        },
        {
          "internalType": "uint256",
          "name": "tokenId",
          "type": "uint256"
        },
        {
          "internalType": "uint256",
          "name": "basePrice",
          "type": "uint256"
        },
        {
          "internalType": "string",
          "name": "productionCompany",
          "type": "string"
        },
        {
          "internalType": "address payable",
          "name": "ownerAddr",
          "type": "address"
        },
        {
          "internalType": "uint256",
          "name": "minTime",
          "type": "uint256"
        },
        {
          "internalType": "uint256",
          "name": "maxTime",
          "type": "uint256"
        },
        {
          "internalType": "uint256",
          "name": "apprPercent",
          "type": "uint256"
        },
        {
          "internalType": "uint256",
          "name": "deprPercent",
          "type": "uint256"
        },
        {
          "internalType": "bool",
          "name": "resale",
          "type": "bool"
        }
      ],
      "stateMutability": "view",
      "type": "function",
      "constant": true
    },
    {
      "inputs": [],
      "name": "tokenIds",
      "outputs": [
        {
          "internalType": "uint256",
          "name": "_value",
          "type": "uint256"
        }
      ],
      "stateMutability": "view",
      "type": "function",
      "constant": true
    },
    {
      "inputs": [
        {
          "internalType": "uint256",
          "name": "tokenId",
          "type": "uint256"
        }
      ],
      "name": "tokenURI",
      "outputs": [
        {
          "internalType": "string",
          "name": "",
          "type": "string"
        }
      ],
      "stateMutability": "view",
      "type": "function",
      "constant": true
    },
    {
      "inputs": [
        {
          "internalType": "address",
          "name": "from",
          "type": "address"
        },
        {
          "internalType": "address",
          "name": "to",
          "type": "address"
        },
        {
          "internalType": "uint256",
          "name": "tokenId",
          "type": "uint256"
        }
      ],
      "name": "transferFrom",
      "outputs": [],
      "stateMutability": "nonpayable",
      "type": "function"
    },
    {
      "inputs": [
        {
          "internalType": "string",
          "name": "name",
          "type": "string"
        },
        {
          "internalType": "address",
          "name": "addr",
          "type": "address"
        }
      ],
      "name": "registerProductionHouse",
      "outputs": [],
      "stateMutability": "nonpayable",
      "type": "function"
    },
    {
      "inputs": [
        {
          "internalType": "string",
          "name": "movieName",
          "type": "string"
        },
        {
          "components": [
            {
              "internalType": "string",
              "name": "movieName",
              "type": "string"
            },
            {
              "internalType": "uint256",
              "name": "tokenId",
              "type": "uint256"
            },
            {
              "internalType": "uint256",
              "name": "basePrice",
              "type": "uint256"
            },
            {
              "internalType": "string",
              "name": "productionCompany",
              "type": "string"
            },
            {
              "internalType": "address payable",
              "name": "ownerAddr",
              "type": "address"
            },
            {
              "internalType": "uint256",
              "name": "minTime",
              "type": "uint256"
            },
            {
              "internalType": "uint256",
              "name": "maxTime",
              "type": "uint256"
            },
            {
              "internalType": "uint256",
              "name": "apprPercent",
              "type": "uint256"
            },
            {
              "internalType": "uint256",
              "name": "deprPercent",
              "type": "uint256"
            },
            {
              "internalType": "bool",
              "name": "resale",
              "type": "bool"
            }
          ],
          "internalType": "struct FilmToken.Token",
          "name": "input",
          "type": "tuple"
        }
      ],
      "name": "createMovieToken",
      "outputs": [],
      "stateMutability": "nonpayable",
      "type": "function"
    },
    {
      "inputs": [
        {
          "internalType": "uint256",
          "name": "dayss",
          "type": "uint256"
        },
        {
          "internalType": "string",
          "name": "movieName",
          "type": "string"
        }
      ],
      "name": "buyMovieToken",
      "outputs": [],
      "stateMutability": "payable",
      "type": "function",
      "payable": true
    },
    {
      "inputs": [
        {
          "internalType": "uint256",
          "name": "tokenId",
          "type": "uint256"
        },
        {
          "internalType": "uint256",
          "name": "value",
          "type": "uint256"
        }
      ],
      "name": "appreciateTokenValue",
      "outputs": [],
      "stateMutability": "nonpayable",
      "type": "function"
    },
    {
      "inputs": [
        {
          "internalType": "uint256",
          "name": "tokenId",
          "type": "uint256"
        },
        {
          "internalType": "uint256",
          "name": "value",
          "type": "uint256"
        }
      ],
      "name": "depreciateTokenValue",
      "outputs": [],
      "stateMutability": "nonpayable",
      "type": "function"
    },
    {
      "inputs": [
        {
          "internalType": "uint256",
          "name": "tokenId",
          "type": "uint256"
        }
      ],
      "name": "enableOrDisableResale",
      "outputs": [],
      "stateMutability": "nonpayable",
      "type": "function"
    },
    {
      "inputs": [],
      "name": "viewTokens",
      "outputs": [
        {
          "components": [
            {
              "internalType": "string",
              "name": "movieName",
              "type": "string"
            },
            {
              "internalType": "uint256",
              "name": "tokenId",
              "type": "uint256"
            },
            {
              "internalType": "uint256",
              "name": "basePrice",
              "type": "uint256"
            },
            {
              "internalType": "string",
              "name": "productionCompany",
              "type": "string"
            },
            {
              "internalType": "address payable",
              "name": "ownerAddr",
              "type": "address"
            },
            {
              "internalType": "uint256",
              "name": "minTime",
              "type": "uint256"
            },
            {
              "internalType": "uint256",
              "name": "maxTime",
              "type": "uint256"
            },
            {
              "internalType": "uint256",
              "name": "apprPercent",
              "type": "uint256"
            },
            {
              "internalType": "uint256",
              "name": "deprPercent",
              "type": "uint256"
            },
            {
              "internalType": "bool",
              "name": "resale",
              "type": "bool"
            }
          ],
          "internalType": "struct FilmToken.Token[]",
          "name": "",
          "type": "tuple[]"
        }
      ],
      "stateMutability": "view",
      "type": "function",
      "constant": true
    },
    {
      "inputs": [],
      "name": "getValue",
      "outputs": [
        {
          "internalType": "uint256",
          "name": "",
          "type": "uint256"
        }
      ],
      "stateMutability": "view",
      "type": "function",
      "constant": true
    },
    {
      "inputs": [
        {
          "internalType": "uint256",
          "name": "newValue",
          "type": "uint256"
        }
      ],
      "name": "setValue",
      "outputs": [],
      "stateMutability": "nonpayable",
      "type": "function"
    }
  ],
  "bytecode": "0x60806040523480156200001157600080fd5b506040518060400160405280601181526020017f4d6f766965546f6b656e697a6174696f6e0000000000000000000000000000008152506040518060400160405280600481526020017f4d56544b0000000000000000000000000000000000000000000000000000000081525081600090816200008f919062000365565b508060019081620000a1919062000365565b50505033600860006101000a81548173ffffffffffffffffffffffffffffffffffffffff021916908373ffffffffffffffffffffffffffffffffffffffff1602179055506200044c565b600081519050919050565b7f4e487b7100000000000000000000000000000000000000000000000000000000600052604160045260246000fd5b7f4e487b7100000000000000000000000000000000000000000000000000000000600052602260045260246000fd5b600060028204905060018216806200016d57607f821691505b60208210810362000183576200018262000125565b5b50919050565b60008190508160005260206000209050919050565b60006020601f8301049050919050565b600082821b905092915050565b600060088302620001ed7fffffffffffffffffffffffffffffffffffffffffffffffffffffffffffffffff82620001ae565b620001f98683620001ae565b95508019841693508086168417925050509392505050565b6000819050919050565b6000819050919050565b600062000246620002406200023a8462000211565b6200021b565b62000211565b9050919050565b6000819050919050565b620002628362000225565b6200027a62000271826200024d565b848454620001bb565b825550505050565b600090565b6200029162000282565b6200029e81848462000257565b505050565b5b81811015620002c657620002ba60008262000287565b600181019050620002a4565b5050565b601f8211156200031557620002df8162000189565b620002ea846200019e565b81016020851015620002fa578190505b6200031262000309856200019e565b830182620002a3565b50505b505050565b600082821c905092915050565b60006200033a600019846008026200031a565b1980831691505092915050565b600062000355838362000327565b9150826002028217905092915050565b6200037082620000eb565b67ffffffffffffffff8111156200038c576200038b620000f6565b5b62000398825462000154565b620003a5828285620002ca565b600060209050601f831160018114620003dd5760008415620003c8578287015190505b620003d4858262000347565b86555062000444565b601f198416620003ed8662000189565b60005b828110156200041757848901518255600182019150602085019450602081019050620003f0565b8683101562000437578489015162000433601f89168262000327565b8355505b6001600288020188555050505b505050505050565b614d31806200045c6000396000f3fe6080604052600436106101665760003560e01c806370a08231116100d1578063c3aee7361161008a578063dd7072f611610064578063dd7072f614610546578063e985e9c51461056f578063f851a440146105ac578063f907b4a6146105d757610166565b8063c3aee7361461049a578063c87b56dd146104e0578063ca99cc3e1461051d57610166565b806370a082311461038c578063714cff56146103c957806394abe53c146103f457806395d89b411461041d578063a22cb46514610448578063b88d4fde1461047157610166565b806337c4f4671161012357806337c4f4671461028d57806342842e0e146102b65780634bf5bf35146102df578063552410771461030a57806357a3106b146103335780636352211e1461034f57610166565b806301ffc9a71461016b57806306fdde03146101a8578063081812fc146101d3578063095ea7b314610210578063209652551461023957806323b872dd14610264575b600080fd5b34801561017757600080fd5b50610192600480360381019061018d9190613109565b610600565b60405161019f9190613151565b60405180910390f35b3480156101b457600080fd5b506101bd6106e2565b6040516101ca91906131fc565b60405180910390f35b3480156101df57600080fd5b506101fa60048036038101906101f59190613254565b610774565b60405161020791906132c2565b60405180910390f35b34801561021c57600080fd5b5061023760048036038101906102329190613309565b6107ba565b005b34801561024557600080fd5b5061024e6108d1565b60405161025b9190613358565b60405180910390f35b34801561027057600080fd5b5061028b60048036038101906102869190613373565b6108db565b005b34801561029957600080fd5b506102b460048036038101906102af91906134fb565b61093b565b005b3480156102c257600080fd5b506102dd60048036038101906102d89190613373565b610ab2565b005b3480156102eb57600080fd5b506102f4610ad2565b6040516103019190613783565b60405180910390f35b34801561031657600080fd5b50610331600480360381019061032c9190613254565b610de5565b005b61034d600480360381019061034891906137a5565b610def565b005b34801561035b57600080fd5b5061037660048036038101906103719190613254565b61142b565b60405161038391906132c2565b60405180910390f35b34801561039857600080fd5b506103b360048036038101906103ae9190613801565b6114b1565b6040516103c09190613358565b60405180910390f35b3480156103d557600080fd5b506103de611568565b6040516103eb9190613358565b60405180910390f35b34801561040057600080fd5b5061041b600480360381019061041691906139be565b611574565b005b34801561042957600080fd5b50610432611ba2565b60405161043f91906131fc565b60405180910390f35b34801561045457600080fd5b5061046f600480360381019061046a9190613a36565b611c34565b005b34801561047d57600080fd5b5061049860048036038101906104939190613b17565b611c4a565b005b3480156104a657600080fd5b506104c160048036038101906104bc9190613254565b611cac565b6040516104d79a99989796959493929190613ba9565b60405180910390f35b3480156104ec57600080fd5b5061050760048036038101906105029190613254565b611e3d565b60405161051491906131fc565b60405180910390f35b34801561052957600080fd5b50610544600480360381019061053f9190613254565b611ea5565b005b34801561055257600080fd5b5061056d60048036038101906105689190613c53565b611fde565b005b34801561057b57600080fd5b5061059660048036038101906105919190613c93565b6120b2565b6040516105a39190613151565b60405180910390f35b3480156105b857600080fd5b506105c1612146565b6040516105ce91906132c2565b60405180910390f35b3480156105e357600080fd5b506105fe60048036038101906105f99190613c53565b61216c565b005b60007f80ac58cd000000000000000000000000000000000000000000000000000000007bffffffffffffffffffffffffffffffffffffffffffffffffffffffff1916827bffffffffffffffffffffffffffffffffffffffffffffffffffffffff191614806106cb57507f5b5e139f000000000000000000000000000000000000000000000000000000007bffffffffffffffffffffffffffffffffffffffffffffffffffffffff1916827bffffffffffffffffffffffffffffffffffffffffffffffffffffffff1916145b806106db57506106da82612240565b5b9050919050565b6060600080546106f190613d02565b80601f016020809104026020016040519081016040528092919081815260200182805461071d90613d02565b801561076a5780601f1061073f5761010080835404028352916020019161076a565b820191906000526020600020905b81548152906001019060200180831161074d57829003601f168201915b5050505050905090565b600061077f826122aa565b6004600083815260200190815260200160002060009054906101000a900473ffffffffffffffffffffffffffffffffffffffff169050919050565b60006107c58261142b565b90508073ffffffffffffffffffffffffffffffffffffffff168373ffffffffffffffffffffffffffffffffffffffff1603610835576040517f08c379a000000000000000000000000000000000000000000000000000000000815260040161082c90613da5565b60405180910390fd5b8073ffffffffffffffffffffffffffffffffffffffff166108546122f5565b73ffffffffffffffffffffffffffffffffffffffff16148061088357506108828161087d6122f5565b6120b2565b5b6108c2576040517f08c379a00000000000000000000000000000000000000000000000000000000081526004016108b990613e37565b60405180910390fd5b6108cc83836122fd565b505050565b6000600d54905090565b6108ec6108e66122f5565b826123b6565b61092b576040517f08c379a000000000000000000000000000000000000000000000000000000000815260040161092290613ec9565b60405180910390fd5b61093683838361244b565b505050565b33600080600a60008473ffffffffffffffffffffffffffffffffffffffff1673ffffffffffffffffffffffffffffffffffffffff168152602001908152602001600020805461098990613d02565b905011905080156109cf576040517f08c379a00000000000000000000000000000000000000000000000000000000081526004016109c690613f35565b60405180910390fd5b600860009054906101000a900473ffffffffffffffffffffffffffffffffffffffff1673ffffffffffffffffffffffffffffffffffffffff163373ffffffffffffffffffffffffffffffffffffffff1614610a5f576040517f08c379a0000000000000000000000000000000000000000000000000000000008152600401610a5690613fa1565b60405180910390fd5b83600a60008573ffffffffffffffffffffffffffffffffffffffff1673ffffffffffffffffffffffffffffffffffffffff1681526020019081526020016000209081610aab919061416d565b5050505050565b610acd83838360405180602001604052806000815250611c4a565b505050565b6060600060078054905067ffffffffffffffff811115610af557610af46133d0565b5b604051908082528060200260200182016040528015610b2e57816020015b610b1b613032565b815260200190600190039081610b135790505b5090506000805b610b3f6006612744565b8111610ddc573373ffffffffffffffffffffffffffffffffffffffff166009600083815260200190815260200160002060040160009054906101000a900473ffffffffffffffffffffffffffffffffffffffff1673ffffffffffffffffffffffffffffffffffffffff1603610dc9576009600082815260200190815260200160002060405180610140016040529081600082018054610bdd90613d02565b80601f0160208091040260200160405190810160405280929190818152602001828054610c0990613d02565b8015610c565780601f10610c2b57610100808354040283529160200191610c56565b820191906000526020600020905b815481529060010190602001808311610c3957829003601f168201915b505050505081526020016001820154815260200160028201548152602001600382018054610c8390613d02565b80601f0160208091040260200160405190810160405280929190818152602001828054610caf90613d02565b8015610cfc5780601f10610cd157610100808354040283529160200191610cfc565b820191906000526020600020905b815481529060010190602001808311610cdf57829003601f168201915b505050505081526020016004820160009054906101000a900473ffffffffffffffffffffffffffffffffffffffff1673ffffffffffffffffffffffffffffffffffffffff1673ffffffffffffffffffffffffffffffffffffffff168152602001600582015481526020016006820154815260200160078201548152602001600882015481526020016009820160009054906101000a900460ff161515151581525050838380610daa9061426e565b945081518110610dbd57610dbc6142b6565b5b60200260200101819052505b8080610dd49061426e565b915050610b35565b50819250505090565b80600d8190555050565b806000805b600780549050811015610e945782604051602001610e129190614321565b6040516020818303038152906040528051906020012060078281548110610e3c57610e3b6142b6565b5b90600052602060002090600a0201600001604051602001610e5d91906143bb565b6040516020818303038152906040528051906020012003610e815760019150610e94565b8080610e8c9061426e565b915050610df4565b5080610ed5576040517f08c379a0000000000000000000000000000000000000000000000000000000008152600401610ecc90614444565b60405180910390fd5b6000600b84604051610ee79190614321565b908152602001604051809103902054905060006009600083815260200190815260200160002060405180610140016040529081600082018054610f2990613d02565b80601f0160208091040260200160405190810160405280929190818152602001828054610f5590613d02565b8015610fa25780601f10610f7757610100808354040283529160200191610fa2565b820191906000526020600020905b815481529060010190602001808311610f8557829003601f168201915b505050505081526020016001820154815260200160028201548152602001600382018054610fcf90613d02565b80601f0160208091040260200160405190810160405280929190818152602001828054610ffb90613d02565b80156110485780601f1061101d57610100808354040283529160200191611048565b820191906000526020600020905b81548152906001019060200180831161102b57829003601f168201915b505050505081526020016004820160009054906101000a900473ffffffffffffffffffffffffffffffffffffffff1673ffffffffffffffffffffffffffffffffffffffff1673ffffffffffffffffffffffffffffffffffffffff168152602001600582015481526020016006820154815260200160078201548152602001600882015481526020016009820160009054906101000a900460ff161515151581525050905060011515816101200151151514611138576040517f08c379a000000000000000000000000000000000000000000000000000000000815260040161112f906144d6565b60405180910390fd5b60008160400151905060008260a00151905060008360c001519050600083905060008a10156111ef57828a11156111c05760648560e0015161117a9190614525565b816111859190614556565b816111909190614598565b905060648560e001516111a39190614525565b816111ae9190614556565b816111b99190614598565b90506111ea565b60648560e001516111d19190614525565b816111dc9190614556565b816111e79190614598565b90505b611283565b60008a111561128257818a11156112575760648560e001516112119190614525565b8161121c9190614556565b8161122791906145cc565b905060648560e0015161123a9190614525565b816112459190614556565b8161125091906145cc565b9050611281565b60648560e001516112689190614525565b816112739190614556565b8161127e91906145cc565b90505b5b5b846080015173ffffffffffffffffffffffffffffffffffffffff166108fc349081150290604051600060405180830381858888f193505050501580156112cd573d6000803e3d6000fd5b5033856080019073ffffffffffffffffffffffffffffffffffffffff16908173ffffffffffffffffffffffffffffffffffffffff168152505033600c600088815260200190815260200160002060006101000a81548173ffffffffffffffffffffffffffffffffffffffff021916908373ffffffffffffffffffffffffffffffffffffffff16021790555060008561012001901515908115158152505060005b60078054905081101561141e57866007828154811061138f5761138e6142b6565b5b90600052602060002090600a0201600101540361140b5733600782815481106113bb576113ba6142b6565b5b90600052602060002090600a020160040160006101000a81548173ffffffffffffffffffffffffffffffffffffffff021916908373ffffffffffffffffffffffffffffffffffffffff1602179055505b80806114169061426e565b91505061136d565b5050505050505050505050565b60008061143783612752565b9050600073ffffffffffffffffffffffffffffffffffffffff168173ffffffffffffffffffffffffffffffffffffffff16036114a8576040517f08c379a000000000000000000000000000000000000000000000000000000000815260040161149f9061464c565b60405180910390fd5b80915050919050565b60008073ffffffffffffffffffffffffffffffffffffffff168273ffffffffffffffffffffffffffffffffffffffff1603611521576040517f08c379a0000000000000000000000000000000000000000000000000000000008152600401611518906146de565b60405180910390fd5b600360008373ffffffffffffffffffffffffffffffffffffffff1673ffffffffffffffffffffffffffffffffffffffff168152602001908152602001600020549050919050565b60068060000154905081565b33600080600a60008473ffffffffffffffffffffffffffffffffffffffff1673ffffffffffffffffffffffffffffffffffffffff16815260200190815260200160002080546115c290613d02565b905011905080611607576040517f08c379a00000000000000000000000000000000000000000000000000000000081526004016115fe90614770565b60405180910390fd5b836000805b6007805490508110156116ac578260405160200161162a9190614321565b6040516020818303038152906040528051906020012060078281548110611654576116536142b6565b5b90600052602060002090600a020160000160405160200161167591906143bb565b604051602081830303815290604052805190602001200361169957600191506116ac565b80806116a49061426e565b91505061160c565b5080156116ee576040517f08c379a00000000000000000000000000000000000000000000000000000000081526004016116e590614802565b60405180910390fd5b8460a001518560c001518082111580156117085750600082115b80156117145750600081115b611753576040517f08c379a000000000000000000000000000000000000000000000000000000000815260040161174a9061486e565b60405180910390fd5b8660e0015187610100015180821115801561176e5750600082115b801561177a5750600081115b6117b9576040517f08c379a00000000000000000000000000000000000000000000000000000000081526004016117b09061486e565b60405180910390fd5b60006040518061014001604052808c81526020016117d76006612744565b81526020018b604001518152602001600a60003373ffffffffffffffffffffffffffffffffffffffff1673ffffffffffffffffffffffffffffffffffffffff168152602001908152602001600020805461183090613d02565b80601f016020809104026020016040519081016040528092919081815260200182805461185c90613d02565b80156118a95780601f1061187e576101008083540402835291602001916118a9565b820191906000526020600020905b81548152906001019060200180831161188c57829003601f168201915b505050505081526020013373ffffffffffffffffffffffffffffffffffffffff1681526020018b60a0015181526020018b60c0015181526020018b60e0015181526020018b6101000151815260200160011515815250905061190b6006612744565b600b8c60405161191b9190614321565b908152602001604051809103902081905550806009600061193c6006612744565b8152602001908152602001600020600082015181600001908161195f919061416d565b5060208201518160010155604082015181600201556060820151816003019081611989919061416d565b5060808201518160040160006101000a81548173ffffffffffffffffffffffffffffffffffffffff021916908373ffffffffffffffffffffffffffffffffffffffff16021790555060a0820151816005015560c0820151816006015560e0820151816007015561010082015181600801556101208201518160090160006101000a81548160ff02191690831515021790555090505033600c6000611a2d6006612744565b815260200190815260200160002060006101000a81548173ffffffffffffffffffffffffffffffffffffffff021916908373ffffffffffffffffffffffffffffffffffffffff160217905550611a8c33611a876006612744565b61278f565b611a9660066127ad565b60078190806001815401808255809150506001900390600052602060002090600a02016000909190919091506000820151816000019081611ad7919061416d565b5060208201518160010155604082015181600201556060820151816003019081611b01919061416d565b5060808201518160040160006101000a81548173ffffffffffffffffffffffffffffffffffffffff021916908373ffffffffffffffffffffffffffffffffffffffff16021790555060a0820151816005015560c0820151816006015560e0820151816007015561010082015181600801556101208201518160090160006101000a81548160ff02191690831515021790555050505050505050505050505050565b606060018054611bb190613d02565b80601f0160208091040260200160405190810160405280929190818152602001828054611bdd90613d02565b8015611c2a5780601f10611bff57610100808354040283529160200191611c2a565b820191906000526020600020905b815481529060010190602001808311611c0d57829003601f168201915b5050505050905090565b611c46611c3f6122f5565b83836127c3565b5050565b611c5b611c556122f5565b836123b6565b611c9a576040517f08c379a0000000000000000000000000000000000000000000000000000000008152600401611c9190613ec9565b60405180910390fd5b611ca68484848461292f565b50505050565b6009602052806000526040600020600091509050806000018054611ccf90613d02565b80601f0160208091040260200160405190810160405280929190818152602001828054611cfb90613d02565b8015611d485780601f10611d1d57610100808354040283529160200191611d48565b820191906000526020600020905b815481529060010190602001808311611d2b57829003601f168201915b505050505090806001015490806002015490806003018054611d6990613d02565b80601f0160208091040260200160405190810160405280929190818152602001828054611d9590613d02565b8015611de25780601f10611db757610100808354040283529160200191611de2565b820191906000526020600020905b815481529060010190602001808311611dc557829003601f168201915b5050505050908060040160009054906101000a900473ffffffffffffffffffffffffffffffffffffffff16908060050154908060060154908060070154908060080154908060090160009054906101000a900460ff1690508a565b6060611e48826122aa565b6000611e5261298b565b90506000815111611e725760405180602001604052806000815250611e9d565b80611e7c846129a2565b604051602001611e8d92919061488e565b6040516020818303038152906040525b915050919050565b803373ffffffffffffffffffffffffffffffffffffffff16600c600083815260200190815260200160002060009054906101000a900473ffffffffffffffffffffffffffffffffffffffff1673ffffffffffffffffffffffffffffffffffffffff1614611f47576040517f08c379a0000000000000000000000000000000000000000000000000000000008152600401611f3e906148fe565b60405180910390fd5b600115156009600084815260200190815260200160002060090160009054906101000a900460ff16151503611faa5760006009600084815260200190815260200160002060090160006101000a81548160ff021916908315150217905550611fda565b60016009600084815260200190815260200160002060090160006101000a81548160ff0219169083151502179055505b5050565b813373ffffffffffffffffffffffffffffffffffffffff16600c600083815260200190815260200160002060009054906101000a900473ffffffffffffffffffffffffffffffffffffffff1673ffffffffffffffffffffffffffffffffffffffff1614612080576040517f08c379a0000000000000000000000000000000000000000000000000000000008152600401612077906148fe565b60405180910390fd5b816009600085815260200190815260200160002060020160008282546120a69190614598565b92505081905550505050565b6000600560008473ffffffffffffffffffffffffffffffffffffffff1673ffffffffffffffffffffffffffffffffffffffff16815260200190815260200160002060008373ffffffffffffffffffffffffffffffffffffffff1673ffffffffffffffffffffffffffffffffffffffff16815260200190815260200160002060009054906101000a900460ff16905092915050565b600860009054906101000a900473ffffffffffffffffffffffffffffffffffffffff1681565b813373ffffffffffffffffffffffffffffffffffffffff16600c600083815260200190815260200160002060009054906101000a900473ffffffffffffffffffffffffffffffffffffffff1673ffffffffffffffffffffffffffffffffffffffff161461220e576040517f08c379a0000000000000000000000000000000000000000000000000000000008152600401612205906148fe565b60405180910390fd5b8160096000858152602001908152602001600020600201600082825461223491906145cc565b92505081905550505050565b60007f01ffc9a7000000000000000000000000000000000000000000000000000000007bffffffffffffffffffffffffffffffffffffffffffffffffffffffff1916827bffffffffffffffffffffffffffffffffffffffffffffffffffffffff1916149050919050565b6122b381612a70565b6122f2576040517f08c379a00000000000000000000000000000000000000000000000000000000081526004016122e99061464c565b60405180910390fd5b50565b600033905090565b816004600083815260200190815260200160002060006101000a81548173ffffffffffffffffffffffffffffffffffffffff021916908373ffffffffffffffffffffffffffffffffffffffff160217905550808273ffffffffffffffffffffffffffffffffffffffff166123708361142b565b73ffffffffffffffffffffffffffffffffffffffff167f8c5be1e5ebec7d5bd14f71427d1e84f3dd0314c0f7b2291e5b200ac8c7c3b92560405160405180910390a45050565b6000806123c28361142b565b90508073ffffffffffffffffffffffffffffffffffffffff168473ffffffffffffffffffffffffffffffffffffffff161480612404575061240381856120b2565b5b8061244257508373ffffffffffffffffffffffffffffffffffffffff1661242a84610774565b73ffffffffffffffffffffffffffffffffffffffff16145b91505092915050565b8273ffffffffffffffffffffffffffffffffffffffff1661246b8261142b565b73ffffffffffffffffffffffffffffffffffffffff16146124c1576040517f08c379a00000000000000000000000000000000000000000000000000000000081526004016124b890614990565b60405180910390fd5b600073ffffffffffffffffffffffffffffffffffffffff168273ffffffffffffffffffffffffffffffffffffffff1603612530576040517f08c379a000000000000000000000000000000000000000000000000000000000815260040161252790614a22565b60405180910390fd5b61253d8383836001612ab1565b8273ffffffffffffffffffffffffffffffffffffffff1661255d8261142b565b73ffffffffffffffffffffffffffffffffffffffff16146125b3576040517f08c379a00000000000000000000000000000000000000000000000000000000081526004016125aa90614990565b60405180910390fd5b6004600082815260200190815260200160002060006101000a81549073ffffffffffffffffffffffffffffffffffffffff02191690556001600360008573ffffffffffffffffffffffffffffffffffffffff1673ffffffffffffffffffffffffffffffffffffffff168152602001908152602001600020600082825403925050819055506001600360008473ffffffffffffffffffffffffffffffffffffffff1673ffffffffffffffffffffffffffffffffffffffff16815260200190815260200160002060008282540192505081905550816002600083815260200190815260200160002060006101000a81548173ffffffffffffffffffffffffffffffffffffffff021916908373ffffffffffffffffffffffffffffffffffffffff160217905550808273ffffffffffffffffffffffffffffffffffffffff168473ffffffffffffffffffffffffffffffffffffffff167fddf252ad1be2c89b69c2b068fc378daa952ba7f163c4a11628f55a4df523b3ef60405160405180910390a461273f8383836001612ab7565b505050565b600081600001549050919050565b60006002600083815260200190815260200160002060009054906101000a900473ffffffffffffffffffffffffffffffffffffffff169050919050565b6127a9828260405180602001604052806000815250612abd565b5050565b6001816000016000828254019250508190555050565b8173ffffffffffffffffffffffffffffffffffffffff168373ffffffffffffffffffffffffffffffffffffffff1603612831576040517f08c379a000000000000000000000000000000000000000000000000000000000815260040161282890614a8e565b60405180910390fd5b80600560008573ffffffffffffffffffffffffffffffffffffffff1673ffffffffffffffffffffffffffffffffffffffff16815260200190815260200160002060008473ffffffffffffffffffffffffffffffffffffffff1673ffffffffffffffffffffffffffffffffffffffff16815260200190815260200160002060006101000a81548160ff0219169083151502179055508173ffffffffffffffffffffffffffffffffffffffff168373ffffffffffffffffffffffffffffffffffffffff167f17307eab39ab6107e8899845ad3d59bd9653f200f220920489ca2b5937696c31836040516129229190613151565b60405180910390a3505050565b61293a84848461244b565b61294684848484612b18565b612985576040517f08c379a000000000000000000000000000000000000000000000000000000000815260040161297c90614b20565b60405180910390fd5b50505050565b606060405180602001604052806000815250905090565b6060600060016129b184612c9f565b01905060008167ffffffffffffffff8111156129d0576129cf6133d0565b5b6040519080825280601f01601f191660200182016040528015612a025781602001600182028036833780820191505090505b509050600082602001820190505b600115612a65578080600190039150507f3031323334353637383961626364656600000000000000000000000000000000600a86061a8153600a8581612a5957612a586144f6565b5b04945060008503612a10575b819350505050919050565b60008073ffffffffffffffffffffffffffffffffffffffff16612a9283612752565b73ffffffffffffffffffffffffffffffffffffffff1614159050919050565b50505050565b50505050565b612ac78383612df2565b612ad46000848484612b18565b612b13576040517f08c379a0000000000000000000000000000000000000000000000000000000008152600401612b0a90614b20565b60405180910390fd5b505050565b6000612b398473ffffffffffffffffffffffffffffffffffffffff1661300f565b15612c92578373ffffffffffffffffffffffffffffffffffffffff1663150b7a02612b626122f5565b8786866040518563ffffffff1660e01b8152600401612b849493929190614b95565b6020604051808303816000875af1925050508015612bc057506040513d601f19601f82011682018060405250810190612bbd9190614bf6565b60015b612c42573d8060008114612bf0576040519150601f19603f3d011682016040523d82523d6000602084013e612bf5565b606091505b506000815103612c3a576040517f08c379a0000000000000000000000000000000000000000000000000000000008152600401612c3190614b20565b60405180910390fd5b805181602001fd5b63150b7a0260e01b7bffffffffffffffffffffffffffffffffffffffffffffffffffffffff1916817bffffffffffffffffffffffffffffffffffffffffffffffffffffffff191614915050612c97565b600190505b949350505050565b600080600090507a184f03e93ff9f4daa797ed6e38ed64bf6a1f0100000000000000008310612cfd577a184f03e93ff9f4daa797ed6e38ed64bf6a1f0100000000000000008381612cf357612cf26144f6565b5b0492506040810190505b6d04ee2d6d415b85acef81000000008310612d3a576d04ee2d6d415b85acef81000000008381612d3057612d2f6144f6565b5b0492506020810190505b662386f26fc100008310612d6957662386f26fc100008381612d5f57612d5e6144f6565b5b0492506010810190505b6305f5e1008310612d92576305f5e1008381612d8857612d876144f6565b5b0492506008810190505b6127108310612db7576127108381612dad57612dac6144f6565b5b0492506004810190505b60648310612dda5760648381612dd057612dcf6144f6565b5b0492506002810190505b600a8310612de9576001810190505b80915050919050565b600073ffffffffffffffffffffffffffffffffffffffff168273ffffffffffffffffffffffffffffffffffffffff1603612e61576040517f08c379a0000000000000000000000000000000000000000000000000000000008152600401612e5890614c6f565b60405180910390fd5b612e6a81612a70565b15612eaa576040517f08c379a0000000000000000000000000000000000000000000000000000000008152600401612ea190614cdb565b60405180910390fd5b612eb8600083836001612ab1565b612ec181612a70565b15612f01576040517f08c379a0000000000000000000000000000000000000000000000000000000008152600401612ef890614cdb565b60405180910390fd5b6001600360008473ffffffffffffffffffffffffffffffffffffffff1673ffffffffffffffffffffffffffffffffffffffff16815260200190815260200160002060008282540192505081905550816002600083815260200190815260200160002060006101000a81548173ffffffffffffffffffffffffffffffffffffffff021916908373ffffffffffffffffffffffffffffffffffffffff160217905550808273ffffffffffffffffffffffffffffffffffffffff16600073ffffffffffffffffffffffffffffffffffffffff167fddf252ad1be2c89b69c2b068fc378daa952ba7f163c4a11628f55a4df523b3ef60405160405180910390a461300b600083836001612ab7565b5050565b6000808273ffffffffffffffffffffffffffffffffffffffff163b119050919050565b60405180610140016040528060608152602001600081526020016000815260200160608152602001600073ffffffffffffffffffffffffffffffffffffffff168152602001600081526020016000815260200160008152602001600081526020016000151581525090565b6000604051905090565b600080fd5b600080fd5b60007fffffffff0000000000000000000000000000000000000000000000000000000082169050919050565b6130e6816130b1565b81146130f157600080fd5b50565b600081359050613103816130dd565b92915050565b60006020828403121561311f5761311e6130a7565b5b600061312d848285016130f4565b91505092915050565b60008115159050919050565b61314b81613136565b82525050565b60006020820190506131666000830184613142565b92915050565b600081519050919050565b600082825260208201905092915050565b60005b838110156131a657808201518184015260208101905061318b565b60008484015250505050565b6000601f19601f8301169050919050565b60006131ce8261316c565b6131d88185613177565b93506131e8818560208601613188565b6131f1816131b2565b840191505092915050565b6000602082019050818103600083015261321681846131c3565b905092915050565b6000819050919050565b6132318161321e565b811461323c57600080fd5b50565b60008135905061324e81613228565b92915050565b60006020828403121561326a576132696130a7565b5b60006132788482850161323f565b91505092915050565b600073ffffffffffffffffffffffffffffffffffffffff82169050919050565b60006132ac82613281565b9050919050565b6132bc816132a1565b82525050565b60006020820190506132d760008301846132b3565b92915050565b6132e6816132a1565b81146132f157600080fd5b50565b600081359050613303816132dd565b92915050565b600080604083850312156133205761331f6130a7565b5b600061332e858286016132f4565b925050602061333f8582860161323f565b9150509250929050565b6133528161321e565b82525050565b600060208201905061336d6000830184613349565b92915050565b60008060006060848603121561338c5761338b6130a7565b5b600061339a868287016132f4565b93505060206133ab868287016132f4565b92505060406133bc8682870161323f565b9150509250925092565b600080fd5b600080fd5b7f4e487b7100000000000000000000000000000000000000000000000000000000600052604160045260246000fd5b613408826131b2565b810181811067ffffffffffffffff82111715613427576134266133d0565b5b80604052505050565b600061343a61309d565b905061344682826133ff565b919050565b600067ffffffffffffffff821115613466576134656133d0565b5b61346f826131b2565b9050602081019050919050565b82818337600083830152505050565b600061349e6134998461344b565b613430565b9050828152602081018484840111156134ba576134b96133cb565b5b6134c584828561347c565b509392505050565b600082601f8301126134e2576134e16133c6565b5b81356134f284826020860161348b565b91505092915050565b60008060408385031215613512576135116130a7565b5b600083013567ffffffffffffffff8111156135305761352f6130ac565b5b61353c858286016134cd565b925050602061354d858286016132f4565b9150509250929050565b600081519050919050565b600082825260208201905092915050565b6000819050602082019050919050565b600082825260208201905092915050565b600061359f8261316c565b6135a98185613583565b93506135b9818560208601613188565b6135c2816131b2565b840191505092915050565b6135d68161321e565b82525050565b60006135e782613281565b9050919050565b6135f7816135dc565b82525050565b61360681613136565b82525050565b600061014083016000830151848203600086015261362a8282613594565b915050602083015161363f60208601826135cd565b50604083015161365260408601826135cd565b506060830151848203606086015261366a8282613594565b915050608083015161367f60808601826135ee565b5060a083015161369260a08601826135cd565b5060c08301516136a560c08601826135cd565b5060e08301516136b860e08601826135cd565b506101008301516136cd6101008601826135cd565b506101208301516136e26101208601826135fd565b508091505092915050565b60006136f9838361360c565b905092915050565b6000602082019050919050565b600061371982613557565b6137238185613562565b93508360208202850161373585613573565b8060005b85811015613771578484038952815161375285826136ed565b945061375d83613701565b925060208a01995050600181019050613739565b50829750879550505050505092915050565b6000602082019050818103600083015261379d818461370e565b905092915050565b600080604083850312156137bc576137bb6130a7565b5b60006137ca8582860161323f565b925050602083013567ffffffffffffffff8111156137eb576137ea6130ac565b5b6137f7858286016134cd565b9150509250929050565b600060208284031215613817576138166130a7565b5b6000613825848285016132f4565b91505092915050565b600080fd5b600080fd5b613841816135dc565b811461384c57600080fd5b50565b60008135905061385e81613838565b92915050565b61386d81613136565b811461387857600080fd5b50565b60008135905061388a81613864565b92915050565b600061014082840312156138a7576138a661382e565b5b6138b2610140613430565b9050600082013567ffffffffffffffff8111156138d2576138d1613833565b5b6138de848285016134cd565b60008301525060206138f28482850161323f565b60208301525060406139068482850161323f565b604083015250606082013567ffffffffffffffff81111561392a57613929613833565b5b613936848285016134cd565b606083015250608061394a8482850161384f565b60808301525060a061395e8482850161323f565b60a08301525060c06139728482850161323f565b60c08301525060e06139868482850161323f565b60e08301525061010061399b8482850161323f565b610100830152506101206139b18482850161387b565b6101208301525092915050565b600080604083850312156139d5576139d46130a7565b5b600083013567ffffffffffffffff8111156139f3576139f26130ac565b5b6139ff858286016134cd565b925050602083013567ffffffffffffffff811115613a2057613a1f6130ac565b5b613a2c85828601613890565b9150509250929050565b60008060408385031215613a4d57613a4c6130a7565b5b6000613a5b858286016132f4565b9250506020613a6c8582860161387b565b9150509250929050565b600067ffffffffffffffff821115613a9157613a906133d0565b5b613a9a826131b2565b9050602081019050919050565b6000613aba613ab584613a76565b613430565b905082815260208101848484011115613ad657613ad56133cb565b5b613ae184828561347c565b509392505050565b600082601f830112613afe57613afd6133c6565b5b8135613b0e848260208601613aa7565b91505092915050565b60008060008060808587031215613b3157613b306130a7565b5b6000613b3f878288016132f4565b9450506020613b50878288016132f4565b9350506040613b618782880161323f565b925050606085013567ffffffffffffffff811115613b8257613b816130ac565b5b613b8e87828801613ae9565b91505092959194509250565b613ba3816135dc565b82525050565b6000610140820190508181036000830152613bc4818d6131c3565b9050613bd3602083018c613349565b613be0604083018b613349565b8181036060830152613bf2818a6131c3565b9050613c016080830189613b9a565b613c0e60a0830188613349565b613c1b60c0830187613349565b613c2860e0830186613349565b613c36610100830185613349565b613c44610120830184613142565b9b9a5050505050505050505050565b60008060408385031215613c6a57613c696130a7565b5b6000613c788582860161323f565b9250506020613c898582860161323f565b9150509250929050565b60008060408385031215613caa57613ca96130a7565b5b6000613cb8858286016132f4565b9250506020613cc9858286016132f4565b9150509250929050565b7f4e487b7100000000000000000000000000000000000000000000000000000000600052602260045260246000fd5b60006002820490506001821680613d1a57607f821691505b602082108103613d2d57613d2c613cd3565b5b50919050565b7f4552433732313a20617070726f76616c20746f2063757272656e74206f776e6560008201527f7200000000000000000000000000000000000000000000000000000000000000602082015250565b6000613d8f602183613177565b9150613d9a82613d33565b604082019050919050565b60006020820190508181036000830152613dbe81613d82565b9050919050565b7f4552433732313a20617070726f76652063616c6c6572206973206e6f7420746f60008201527f6b656e206f776e6572206f7220617070726f76656420666f7220616c6c000000602082015250565b6000613e21603d83613177565b9150613e2c82613dc5565b604082019050919050565b60006020820190508181036000830152613e5081613e14565b9050919050565b7f4552433732313a2063616c6c6572206973206e6f7420746f6b656e206f776e6560008201527f72206f7220617070726f76656400000000000000000000000000000000000000602082015250565b6000613eb3602d83613177565b9150613ebe82613e57565b604082019050919050565b60006020820190508181036000830152613ee281613ea6565b9050919050565b7f4475706c69636174652050726f64756374696f6e20486f757365000000000000600082015250565b6000613f1f601a83613177565b9150613f2a82613ee9565b602082019050919050565b60006020820190508181036000830152613f4e81613f12565b9050919050565b7f4e6f7420616e2041646d696e2c206e6f20616363657373000000000000000000600082015250565b6000613f8b601783613177565b9150613f9682613f55565b602082019050919050565b60006020820190508181036000830152613fba81613f7e565b9050919050565b60008190508160005260206000209050919050565b60006020601f8301049050919050565b600082821b905092915050565b6000600883026140237fffffffffffffffffffffffffffffffffffffffffffffffffffffffffffffffff82613fe6565b61402d8683613fe6565b95508019841693508086168417925050509392505050565b6000819050919050565b600061406a6140656140608461321e565b614045565b61321e565b9050919050565b6000819050919050565b6140848361404f565b61409861409082614071565b848454613ff3565b825550505050565b600090565b6140ad6140a0565b6140b881848461407b565b505050565b5b818110156140dc576140d16000826140a5565b6001810190506140be565b5050565b601f821115614121576140f281613fc1565b6140fb84613fd6565b8101602085101561410a578190505b61411e61411685613fd6565b8301826140bd565b50505b505050565b600082821c905092915050565b600061414460001984600802614126565b1980831691505092915050565b600061415d8383614133565b9150826002028217905092915050565b6141768261316c565b67ffffffffffffffff81111561418f5761418e6133d0565b5b6141998254613d02565b6141a48282856140e0565b600060209050601f8311600181146141d757600084156141c5578287015190505b6141cf8582614151565b865550614237565b601f1984166141e586613fc1565b60005b8281101561420d578489015182556001820191506020850194506020810190506141e8565b8683101561422a5784890151614226601f891682614133565b8355505b6001600288020188555050505b505050505050565b7f4e487b7100000000000000000000000000000000000000000000000000000000600052601160045260246000fd5b60006142798261321e565b91507fffffffffffffffffffffffffffffffffffffffffffffffffffffffffffffffff82036142ab576142aa61423f565b5b600182019050919050565b7f4e487b7100000000000000000000000000000000000000000000000000000000600052603260045260246000fd5b600081905092915050565b60006142fb8261316c565b61430581856142e5565b9350614315818560208601613188565b80840191505092915050565b600061432d82846142f0565b915081905092915050565b6000815461434581613d02565b61434f81866142e5565b9450600182166000811461436a576001811461437f576143b2565b60ff19831686528115158202860193506143b2565b61438885613fc1565b60005b838110156143aa5781548189015260018201915060208101905061438b565b838801955050505b50505092915050565b60006143c78284614338565b915081905092915050565b7f4120746f6b656e206973206e6f742070726573656e7420666f7220746869732060008201527f6d6f766965000000000000000000000000000000000000000000000000000000602082015250565b600061442e602583613177565b9150614439826143d2565b604082019050919050565b6000602082019050818103600083015261445d81614421565b9050919050565b7f526573616c65206973206e6f7420616c6c6f77656420666f722074686973206d60008201527f6f76696500000000000000000000000000000000000000000000000000000000602082015250565b60006144c0602483613177565b91506144cb82614464565b604082019050919050565b600060208201905081810360008301526144ef816144b3565b9050919050565b7f4e487b7100000000000000000000000000000000000000000000000000000000600052601260045260246000fd5b60006145308261321e565b915061453b8361321e565b92508261454b5761454a6144f6565b5b828204905092915050565b60006145618261321e565b915061456c8361321e565b925082820261457a8161321e565b915082820484148315176145915761459061423f565b5b5092915050565b60006145a38261321e565b91506145ae8361321e565b92508282019050808211156145c6576145c561423f565b5b92915050565b60006145d78261321e565b91506145e28361321e565b92508282039050818111156145fa576145f961423f565b5b92915050565b7f4552433732313a20696e76616c696420746f6b656e2049440000000000000000600082015250565b6000614636601883613177565b915061464182614600565b602082019050919050565b6000602082019050818103600083015261466581614629565b9050919050565b7f4552433732313a2061646472657373207a65726f206973206e6f74206120766160008201527f6c6964206f776e65720000000000000000000000000000000000000000000000602082015250565b60006146c8602983613177565b91506146d38261466c565b604082019050919050565b600060208201905081810360008301526146f7816146bb565b9050919050565b7f4e6f74206120726567697374657265642070726f64756374696f6e20686f757360008201527f6500000000000000000000000000000000000000000000000000000000000000602082015250565b600061475a602183613177565b9150614765826146fe565b604082019050919050565b600060208201905081810360008301526147898161474d565b9050919050565b7f4120746f6b656e20697320616c72656164792070726573656e7420666f72207460008201527f686973206d6f7669650000000000000000000000000000000000000000000000602082015250565b60006147ec602983613177565b91506147f782614790565b604082019050919050565b6000602082019050818103600083015261481b816147df565b9050919050565b7f496e76616c6964204d696e204d61782076616c75657300000000000000000000600082015250565b6000614858601683613177565b915061486382614822565b602082019050919050565b600060208201905081810360008301526148878161484b565b9050919050565b600061489a82856142f0565b91506148a682846142f0565b91508190509392505050565b7f4e6f7420746865206f776e6572206f662074686520746f6b656e000000000000600082015250565b60006148e8601a83613177565b91506148f3826148b2565b602082019050919050565b60006020820190508181036000830152614917816148db565b9050919050565b7f4552433732313a207472616e736665722066726f6d20696e636f72726563742060008201527f6f776e6572000000000000000000000000000000000000000000000000000000602082015250565b600061497a602583613177565b91506149858261491e565b604082019050919050565b600060208201905081810360008301526149a98161496d565b9050919050565b7f4552433732313a207472616e7366657220746f20746865207a65726f2061646460008201527f7265737300000000000000000000000000000000000000000000000000000000602082015250565b6000614a0c602483613177565b9150614a17826149b0565b604082019050919050565b60006020820190508181036000830152614a3b816149ff565b9050919050565b7f4552433732313a20617070726f766520746f2063616c6c657200000000000000600082015250565b6000614a78601983613177565b9150614a8382614a42565b602082019050919050565b60006020820190508181036000830152614aa781614a6b565b9050919050565b7f4552433732313a207472616e7366657220746f206e6f6e20455243373231526560008201527f63656976657220696d706c656d656e7465720000000000000000000000000000602082015250565b6000614b0a603283613177565b9150614b1582614aae565b604082019050919050565b60006020820190508181036000830152614b3981614afd565b9050919050565b600081519050919050565b600082825260208201905092915050565b6000614b6782614b40565b614b718185614b4b565b9350614b81818560208601613188565b614b8a816131b2565b840191505092915050565b6000608082019050614baa60008301876132b3565b614bb760208301866132b3565b614bc46040830185613349565b8181036060830152614bd68184614b5c565b905095945050505050565b600081519050614bf0816130dd565b92915050565b600060208284031215614c0c57614c0b6130a7565b5b6000614c1a84828501614be1565b91505092915050565b7f4552433732313a206d696e7420746f20746865207a65726f2061646472657373600082015250565b6000614c59602083613177565b9150614c6482614c23565b602082019050919050565b60006020820190508181036000830152614c8881614c4c565b9050919050565b7f4552433732313a20746f6b656e20616c7265616479206d696e74656400000000600082015250565b6000614cc5601c83613177565b9150614cd082614c8f565b602082019050919050565b60006020820190508181036000830152614cf481614cb8565b905091905056fea2646970667358221220e9e16cc1d19513e265b89b2dc994bbc65f6e3fe2e0384f903301dd3c6e7b461664736f6c63430008130033",
  "immutableReferences": {},
  "source": "// SPDX-License-Identifier: UNLICENSED\npragma solidity ^0.8.0;\n\nimport \"../node_modules/@openzeppelin/contracts/token/ERC721/ERC721.sol\";\nimport \"../node_modules/@openzeppelin/contracts/utils/Counters.sol\";\n\ncontract FilmToken is ERC721 {\n    using Counters for Counters.Counter;\n    Counters.Counter public tokenIds;\n\n    struct Token {\n        string movieName;\n        uint256 tokenId;\n        uint basePrice;\n        string productionCompany;\n        address payable ownerAddr;\n        uint minTime;\n        uint maxTime;\n        uint apprPercent;\n        uint deprPercent;\n\n        bool resale;\n    }\n\n    Token[] allTokens;\n    address public admin;\n    mapping(uint256 => Token) public tokenIdToTokenMap;\n    mapping(address=>string) productionAddrToNameMap;\n    mapping(string=>uint) nameTokenIdMap;\n    mapping(uint=>address) tokenIdToOwnerMap;\n\n    modifier duplicateProdHouse (address addr){\n        bool duplicate = bytes(productionAddrToNameMap[addr]).length > 0 ;\n        require(!duplicate,\"Duplicate Production House\");\n        _;\n    }\n\n    modifier onlyAdmin{\n        require(msg.sender == admin,\"Not an Admin, no access\");\n        _;\n    }\n\n    modifier validProdHouse(address addr){\n        bool duplicate = bytes(productionAddrToNameMap[addr]).length > 0 ;\n        require(duplicate,\"Not a registered production house\");\n        _;\n    }\n\n    modifier duplicateMovieToken(string memory name){ // self exp.\n        bool duplicate = false;\n        for(uint i=0;i<allTokens.length;i++){\n\n            if(keccak256(abi.encodePacked(allTokens[i].movieName)) == keccak256(abi.encodePacked(name))){\n                duplicate = true;break;\n            }\n        }\n\n        require(!duplicate,\"A token is already present for this movie\");\n        _;\n    }\n\n    modifier validMovieToken(string memory name){ // self exp.\n        bool duplicate = false;\n        for(uint i=0;i<allTokens.length;i++){\n\n            if(keccak256(abi.encodePacked(allTokens[i].movieName)) == keccak256(abi.encodePacked(name))){\n                duplicate = true;break;\n            }\n        }\n\n        require(duplicate,\"A token is not present for this movie\");\n        _;\n    }\n\n    modifier validMinMaxValues(uint min,uint max){ // min (both days and appr/depr, should be +ve\n        require(min<=max && min>0 && max>0,\"Invalid Min Max values\");\n        _;\n    }\n\n    modifier checkTokenOwner(uint tokenId){\n        require(tokenIdToOwnerMap[tokenId]==msg.sender,\"Not the owner of the token\");\n        _;\n    }\n\n    constructor() ERC721(\"MovieTokenization\",\"MVTK\"){\n        admin = msg.sender;\n    }\n\n    function registerProductionHouse(string memory name,address addr) public duplicateProdHouse(msg.sender) onlyAdmin{\n        productionAddrToNameMap[addr] = name;\n    }\n    // uint appr, uint depr,uint minTime,uint maxTime, uint baseValue)\n\n    function createMovieToken(string memory movieName, Token memory input) public validProdHouse(msg.sender) duplicateMovieToken(movieName) validMinMaxValues(input.minTime,input.maxTime) validMinMaxValues(input.apprPercent,input.deprPercent){\n        //check if the user is a registerd prod house or not, handled in validProdHouse modifier\n        //check for duplicate token\n        // string memory prodName = productionAddrToNameMap[msg.sender];\n        //check if input values are valid\n        // address payable sender = payable(msg.sender);\n        Token memory newToken = Token(movieName,tokenIds.current(),input.basePrice,productionAddrToNameMap[msg.sender],payable(msg.sender),input.minTime,input.maxTime,input.apprPercent,input.deprPercent,true);\n\n        nameTokenIdMap[movieName] = tokenIds.current();\n        tokenIdToTokenMap[tokenIds.current()] = newToken;\n        tokenIdToOwnerMap[tokenIds.current()] = msg.sender;\n        _safeMint(msg.sender, tokenIds.current());\n        tokenIds.increment();\n        allTokens.push(newToken);\n\n\n    }\n\n    function buyMovieToken(uint dayss, string memory movieName) public payable validMovieToken(movieName){ //changed tokenId to movieName, as there's no visibility provided right now\n        //check if the movieName is valid, in modifier\n        //days can be +/-, - represents earlier, + later\n        uint tokenId = nameTokenIdMap[movieName];\n        Token memory token = tokenIdToTokenMap[tokenId];\n        require(token.resale == true, \"Resale is not allowed for this movie\");\n        uint value = token.basePrice;\n        uint minDays = token.minTime;\n        uint maxDays = token.maxTime;\n\n        uint finalValue = value;\n\n        if(dayss<0){\n            if(dayss>minDays){//highest cost\n                finalValue += finalValue * (token.apprPercent/100);\n                finalValue += finalValue * (token.apprPercent/100);\n            }else{//second highest\n                finalValue += finalValue * (token.apprPercent/100);\n            }\n        }else if(dayss>0){\n            if(dayss>maxDays){//least cost\n                finalValue -= finalValue * (token.apprPercent/100);\n                finalValue -= finalValue * (token.apprPercent/100);\n            }else{//second least\n                finalValue -= finalValue * (token.apprPercent/100);\n            }\n        }\n\n        //get token owner and transfer ether\n        token.ownerAddr.transfer(msg.value); // failure of this reverts everything needn't explicitly handle for now, TODO: better, give a proper error message\n\n        //change ownership\n        token.ownerAddr = payable(msg.sender);\n        //also in map\n        tokenIdToOwnerMap[tokenId] = msg.sender;\n        //disable resale\n        token.resale  = false;\n        //change in token list\n        for(uint i=0;i<allTokens.length;i++){\n            if(allTokens[i].tokenId == tokenId){\n                allTokens[i].ownerAddr = payable(msg.sender);\n            }\n        }\n\n    }\n\n\n    function appreciateTokenValue(uint256 tokenId, uint value) public checkTokenOwner(tokenId){ //how will the user know tokenid, remember? give him visibility\n        tokenIdToTokenMap[tokenId].basePrice += value;\n    }\n\n    function depreciateTokenValue(uint256 tokenId, uint value) public checkTokenOwner(tokenId){\n        tokenIdToTokenMap[tokenId].basePrice -=  value;\n    }\n\n    function enableOrDisableResale(uint tokenId) public checkTokenOwner(tokenId){\n        if(tokenIdToTokenMap[tokenId].resale == true){\n            tokenIdToTokenMap[tokenId].resale = false;\n        }else{\n            tokenIdToTokenMap[tokenId].resale = true;\n        }\n    }\n\n\n    function viewTokens() public view returns(Token[] memory){\n\n        Token[] memory result = new Token[](allTokens.length);\n        uint index = 0;\n        for(uint i=0;i<=tokenIds.current();i++){ // no support to deleting tokens, so looping through all tokenids is equal to keys\n\n            if(tokenIdToTokenMap[i].ownerAddr == msg.sender){\n                result[index++]=tokenIdToTokenMap[i];\n            }\n        }\n        return result;\n    }\n\n    uint256 private value;\n\n    function getValue() public view returns (uint256) {\n        return value;\n    }\n\n    function setValue(uint256 newValue) public {\n        value = newValue;\n    }\n\n}\n",
  "sourcePath": "/Users/saisvasgudimalla/Documents/Nani/MS_CS_UB/Spring_2023/Blockchain/FilmToken-Dapp/FilmToken-contract/contracts/FilmToken.sol",
  "compiler": {
    "name": "solc",
    "version": "0.8.19+commit.7dd6d404.Emscripten.clang"
  },
  "schemaVersion": "3.4.13",
  "updatedAt": "2023-04-27T01:38:17.843Z",
  "networkType": "ethereum",
  "devdoc": {
    "events": {
      "Approval(address,address,uint256)": {
        "details": "Emitted when `owner` enables `approved` to manage the `tokenId` token."
      },
      "ApprovalForAll(address,address,bool)": {
        "details": "Emitted when `owner` enables or disables (`approved`) `operator` to manage all of its assets."
      },
      "Transfer(address,address,uint256)": {
        "details": "Emitted when `tokenId` token is transferred from `from` to `to`."
      }
    },
    "kind": "dev",
    "methods": {
      "approve(address,uint256)": {
        "details": "See {IERC721-approve}."
      },
      "balanceOf(address)": {
        "details": "See {IERC721-balanceOf}."
      },
      "getApproved(uint256)": {
        "details": "See {IERC721-getApproved}."
      },
      "isApprovedForAll(address,address)": {
        "details": "See {IERC721-isApprovedForAll}."
      },
      "name()": {
        "details": "See {IERC721Metadata-name}."
      },
      "ownerOf(uint256)": {
        "details": "See {IERC721-ownerOf}."
      },
      "safeTransferFrom(address,address,uint256)": {
        "details": "See {IERC721-safeTransferFrom}."
      },
      "safeTransferFrom(address,address,uint256,bytes)": {
        "details": "See {IERC721-safeTransferFrom}."
      },
      "setApprovalForAll(address,bool)": {
        "details": "See {IERC721-setApprovalForAll}."
      },
      "supportsInterface(bytes4)": {
        "details": "See {IERC165-supportsInterface}."
      },
      "symbol()": {
        "details": "See {IERC721Metadata-symbol}."
      },
      "tokenURI(uint256)": {
        "details": "See {IERC721Metadata-tokenURI}."
      },
      "transferFrom(address,address,uint256)": {
        "details": "See {IERC721-transferFrom}."
      }
    },
    "version": 1
  },
  "userdoc": {
    "kind": "user",
    "methods": {},
    "version": 1
  }
}